:020000040800F2
:100000003825002021020008391D00085518000875
:10001000351D0008C3040008392400080000000052
:10002000000000000000000000000000890100083E
:10003000C704000800000000CD0100082D220008C0
:100040003B0200083B0200083B0200083B0200089C
:100050003B0200083B0200083B0200083B0200088C
:100060003B0200083B0200083B0200083B0200087C
:100070003B0200083B0200083B0200083B0200086C
:100080003B0200083B0200083B0200083B0200085C
:100090003B0200083B0200083B0200083B0200084C
:1000A0003B0200083B0200083B0200083B0200083C
:1000B0003B020008C9220008000000003B020008C3
:1000C0003B02000800000000000000003B020008A6
:1000D000000000003B0200083B0200080000000096
:1000E0003B0200083B0200083B02000800F002F857
:1000F00000F03AF80AA090E8000C82448344AAF188
:100100000107DA4501D100F02FF8AFF2090EBAE885
:100110000F0013F0010F18BFFB1A43F0010318473B
:10012000305F0000505F0000103A24BF78C878C1EB
:10013000FAD8520724BF30C830C144BF04680C60ED
:10014000704700000023002400250026103A28BF35
:1001500078C1FBD8520728BF30C148BF0B60704739
:100160001FB51FBD10B510BD00F071F91146FFF7A6
:10017000F7FF02F0ADF900F08FF903B4FFF7F2FFDB
:1001800003BC00F097F90000224B19680868B0E83A
:10019000F00F80F30988BFF36F8F4FF0000080F3FA
:1001A00011884EF00D0E70470000000006480068F0
:1001B000006880F3088862B661B6BFF34F8FBFF363
:1001C0006F8F00DF00BF00BF08ED00E0EFF3098094
:1001D000BFF36F8F0F4B1A6820E9F00F106008B55E
:1001E0004FF0500080F31188BFF34F8FBFF36F8F34
:1001F00003F048FA4FF0000080F31188BDE8084092
:1002000019680868B0E8F00F80F30988BFF36F8FB2
:10021000704700BF18000020EFF305807047000012
:100220000948804709480047FEE7FEE7FEE7FEE78A
:10023000FEE7FEE7FEE7FEE7FEE7FEE704480549C6
:10024000054A064B70470000C7220008ED00000871
:10025000381F0020382500203821002038210020B8
:1002600040EA010310B59B070FD1042A0DD310C833
:1002700008C9121F9C42F8D020BA19BA884201D985
:10028000012010BD4FF0FF3010BD1AB1D30703D0CD
:10029000521C07E0002010BD10F8013B11F8014B83
:1002A0001B1B07D110F8013B11F8014B1B1B01D19F
:1002B000921EF1D1184610BD032A40F2308010F092
:1002C000030C00F0158011F8013BBCF1020F6244F1
:1002D00098BF11F801CB00F8013B38BF11F8013B82
:1002E000A2F1040298BF00F801CB38BF00F8013B2F
:1002F00011F0030300F07980083AC0F0088051F84B
:10030000043B083A51F804CBA0E80810F5E7121DA9
:100310005CBF51F8043B40F8043BAFF30080D207C8
:1003200024BF11F8013B11F801CB48BF11F8012B94
:1003300024BF00F8013B00F801CB48BF00F8012BB7
:10034000704702F0FF0343EA032242EA024200F050
:1003500002B84FF000020429C0F0128010F0030C24
:1003600000F01B80CCF1040CBCF1020F18BF00F8A8
:10037000012BA8BF20F8022BA1EB0C0100F00DB857
:100380005FEAC17C24BF00F8012B00F8012B48BFB5
:1003900000F8012B70474FF0000200B51346944659
:1003A0009646203922BFA0E80C50A0E80C50B1F1CD
:1003B0002001BFF4F7AF090728BFA0E80C5048BFE1
:1003C0000CC05DF804EB890028BF40F8042B08BF7F
:1003D000704748BF20F8022B11F0804F18BF00F87B
:1003E000012B704770477047704710B5203AC0F036
:1003F0000B80B1E81850203AA0E81850B1E8185026
:10040000A0E81850BFF4F5AF5FEA027C24BFB1E862
:100410001850A0E8185044BF18C918C0BDE81040D3
:100420005FEA827C24BF51F8043B40F8043B08BFDC
:100430007047D20728BF31F8023B48BF11F8012BA3
:1004400028BF20F8023B48BF00F8012B70477546D3
:1004500000F02CF8AE4605006946534620F0070030
:10046000854618B020B5FFF7E9FEBDE820404FF003
:1004700000064FF000074FF000084FF0000B21F08E
:100480000701AC46ACE8C009ACE8C009ACE8C0095B
:10049000ACE8C0098D46704710B50446AFF3008044
:1004A0002046BDE81040FFF768BE000000487047D6
:1004B000D41E002001491820ABBEFEE72600020032
:1004C000704700BFFEE7704772B600BFFEE700004E
:1004D0002DE9F84703460022944666E14FF00108F3
:1004E00008FA02F4D1F8008008EA0400A0427DD1A5
:1004F000DFF8CCA2D1F80480A8EB0A09D0453AD0A5
:1005000014DCB8F1030F50D009DCB8F1000F31D082
:10051000B8F1010F1CD0B8F1020F49D120E0B8F1B9
:10052000110F18D0B8F1120F42D11EE0B9F5881F93
:1005300025D006DCB9F5803F20D0B9F5801F37D132
:100540001AE0B9F5001F18D0B9F5041F30D117E033
:10055000D1F80CC02DE0D1F80C8008F1040C28E093
:10056000D1F80C8008F1080C23E0D1F80C8008F1D8
:100570000C0C1EE000BF00BF00BF00BF00BF00BFEB
:10058000D1F80880B8F1000F02D14FF0040C0BE055
:10059000D1F80880B8F1010F03D14FF0080C1C61AD
:1005A00002E04FF0080C5C6103E04FF0000C00E04B
:1005B00000BF00BFFF2801D8984601E003F10408FE
:1005C0004646FF2802D84FEA820803E0A2F1080855
:1005D0004FEA88084746D6F800804FF00F0909FA1D
:1005E00007F928EA09080CFA07F900E085E048EA6B
:1005F0000908C6F80080D1F8048008F08058B8F1E6
:10060000805F7AD100BFDFF8BC81D8F8188048F04D
:100610000108DFF8B091C9F81880C846D8F81880EA
:1006200008F00108CDF8008000BF00BF4FEAB938DC
:100630004FEA920958F829504FEA82784FEA187920
:100640004FF00F0808FA09F825EA0805DFF8788165
:10065000434502D14FF000080FE0DFF870814345B9
:1006600002D14FF0010808E0DFF86481434502D170
:100670004FF0020801E04FF003084FEA82794FEA99
:10068000197908FA09F848EA0505DFF848814FEAC0
:10069000920948F82950D1F8048008F48018B8F578
:1006A000801F0AD1DFF83081D8F8008048EA0008BE
:1006B000DFF82491C9F8008009E0DFF81C81D8F840
:1006C000008028EA0008DFF81091C9F80080D1F80E
:1006D000048008F40018B8F5001F0FD1DFF8F88087
:1006E00008F10408D8F8008048EA0008DFF8E8902C
:1006F00009F10409C9F800800EE055E0DFF8D88060
:1007000008F10408D8F8008028EA0008DFF8C8904B
:1007100009F10409C9F80080D1F8048008F4003810
:10072000B8F5003F0ED1DFF8B080A8F10408D8F882
:10073000008048EA0008DFF8A090A9F10409C9F890
:1007400000800DE0DFF89080A8F10408D8F8008060
:1007500028EA0008DFF88090A9F10409C9F80080B0
:10076000D1F8048008F48038B8F5803F0ED1DFF866
:100770006880A8F10808D8F8008048EA0008DFF887
:100780005890A9F10809C9F800800DE0DFF8488009
:10079000A8F10808D8F8008028EA0008DFF83890A7
:1007A000A9F10809C9F80080521CD1F8008028FA84
:1007B00002F8B8F1000F7FF491AEBDE8F8870000B1
:1007C000000011100010024000080140000C014020
:1007D00000100140080001400804014010B5C26843
:1007E00021EA020302EA010443EA0443036110BD63
:1007F0000AB1016101E00B04036170470148006820
:10080000704700000800002070B504460CB90120B4
:1008100070BD94F83D0028B9002084F83C002046C3
:1008200000F092F9242084F83D002068006820F050
:100830000100216808602068006840F400402168D9
:1008400008602068006820F400402168086000F01B
:10085000B1FB05465C496068884206D85B48854222
:1008600001D2012007E0002005E05948854201D26D
:10087000012000E00020012800D1C9E75548B5FB60
:10088000F0F62068406820F03F003043216848605F
:100890004D496068884201D8701C07E04FF496709B
:1008A00070434FF47A71B0FBF1F0401C2168096A83
:1008B00021F03F010843216808624349606888428B
:1008C00014D8681E61684900B0FBF1F0401CC0F309
:1008D0000B00042801D204203DE0681E6168490035
:1008E000B0FBF1F0401CC0F30B0034E0A06838B955
:1008F000681E616801EB4101B0FBF1F0401C0AE0A9
:10090000681E616801EBC10202EB0111B0FBF1F05E
:10091000401C40F48040C0F30B0008B901201AE0ED
:10092000A06848B9681E616801EB4101B0FBF1F0B5
:10093000401CC0F30B000CE0681E616801EBC102B3
:1009400002EB0111B0FBF1F0401CC0F30B0040F4CE
:10095000804040F400402168C9694CF6FF72914321
:1009600008432168C861D4E9070108432168096880
:1009700021F0C001084321680860D4E9031008434E
:100980002168896848F2FF329143084321688860F2
:10099000D4E9050108432168C96821F0FF01084333
:1009A0002168C8602068006840F001002168086084
:1009B00000202064202084F83D000020206384F87B
:1009C0003E0000BF24E70000A086010080841E00D6
:1009D00000093D0040420F002DE9F84304468946D6
:1009E00016461F46DDF82080FFF708FF054694F8FD
:1009F0003D0020287ED1192301225149204600952F
:100A000000F0DDFF10B10220BDE8F88300BF94F8CC
:100A10003C00012801D10220F6E7012084F83C00C7
:100A200000BF2068006800F0010028B92068006855
:100A300040F00100216808602068006820F4006030
:100A400021680860212084F83D00102084F83E00D1
:100A50000020206466626785608D20853948E062E9
:100A60002B4642464946204600F016FF08B10120B9
:100A7000CAE700BF0020009020684069009020680D
:100A80008069009000BF00BF44E02A4641462046EE
:100A900001F071F850B1206C042805D1206800687D
:100AA00040F40070216808600120ADE7606A0078BA
:100AB00021680861606A401C6062608D401E60852C
:100AC000208D401E208520684069C0F3800070B1F1
:100AD000208D60B1606A007821680861606A401CFE
:100AE0006062608D401E6085208D401E20852A46F4
:100AF000414600E022E0204600F02EFF50B1206C7D
:100B0000042805D12068006840F40070216808605E
:100B1000012079E7208D0028B7D12068006840F4D3
:100B2000007021680860202084F83D00002084F8CF
:100B30003E0000BF84F83C0000BF65E7022063E789
:100B4000020010000000FFFF10B586B00446002030
:100B5000029003900490059016492068884227D19E
:100B600000BF1548806940F00800134988610846B5
:100B7000806900F00800019000BF00BFC020029013
:100B800012200390002004900320059002A90B4836
:100B9000FFF79EFC00BF0848C06940F400100649FA
:100BA000C8610846C06900F40010019000BF00BF92
:100BB00006B010BD0054004000100240000C01407F
:100BC00003480068034909780844014908607047F0
:100BD000080000201000002010B50848006840F010
:100BE000100006490860032000F0E2F80F2000F032
:100BF00007F800F05FF8002010BD00000020024060
:100C00002DE9F04188B004460027B846002600BF11
:100C10002348C06940F002002149C8610846C06904
:100C200000F00200019000BF00BF02A903A800F07D
:100C300099F9069F1FB900F0BDF9054602E000F0E2
:100C4000B9F945001748B5FBF0F0A0F101081648C6
:100C50001649086040F2E7311448C160C0F80480CA
:100C6000002101618160816100F030FC064696B987
:100C70000E4800F05FFC06466EB91D2000F04AF8F1
:100C8000102C07D2002221461D2000F053F80848FE
:100C9000046000E00126304608B0BDE8F0810000A5
:100CA0000010024040420F000004004034010020C8
:100CB0000C00002008B500BF1448806940F0010016
:100CC000124988610846806900F00100009000BF69
:100CD00000BF00BF0846C06940F08050C8610846A8
:100CE000C06900F08050009000BF00BF00220F21BB
:100CF000901E00F01FF800BF0549486820F0E06032
:100D000040F00070486000BF08BD000000100240C5
:100D10000000014001460846002809DB00F01F03DF
:100D200001229A4043099B0003F1E023C3F800210C
:100D300000BF70472DE9F05F80460D46164600273C
:100D400001F09AFB074639462A46334601F0070070
:100D5000C0F1070ABAF1040F02D94FF0040A01E00A
:100D6000C0F1070AD14600F1040ABAF1070F02D216
:100D70004FF0000A01E0A0F1030AD4464FF0010A47
:100D80000AFA09FAAAF1010A0AEA020A0AFA0CFAAC
:100D90004FF0010B0BFA0CFBABF1010B0BEA030B51
:100DA0004AEA0B042146404601F06EFBBDE8F09F85
:100DB00000BF00F00702064B19684FF6FF03194009
:100DC000044B0B4343EA0221014B196000BF7047FB
:100DD0000CED00E00000FA0570B504460D460CB9B4
:100DE000012070BD5A48006800F00700A8420ED2EA
:100DF0005748006820F00700284355490860084616
:100E0000006800F00700A84201D00120E9E720783F
:100E100000F0020002281DD1207800F00400042810
:100E200005D14C48406840F4E0604A494860207869
:100E300000F00800082805D14648406840F460509A
:100E4000444948604348406820F0F000A1680843E6
:100E500040494860207800F0010078B360680128BC
:100E600006D13C48006800F4003090B90120B8E792
:100E70006068022806D13748006800F0007040B969
:100E80000120AEE73348006800F0020008B90120F5
:100E9000A7E73048406820F00300616808432D4907
:100EA0004860FFF7ABFC064609E0FFF7A7FC801B94
:100EB00041F28831884202D9032092E707E02548B1
:100EC000406800F00C006168B0EB810FEDD1204864
:100ED000006800F00700A8420ED91D48006820F005
:100EE000070028431A4908600846006800F0070018
:100EF000A84201D0012074E7207800F00400042803
:100F000007D11448406820F4E060E16808431149C3
:100F10004860207800F00800082808D10D48406893
:100F200020F46050216940EAC1000A49486000F09D
:100F300061F808494968C1F30311074A515CC84088
:100F40000649086006480068FFF75AFE002048E797
:100F500000200240001002403A4400081400002023
:100F60000C0000200F2202600D4A526802F00302BA
:100F700042600B4A526802F0F0028260084A5268EE
:100F800002F4E062C260064A526802F46052D2087B
:100F90000261044A126802F007020A60704700000A
:100FA0000010024000200240014800687047000025
:100FB0001400002000B5FFF7F7FF04494968C1F3AA
:100FC0000221034A515CC84000BD000000100240ED
:100FD0004A44000800B5FFF7E7FF04494968C1F338
:100FE000C221034A515CC84000BD0000001002400D
:100FF0004A44000870B5002100220024002300208C
:10100000134D696801F00C05F5B1042D02D0082DCF
:1010100019D101E00F4819E00F4DC1F38346AB5DD4
:1010200001F4803555B10A4D6D68C5F340450B4E4E
:10103000725D084D5D43B5FBF2F402E0084D03FB21
:1010400005F4204602E000BF024800BF00BF70BDAB
:101050000010024000127A002844000838440008BA
:1010600000093D00F8B504460CB90120F8BD207810
:1010700000F00100002878D0F848406800F00C002B
:1010800004280CD0F548406800F00C00082811D165
:10109000F248406800F48030B0F5803F0AD1EF4854
:1010A000006800F4003000285FD0606800285CD140
:1010B0000120DBE700BF6068B0F5803F06D1E7485C
:1010C000006840F48030E549086028E0606858B95D
:1010D000E248006820F48030E04908600846006873
:1010E00020F4802008601AE06068B0F5A02F0BD1D2
:1010F000DA48006840F48020D84908600846006853
:1011000040F4803008600AE0D448006820F4803061
:10111000D24908600846006820F48020086000BFBB
:10112000606888B1FFF76AFB054606E0FFF766FBDB
:10113000401B642801D9032098E7C848006800F4E0
:1011400000300028F2D010E0FFF758FB054606E01B
:10115000FFF754FB401B642801D9032086E7BF48F2
:10116000006800F400300028F2D1207800F002007E
:10117000022857D1B948406800F00C0050B1B74878
:10118000406800F00C00082818D1B448406800F40A
:10119000803098B9B148006800F0020020B12069A1
:1011A000012801D0012061E7AC48006820F0F80078
:1011B000616940EAC100A949086033E02069E8B1EB
:1011C0000120A7490860FFF719FB054606E0FFF775
:1011D00015FB401B022801D9032047E79F48006800
:1011E00000F002000028F2D09C48006820F0F800CF
:1011F000616940EAC1009949086013E000209849FC
:101200000860FFF7FBFA054606E0FFF7F7FA401B18
:10121000022801D9032029E79048006800F0020065
:101220000028F2D1207800F0080008282DD1A0690C
:10123000B8B101208B490860FFF7E0FA054606E0E7
:10124000FFF7DCFA401B022801D903200EE7834890
:10125000406A00F002000028F2D0012000F0A2FF56
:1012600013E000207F490860FFF7C8FA054606E052
:10127000FFF7C4FA401B022801D90320F6E677489D
:10128000406A00F002000028F2D1207800F004004B
:10129000042873D100277148C06900F0805070B9EC
:1012A00000BF6E48C06940F080506C49C861084674
:1012B000C06900F08050009000BF00BF01276A485D
:1012C000006800F48070B0B96748006840F480702E
:1012D00065490860FFF792FA054606E0FFF78EFAC7
:1012E000401B642801D90320C0E65F48006800F471
:1012F00080700028F2D000BFE068012806D157486E
:10130000006A40F001005549086227E0E06858B9DA
:101310005248006A20F00100504908620846006AFD
:1013200020F00400086219E0E06805280BD14B4862
:10133000006A40F00400494908620846006A40F02B
:10134000010008620AE04548006A20F001004349B4
:1013500008620846006A20F00400086200BFE068E6
:10136000A0B1FFF74BFA054609E0FFF747FA401B2B
:1013700041F28831884202D9032077E622E03748DB
:10138000006A00F002000028EFD012E0FFF736FA02
:10139000054608E0FFF732FA401B41F288318842E7
:1013A00001D9032062E62D48006A00F002000028FF
:1013B000F0D1012F05D12948C06920F0805027497C
:1013C000C86100BFE069C8B32448406800F00C0061
:1013D000082860D0E069022848D10020204908662A
:1013E000FFF70CFA054606E0FFF708FA401B022853
:1013F00001D903203AE61948006800F0007000287F
:10140000F2D1206AB0F5803F07D11448406820F43B
:101410000030A168084311494860D4E90801084335
:101420000E49496821F4741108430C4948600120B1
:101430000B490866FFF7E2F9054607E03DE0FFF7D4
:10144000DDF9401B022801D903200FE6034800689C
:1014500000F000700028F2D02FE0000000100240E1
:1014600000004242800442420070004000201449C3
:101470000866FFF7C3F9054606E0FFF7BFF9401B12
:10148000022801D90320F1E50E48006800F0007041
:101490000028F2D111E0E069012800D1E6E5094811
:1014A000466806F48031206A814204D106F4701146
:1014B000606A814201D00120D8E50020D6E5000015
:1014C00000004242001002407047704710B50446C9
:1014D0000CB9012010BD94F83D0028B9002084F813
:1014E0003C00204600F025F8022084F83D00211D34
:1014F000206800F0F1FE012084F8460000BF84F867
:101500003E0001213F200155402001554120015559
:1015100000BF00BF012084F8420043200155442051
:1015200001554520015500BF012084F83D000020F1
:10153000D0E77047014691F83D00012801D0012015
:101540007047022081F83D000868C06840F0010043
:101550000B68D860104B0868984207D00868B0F153
:10156000804F03D00D4B086898420CD10868806802
:1015700000F00702062A0CD00868006840F001005D
:101580000B68186005E00868006840F001000B680F
:1015900018600020D4E70000002C01400004004047
:1015A000704710B5044620680069C0F34000D8B108
:1015B0002068C068C0F34000B0B16FF0020021683D
:1015C0000861012020772068806900F0030018B1CD
:1015D0002046FFF7E5FF05E0204600F0ADF8204685
:1015E00000F0ABF80020207720680069C0F380008D
:1015F000D8B12068C068C0F38000B0B16FF00400BB
:1016000021680861022020772068806900F440701A
:1016100018B12046FFF7C4FF05E0204600F08CF823
:10162000204600F08AF80020207720680069C0F387
:10163000C000D8B12068C068C0F3C000B0B16FF07E
:10164000080021680861042020772068C06900F044
:10165000030018B12046FFF7A3FF05E0204600F085
:101660006BF8204600F069F80020207720680069B8
:10167000C0F30010D8B12068C068C0F30010B0B14A
:101680006FF0100021680861082020772068C06989
:1016900000F4407018B12046FFF782FF05E02046B5
:1016A00000F04AF8204600F048F800202077206833
:1016B000006900F0010058B12068C06800F0010026
:1016C00030B16FF0010021680861204600F036F863
:1016D00020680069C0F3C01058B12068C068C0F32A
:1016E000C01030B16FF08000216808612046FFF71C
:1016F000EBFE20680069C0F3801058B12068C06814
:10170000C0F3801030B16FF04000216808612046BE
:1017100000F020F820680069C0F3401058B120683C
:10172000C068C0F3401030B16FF02000216808613C
:101730002046FFF7CAFE10BD7047704710B504463B
:1017400003492068884201D1FFF73AFA10BD000032
:1017500000040040704710B504460CB9012010BDCC
:10176000A06900B100E000BF94F8410028B9002052
:1017700084F84000204600F029F8242084F8410035
:101780002068C06820F400502168C860204600F03E
:10179000D5FD2068006920F4904021680861206828
:1017A000406920F02A00216848612068C06840F440
:1017B00000502168C86000206064202084F8410047
:1017C00084F842000020606300BFC8E710B586B00F
:1017D0000446002002900390049005901A49206866
:1017E00088422ED100BF1948806940F480401749D3
:1017F00088610846806900F48040019000BF00BF06
:1018000000BF0846806940F004008861084680698E
:1018100000F00400019000BF00BF481502900220B4
:1018200003900320059002A90948FEF751FE4FF4EA
:101830008060029000200390049002A90448FEF703
:1018400047FE06B010BD0000003801400010024005
:101850000008014000BFFEE7014608684069C0F388
:101860008020B0B16FF480600A6850610020086386
:10187000202081F83D00002081F83E00086C40F0F7
:101880000400086400BF002081F83C0000BF012074
:1018900070470020FCE700002DE9F84304460D46A0
:1018A00017469846E66A082E04D0012E02D016F597
:1018B000803F06D12068006840F48070216808608D
:1018C00008E0206B122805D12068006840F4807081
:1018D000216808603B4600224FF001112046CDF8F8
:1018E000008000F06CF860B12068006800F480703F
:1018F000B0F5807F02D14FF4007020640320BDE872
:10190000F8832069B0F5804F04D105F0FE0021680E
:10191000086112E005F44070F02141EAE01021680E
:10192000086143463A460B49204600F0A7F808B143
:101930000120E4E7E8B22168086143463A460549D8
:10194000891F204600F09AF808B10120D7E700204F
:10195000D5E700000800010070B504460D461646A4
:1019600025E02046FFF778FF08B1012070BD681C14
:10197000E8B1FEF743FF801BA84200D8BDB920683C
:101980004069C0F3800090B900202063202084F8D3
:101990003D00002084F83E00206C40F020002064D0
:1019A00000BF002084F83C0000BF0120DEE7206873
:1019B0004069C0F380000028D3D00020D6E72DE98D
:1019C000F04104460D4617461E46DDF8188038E003
:1019D000701CA8B3FEF712FFA0EB0800B04200D8BD
:1019E00076BBC5F3074001280AD120684069A9B237
:1019F0000840A9B2884201D101200BE0002009E093
:101A000020688069A9B20840A9B2884201D10120AA
:101A100000E00020B84214D100202063202084F888
:101A20003D00002084F83E00206C40F0200020643F
:101A300000BF002084F83C0000BF0120BDE8F08119
:101A4000FFE7C5F3074001280AD120684069A9B221
:101A50000840A9B2884201D101200BE0002009E032
:101A600020688069A9B20840A9B2884201D101204A
:101A700000E00020B842ABD00020DFE72DE9F041C4
:101A800004460D4616461F4658E020684069C0F3DC
:101A90008020E8B12068006840F400702168086088
:101AA0006FF480602168486100202063202084F862
:101AB0003D00002084F83E00206C40F004002064CB
:101AC00000BF002084F83C0000BF0120BDE8F08189
:101AD000701C90B3FEF792FEC01BB04200D866BBEC
:101AE000C5F3074001280AD120684069A9B208401F
:101AF000A9B2884201D101200BE0002009E0206852
:101B00008069A9B20840A9B2884201D1012000E051
:101B1000002090B900202063202084F83D000020A0
:101B200084F83E00206C40F02000206400BF0020BC
:101B300084F83C0000BF0120C8E7FFE7C5F3074079
:101B400001280AD120684069A9B20840A9B2884298
:101B500001D101200BE0002009E020688069A9B2D2
:101B60000840A9B2884201D1012000E000200028ED
:101B70008BD00020AAE770B504460D46164625E036
:101B80002046FFF769FE08B1012070BD681CE8B16E
:101B9000FEF734FE801BA84200D8BDB9206840691A
:101BA000C0F3C01090B900202063202084F83D00CD
:101BB000002084F83E00206C40F02000206400BF2C
:101BC000002084F83C0000BF0120DEE72068406967
:101BD000C0F3C0100028D3D00020D6E710B5074AC4
:101BE0000021074800F0EAFC06490860064A002187
:101BF000064800F0E3FC0649086010BDE043000819
:101C0000CD2100080000002004440008E92100085C
:101C10000400002000B585B00020019002900390E0
:101C2000049000BF2448806940F010002249886178
:101C30000846806900F01000009000BF00BF00BFA0
:101C40000846806940F0200088610846806900F0FD
:101C50002000009000BF00BF00BF0846806940F030
:101C6000040088610846806900F00400009000BF0D
:101C700000BF00BF0846806940F008008861084640
:101C8000806900F00800009000BF00BF00224FF400
:101C900000510A48FEF7ACFD4FF4005001900120BE
:101CA0000290002003900220049001A90348FEF74F
:101CB0000FFC05B000BD0000001002400010014004
:101CC00010B50B480B4908600B48486000210948D3
:101CD0008160C1604FF480410161002141618161F7
:101CE000C1610162FEF790FD08B1FEF7EDFB10BD8A
:101CF0000054004098000020801A060010B50B48E0
:101D00000B4908604FF4E1304860002108488160C9
:101D1000C16001610C21416100218161C161FFF756
:101D20001AFD08B1FEF7D0FB10BD000000380140DD
:101D3000EC00002000BFFEE700BFFEE710B5AE20BC
:101D400000F000F9202000F0FDF8102000F0FAF873
:101D5000B02000F0F7F8C82000F0F4F8002000F000
:101D6000F1F8102000F0EEF8402000F0EBF88120B0
:101D700000F0E8F8DF2000F0E5F8A12000F0E2F83C
:101D8000A62000F0DFF8A82000F0DCF83F2000F0EB
:101D9000D9F8A42000F0D6F8D32000F0D3F8002022
:101DA00000F0D0F8D52000F0CDF8F02000F0CAF80F
:101DB000D92000F0C7F8222000F0C4F8DA2000F0A3
:101DC000C1F8122000F0BEF8DB2000F0BBF82020A4
:101DD00000F0B8F88D2000F0B5F8142000F0B2F84B
:101DE00000F006F800F0B8F9AF2000F0ABF810BD35
:101DF00010B54FF480610248FEF7ABFA10BD000049
:101E0000501A00202DE9FC430746884615461C461B
:101E1000DDF824902078CDE900092078C61DF01760
:101E200006EB5070C01061784843A5F12001D4F84A
:101E300004C001FB00C263784146384600F001F956
:101E4000BDE8FC832DE9FF4F85B0804617461C4650
:101E5000DDF8489000262178C81DC11700EB5171AC
:101E6000C91062785143091DC9B2049152E00020A3
:101E70000390B81900F0E2FA054605B94DE04FF0BD
:101E8000000B20E0616804980BFB001AB8192A4681
:101E90005146FEF7E5F990B92078CDE9000963785D
:101EA0000AF104024046069900F0CBF860784044FD
:101EB00000F0FF08701986B20120039006E00BF1D4
:101EC000010000F0FF0B207A5845DBDC00BF0398CF
:101ED00000BB012D0FD1CDF80090BA5DE3684046FC
:101EE0000699FFF78FFFE0684078404400F0FF0854
:101EF000701986B20EE0CDF800902022E3684046CB
:101F00000699FFF77FFFE0684078404400F0FF0843
:101F1000701986B2B85D0028A9D100BF09B0BDE82C
:101F2000F08F000038B504460D464FF0FF302B46C9
:101F30002246782100900248FEF74EFD38BD000091
:101F40009800002010B50446024844700221FFF7B3
:101F5000E9FF10BD940000202DE9FC4380460C46AB
:101F600016461F462046E11704EB5171C1F3C7091D
:101F70002046E11704EB5171C910A4EBC101CDB2A9
:101F80000720CDE9000706FA05F0C2B22B4641460C
:101F9000484600F0A3F875B1681EC0B2C5F108014B
:101FA00046FA01F209F10101CDE90007C8B20023A8
:101FB000414600F093F8BDE8FC832DE9FC478146DB
:101FC0000C4616461F46DDF828802046E11704EB34
:101FD0005171C1F3C70A2046E11704EB5171C910D2
:101FE000A4EBC101CDB2E81908281BDD0720CDE91B
:101FF000000806FA05F0C2B22B464946504600F0EA
:102000006DF878190938C0B2C5F1080146FA01F235
:102010000AF10101CDE90008C8B20023494600F0E9
:102020005DF80CE0E819401EC0B2CDE9000806FAE0
:1020300005F0C2B22B464946504600F04FF8BDE8C5
:10204000FC872DE9FC4F81468A4693461D460B9C32
:102050002046E11704EB5171C1F3C707E11704EB08
:102060005171C910A4EBC101C9B201914FF0000830
:1020700016E000260EE006FB05831BF803200AEBA2
:10208000C603D9B209EB0803D8B20C9BFFF764FF73
:10209000701CC6B2BE42EEDB08F1010000F0FF0882
:1020A000A845E6DB0198B8B105FB07F8002610E06B
:1020B0000C9808EB060300901BF803200AEBC703FB
:1020C000D9B209EB0603D8B2019BFFF776FF701C6B
:1020D000C6B2AE42ECDB00BFBDE8FC8FF0B5DDE977
:1020E0000545082801DA802900DBF0BD0DB1D64393
:1020F000F2B2661CFF2707FA06F61643C3F1080C76
:1021000047FA0CF73E43124F3E70124E06EBC016D4
:10211000765C3F783E400F4F07EBC0177E54661C3D
:10212000FF27B74022EA0706C3F1080CFF2747FA4A
:102130000CF7BE43064F3E70064E06EBC016765CAB
:102140003F783E43034F07EBC0177E5400BFCCE7F8
:1021500096000020501A002010B540200F4908704A
:10216000002418E004F1B001C8B2FFF7EBFE002034
:10217000FFF7E8FE1020FFF7E5FE094800EBC41169
:1021800080220648401CFEF797F881210348FFF79C
:10219000C9FE601CC4B2082CE4DB10BD501E002038
:1021A000501A002008B508490968C9084FF47A7226
:1021B000B1FBF2F14143009100BF00BF00994A1EFC
:1021C00000920029F9D108BD1400002000BF4FF48F
:1021D00000510448FEF702FB4FF4FA7000F090F94A
:1021E000F5E70000001001400EB50DA103C9CDE9CF
:1021F0000101002400BFFFF7FBFD0020E1B20A4B04
:1022000001AA0090FFF71EFE1034402C00DB0024D2
:10221000FFF7A2FF4FF47A7000F072F9EBE70000CD
:1022200048656C6C6F000000EC5E000810B500BFE4
:10223000502080F31188BFF34F8FBFF36F8F00BF23
:1022400001F08EFE18B14FF080500449086000BFC5
:10225000002080F3118800BF10BD000004ED00E0F5
:1022600000B58FB0282105A8FEF795F8142168461F
:10227000FEF791F8012005900004069000200790D9
:102280000120099002200C90C1030D914FF4E01140
:102290000E9105A8FEF7E6FE08B1FEF715F90F202E
:1022A000009002200190002002904FF48060039083
:1022B0000020049002216846FEF78EFD08B1FEF76B
:1022C00003F90FB000BD704710B50248FFF769F978
:1022D00010BD00003401002010B50268154B984273
:1022E00005D0B0F1804F02D0134B984203D122F0B9
:1022F00070024B681A430F4B984205D0B0F1804FE3
:1023000002D00D4B984203D122F44072CB681A439D
:1023100022F080034C6943EA040202608B68C362C6
:102320000B688362034B984201D10B69036301235D
:10233000436110BD002C01400004004070B504460C
:102340002168096921F44051E26811432268116152
:102350002269A1681143626941EA02052168C968DE
:1023600041F20C62914329432268D1602168496996
:1023700021F44071A2691143226851612D4A2168FC
:10238000914202D1FEF726FE01E0FEF713FE00EBBC
:10239000C00101EB001162689200B1FBF2F100EBA9
:1023A000C00202EB001263689B00B2FBF3F26423ED
:1023B000B2FBF3F202EBC20303EB0212A1EB8201C8
:1023C000322202EB01116422B1FBF2F101F0F001C3
:1023D00000EBC00202EB001263689B00B2FBF3F259
:1023E0006423B2FBF3F201EB021200EBC00101EB3C
:1023F000001163689B00B1FBF3F100EBC00303EB3A
:1024000000136668B600B3FBF6F36426B3FBF6F37D
:1024100003EBC30606EB0313A1EB8301322303EBAB
:1024200001116423B1FBF3F101F00F0111442268A3
:10243000916070BD0038014000BFFEE7014608789A
:1024400000F0800008B901207047087800F0E00033
:10245000C02801D10220F7E7087800F0F000E0285A
:1024600001D10320F0E7087800F0F800F02801D14E
:102470000420E9E70020E7E702480068C0F30220F3
:10248000704700000CED00E010B5002804DB0A07DF
:10249000130E054A135406E00A07140E034A00F00F
:1024A0000F031B1FD45410BD00E400E018ED00E042
:1024B000EFF311807047EFF305807047EFF3108062
:1024C000704700000149086070470000900000203C
:1024D000FEF782FBFFF7C4FEFFF79CFBFFF7F0FB64
:1024E000FFF70CFC4820FFF7EDFFFFF727FC00F09B
:1024F00023F8FFF773FB00F03FF800BFFEE7000092
:1025000070B50546FFF7D7FF48B9FFF7D7FF30B9D9
:1025100008480068022805D1FFF7CAFF10B16FF024
:10252000050404E0002415B1284600F0CBFF204646
:1025300070BD00006800002010B5FFF7BCFF48B96F
:10254000FFF7BCFF30B90B480068022805D1FFF740
:10255000AFFF10B16FF0050409E00648006820B92C
:10256000012004490860002401E04FF0FF342046B8
:1025700010BD00006800002010B5FFF79CFF48B9AF
:10258000FFF79CFF30B90C480068022805D1FFF71F
:102590008FFF10B16FF005040CE0074800680128B8
:1025A00006D102200449086001F008F8002401E087
:1025B0004FF0FF34204610BD680000202DE9F047A1
:1025C00086B080468946144600200490FFF773FFCA
:1025D00000285DD1FFF772FF002859D12D4800680F
:1025E000022803D1FFF764FF002851D1B8F1000F92
:1025F0004ED080261825002005900DF1140A471EA4
:1026000044B3206808B1D4F800A0A06900B1A5695E
:102610002DB1382D03D8207900F0010018B1002029
:1026200006B0BDE8F087606908B160698608A068F7
:1026300040B1E0685C2805D3206918B1606908B131
:10264000012708E0A06830B9E06820B9206910B916
:10265000002700E00027012F0CD12169A0684B461C
:102660003246CDE9005102905146404601F006FC49
:1026700004900DE067B904A8B2B24B465146CDE9CB
:102680000050404601F0C8FB012801D00020049012
:102690000498C5E7680000202DE9F04105460E4684
:1026A0001648076816480068001D00F08BFD681C7E
:1026B00038B936B112480168091D124800F0D8FD3A
:1026C0001AE07C190E4800684460BC4207D20C48EE
:1026D0000168091D0C48006800F0B0FD0CE00848D6
:1026E0000168091D0948006800F0A8FD0848006855
:1026F000844201D206480460BDE8F0812C0000202D
:10270000180000206C060020200000201C00002083
:102710004800002010B5044600F0B6FD24480068CB
:10272000401C234908602348006840B921480460E0
:102730000846006801280DD100F0F8F90AE01E48AB
:10274000006838B91B480068C06AE16A884201D84D
:102750001848046019480068401C18490860084679
:10276000006860641649E06A0968884202D9144921
:10277000E06A0860E16A01EB8101124A02EB810024
:10278000211D00F075FD00F0A9FD0B48006868B13F
:1027900008480068C06AE16A884207D24FF080505A
:1027A00009490860BFF34F8FBFF36F8F10BD000062
:1027B00028000020180000203400002044000020E1
:1027C00030000020BC01002004ED00E008B500F05E
:1027D0005BFD12480068E8B9114800F01FFD114880
:1027E00000F01CFD0E48104908600E480F490860B3
:1027F00000200F4B0F4A102100900A2001F006F82C
:10280000064908600846006820B10BA1034800682B
:1028100000F01CFE00F062FD08BD00005C0000201E
:10282000800600209406002054000020580000205C
:10283000A8060020F8060020546D72510000000028
:1028400010B516E000F020FD0C48C068C468201DDB
:1028500000F0B8FC0A480068401E094908600948B1
:102860000068401E0749086000F038FD204600F06F
:102870005EF8044800680028E4D110BD5806002026
:10288000280000202400002070B504460D46206C6E
:1028900070B1216CE0680844E0606168E0688842DB
:1028A00001D32068E0602846226CE168FDF704FD52
:1028B00070BD2DE9F04104460F4615464FF0000863
:1028C000A66B206C40B9206860BB606801F0EAFB31
:1028D00080460020606025E07DB93946226CA06802
:1028E000FDF7EAFC216CA0680844A060D4E901105F
:1028F000884217D32068A06014E03946226CE06853
:10290000FDF7DAFC216CE068401AE0602168E068BD
:10291000884203D2216C6068401AE060022D01D128
:1029200006B1761E701CA0634046BDE8F08110B56C
:10293000044694F8590030B9206B00F0EDFC2046B5
:1029400000F0EAFC1AE094F85900012803D120466F
:1029500000F0E2FC12E094F85900022801D10120B5
:1029600000E0002050B900BF502080F31188BFF371
:102970004F8FBFF36F8F00BF00BFFEE710BD000099
:102980000146084A126812680AB9012200E00022D2
:102990000A600A6822B9034A1268D268106800E027
:1029A000002070475400002030B54FF440631748B2
:1029B00000F007042CB1C01D20F00700134C041BCD
:1029C0001B1B0246124C22600024114D6C60D01873
:1029D000083820F007000F4C206000240D4D2D68B2
:1029E0006C600C4D2D682C601146441A4C60094CEB
:1029F00024680C60084D4C682C60084D4C682C60B5
:102A00004FF00044064D2C6030BD0000500E0020F9
:102A10006C000020740000207C0000207800002062
:102A20008000002000BFFFF70BFF06480068012868
:102A3000F9D94FF0805004490860BFF34F8FBFF3BE
:102A40006F8FF0E7BC01002004ED00E02DE9F041BC
:102A500006460D4617469846069C0DB9246000E0D0
:102A60002760E66325640121204600F03FFF84F8DB
:102A70004C80BDE8F0812DE9F05F82460F4690461C
:102A80009B460A9E0C9C4FEA8801A522206BFDF70D
:102A900058FCA8F10100216B01EB800929F007091E
:102AA00009F0070008B9012000E0002050B900BF7C
:102AB000502080F31188BFF34F8FBFF36F8F00BF9B
:102AC00000BFFEE7002507E0795D04F134004155C1
:102AD000785D00B902E06D1C102DF5D300BF002118
:102AE00043200155382E00D33726E662E6640020E5
:102AF0002065201D00F09FFB04F1180000F09BFBF7
:102B00002461C6F13800A06164620020606584F829
:102B100058005A465146484600F042FB20600B9848
:102B200008B10B980460BDE8F09F000010B50024C8
:102B300007E004EB84010F4A02EB810000F06EFB1A
:102B4000641C382CF5D30C4800F068FB0B4800F0EF
:102B500065FB0B4800F062FB0A4800F05FFB0A4887
:102B600000F05CFB04480949086004480849086013
:102B700010BD0000BC0100201C0600203006002013
:102B800044060020580600206C0600201C0000208F
:102B90002000002010B50146164800E000680368D8
:102BA0008B42FBD30246436813448B4204D14368F3
:102BB0004C682344436001460A464B68134404684A
:102BC000A34211D10C4C03682468A34208D04B687F
:102BD0000468646823444B6003681B680B6005E06D
:102BE000054B1B680B6001E003680B60884200D056
:102BF000016010BD6C000020740000202DE9F04140
:102C000004460D4616461F464FF0000865602461D5
:102C1000B5420CD8F01BA169884202D34FF00108DD
:102C200011E0211D0948006800F008FB0BE0BE42DE
:102C300004D2BD4202D34FF0010804E0211D044834
:102C4000006800F0FBFA4046BDE8F0815800002023
:102C50005400002070B5054600F016FBA86B08B9BB
:102C6000012400E0002400F039FB204670BD70B55F
:102C7000054600F009FBA86BE96B884201D10124ED
:102C800000E0002400F02AFB204670BDF8B50546A0
:102C90000F4616480068C068C468201D00F092FA0C
:102CA000E06901281DD1A06941192B463A4620460A
:102CB000FFF7A4FFA8B1002003462A460146009072
:102CC000204601F04BFB064656B900BF502080F36A
:102CD0001188BFF34F8FBFF36F8F00BF00BFFEE7B8
:102CE00000BF2046616A8847F8BD000054000020FC
:102CF000F0B587B082E00398002811DA04AE56B927
:102D000000BF502080F31188BFF34F8FBFF36F8F48
:102D100000BF00BFFEE7D6E90020B168904700BFC2
:102D2000039800286ADB059C606908B9012000E06F
:102D3000002010B9201D00F045FA02A800F0C0F8EC
:102D4000054603980A2857D2DFE800F00905073145
:102D5000334F0608323400BF00BF00BF00BF0498E5
:102D6000A269811803462A462046FFF747FFE8B1CB
:102D70002046616A8847E069012817D10020009049
:102D80000498A169421800231946204601F0E6FA8A
:102D9000074657B900BF502080F31188BFF34F8F0B
:102DA000BFF36F8F00BF00BFFEE700BF25E000BF8D
:102DB00023E000BF0498A061A06908B1012000E0F1
:102DC000002050B900BF502080F31188BFF34F8F0F
:102DD000BFF36F8F00BF00BFFEE7A06941192B460C
:102DE0002A462046FFF70AFF07E094F82C0010B9A6
:102DF000204600F091FA00E000BF00BF002203A9C6
:102E00000448006800F00EFF00287FF474AF07B09C
:102E1000F0BD00005C000020F8B505460C4600F04F
:102E200029FC684600F04CF80646009820BB44B9DF
:102E3000B54206D801F0D4F931462846FFF726FFFF
:102E40001CE03CB10E480068006808B9012000E0B1
:102E500000200446A91B22460A48006800F00CFB2B
:102E600001F0BEF950B94FF0805007490860BFF338
:102E70004F8FBFF36F8F01E001F0B2F9F8BD000092
:102E8000580000205C00002004ED00E00A490968B9
:102E9000096809B9012100E0002121B14FF0FF319B
:102EA000064A116006E004490968C968C868034A0F
:102EB00041681160704700001C000020480000209D
:102EC00070B5044601F046F805460748006885429B
:102ED00004D200F00BF80120206001E00020206007
:102EE00001480560284670BD640000202DE9F843C4
:102EF00032E024480068C068056822480068C0685D
:102F0000C468201D00F05EF92046616A8847E069C8
:102F1000012821D1A0694619AE4207D96660246113
:102F2000211D1848006800F089F915E000200346CB
:102F30002A4601460090204601F010FA074657B98C
:102F400000BF502080F31188BFF34F8FBFF36F8F06
:102F500000BF00BFFEE700BF0A480068006808B96C
:102F6000012000E000200028C3D00648D0F80080EF
:102F700005480068034908600348C0F80080BDE8C0
:102F8000F883000054000020580000200E4800681C
:102F9000401C08B9012000E0002050B900BF5020BB
:102FA00080F31188BFF34F8FBFF36F8F00BF00BF57
:102FB000FEE700BF502080F31188BFF34F8FBFF3AF
:102FC0006F8F00BF00BFFEE78400002008B500BF80
:102FD0006846FFF7D5FC044620460099FFF71CFF22
:102FE000FFF786FEF4E770B5044600F04DF994F95A
:102FF000455010E0606A08B9012000E0002038B9AF
:1030000004F1240001F0A0F818B100F095FA00E0F6
:1030100003E0681E45B2002DECDC00BFFF2084F801
:10302000450000F05BF900F02FF994F9445010E0EE
:10303000206908B9012000E0002048B904F110001F
:1030400001F082F808B100F077FA681E45B200E09E
:1030500001E0002DECDC00BFFF2084F8440000F00C
:103060003DF970BD2DE9F04104464FF0000800F035
:1030700001FB4648006808B9FFF796FC4448006821
:10308000204000286BD1D4B1083404F00700B0B15F
:1030900004F00700C0F10800044404F0070008B978
:1030A000012000E0002050B900BF502080F31188BB
:1030B000BFF34F8FBFF36F8F00BF00BFFEE7002C41
:1030C0004DD034480068844249D8334E30460568B4
:1030D00001E02E462D686868A04202D228680028C8
:1030E000F7D12A480068854239D0306800F10808D5
:1030F000286830606868001B102819D92F1907F05C
:10310000070008B9012000E0002050B900BF50209E
:1031100080F31188BFF34F8FBFF36F8F00BF00BFE5
:10312000FEE76868001B78606C603846FFF732FD88
:10313000184968680968081A16490860084600684E
:1031400016490968884203D212480068134908608A
:103150000F4968680968084368600020286001F02A
:103160003FF808F0070008B9012000E0002050B93E
:1031700000BF502080F31188BFF34F8FBFF36F8FD4
:1031800000BF00BFFEE74046BDE8F08174000020AC
:1031900080000020780000206C0000207C000020CF
:1031A000001F4FF080730360001F21F001030360D4
:1031B000001F034B03601438026020387047000082
:1031C0008D2F000801460A69D1E901309860D1E9E4
:1031D000010358605068884201D18868506000201F
:1031E00008611068401E106010687047034B036050
:1031F000034B0B608023136070470000980700208A
:10320000F4070020034B0360034B0B604FF4807303
:1032100013607047F4090020500A002000F10801F3
:1032200041604FF0FF31816000F10801C160016130
:1032300000210160704700210161704710B502460E
:103240000B685C1C0CB9106907E002F1080000E093
:103250004068446824689C42FAD944684C604C68D1
:10326000A160886041600A611468641C146010BD2C
:1032700042684A6093688B60936859609160086106
:1032800003685B1C0360704700BF502080F3118807
:10329000BFF34F8FBFF36F8F00BF0E480068401C15
:1032A0000C49086008460068012812D10A480068E5
:1032B000C0B208B9012000E0002050B900BF502082
:1032C00080F31188BFF34F8FBFF36F8F00BF00BF34
:1032D000FEE770478400002004ED00E00D48006820
:1032E00050B900BF502080F31188BFF34F8FBFF358
:1032F0006F8F00BF00BFFEE706480068401E05490B
:1033000008600846006820B9002080F3118800BFDB
:1033100000BF70478400002070B506463546002E79
:103320003FD0083D2C461F4960680968084008B135
:10333000012000E0002050B900BF502080F3118828
:10334000BFF34F8FBFF36F8F00BF00BFFEE7206852
:1033500008B9012000E0002050B900BF502080F3E0
:103360001188BFF34F8FBFF36F8F00BF00BFFEE721
:103370000C4960680968084098B1206888B9094913
:10338000606809688843606000F074F90649606805
:1033900009680844044908602046FFF7FBFB00F079
:1033A0001FFF70BD800000207800002000204FF03B
:1033B000E02108618861064800684FF47A71B0FB2B
:1033C000F1F0401E4FF0E02148610720086170478E
:1033D0001400002070B5FCF71FFF0446102C16D314
:1033E00004F1E02090F8F05315480078854201DBA5
:1033F000012000E0002050B900BF502080F3118868
:10340000BFF34F8FBFF36F8F00BF00BFFEE70D48C4
:10341000006800F4E0600C490968884201D8012086
:1034200000E0002050B900BF502080F31188BFF3A6
:103430004F8FBFF36F8F00BF00BFFEE770BD00006E
:10344000880000200CED00E08C00002002460020E7
:103450000BE0084B53F8303033B9064B43F83010CB
:1034600003EBC0035A6002E0401C0828F1D300BF00
:10347000704700007C0100202DE9F04105460E4612
:1034800017462C46FFF700FF94F94400401C10B982
:10349000002084F8440094F94500401C10B9002035
:1034A00084F84500FFF71AFFA06B28B93A46314669
:1034B00004F1240000F062F82046FFF794FDBDE817
:1034C000F081000070B504460025D4B112480068B0
:1034D00008B9012000E0002050B900BF502080F35F
:1034E0001188BFF34F8FBFF36F8F00BF00BFFEE7A0
:1034F00000F0C0F800212046FFF7CEF800F070FE83
:1035000005463DB94FF0805004490860BFF34F8F26
:10351000BFF36F8F70BD00005000002004ED00E08D
:103520000349096801600349096841607047000068
:10353000400000202C000020012001490860704755
:103540003C00002070B504460D4654B900BF502021
:1035500080F31188BFF34F8FBFF36F8F00BF00BFA1
:10356000FEE70548016818312046FFF767FE012194
:103570002846FFF791F870BD1800002070B5054689
:103580000E46144655B900BF502080F31188BFF392
:103590004F8FBFF36F8F00BF00BFFEE70648016883
:1035A00018312846FFF764FE0CB14FF0FF36214674
:1035B0003046FFF771F870BD1800002010B586B0D6
:1035C00000200590049003AA04A905A8FFF70EFEA9
:1035D0000022DDE904101346CDE9002102901EA16E
:1035E0001F48039A00F04AFC1E490860084600681C
:1035F00008B1012400E00024012C02D100F072FE89
:103600000446012C15D100BF502080F31188BFF370
:103610004F8FBFF36F8F00BF4FF0FF30124908602C
:1036200001201249086000201149086000F072F87A
:1036300010E0601C08B1012000E0002050B900BF7C
:10364000502080F31188BFF34F8FBFF36F8F00BFFF
:1036500000BFFEE706B010BD49444C450000000025
:10366000252A00084C0000204800002034000020DB
:103670002C00002002480068401C01490860704787
:10368000500000201E48006818B101201D49086044
:1036900034E000201B4908601B4801680CE051B968
:1036A00000BF502080F31188BFF34F8FBFF36F8F9F
:1036B00000BF00BFFEE7491E01EB8100134A52F82C
:1036C000200008B9012000E000200028E7D101EB2C
:1036D00081020E4B03EB820042685268426000F1A7
:1036E00008024368934202D14268526842604268CD
:1036F000D268074B1A600448016000BF70470000A1
:10370000500000203C00002030000020BC010020C0
:10371000180000201CB53849084600780190FF20A9
:103720000A4610700846007800909DF8000000F0EE
:10373000F0009DF80020904201D1012000E000201F
:1037400050B900BF502080F31188BFF34F8FBFF3F3
:103750006F8F00BF00BFFEE79DF8000000F0500033
:10376000264A10700720264A106009E024480068A5
:10377000401E234A10609DF800004006000E009095
:103780009DF8000000F080008028EFD01C48006801
:10379000C0F10700042801D1012000E0002050B949
:1037A00000BF502080F31188BFF34F8FBFF36F8F9E
:1037B00000BF00BFFEE7124800680002104A106018
:1037C0001046008800F4E06010600B4A0198107009
:1037D0000C48006840F470000A4908600846006818
:1037E00040F070400860FFF7E1FD002006490860E6
:1037F000FCF7DCFC00201CBD00E400E08800002099
:103800008C00002020ED00E0840000202DE9F8432A
:1038100080460E4617461D46DDF82090B8F1000F91
:1038200001D0012000E0002050B900BF502080F3FB
:103830001188BFF34F8FBFF36F8F00BF00BFFEE74C
:103840000DB1012000E0002050B900BF502080F3EE
:103850001188BFF34F8FBFF36F8F00BF00BFFEE72C
:1038600007B10EB1012000E0002050B900BF502088
:1038700080F31188BFF34F8FBFF36F8F00BF00BF7E
:10388000FEE707B90EB9012000E0002050B900BFE3
:10389000502080F31188BFF34F8FBFF36F8F00BFAD
:1038A00000BFFEE7502000900098502801D1012071
:1038B00000E0002050B900BF502080F31188BFF312
:1038C0004F8FBFF36F8F00BF00BFFEE72C464CB198
:1038D000012084F846004B463A4631464046009463
:1038E000FFF7B4F82046BDE8F883000070B5054640
:1038F0000E462C4654B900BF502080F31188BFF308
:103900004F8FBFF36F8F00BF00BFFEE7FFF7BCFC18
:10391000D4E90F12206801FB020060600020A06360
:103920002068A060E06B401E226C216800FB021042
:10393000E060FF2084F8440084F845009EB92069C7
:1039400008B9012000E00020A8B904F1100000F03F
:10395000FBFB80B14FF0805009490860BFF34F8FE7
:10396000BFF36F8F07E004F11000FFF757FC04F17D
:103970002400FFF753FCFFF7B1FC012070BD0000ED
:1039800004ED00E02DE9FF4383B0064688461D465E
:103990004FF00009344654B900BF502080F311881D
:1039A000BFF34F8FBFF36F8F00BF00BFFEE7B8F1CB
:1039B000000F01D1206C08B9012000E0002050B9AF
:1039C00000BF502080F31188BFF34F8FBFF36F8F7C
:1039D00000BF00BFFEE7022D02D1E06B012801D13C
:1039E000012000E0002050B900BF502080F3118872
:1039F000BFF34F8FBFF36F8F00BF00BFFEE700F034
:103A000099FA08B9059808B9012000E0002050B9DA
:103A100000BF502080F31188BFF34F8FBFF36F8F2B
:103A200000BF00BFFEE700BFFFF72EFCA06BE16BFD
:103A3000884201D3022D28D12A4641462046FEF76E
:103A400038FF0746606A08B9012000E0002068B925
:103A500004F1240000F078FB88B14FF08050324927
:103A60000860BFF34F8FBFF36F8F08E03FB14FF097
:103A700080502D490860BFF34F8FBFF36F8FFFF762
:103A80002DFC012007B0BDE8F083059818B9FFF7B9
:103A900025FC0020F6E7B9F1000F04D101A8FFF7DB
:103AA0003FFD4FF00109FFF719FCFFF7E3FDFFF7BA
:103AB000EBFB94F94400401C10B9002084F844004A
:103AC00094F94500401C10B9002084F84500FFF728
:103AD00005FC05A901A800F059F9F0B92046FFF747
:103AE000C6F8A0B104F110000599FFF72BFD2046A0
:103AF000FFF779FA00F074FB002895D14FF0805061
:103B000009490860BFF34F8FBFF36F8F8CE72046E2
:103B1000FFF769FA00F064FB86E72046FFF763FAD7
:103B200000F05EFB0020ADE704ED00E02DE9F05F62
:103B300007468A4690461E463C4654B900BF502070
:103B400080F31188BFF34F8FBFF36F8F00BF00BFAB
:103B5000FEE7BAF1000F01D1206C08B9012000E0A6
:103B6000002050B900BF502080F31188BFF34F8F61
:103B7000BFF36F8F00BF00BFFEE7022E02D1E06BE4
:103B8000012801D1012000E0002050B900BF5020E1
:103B900080F31188BFF34F8FBFF36F8F00BF00BF5B
:103BA000FEE7FFF717FC00BF5021EFF3118081F310
:103BB0001188BFF34F8FBFF36F8F00BF0546A06B17
:103BC000E16B884201D3022E23D194F945B03246ED
:103BD00051462046FEF76DFE0BF1010088B9606A80
:103BE00008B9012000E0002080B904F1240000F0B1
:103BF000ABFA58B1B8F1000F08D00120C8F80000A6
:103C000004E00BF1010040B284F845004FF00109D7
:103C100001E04FF0000900BF85F3118800BF48465E
:103C2000BDE8F09F2DE9F74183B005460E464FF001
:103C300000082C4654B900BF502080F31188BFF310
:103C40004F8FBFF36F8F00BF00BFFEE70EB9206C30
:103C500008B9012000E0002050B900BF502080F3D7
:103C60001188BFF34F8FBFF36F8F00BF00BFFEE718
:103C700000F060F908B9059808B9012000E00020BB
:103C800050B900BF502080F31188BFF34F8FBFF3AE
:103C90006F8F00BF00BFFEE700BFFFF7F5FAA76B0D
:103CA000F7B131462046FEF7EFFD781EA06320698C
:103CB00008B9012000E0002060B904F1100000F014
:103CC00043FA38B14FF080502F490860BFF34F8F4F
:103CD000BFF36F8FFFF702FB012006B0BDE8F08154
:103CE000059818B9FFF7FAFA0020F6E7B8F1000FC7
:103CF00004D101A8FFF714FC4FF00108FFF7EEFA1A
:103D0000FFF7B8FCFFF7C0FA94F94400401C10B963
:103D1000002084F8440094F94500401C10B90020AC
:103D200084F84500FFF7DAFA05A901A800F02EF89B
:103D3000F0B92046FEF78EFFA0B104F124000599EA
:103D4000FFF700FC2046FFF74EF900F049FA002883
:103D5000A3D14FF080500C490860BFF34F8FBFF3E1
:103D60006F8F9AE72046FFF73EF900F039FA94E7A3
:103D70002046FFF738F900F033FA2046FEF76AFFD5
:103D800000288AD00020A8E704ED00E070B50546C1
:103D90000C4655B900BF502080F31188BFF34F8FF8
:103DA000BFF36F8F00BF00BFFEE754B900BF5020C4
:103DB00080F31188BFF34F8FBFF36F8F00BF00BF39
:103DC000FEE7FFF761FA124802686868131A206874
:103DD000401C08B9002617E00E4928680968884287
:103DE00004D06868904201D801260DE0206898420E
:103DF00007D92068C01A20602846FFF791FB0026EB
:103E000002E0002020600126FFF768FA304670BD0E
:103E10002C000020400000202DE9FF4F85B0804697
:103E200089461746DDE912ABB800FFF71BF90646D5
:103E300056B15C20FFF716F904460CB1266304E086
:103E40003046FFF769FA00E000248CB1002084F8C6
:103E50005900CDE900ABCDE902403A46494640461B
:103E6000089BFEF708FE2046FEF754FC012501E002
:103E70004FF0FF35284609B0BDE8F08F2DE9F04F2F
:103E800085B00746884691469A46DDE90EB6109CF5
:103E90000EB1012000E0002050B900BF502080F397
:103EA0001188BFF34F8FBFF36F8F00BF00BFFEE7D6
:103EB0000CB1012000E0002050B900BF502080F379
:103EC0001188BFF34F8FBFF36F8F00BF00BFFEE7B6
:103ED0005C20039003985C2801D1012000E00020C1
:103EE00050B900BF502080F31188BFF34F8FBFF34C
:103EF0006F8F00BF00BFFEE7B4B1AEB125462C46C0
:103F00002E63022085F85900002004A953464A4632
:103F1000CDE900B1CDE9025041463846FEF7ABFD90
:103F20002846FEF7F7FB01E000200490049805B056
:103F3000BDE8F08F0549096809B9012005E0044989
:103F4000096809B9022000E0002070473400002011
:103F50005000002001490868704700002C00002034
:103F60002DE9F0414FF0000843480068002876D161
:103F700042480068451C4148056015BB4048006840
:103F8000006808B9012000E0002050B900BF5020AF
:103F900080F31188BFF34F8FBFF36F8F00BF00BF57
:103FA000FEE73748076837480068354908603548F4
:103FB000076035480068401C33490860FEF766FF1B
:103FC00000BF3248006885423BD300BF2C480068E0
:103FD000006808B9012000E0002020B14FF0FF3058
:103FE0002A4908602CE026480068C068C4686668F2
:103FF000B54202D22548066022E0201DFFF7E2F814
:10400000A06A18B104F11800FFF7DCF82049E06A53
:104010000968884202D91E49E06A0860E16A01EB3A
:1040200081011C4A02EB8100211DFFF721F91A4989
:10403000E06A0968C96A8842C8D34FF00108C5E739
:1040400000BF15480068C06A00EB8000114951F8B4
:104050002000012801D94FF0010805E0FFE70F48D3
:104060000068401C0D4908600D48006808B14FF019
:1040700001084046BDE8F081500000202C000020DF
:104080001C000020200000204000002048000020EC
:1040900030000020BC010020180000203800002063
:1040A0003C00002070B505462C460026002D43D06C
:1040B00022480068844201D1012000E0002050B96C
:1040C00000BF502080F31188BFF34F8FBFF36F8F75
:1040D00000BF00BFFEE7206D50B900BF502080F345
:1040E0001188BFF34F8FBFF36F8F00BF00BFFEE794
:1040F000206D401E2065E16CE06A88421CD0206D76
:10410000D0B9201DFFF75EF8E06CE062E06AC0F114
:104110003800A0610A49E06A0968884202D9084962
:10412000E06A0860E16A01EB8101064A02EB810066
:10413000211DFFF79DF80126304670BD18000020B4
:1041400030000020BC01002070B50646F068C4684D
:1041500054B900BF502080F31188BFF34F8FBFF3D5
:104160006F8F00BF00BFFEE704F11800FFF72AF8C9
:1041700015480068A0B9201DFFF724F81349E06A2C
:104180000968884202D91149E06A0860E16A01EBD6
:1041900081010F4A02EB8100211DFFF769F804E05D
:1041A00004F118010B48FFF763F80B49E06A09684E
:1041B000C96A884204D9012501200849086000E045
:1041C0000025284670BD000050000020300000206F
:1041D000BC01002044060020180000203C00002004
:1041E00070B5002400263648006850B900BF502042
:1041F00080F31188BFF34F8FBFF36F8F00BF00BFF5
:10420000FEE7FFF741F82E480068401E2C49086081
:104210000846006800284ED12A48006800284AD085
:1042200023E02948C068C46804F11800FEF7CAFFFB
:10423000201DFEF7C7FF2549E06A0968884202D9B8
:104240002249E06A0860E16A01EB8101204A02EB41
:104250008100211DFFF70CF81E49E06A0968C96A50
:10426000884202D301201C4908601748006808B939
:10427000012000E000200028D3D00CB1FEF706FE9C
:104280001648056865B100BFFFF76AFE10B101204E
:10429000114908606D1E002DF6D100200F490860FD
:1042A0000D48006838B1012630070D490860BFF39A
:1042B0004F8FBFF36F8FFFF711F8304670BD0000CE
:1042C000500000202800002044060020300000207C
:1042D000BC010020180000203C0000203800002015
:1042E00004ED00E010B586B00024FEF76FFA164822
:1042F0000068D0B100200590049003AA04A905A885
:10430000FEF780FF0222DDE904100023CDE9002141
:1043100002900EA10F48039AFFF7B0FD0E49086006
:104320000846006800B1012400BF54B900BF502006
:1043300080F31188BFF34F8FBFF36F8F00BF00BFB3
:10434000FEE7204606B010BD5C000020546D7220D0
:1043500053766300CD2F0008600000202DE9FF4751
:1043600004460D4616461F46DDF830804FF0000922
:1043700054B900BF502080F31188BFF34F8FBFF3B3
:104380006F8F00BF00BFFEE71448006810B30095B0
:1043900001960294062D15DAFFF7CCFD022808D10C
:1043A0000023424669460D480068FFF7EBFA814654
:1043B00010E000231A46694608480068FFF7E2FA51
:1043C000814607E000233A46694604480068FFF743
:1043D000ADFB8146484604B0BDE8F0875C00002094
:1043E0004460000800000000000000000000000021
:1043F00000000000000200001800000000000000A3
:10440000000000003860000800000000000000000C
:104410000000000000000000000200000800000092
:104420000000000000000000020304050607080960
:104430000A0B0C0D0E0F101001020000000000000E
:104440000000010203040607080900000000010241
:10445000030400000000000000000000002F000026
:1044600000000700070000147F147F1400242A7F37
:104470002A120062640813230036495522500000B6
:104480000503000000001C224100000041221C0026
:104490000014083E08140008083E0808000000A0A8
:1044A00060000008080808080000606000000020A4
:1044B00010080402003E5149453E0000427F400082
:1044C000004261514946002141454B310018141208
:1044D0007F10002745454539003C4A4949300001D5
:1044E0007109050300364949493600064949291E24
:1044F0000000363600000000563600000008142286
:104500004100001414141414000041221408000285
:104510000151090600324959513E007C1211127CAA
:10452000007F49494936003E41414122007F4141D7
:10453000221C007F49494941007F09090901003EC9
:104540004149497A007F0808087F0000417F410007
:10455000002040413F01007F08142241007F40407D
:104560004040007F020C027F007F0408107F003E65
:104570004141413E007F09090906003E4151215E4B
:10458000007F091929460046494949310001017F48
:104590000101003F4040403F001F2040201F003FDE
:1045A0004038403F00631408146300070870080790
:1045B00000615149454300007F41410000552A55A3
:1045C0002A55000041417F0000040201020400401E
:1045D0004040404000000102040000205454547840
:1045E000007F484444380038444444200038444460
:1045F000487F00385454541800087E0901020018FE
:10460000A4A4A47C007F080404780000447D40003A
:10461000004080847D00007F102844000000417F1E
:104620004000007C04180478007C080404780038FA
:104630004444443800FC242424180018242418FC82
:10464000007C0804040800485454542000043F44EB
:104650004020003C4040207C001C2040201C003CAE
:104660004030403C004428102844001CA0A0A07CFE
:10467000004464544C441414141414140806000028
:10468000544400080000000000000000000000008A
:104690000000FC000000000002000000000C020C02
:1046A000020000000000000090D0BCD0BC900003CD
:1046B000000300001824FE448C00030207020100DE
:1046C0001824D8B04C80000300010201C038E4383F
:1046D000E0000102020102020806000000000000E2
:1046E00000000000000000F80402000000010204C5
:1046F000000204F800000004020100009060F8606D
:1047000090000000010000002020FC20200000009C
:10471000010000000000000000000806000000008A
:1047200020202020200000000000000000000000E9
:1047300000000002000000000080601C0200040372
:1047400000000000F8040404F80001020202010065
:104750000008FC000000000203020000188444244A
:10476000180003020202020008042424D8000102F7
:104770000202010040B088FC80000000000302003B
:104780003C242424C400010202020100F824242C49
:10479000C0000102020201000C04E41C040000003D
:1047A00003000000D8242424D800010202020100E2
:1047B00038444444F80000030202010000001000E5
:1047C00000000000020000000000200000000000C7
:1047D00006000000002050880402000000000102D2
:1047E000909090909000000000000000000204886B
:1047F00050200002010000001804C424180000002A
:1048000002000000F804E494F80001020202020031
:1048100000E09CF0800002030000030204FC24245A
:10482000D800020302020100F80404040C00010293
:104830000202010004FC0404F80002030202010069
:1048400004FC24740C0002030202030004FC247420
:104850000C00020302000000F0080444CC400001F8
:104860000202010004FC2020FC04020300000302F9
:104870000404FC040400020203020200000404FC1D
:10488000040406040403000004FC24D00C04020306
:104890000200030204FC04000000020302020203FF
:1048A000FC3CC03CFC0003000300030004FC30C4DB
:1048B000FC04020302000300F8040404F8000102EF
:1048C0000202010004FC242418000203020000007C
:1048D000F8848404F80001020207050004FC246443
:1048E0009800020302000302182424448C000302EF
:1048F000020201000C04FC040C0000020302000090
:1049000004FC0000FC04000102020100047C80E0C1
:104910001C040000030000001CE03CE01C0000033D
:1049200000030000049C609C0400020300030200DA
:10493000041CE01C04000002030200000C84641C40
:1049400004000203020203000000FE020200000055
:1049500007040400000E30C0000000000001020047
:10496000000202FE0000000404070000000402042C
:104970000000000000000000000000000000080827
:104980000808080800000200000000000000000005
:104990000040A0A0C00000010202030204FC20208D
:1049A000C00000030202010000C0202060000001DE
:1049B0000202020000C02024FC00000102020302E7
:1049C00000C0A0A0C0000001020202000020F824E4
:1049D00024040002030202000040A0A0602000079F
:1049E0000A0A0A0404FC2020C00002030200030299
:1049F0000020E4000000000203020000000020E4A8
:104A0000000008080807000004FC80E020200203E2
:104A1000020003020404FC00000002020302020080
:104A2000E020E020C00003000300030020E020207D
:104A3000C00002030200030200C02020C0000001E9
:104A40000202010020E02020C000080F0A0201003D
:104A500000C02020E0000001020A0F0820E04020F2
:104A600020000203020000000060A0A0200000025D
:104A7000020203000020F8200000000001020200F2
:104A800020E00020E00000010202030220E020807C
:104A900060200000030100006080E08060000003EF
:104AA0000003000020608060200002030003020079
:104AB00020E0208060200808070100000020A0609E
:104AC0002000000203020200000020DE02000000BD
:104AD00000070400000000FF00000000000F0000BD
:104AE0000002DE20000000040700000002010204B2
:104AF00004020000000000000C06000084460008CC
:104B000000000000000000000000000000000000A5
:104B1000000000F80000000000000033300000003A
:104B200000100C06100C0600000000000000000041
:104B300040C07840C0784000043F04043F040400B3
:104B4000007088FC08300000001820FF211E0000C3
:104B5000F008F000E018000000211C031E211E00D8
:104B600000F00888700000001E212324192721105E
:104B700010160E0000000000000000000000000001
:104B8000000000E0180402000000000718204000A8
:104B900000020418E0000000004020180700000098
:104BA000404080F0804040000202010F01020200FC
:104BB000000000F0000000000101011F01010100E0
:104BC000000000000000000080B070000000000045
:104BD00000000000000000000001010101010101CE
:104BE0000000000000000000003030000000000065
:104BF000000000008060180400601806010000003A
:104C000000E010080810E000000F102020100F0036
:104C1000001010F8000000000020203F20200000BD
:104C20000070080808887000003028242221300015
:104C300000300888884830000018202020110E001D
:104C40000000C02010F8000000070424243F2400C6
:104C500000F80888880808000019212020110E009B
:104C600000E0108888180000000F112020110E00AD
:104C700000380808C83808000000003F00000000A5
:104C80000070880808887000001C222121221C0066
:104C900000E010080810E0000000312222110F008F
:104CA000000000C0C0000000000000303000000024
:104CB0000000008000000000000080600000000094
:104CC00000008040201008000001020408102000AD
:104CD00040404040404040000404040404040400F8
:104CE000000810204080000000201008040201008D
:104CF000007048080808F00000000030360100008D
:104D0000C030C828E810E0000718272423140B003F
:104D10000000C038E0000000203C230202273820B9
:104D200008F8888888700000203F202020110E009D
:104D3000C030080808083800071820202010080094
:104D400008F808080810E000203F202020100F007D
:104D500008F88888E8081000203F20202320180049
:104D600008F88888E8081000203F200003000000B1
:104D7000C03008080838000007182020221E020052
:104D800008F808000008F808203F210101213F2011
:104D9000000808F8080800000020203F202000003C
:104DA00000000808F8080800C08080807F0000002C
:104DB00008F888C028180800203F20012638200065
:104DC00008F8080000000000203F202020203000CC
:104DD00008F8F800F8F80800203F003F003F2000E6
:104DE00008F830C00008F808203F200007183F00EE
:104DF000E01008080810E0000F10202020100F001D
:104E000008F808080808F000203F2101010100000F
:104E1000E01008080810E0000F18242438504F0054
:104E200008F8888888887000203F2000030C302014
:104E300000708808080838000038202121221C0052
:104E4000180808F8080818000000203F200000009B
:104E500008F808000008F808001F202020201F0084
:104E60000878880000C83808000007380E010000E4
:104E7000F80800F80008F800033C0700073C0300AE
:104E8000081868808068180820302C03032C302014
:104E90000838C800C83808000000203F2000000083
:104EA00010080808C83808002038262120201800DB
:104EB000000000FE020202000000007F40404000AF
:104EC000000C30C000000000000000010638C000E7
:104ED00000020202FE000000004040407F0000008F
:104EE00000000402020204000000000000000000B4
:104EF00000000000000000008080808080808080B2
:104F00000002020400000000000000000000000099
:104F100000008080808000000019242222223F208F
:104F200008F8008080000000003F112020110E00D2
:104F30000000008080800000000E11202020110061
:104F4000000000808088F800000E112020103F2013
:104F50000000808080800000001F22222222130097
:104F6000008080F0888888180020203F20200000E2
:104F70000000808080808000006B94949493600097
:104F800008F8008080800000203F210000203F20A2
:104F900000809898000000000020203F20200000A2
:104FA000000000809898000000C08080807F000092
:104FB00008F8000080808000203F24022D3020006F
:104FC000000808F8000000000020203F202000001A
:104FD0008080808080808000203F20003F20003F34
:104FE0008080008080800000203F210000203F2042
:104FF0000000808080800000001F202020201F00F3
:10500000808000808000000080FFA12020110E0021
:105010000000008080808000000E112020A0FF8012
:10502000808080008080800020203F2120000100BF
:105030000000808080808000003324242424190014
:10504000008080E0808000000000001F2020000021
:105050008080000000808000001F202020103F2062
:10506000808080000080808000010E3008060100F2
:1050700080800080008080800F300C030C300F0097
:1050800000808000808080000020312E0E312000C2
:10509000808080000080808080818E7018060100F2
:1050A00000808080808080000021302C2221300010
:1050B00000000000807C020200000000003F404031
:1050C00000000000FF00000000000000FF000000E2
:1050D0000002027C800000000040403F0000000011
:1050E00000060101020204040000000000000000AC
:1050F00010080000004B0008000000000000000045
:10510000000000000000000000000000000000009F
:10511000000000000000000000000000000000008F
:1051200000F0F0F0000000000000000000017F012E
:105130000000000000000000001C1C1C000000001B
:1051400000008060301C8C60301C0C0000000000EF
:10515000000000000000000000000000000000004F
:1051600000000000000000E00000000000E000007F
:105170000086E69F86868686E69F860000011F01E0
:10518000010101011F010100000080C06020F82022
:10519000E0C00000000003070C18FF70E181000070
:1051A0000000070F10107F100F07000080602060C4
:1051B00080000000E02000000F3020309F70DC37BE
:1051C0001030C0000000100E030007181018070070
:1051D0000000C02020E0C0000000000080E01F3878
:1051E000E88703C43C040000070F1810100B070DDC
:1051F0001010080000808C4C3800000000000000F7
:10520000000000000000000000000000000000009E
:10521000000000000000000000000000000080E02E
:10522000300804000000000000FEFF010000000044
:10523000000000000000030F1820400000040830A8
:10524000E0800000000000000000000001FFFE0000
:1052500000000000004020180F03000000000000C4
:10526000000000000000C000000000000042666670
:105270003C18FF183C666642000000000000030076
:10528000000000000000000000008000000000009E
:10529000001010101010FF1010101010000000006F
:1052A00000000300000000000000000000000000FB
:1052B00000000000000000000000000000000000EE
:1052C00000808C4C3800000000000000000000004E
:1052D000000000000000000000101010101010105E
:1052E000101010000000000000000000000000008E
:1052F00000000000000000000000000000000000AE
:10530000000000000000000000001C1C1C00000049
:10531000000000000000000000000000E0380C0069
:105320000000000080701C03000000000060380EC8
:105330000100000000000000000080C0602020602C
:10534000C080000000FEFF010000000001FFFE0021
:105350000001070E181010180E07010000008080D1
:1053600080C0E000000000000000000000FFFF001F
:105370000000000000001010101F1F10101000008F
:105380000080402020202060C08000000003030037
:10539000804020381F070000001C1A191818181820
:1053A000181F00000080C020202060C08000000086
:1053B000000303001010182FE780000000070F10F3
:1053C000101010180F070000000000000000C0E0DF
:1053D000F000000000C0B088868180FFFF80800060
:1053E000000000000010101F1F1010000000E060FF
:1053F000606060606060000000003F1008080818EE
:10540000F0E0000000070B101010101C0F0300004C
:10541000000080C040202020E0C0000000FCFF21F0
:105420001008080818F0E0000001070C1810101010
:10543000080F03000000C0E06060606060E0600092
:10544000000003000000E01807000000000000005A
:10545000001F1F00000000000080C06020202020EE
:1054600060C080000087EF2C1818303068CF8300B0
:1054700000070F0810101010180F07000000C0C020
:1054800020202020C0800000001F3F6040404020BE
:1054900010FFFE0000000C1C101010080F0300008D
:1054A00000000000000000000000000000000000FC
:1054B000000E0E0E0000000000000000001C1C1C6E
:1054C00000000000000000000000000000000000DC
:1054D00000000000000C0C000000000000000000B4
:1054E00000583800000000000000000000000080AC
:1054F000402010000000102844820100000000003D
:10550000000000000000010204081000000000007C
:1055100000000000000000000084848484848484EF
:1055200084848400000000000000000000000000EF
:10553000000010204080000000000000000000007B
:10554000000001824428100000001008040201003D
:105550000000000000C020201010101030E0C0003B
:105560000003030000F010080C0703000000000017
:105570001C1C1C0000000000000000C04060202037
:105580002040C00000FCFF01F00E03C1FE03807F3D
:105590000001070E0811111011090402000000009B
:1055A00080E0E000000000000000807C4340477F76
:1055B000F880000010181F1000000000131F1C10BE
:1055C00020E0E02020202060C080000000FFFF10CD
:1055D000101010182FE78000101F1F10101010104F
:1055E000180F0700000080C0402020202060E0004D
:1055F00000FCFF0100000000000001000001070E98
:10560000181010100804030020E0E02020202040A3
:10561000C080000000FFFF000000000001FFFE004E
:10562000101F1F10101018080E07010020E0E020C6
:10563000202020202060800000FFFF101010107C30
:1056400000000000101F1F1010101010101806008E
:1056500020E0E020202020206060800000FFFF107C
:105660001010107C00000100101F1F10000000002F
:1056700000000000000080C06020202040E000000A
:1056800000FCFF0100004040C0C140400001070E87
:10569000181010100F0F000020E0E02000000000A4
:1056A00020E0E02000FFFF101010101010FFFF009E
:1056B000101F1F1000000000101F1F1000002020EE
:1056C00020E0E020202000000000000000FFFF009C
:1056D0000000000000001010101F1F10101000002C
:1056E00000000000202020E0E0202020000000003A
:1056F000000000FFFF0000000060E0808080C07FAD
:105700003F00000020E0E020000020A060202000FA
:1057100000FFFF30187CE3C000000000101F1F10C6
:10572000000001131F1C181020E0E0200000000002
:105730000000000000FFFF0000000000000000006B
:10574000101F1F10101010101018060020E0E0E0CD
:1057500000000000E0E0E02000FF013FFEC0E01E8E
:1057600001FFFF00101F1000031F0300101F1F1078
:1057700020E0E0C0000000000020E02000FF000367
:10578000071C78E08000FF00101F100000000000E0
:10579000030F1F00000080C060202060C080000058
:1057A00000FEFF010000000000FFFE000001070EE8
:1057B000181010180C07010020E0E0202020202005
:1057C00060C0800000FFFF2020202020301F0F003D
:1057D000101F1F100000000000000000000080C02B
:1057E00060202060C080000000FEFF01000000007B
:1057F00000FFFE000001070E1111133C7C67210021
:1058000020E0E0202020202060C0800000FFFF106A
:105810001030F0D0080F0700101F1F100000000309
:105820000F1C10100080C060202020204040E000AD
:1058300000070F0C1818303060E08100001F0C08C2
:1058400010101010180F07008060202020E0E020CA
:10585000202060800100000000FFFF000000000128
:1058600000000000101F1F100000000020E0E020DA
:10587000000000000020E02000FFFF00000000000A
:105880000000FF0000070F1810101010100807008C
:105890002060E0E02000000020E060200000077FA2
:1058A000F88000807C03000000000000071F1C0738
:1058B0000000000020E0E02000E0E0200020E020E8
:1058C0000007FFF8E01FFFFCE01F00000000031FBF
:1058D0000300011F03000000002060E0A000002082
:1058E000E0602000000000038F7CF8C6010000008B
:1058F0000010181E130001171F1810002060E0E0B0
:105900002000000020E06020000001073EF8E018C1
:105910000700000000000010101F1F101000000002
:1059200000806020202020A0E0E020000000000097
:10593000C0F03E0F0300000000101C1F17101010D5
:10594000101806000000000000FC04040404040019
:105950000000000000FF0000000000000000000048
:10596000007F404040404000000010E00000000088
:105970000000000000000000031C60800000000028
:1059800000000000000000030C7080000000040410
:10599000040404FC0000000000000000000000FF00
:1059A00000000000000040404040407F0000000038
:1059B00000000010080C040C08100000000000009B
:1059C00000000000000000000000000000000000D7
:1059D00000000000000000000000000000000000C7
:1059E00000000000000000000000000080808080B7
:1059F000808080808080808000000004040808008F
:105A00000000000000000000000000000000000096
:105A10000000000000000000000000000000000086
:105A20000000000000000000000098D84464242416
:105A3000FCF80000000F1F18101010081F1F10188E
:105A40000020E0F000000000000000000000FFFF68
:105A5000180804040CF8F00000001F0F18101010B4
:105A6000180F03000000000000000000000000000C
:105A700000E0F8180404043C3800000000030F0C98
:105A800010101010080600000000000000000020A8
:105A9000E0F0000000E0F81C04040408FFFF000030
:105AA00000030F18101010081F0F0800000000005E
:105AB00000000000000000000000E0F848444444FA
:105AC0004C7870000000030F0C1810101008040030
:105AD0000000000080C0602020E0C000000404043A
