:020000040800F2
:10000000F005002031020008871900087F19000858
:100010008319000861070008B51D000800000000F2
:100020000000000000000000000000008B19000824
:100030006507000800000000891900088D190008F4
:100040005502000855020008550200085502000834
:100050005502000855020008550200085502000824
:100060005502000855020008550200085502000814
:100070005502000855020008550200085502000804
:1000800055020008550200085502000855020008F4
:1000900055020008550200085502000855020008E4
:1000A00055020008550200085502000855020008D4
:1000B00055020008550200085502000855020008C4
:1000C00055020008550200085502000855020008B4
:1000D00055020008A51D0008550200085502000839
:1000E0005502000855020008550200085502000894
:1000F0005502000855020008550200085502000884
:100100005502000855020008550200085502000873
:100110005502000855020008550200085502000863
:100120005502000855020008550200085502000853
:100130005502000855020008550200085502000843
:100140005502000855020008550200085502000833
:100150005502000855020008550200085502000823
:100160005502000855020008550200085502000813
:100170005502000855020008550200080000000062
:10018000550200085502000800F002F800F041F89E
:100190000AA090E8000C82448344AAF10107DA45E2
:1001A00001D100F036F8AFF2090EBAE80F0013F0F3
:1001B000010F18BFFB1A43F00103184758870000CE
:1001C00078870000103A24BF78C878C1FAD852075F
:1001D00024BF30C830C144BF04680C6070470000C1
:1001E0000023002400250026103A28BF78C1FBD840
:1001F000520728BF30C148BF0B607047782900F014
:10020000FD80002070471FB505F096FB1FBD10B59F
:1002100010BD00F073FA1146FFF7F5FF05F0FCF88A
:1002200000F091FA03B4FFF7F2FF03BC01F0E7FD21
:100230000C48016841F4700101600B4880470B488D
:100240000047FEE7FEE7FEE7FEE7FEE7FEE7FEE724
:10025000FEE7FEE7FEE7000005480649044A064BB4
:100260007047000088ED00E095190008890100083A
:10027000F0010020F0050020F0010020704753EA53
:10028000020C00F069802DE9F04B4FF00006002BC6
:100290001FBFB3FA83F503FA05F424FA05F65E40AE
:1002A00012BF1643B2FA82F502FA05F4C5F1200531
:1002B0001EBF22FA05FC44EA0C04203556EA044C21
:1002C0004FEA144418BF641C4FF000084FF00009B7
:1002D000904271EB030C39D3002919BFB1FA81F7B1
:1002E00001FA07F6B0FA80F700FA07F6C7F120071F
:1002F0001EBF20FA07FC46EA0C062037B6FBF4FCCA
:10030000A7EB0507103F07F01F0BCBF120060CFAF7
:100310000BFB2CFA06F644BFB3460026202FA4BFE1
:100320005E464FF0000B5BEA060C08BF4FF0010B76
:1003300019EB0B09ABFB027C48EB0608C01B06FB64
:1003400002CC0BFB03CC71EB0C01C1E70B46024660
:1003500041464846BDE8F08B13B54FF000004FF022
:100360000001AFF30080BDE81C4070470FB40449A2
:1003700010B503AA029800F0ABF910BC5DF814FBAD
:10038000080000200FB41CB5074B06AA7B44694641
:100390000090059800F083F90020694600F092F97A
:1003A0001CBC5DF814FB00003503000070B504466A
:1003B00085690068C10601D5302600E02026C00707
:1003C00007D070BDD4E9012130469047206A401C17
:1003D00020626D1EF6D570BD70B504468569007843
:1003E000C00707D170BDD4E9012120209047206AC1
:1003F000401C20626D1EF6D570BD000070B504462D
:100400000D4621461068AFF300802188090502D50A
:100410000F4A7A4402E00E4A7A440E32002104F177
:10042000240305E000F00F060009965D5E54491CA8
:100430000028F7D120780023000704D5702D02D0C2
:1004400009B1022311322046BDE8704000F0C9B85E
:10045000C48400002DE9F05F894604464FF0000A8D
:10046000DFF824B1FB44C0F820A02046E1688847AB
:1004700000287DD0252806D0D4E901219047206AA4
:10048000401C2062F1E700255F462046E16888476E
:100490002028064607DB312E05D2B81910F8200CAB
:1004A00008B10543F1E7A80701D525F00405C4F814
:1004B0001CA00027C4F818A02A2E09D0304601F04D
:1004C00097FC38B304EB8708303EC8F8186019E091
:1004D00059F8041B204604EB87029161E1688847C4
:1004E000012F064618D1E069002820DA25F0200502
:1004F0001DE0D8F8180000EB800006EB4000303813
:10050000C8F818002046E1688847064601F070FCEC
:100510000028EED1012F0AD02E2E08D12046E16806
:1005200088477F1C0646022F45F02005C4DBA069E2
:10053000002803DA404245F00105A061E80701D038
:1005400025F01005A6B1A6F14100192802D82036E1
:1005500045F400654A463146204625604D46FFF782
:100560004DFE60B1012807D0ED1D25F0070000E029
:1005700007E000F1080978E705F1040975E730465E
:100580007AE7206ABDE8F09F9A8400004FF00002ED
:1005900000B5134694469646203922BFA0E80C5079
:1005A000A0E80C50B1F12001BFF4F7AF090728BF54
:1005B000A0E80C5048BF0CC05DF804EB890028BFD0
:1005C00040F8042B08BF704748BF20F8022B11F0F9
:1005D000804F18BF00F8012B704770477047704775
:1005E00070472DE9F0470D4699469246044600F1C2
:1005F00024080168880604D5E06921F01001216013
:1006000000E00120A84201DD471B00E00027A169AE
:100610007A1902EB0900081AA0612078C00602D4FA
:100620002046FFF7C3FE002608E0D4E901211AF8AE
:1006300006009047206A401C761C20624E45F4DB81
:100640002078C0060AD52046FFF7B0FE06E0D4E9C0
:10065000012130209047206A401C2062381EA7F1FB
:100660000107F4DC07E0D4E9012118F80500904700
:10067000206A401C2062281EA5F10105F3DC2046FB
:10068000FFF7AAFE2078000602D50220BDE8F08719
:100690000120FBE701694A1C02610878704700B538
:1006A0008FB0CDE901310021059105497944CDE9AB
:1006B000031011466846FFF7CDFE0FB000BD0000E5
:1006C000E5FFFFFF0A6802F8010B0A6070470000AF
:1006D000074B70B50D467B44FFF7E1FF0446284603
:1006E00000F008F810B14FF0FF3070BD204670BD2B
:1006F00093170000007B00F080007047754600F003
:100700002BF8AE4605006946534620F007008546A3
:1007100018B020B5FFF7A0FDBDE820404FF000065F
:100720004FF000074FF000084FF0000B21F00701D9
:10073000AC46ACE8C009ACE8C009ACE8C009ACE81C
:10074000C0098D46704710B50446AFF300802046BF
:10075000BDE81040FFF766BD0048704790010020DB
:1007600000BFFEE77047000070B504461D46002339
:10077000B5F5804F13D154F822300C480340D1E92D
:10078000000640EA06108E6840EA06208E8940EA9C
:1007900006408E693043034344F8223003E06FF093
:1007A000704044F82200002070BD00000000F0CF2F
:1007B00010B503460022086853F820201248024072
:1007C000D1E901042043CC6820430C6920434C69E3
:1007D00020438C692043CC6920430C6A20434C6A37
:1007E00020438C6A2043CC6A2043CC6B20430C6BA3
:1007F000204302438868082801D142F0400208687B
:1008000043F82020002010BD8000F0FF30B50346E3
:100810000024501C53F8204004F04044D1E9000566
:1008200040EA05108D6840EA05208D8940EA0545BB
:10083000088A401E45EA0055087D801E45EA006092
:100840008D6928430443501C43F82040002030BDEC
:1008500070B50446A56D00F07DF9064694F83500A4
:10086000022808D08020606500BF002084F8340092
:1008700000BF012070BD2068006820F016002168CC
:1008800008602068406920F0800021684861206C81
:1008900008B9A06C28B12068006820F00800216821
:1008A00008602068006820F00100216808600FE0FF
:1008B00000F050F9801B05280AD92020606500BF90
:1008C000002084F8340000BF032084F83500D1E70D
:1008D0002068006800F001000028E9D194F85C105D
:1008E0003F208840A86000BF002084F8340000BF8B
:1008F000012084F835000020BCE7014691F835005E
:10090000022803D08020486501207047052081F827
:1009100035000868006820F001000A6810600020B7
:10092000F3E70000F8B502460B460025002400203E
:100930000021DEE0012606FA01F51E6806EA05043C
:10094000AC4275D11E7906F00306012E04D01E7943
:1009500006F00306022E13D190684F000326BE4016
:10096000B0434F00DE68BE403043906050680126BF
:100970008E40B0431E79C6F300168E40304350605F
:100980001E7906F00306032E09D0D0684F00032617
:10099000BE40B0434F009E68BE403043D0601E79D9
:1009A00006F00306022E13D1CF0802F1200656F8F6
:1009B00027004E07F70E0F26BE40B0434F07FF0E2D
:1009C0001E69BE403043CF0802F1200646F82700DA
:1009D00010684F000326BE40B0431E7906F00306A0
:1009E0004F00BE40304310605E6806F08056B6F19E
:1009F000805F7DD100BF00260096404E366846F4E9
:100A000080463E4F3E603E46366806F4804600967D
:100A100000BF00BF3A4E8F0856F827008E07370FE9
:100A20000F26BE40B043374EB24202D1002624E02A
:100A30005EE0354EB24201D101261EE0334EB24295
:100A400001D1022619E0324EB24201D1032614E050
:100A5000304EB24201D104260FE02F4EB24201D1F6
:100A600005260AE02D4EB24201D1062605E02C4EA5
:100A7000B24201D1072600E008268F073F0FBE4093
:100A800030431F4E8F0846F82700264E3068A0439B
:100A90005E6806F48036B6F5803F00D12043214ED3
:100AA0003060361D3068A0435E6806F40036B6F547
:100AB000003F00D120431B4E361D3060361D30688C
:100AC000A0435E6806F48016B6F5801F00D120436F
:100AD000144E08363060361D3068A0435E6806F458
:100AE0000016B6F5001F00D120430E4E0C363060C4
:100AF000491C1029FFF41EAFF8BD00004438024025
:100B00000838014000000240000402400008024092
:100B1000000C024000100240001402400018024085
:100B2000001C0240003C014010B5426921EA02036A
:100B300002EA010443EA0443836110BD0AB1816102
:100B400001E00B048361704701480068000C7047A6
:100B5000002004E0014800687047000010000020F9
:100B60000348006803490978084401490860704750
:100B7000100000201800002010B50A48006840F45A
:100B80000070084908600846006840F4806008600A
:100B9000052000F07FF80F2000F006F800F02AF89A
:100BA000002010BD003C024070B504460E4800789D
:100BB0004FF47A71B1FBF0F00C490968B1FBF0F524
:100BC000284600F087FC08B1012070BD102C07D228
:100BD00000222146501E00F01EF80548046001E086
:100BE0000120F2E70020F0E71800002000000020BC
:100BF00014000020704701460846002809DB00F079
:100C00001F0301229A4043099B0003F1E023C3F82C
:100C1000002100BF70472DE9F05F80460D46164663
:100C2000002701F0C9F8074639462A46334601F045
:100C30000700C0F1070ABAF1040F02D94FF0040A05
:100C400001E0C0F1070AD14600F1040ABAF1070F2A
:100C500002D24FF0000A01E0A0F1030AD4464FF09F
:100C6000010A0AFA09FAAAF1010A0AEA020A0AFAC8
:100C70000CFA4FF0010B0BFA0CFBABF1010B0BEA7A
:100C8000030B4AEA0B042146404601F09DF8BDE8FB
:100C9000F09F000000BF00F00702064B19684FF6F6
:100CA000FF031940044B0B4343EA0221014B196037
:100CB00000BF70470CED00E00000FA0570B5044677
:100CC0000D460CB9012070BD5848006800F00700BF
:100CD000A84209D255490D700846006800F0070087
:100CE000A84201D00120EEE7207800F0020002289F
:100CF0001DD1207800F00400042805D14C4800687C
:100D000040F4E0504A490860207800F008000828C4
:100D100005D14748006840F46040454908604448B0
:100D2000006820F0F000A16808434149086020787D
:100D300000F00100A8B36068012807D13C480838DA
:100D40000068C0F34040B8B90120BCE760680228E1
:100D500002D06068032807D1354808380068C0F31E
:100D6000406048B90120AEE7314808380068C0F358
:100D7000400008B90120A6E72D48006820F00300D4
:100D8000616808432A490860FFF7E4FE064609E067
:100D9000FFF7E0FE801B41F28831884202D9032030
:100DA00091E707E02248006800F00C006168B0EBB2
:100DB000810FEDD11D48006800F00700A84209D955
:100DC0001A490D700846006800F00700A84201D0DB
:100DD000012078E7207800F00400042807D11448A7
:100DE000006820F4E050E168084311490860207869
:100DF00000F00800082808D10D48006820F4604081
:100E0000216940EAC1000A49086000F03FF808493A
:100E10000968C1F30311074A515CC84006490860DC
:100E200006480068FFF7C0FE00204CE7003C024087
:100E30000838024042590008000000201400002039
:100E400001480068704700000000002000B5FFF76F
:100E5000F7FF04490968C1F38221034A515CC84085
:100E600000BD0000083802405259000800B5FFF7E5
:100E7000E7FF04490968C1F34231034A515CC840A5
:100E800000BD000008380240525900082DE9F04723
:100E9000002400250026A1462548006800F00C002B
:100EA00020B1042805D008283AD105E0DFF8849065
:100EB00039E0DFF8849036E01D48001F006800F03C
:100EC0003F041B48001F006800F4800078B11A48F6
:100ED0001749091F0968C1F38811A0FB0170014679
:100EE000224600233846FFF7CAF905460EE01148AE
:100EF0000F49091F0968C1F38811A0FB0170014661
:100F0000224600233846FFF7BAF905460848001F75
:100F10000068C0F30140401C4600B5FBF6F902E052
:100F2000DFF8109000BF00BF4846BDE8F087000022
:100F3000083802400024F40000127A00F8B5044694
:100F40000CB90120F8BD207800F00100002874D011
:100F5000F948006800F00C0004280DD0F64800683D
:100F600000F00C00082813D1F348001F006800F4BB
:100F70008000B0F5800F0BD1EF4808380068C0F34F
:100F80004040002859D06068002856D10120D9E798
:100F900000BF6068B0F5803F08D1E74808380068B6
:100FA00040F48030E449083908601EE06068B0F51C
:100FB000A02F0DD1E0480838006840F48020DE49B9
:100FC000083908600846006840F4803008600CE08A
:100FD000D9480838006820F48030D74908390860BB
:100FE0000846006820F48020086000BF606890B167
:100FF000FFF7B0FD054606E0FFF7ACFD401B642897
:1010000001D903209EE7CC4808380068C0F340406F
:101010000028F1D011E0FFF79DFD054606E0FFF73F
:1010200099FD401B642801D903208BE7C24808388A
:101030000068C0F340400028F1D1207800F00200A1
:1010400002285FD1BC48006800F00C0058B1BA48D3
:10105000006800F00C0008281CD1B748001F006889
:1010600000F48000B0B9B44808380068C0F340000C
:1010700020B1E068012801D0012063E7AE480838BC
:10108000006820F0F800216940EAC100AA49083947
:10109000086037E0E06800B30120A8490860FFF766
:1010A00059FD054606E0FFF755FD401B022801D912
:1010B000032047E7A04808380068C0F34000002834
:1010C000F1D09D480838006820F0F800216940EA16
:1010D000C10099490839086014E000209749086068
:1010E000FFF738FD054606E0FFF734FD401B0228F8
:1010F00001D9032026E7904808380068C0F3400073
:101100000028F1D1207800F0080008282CD160696F
:10111000A8B101208A490860FFF71CFD054606E0DA
:10112000FFF718FD401B022801D903200AE7824877
:101130006C300068C0F340000028F1D014E00020BB
:101140007F490860FFF706FD054606E0FFF702FD50
:10115000401B022801D90320F4E677486C30006870
:10116000C0F340000028F1D1207800F004000428EA
:1011700070D1002770483830006800F0805090B976
:1011800000BF002000906C483830006840F080506C
:101190006949383108600846006800F080500090C6
:1011A00000BF00BF01276748006800F48070B0B935
:1011B0006448006840F4807062490860FFF7CAFC28
:1011C000054606E0FFF7C6FC401B022801D90320B4
:1011D000B8E65C48006800F480700028F2D000BFD8
:1011E000A068012808D154486830006840F0010028
:1011F0005149683108601DE0A06805280DD14E48AE
:101200006830006840F004004B49683108600846C7
:10121000006840F0010008600CE047486830006852
:1012200020F001004449683108600846006820F059
:101230000400086000BFA068A8B1FFF78BFC05465A
:1012400009E0FFF787FC401B41F28831884202D950
:10125000032077E626E0384868300068C0F3400095
:101260000028EED013E0FFF775FC054608E0FFF715
:1012700071FC401B41F28831884201D9032061E6AC
:101280002D4868300068C0F340000028EFD1012FDE
:1012900007D129483830006820F08050264938317D
:1012A000086000BFA069002845D02348006800F00E
:1012B0000C0008285DD0A069022845D100201F49F4
:1012C0000866FFF747FC054606E0FFF743FC401BB6
:1012D000022801D9032035E6174808380068C0F312
:1012E00040600028F1D1D4E907010843616A40EA6F
:1012F00081110122A06AC2EB500041EA00412C207A
:10130000005D41EA00600C49091F086001200B499B
:101310000866FFF71FFC054606E0FFF71BFC401BB5
:10132000022801D903200DE6034808380068C0F3FD
:1013300040600028F1D049E00838024000004742F0
:10134000800E474200700040002021490866FFF7E8
:1013500001FC054606E0FFF7FDFB401B022801D912
:101360000320EFE51B480068C0F340600028F2D17D
:101370002CE0A069012800D1E4E51648001D0668AC
:10138000A069012820D006F48001E06981421BD1C8
:1013900006F03F01206A814216D147F6C070304006
:1013A000616AB0EB811F0FD106F440310122A06ABF
:1013B000C2EB5000B1EB004F06D106F070612C205B
:1013C000005DB1EB006F01D00120BBE50020B9E565
:1013D000000047420038024070B504460E461546EC
:1013E0000CB9012070BD94F8490028B9002084F898
:1013F0004800204600F01CF804F108012068FFF7BF
:10140000D7F93146A2682068FFF700FA2946236B16
:10141000D4E90102FFF7A8F9A168206850F821007B
:1014200040F00100A268216841F822000020D9E7BD
:1014300010B586B0044600BF002000902248006826
:1014400040F00100204908600846006800F00100F3
:10145000009000BF00BF00BF002000901A4808386D
:10146000006840F00800184908390860084600681C
:1014700000F00800009000BF00BF00BF00200090F7
:101480000846006840F0100008600846006800F058
:101490001000009000BF00BF4CF2037001900220CA
:1014A000029001200390022004900C20059001A9D5
:1014B0000648FFF737FA4FF68070019001A90448FB
:1014C000FFF730FA06B010BD38380240000C024079
:1014D0000010024070B504462546681EB0F1807FBA
:1014E00001D301200FE0681E4FF0E02148610F2179
:1014F0004FF0FF3000F068FC00204FF0E0218861E1
:1015000007200861002070BD704770472DE9F84F33
:101510000446206805682068C668206847694FF05F
:101520000009CA4605F00F09B9F1000F0AD105F00C
:10153000200038B106F0200020B1204600F069FA02
:10154000BDE8F88FB9F1000F72D007F0010018B9AB
:1015500006F4907000286BD005F0010030B106F45D
:10156000807018B1206C40F00100206405F0040088
:1015700030B107F0010018B1206C40F00200206487
:1015800005F0020030B107F0010018B1206C40F006
:101590000400206405F0080048B106F0200010B9EE
:1015A00007F0010018B1206C40F008002064206CA6
:1015B00070B305F0200028B106F0200010B12046DD
:1015C00000F027FA20684069C0F3801A206C00F010
:1015D000080010B9BAF1000F23D0204600F0EEF950
:1015E0002068406900F04000402816D1206840691A
:1015F00020F0400021684861A06B50B15648A16BB3
:101600000865A06BFFF779F910B1A06B016D8847F1
:101610000CE02046FFF779FF08E02046FFF775FF52
:1016200004E02046FFF771FF0020206488E7FFE711
:10163000206B012879D105F01000002875D006F044
:101640001000002871D000BF0020009020680068C2
:10165000009020684068009000BF00BF206840698B
:1016600000F04000402839D1A06B006840681FFAA4
:1016700080F8B8F1000F30D0A08D40452DDDA4F8E2
:101680002E80A06BC069B0F5807F1FD02068C06835
:1016900020F480702168C8602068406920F0010053
:1016A000216848612068406920F040002168486155
:1016B000202084F83E00002020632068C06820F0CD
:1016C00010002168C860A06BFFF7C2F8A08DE28D02
:1016D000801A81B22046FFF717FF31E7A08DE18D18
:1016E000401A1FFA80F8E08DE8B1B8F1000F1AD067
:1016F0002068C06820F490702168C8602068406944
:1017000020F0010021684861202084F83E0000207C
:1017100020632068C06820F010002168C86041463E
:101720002046FFF7F1FE0BE7FFE705F0800030B140
:1017300006F0800018B1204600F003FB00E705F03A
:10174000400030B106F0400018B1204600F051F9D9
:10175000F6E600BFF4E60000A919000810B504463B
:101760000CB9012010BDA06900B100E000BF94F8E1
:101770003D0028B9002084F83C00204600F028F8FD
:10178000242084F83D002068C06820F400502168BF
:10179000C860204600F09CF92068006920F4904061
:1017A000216808612068406920F02A0021684861AA
:1017B0002068C06840F400502168C86000202064A0
:1017C000202084F83D0084F83E000020CAE7000095
:1017D00010B586B004462E492068884255D100BF16
:1017E00000BF002000902B48006840F010002949FD
:1017F00008600846006800F01000009000BF00BFBD
:1018000000BF00BF00BF00200090224814380068CD
:1018100040F001001F49143908600846006800F0D4
:101820000100009000BF00BF00BF00BF00BF00204C
:1018300000900846006840F0010008600846006813
:1018400000F00100009000BF00BF00BF48150190EC
:1018500002200290012003900220049007200590AE
:1018600001A90D48FFF75EF84FF480600190072052
:10187000059001A90848FFF755F82520FFF7BBF9A7
:10188000032211462520FFF7C6F906B010BD00005F
:1018900000100140443802400000024070B5044688
:1018A0000D46164694F83E00202816D105B10EB913
:1018B000012070BD00BF94F83C00012801D1022036
:1018C000F7E7012084F83C0000BF00202063324687
:1018D0002946204600F012FAEBE70220E9E7000073
:1018E00010B504462049206888423BD11F48008833
:1018F00000F4004088BB1D48008800F4804070B1AF
:101900001B4800780A2803D000201849088024E0EA
:101910001648008840F40040144908801DE014482F
:1019200000780D2806D11148008840F480400F4906
:10193000088012E00E4800780C490988C1F30D01B7
:101940000C4A505409480088401C08490880084641
:101950000088C72801DD00200880012204490648CC
:10196000FFF79CFF10BD0000001001400C0000209C
:101970000E00002024000020EC000020704700BF73
:10198000FEE700BFFEE770477047704710B5FFF7EE
:10199000E7F810BD0348006840F470000149086092
:1019A0007047000088ED00E070B50546AC6B002084
:1019B000E085E0842046FFF7A8FD70BD0168C96896
:1019C00021F490710268D1600168496921F0010138
:1019D00002685161016B012905D10168C96821F0D4
:1019E00010010268D160202180F83E1000210163BF
:1019F000704710B504462068C06820F04000216898
:101A0000C860202084F83D002046FFF7B7FF002083
:101A100010BD70B5044694F83E00222856D1A06847
:101A2000B0F5805F0CD1206950B90025A66A206806
:101A30004068C0F308003080A06A801CA06215E0F6
:101A4000A56A0026A068B0F5805F03D0A06828B919
:101A5000206918B920684068287004E02068406850
:101A600000F07F002870A06A401CA062E08D401E3C
:101A700080B2E08540BB2068C06820F0200021686B
:101A8000C8602068C06820F480702168C860206841
:101A9000406920F0010021684861202084F83E0060
:101AA000206B01280AD12068C06820F0100021684E
:101AB000C860A18D2046FFF727FD02E02046FFF712
:101AC0000FFF0020206370BD0020FCE70220FAE732
:101AD0002DE9F84F04462068006920F44050E16881
:101AE0000843216808612169A068084361690843C7
:101AF000E169084300902068C06849F20C6188439E
:101B0000009908432168C8602068406920F440704B
:101B1000A16908432168486176492068884203D05A
:101B200075492068884203D1FFF7A0F9814602E099
:101B3000FFF78CF98146E069B0F5004F6CD10220C7
:101B40006168A0FB015003461920A9FB0070014603
:101B50002A463846FEF793FB6421B0FBF1F04FEACA
:101B6000001A02206168A0FB01510B461920A9FB55
:101B700000712A463846FEF782FB834602206168E0
:101B8000A0FB015003461920A9FB00712A463846E4
:101B9000FEF775FB6421B0FBF1F000EBC00101EB37
:101BA0000010ABEB8000322101EBC0006421B0FBE0
:101BB000F1F000F0F8000AEB400A02206168A0FB97
:101BC000015003461920A9FB007001462A463846F9
:101BD000FEF755FB834602206168A0FB01500346D7
:101BE0001920A9FB00712A463846FEF748FB6421FC
:101BF000B0FBF1F000EBC00101EB0010ABEB80009B
:101C0000322101EBC0006421B0FBF1F000F00700CD
:101C10005044216888606AE004206168A0FB01509C
:101C200003461920A9FB007001462A463846FEF7F4
:101C300026FB824604206168A0FB01500346192060
:101C4000A9FB007001462A463846FEF718FB6421BE
:101C5000B0FBF1F000EBC00101EB0010AAEB80003B
:101C6000322101EB00106421B0FBF1F000F0F00A2A
:101C700004206168A0FB017003461920A9FB0051F4
:101C80003A462846FEF7FBFA6421B0FBF1F00AEB76
:101C9000001A04206168A0FB01510B461920A9FB22
:101CA00000712A463846FEF7EAFA83460420616846
:101CB000A0FB015003461920A9FB007001462A46EB
:101CC0003846FEF7DCFA6421B0FBF1F000EBC0010E
:101CD00001EB0010ABEB8000322101EB001064211E
:101CE000B0FBF1F000F00F00504421688860BDE8BF
:101CF000F88F0000001001400014014010B50346A9
:101D000099629A85DA8500201864222083F83E00C3
:101D100000BF002083F83C0000BF1868C06840F492
:101D200080701C68E0601868406940F001001C6821
:101D300060611868C06840F020001C68E060002006
:101D400010BD014691F83D00212828D18868B0F5E2
:101D5000805F0BD1086948B90A6A1088C0F308008F
:101D60000B685860086A801C086205E00B6A581C02
:101D7000086218780B685860C88C401E80B2C8840E
:101D800058B90868C06820F080000B68D8600868FF
:101D9000C06840F040000B68D86000207047022007
:101DA000FCE7000010B50248FFF7B0FB10BD0000D3
:101DB000EC00002000BFFEE702480068C0F30220EC
:101DC000704700000CED00E010B5002804DB0A07A6
:101DD000130E054A135406E00A07140E034A00F0D6
:101DE0000F031B1FD45410BD00E400E018ED00E009
:101DF00030380A2801D2012070470020704700BF08
:101E0000704700000149086070470000040000208E
:101E100010B504464FF47A7104FB01F000F002F8AB
:101E200010BD000070B5034600224FF0E026756932
:101E30000D4E366803FB06F44FF0E026B16910E062
:101E40004FF0E026B06988420BD0884202D20E1AC9
:101E5000324402E02E1A0E4432440146A24200D31C
:101E600000E0EDE700BF70BD0400002000BF054AA0
:101E7000126802F04002002AF9D0C2B2014B5A6047
:101E8000704700000010014070B504460026094864
:101E90000588408845430021084603F0B3F803F065
:101EA0005FFA00BF02E004480480761CAE42FAD319
:101EB00070BD0000800100200000086010B50446DD
:101EC00058488471002C58D1F020564908804FF4AE
:101ED000A07048800846808845F21051884210D191
:101EE0004FF430504F4908814FF4285048814FF447
:101EF0002C5088814FF4F07008804FF4487048806F
:101F00001AE04848808841F6631188420DD12C20A0
:101F1000444908812B2048812A2088814FF4F070A1
:101F200008804FF44870488006E02C203D49088125
:101F30002A2048812B2088813A48808845F2103138
:101F4000884205D03748808847F29671884206D18A
:101F50004FF4A070334908804FF4F0704880314846
:101F6000808849F60601884258D14FF4F0702D4917
:101F700008804FF44870488050E04FF4A070294921
:101F80000880F02048800846808845F21051884239
:101F900010D14FF43050234908814FF42850488124
:101FA0004FF42C5088814FF4487008804FF4F07043
:101FB000488020E01B48808841F66311884205D0A4
:101FC0001848808849F6060188420DD12C20154911
:101FD00008812A2048812B2088814FF4487008808E
:101FE0004FF4F070488006E02C200E4908812A202A
:101FF00048812B2088810B48808845F21031884227
:1020000005D00848808847F29671884206D14FF47F
:10201000F070044908804FF4A0704880002002F05E
:10202000D3FE10BD8001002070B505460E46144653
:102030003146284602F0E6FF03F092F901490C8090
:1020400070BD00000000086010B5CF2003F07CF9DF
:10205000002003F06DF9C12003F06AF9302003F08D
:1020600067F9ED2003F070F9642003F061F90320B3
:1020700003F05EF9122003F05BF9812003F058F9B8
:10208000E82003F061F9852003F052F9102003F0F5
:102090004FF97A2003F04CF9CB2003F055F93920A1
:1020A00003F046F92C2003F043F9002003F040F937
:1020B000342003F03DF9022003F03AF9F72003F051
:1020C00043F9202003F034F9EA2003F03DF9002021
:1020D00003F02EF9002003F02BF9C02003F034F9AF
:1020E0001B2003F025F9C12003F02EF9012003F095
:1020F0001FF9C52003F028F9302003F019F930202A
:1021000003F016F9C72003F01FF9B72003F010F908
:10211000362003F019F9482003F00AF93A2003F0B9
:1021200013F9552003F004F9B12003F00DF9002054
:1021300003F0FEF81A2003F0FBF8B62003F004F9D0
:102140000A2003F0F5F8A22003F0F2F8F22003F0E1
:10215000FBF8002003F0ECF8262003F0F5F801204E
:1021600003F0E6F8E02003F0EFF80F2003F0E0F8CA
:102170002A2003F0DDF8282003F0DAF8082003F025
:10218000D7F80E2003F0D4F8082003F0D1F854203B
:1021900003F0CEF8A92003F0CBF8432003F0C8F8F1
:1021A0000A2003F0C5F80F2003F0C2F8002003F066
:1021B000BFF8002003F0BCF8002003F0B9F80020BD
:1021C00003F0B6F8E12003F0BFF8002003F0B0F808
:1021D000152003F0ADF8172003F0AAF8072003F04C
:1021E000A7F8112003F0A4F8062003F0A1F82B2093
:1021F00003F09EF8562003F09BF83C2003F098F87B
:10220000052003F095F8102003F092F80F2003F05A
:102210008FF83F2003F08CF83F2003F089F80F205F
:1022200003F086F82B2003F08FF8002003F080F8ED
:10223000002003F07DF8012003F07AF83F2003F03E
:1022400077F82A2003F080F8002003F071F80020CE
:1022500003F06EF8002003F06BF8EF2003F068F84D
:10226000112003F071F87820FFF7D2FD292003F048
:102270006BF810BD10B5FF2003F066F8FF2003F0E7
:1022800057F8982003F054F8062003F051F8BC20CA
:1022900003F05AF8012003F04BF80F2003F048F840
:1022A000612003F045F8FF2003F042F8012003F01D
:1022B0003FF8012003F03CF80B2003F039F8102020
:1022C00003F036F8372003F033F8632003F030F8DA
:1022D000FF2003F02DF8FF2003F02AF8012003F07F
:1022E00027F8012003F024F8002003F021F8002053
:1022F00003F01EF8FF2003F01BF8522003F018F83B
:10230000012003F015F8002003F012F8402003F03C
:102310000FF8BD2003F018F8012003F009F823207E
:1023200003F006F8452003F003F8672003F000F8F7
:10233000012002F0FDFF232002F0FAFF452002F009
:10234000F7FF672002F0F4FFBE2002F0FDFF00203F
:1023500002F0EEFF012002F0EBFFAB2002F0E8FFFD
:10236000602002F0E5FF222002F0E2FF222002F0CE
:10237000DFFF222002F0DCFF222002F0D9FF222022
:1023800002F0D6FFC72002F0DFFF362002F0D0FFB8
:10239000ED2002F0D9FF7F2002F0CAFF0F2002F0EB
:1023A000C7FFC02002F0D0FF0F2002F0C1FF0B20BA
:1023B00002F0BEFF0A2002F0BBFFFC2002F0C4FFC7
:1023C000082002F0B5FFDF2002F0BEFF002002F07F
:1023D000AFFF002002F0ACFF002002F0A9FF0020B8
:1023E00002F0A6FF002002F0A3FF202002F0A0FFD1
:1023F000F32002F0A9FF742002F09AFFB42002F04B
:10240000A3FF002002F094FF002002F091FF0020C3
:1024100002F08EFFF72002F097FF822002F088FF83
:10242000B12002F091FF002002F082FF132002F0A1
:102430007FFF132002F07CFFF22002F085FF802056
:1024400002F076FF042002F073FF402002F070FFDC
:10245000282002F06DFFC12002F076FF172002F065
:1024600067FF882002F064FF882002F061FF2020CF
:1024700002F05EFFE02002F067FF002002F058FF4C
:102480000A2002F055FF122002F052FF102002F045
:102490004FFF0E2002F04CFF202002F049FFCC201D
:1024A00002F046FF072002F043FF062002F040FF43
:1024B0000B2002F03DFF0E2002F03AFF0F2002F049
:1024C00037FF0D2002F034FF152002F031FF1020FD
:1024D00002F02EFF002002F02BFFE12002F034FF7B
:1024E000002002F025FF0B2002F022FF132002F053
:1024F0001FFF0D2002F01CFF0E2002F019FF1B2011
:1025000002F016FF712002F013FF062002F010FF08
:10251000062002F00DFF0A2002F00AFF0F2002F051
:1025200007FF0E2002F004FF0F2002F001FF15202C
:1025300002F0FEFE0C2002F0FBFE002002F0F8FE8E
:102540002A2002F001FF002002F0F2FE002002F03B
:10255000EFFE012002F0ECFEDF2002F0E9FE2B206E
:1025600002F0F2FE002002F0E3FE002002F0E0FEA6
:10257000032002F0DDFE1F2002F0DAFE3A2002F016
:10258000E3FE552002F0D4FE362002F0DDFE0020EE
:1025900002F0CEFE112002F0D7FE7820FFF738FCC3
:1025A000292002F0D1FE1420FFF732FC2C2002F08B
:1025B000CBFE10BD10B5ED2002F0C6FE012002F0EA
:1025C000B7FEFE2002F0B4FEEE2002F0BDFEDE20DB
:1025D00002F0AEFE212002F0ABFEF12002F0B4FECC
:1025E000012002F0A5FEDF2002F0AEFE102002F076
:1025F0009FFEC42002F0A8FE8F2002F099FEC620A4
:1026000002F0A2FE002002F093FEE22002F090FE13
:10261000E22002F08DFEE22002F08AFEBF2002F0EE
:1026200093FEAA2002F084FEB02002F08DFE0D2061
:1026300002F07EFE002002F07BFE0D2002F078FE0C
:10264000002002F075FE112002F072FE002002F060
:102650006FFE192002F06CFE002002F069FE2120BE
:1026600002F066FE002002F063FE2D2002F060FE04
:10267000002002F05DFE3D2002F05AFE002002F034
:1026800057FE5D2002F054FE002002F051FE5D2056
:1026900002F04EFE002002F04BFEB12002F054FE8C
:1026A000802002F045FE002002F042FE8B2002F066
:1026B0003FFE002002F03CFE962002F039FE002092
:1026C00002F036FEB22002F03FFE002002F030FEA3
:1026D000002002F02DFE022002F02AFE002002F06F
:1026E00027FE032002F024FE002002F021FEB3208A
:1026F00002F02AFE002002F01BFE002002F018FE6D
:10270000002002F015FE002002F012FE002002F070
:102710000FFE002002F00CFE002002F009FE002057
:1027200002F006FE002002F003FE002002F000FE90
:10273000002002F0FDFD002002F0FAFD002002F072
:10274000F7FD002002F0F4FD002002F0F1FD002072
:1027500002F0EEFD002002F0EBFD002002F0E8FDAB
:10276000002002F0E5FD002002F0E2FD002002F072
:10277000DFFD002002F0DCFD002002F0D9FD00208A
:1027800002F0D6FDB42002F0DFFD8B2002F0D0FD78
:10279000002002F0CDFD962002F0CAFD002002F0DC
:1027A000C7FDA12002F0C4FD002002F0C1FDB5204C
:1027B00002F0CAFD022002F0BBFD002002F0B8FDCD
:1027C000032002F0B5FD002002F0B2FD042002F06B
:1027D000AFFD002002F0ACFDB62002F0B5FD0020F8
:1027E00002F0A6FD002002F0A3FDB72002F0ACFD30
:1027F000002002F09DFD002002F09AFD3F2002F033
:1028000097FD002002F094FD5E2002F091FD002073
:1028100002F08EFD642002F08BFD002002F088FDA6
:102820008C2002F085FD002002F082FDAC2002F039
:102830007FFD002002F07CFDDC2002F079FD00200D
:1028400002F076FD702002F073FD002002F070FDB2
:10285000902002F06DFD002002F06AFDEB2002F0F6
:1028600067FD002002F064FDDC2002F061FD002025
:1028700002F05EFDB82002F067FD002002F058FD76
:10288000002002F055FD002002F052FD002002F071
:102890004FFD002002F04CFD002002F049FD002019
:1028A00002F046FD002002F043FDBA2002F04CFD8C
:1028B000242002F03DFD002002F03AFD002002F04D
:1028C00037FD002002F034FDC12002F03DFD202044
:1028D00002F02EFD002002F02BFD542002F028FD16
:1028E000002002F025FDFF2002F022FD002002F072
:1028F0001FFDC22002F028FD0A2002F019FD002071
:1029000002F016FD042002F013FD002002F010FD7D
:10291000C32002F019FD3C2002F00AFD002002F065
:1029200007FD3A2002F004FD002002F001FD3920ED
:1029300002F0FEFC002002F0FBFC372002F0F8FC65
:10294000002002F0F5FC3C2002F0F2FC002002F036
:10295000EFFC362002F0ECFC002002F0E9FC322013
:1029600002F0E6FC002002F0E3FC2F2002F0E0FC85
:10297000002002F0DDFC2C2002F0DAFC002002F046
:10298000D7FC292002F0D4FC002002F0D1FC262044
:1029900002F0CEFC002002F0CBFC242002F0C8FCA8
:1029A000002002F0C5FC242002F0C2FC002002F04E
:1029B000BFFC232002F0BCFC002002F0B9FC3C204C
:1029C00002F0B6FC002002F0B3FC362002F0B0FCAE
:1029D000002002F0ADFC322002F0AAFC002002F040
:1029E000A7FC2F2002F0A4FC002002F0A1FC2C2068
:1029F00002F09EFC002002F09BFC292002F098FCD3
:102A0000002002F095FC262002F092FC002002F04B
:102A10008FFC242002F08CFC002002F089FC242092
:102A200002F086FC002002F083FC232002F080FCF0
:102A3000002002F07DFCC42002F086FC622002F03F
:102A400077FC002002F074FC052002F071FC0020ED
:102A500002F06EFC842002F06BFC002002F068FCA7
:102A6000F02002F065FC002002F062FC182002F069
:102A70005FFC002002F05CFCA42002F059FC002066
:102A800002F056FC182002F053FC002002F050FC2B
:102A9000502002F04DFC002002F04AFC0C2002F015
:102AA00047FC002002F044FC172002F041FC00200B
:102AB00002F03EFC952002F03BFC002002F038FCC6
:102AC000F32002F035FC002002F032FCE62002F098
:102AD0002FFC002002F02CFCC52002F035FC322037
:102AE00002F026FC002002F023FC442002F020FC2F
:102AF000002002F01DFC652002F01AFC002002F00C
:102B000017FC762002F014FC002002F011FC882053
:102B100002F00EFC002002F00BFCC62002F014FCB8
:102B2000202002F005FC002002F002FC172002F039
:102B3000FFFB002002F0FCFB012002F0F9FB00206B
:102B400002F0F6FBC72002F0FFFB002002F0F0FBD2
:102B5000002002F0EDFB002002F0EAFB002002F072
:102B6000E7FBC82002F0F0FB002002F0E1FB0020B0
:102B700002F0DEFB002002F0DBFB002002F0D8FBBD
:102B8000C92002F0E1FB002002F0D2FB002002F09D
:102B9000CFFB002002F0CCFB002002F0C9FB00209C
:102BA00002F0C6FB002002F0C3FB002002F0C0FBD5
:102BB000002002F0BDFB002002F0BAFB002002F072
:102BC000B7FB002002F0B4FB002002F0B1FB0020B4
:102BD00002F0AEFB002002F0ABFB002002F0A8FBED
:102BE000002002F0A5FBE02002F0AEFB162002F070
:102BF0009FFB002002F09CFB1C2002F099FB0020B0
:102C000002F096FB212002F093FB002002F090FBE3
:102C1000362002F08DFB002002F08AFB462002F0F5
:102C200087FB002002F084FB522002F081FB002091
:102C300002F07EFB642002F07BFB002002F078FBB8
:102C40007A2002F075FB002002F072FB8B2002F06C
:102C50006FFB002002F06CFB992002F069FB002062
:102C600002F066FBA82002F063FB002002F060FB8C
:102C7000B92002F05DFB002002F05AFBC42002F0F4
:102C800057FB002002F054FBCA2002F051FB002049
:102C900002F04EFBD22002F04BFB002002F048FB7A
:102CA000D92002F045FB002002F042FBE02002F0B8
:102CB0003FFB002002F03CFBF32002F039FB002038
:102CC00002F036FBE12002F03FFB162002F030FB61
:102CD000002002F02DFB1C2002F02AFB002002F055
:102CE00027FB222002F024FB002002F021FB3620EB
:102CF00002F01EFB002002F01BFB452002F018FB37
:102D0000002002F015FB522002F012FB002002F01E
:102D10000FFB642002F00CFB002002F009FB7A207C
:102D200002F006FB002002F003FB8B2002F000FB08
:102D3000002002F0FDFA992002F0FAFA002002F0D9
:102D4000F7FAA82002F0F4FA002002F0F1FAB92014
:102D500002F0EEFA002002F0EBFAC42002F0E8FAEA
:102D6000002002F0E5FACA2002F0E2FA002002F0A8
:102D7000DFFAD22002F0DCFA002002F0D9FAD820E3
:102D800002F0D6FA002002F0D3FAE02002F0D0FAE6
:102D9000002002F0CDFAF32002F0CAFA002002F07F
:102DA000C7FAE22002F0D0FA052002F0C1FA0020B2
:102DB00002F0BEFA0B2002F0BBFA002002F0B8FAD3
:102DC0001B2002F0B5FA002002F0B2FA342002F023
:102DD000AFFA002002F0ACFA442002F0A9FA002079
:102DE00002F0A6FA4F2002F0A3FA002002F0A0FAA7
:102DF000612002F09DFA002002F09AFA792002F098
:102E000097FA002002F094FA882002F091FA00204C
:102E100002F08EFA972002F08BFA002002F088FA76
:102E2000A62002F085FA002002F082FAB72002F014
:102E30007FFA002002F07CFAC22002F079FA00202A
:102E400002F076FAC72002F073FA002002F070FA5E
:102E5000D12002F06DFA002002F06AFAD62002F0CA
:102E600067FA002002F064FADD2002F061FA002027
:102E700002F05EFAF32002F05BFA002002F058FA4A
:102E8000E32002F061FA052002F052FA002002F07D
:102E90004FFA0A2002F04CFA002002F049FA1C20F6
:102EA00002F046FA002002F043FA332002F040FA22
:102EB000002002F03DFA442002F03AFA002002F02D
:102EC00037FA502002F034FA002002F031FA622082
:102ED00002F02EFA002002F02BFA782002F028FAF5
:102EE000002002F025FA882002F022FA002002F0E9
:102EF0001FFA972002F01CFA002002F019FAA6200F
:102F000002F016FA002002F013FAB72002F010FACD
:102F1000002002F00DFAC22002F00AFA002002F0AE
:102F200007FAC72002F004FA002002F001FAD120CB
:102F300002F0FEF9002002F0FBF9D52002F0F8F9CA
:102F4000002002F0F5F9DD2002F0F2F9002002F095
:102F5000EFF9F32002F0ECF9002002F0E9F9E420A7
:102F600002F0F2F9012002F0E3F9002002F0E0F9AA
:102F7000012002F0DDF9002002F0DAF9022002F06F
:102F8000D7F9002002F0D4F92A2002F0D1F900206C
:102F900002F0CEF93C2002F0CBF9002002F0C8F993
:102FA0004B2002F0C5F9002002F0C2F95D2002F0CA
:102FB000BFF9002002F0BCF9742002F0B9F900203A
:102FC00002F0B6F9842002F0B3F9002002F0B0F963
:102FD000932002F0ADF9002002F0AAF9A22002F03D
:102FE000A7F9002002F0A4F9B32002F0A1F9002013
:102FF00002F09EF9BE2002F09BF9002002F098F941
:10300000C42002F095F9002002F092F9CD2002F0E0
:103010008FF9002002F08CF9D32002F089F900200A
:1030200002F086F9DD2002F083F9002002F080F939
:10303000F32002F07DF9002002F07AF9E52002F099
:1030400083F9002002F074F9002002F071F90020E9
:1030500002F06EF9002002F06BF9022002F068F92C
:10306000002002F065F9292002F062F9002002F048
:103070005FF93C2002F05CF9002002F059F94B2086
:1030800002F056F9002002F053F95D2002F050F9E9
:10309000002002F04DF9742002F04AF9002002F0FD
:1030A00047F9842002F044F9002002F041F993200E
:1030B00002F03EF9002002F03BF9A22002F038F9BC
:1030C000002002F035F9B32002F032F9002002F0BE
:1030D0002FF9BE2002F02CF9002002F029F9C420BB
:1030E00002F026F9002002F023F9CD2002F020F9A9
:1030F000002002F01DF9D32002F01AF9002002F09E
:1031000017F9DC2002F014F9002002F011F9F32085
:1031100002F00EF9002002F00BF9E62002F014F99B
:10312000112002F005F9002002F002F9342002F02B
:10313000FFF8002002F0FCF8562002F0F9F8002019
:1031400002F0F6F8762002F0F3F8002002F0F0F832
:10315000772002F0EDF8002002F0EAF8662002F095
:10316000E7F8002002F0E4F8882002F0E1F80020FF
:1031700002F0DEF8992002F0DBF8002002F0D8F827
:10318000BB2002F0D5F8002002F0D2F8992002F01E
:10319000CFF8002002F0CCF8662002F0C9F8002039
:1031A00002F0C6F8552002F0C3F8002002F0C0F883
:1031B000552002F0BDF8002002F0BAF8452002F0D8
:1031C000B7F8002002F0B4F8432002F0B1F8002074
:1031D00002F0AEF8442002F0ABF8002002F0A8F8AC
:1031E000E72002F0B1F8322002F0A2F8002002F04D
:1031F0009FF8552002F09CF8002002F099F8762004
:1032000002F096F8002002F093F8662002F090F8A1
:10321000002002F08DF8672002F08AF8002002F00A
:1032200087F8672002F084F8002002F081F88720F8
:1032300002F07EF8002002F07BF8992002F078F886
:10324000002002F075F8BB2002F072F8002002F0B6
:103250006FF8992002F06CF8002002F069F87720EE
:1032600002F066F8002002F063F8442002F060F8F3
:10327000002002F05DF8562002F05AF8002002F01B
:1032800057F8232002F054F8002002F051F83320C0
:1032900002F04EF8002002F04BF8452002F048F80A
:1032A000002002F045F8E82002F04EF8002002F07D
:1032B0003FF8002002F03CF8992002F039F8002095
:1032C00002F036F8872002F033F8002002F030F8E0
:1032D000882002F02DF8002002F02AF8772002F072
:1032E00027F8002002F024F8662002F021F80020E0
:1032F00002F01EF8882002F01BF8002002F018F8F7
:10330000AA2002F015F8002002F012F8BB2002F00B
:103310000FF8002002F00CF8992002F009F80020C4
:1033200002F006F8662002F003F8002002F000F830
:10333000552001F0FDFF002001F0FAFF552001F0BB
:10334000F7FF002001F0F4FF442001F0F1FF00201E
:1033500001F0EEFF442001F0EBFF002001F0E8FF58
:10336000552001F0E5FF002001F0E2FFE92001F027
:10337000EBFFAA2001F0DCFF002001F0D9FF0020C4
:1033800001F0D6FF002001F0D3FF002001F0DCFFA8
:10339000AA2001F0CDFFCF2001F0D6FF002001F0E0
:1033A000C7FF002001F0C4FF002001F0C1FF002092
:1033B00001F0BEFF002001F0BBFF002001F0B8FFCC
:1033C000002001F0B5FF002001F0B2FF002001F065
:1033D000AFFF002001F0ACFF002001F0A9FF0020AA
:1033E00001F0A6FF002001F0A3FF002001F0A0FFE4
:1033F000002001F09DFF002001F09AFF002001F065
:1034000097FFF02001F0A0FF002001F091FF502075
:1034100001F08EFF002001F08BFF002001F088FFFB
:10342000002001F085FFF32001F08EFF002001F065
:103430007FFFF92001F088FF062001F079FF1020BE
:1034400001F076FF292001F073FF002001F070FFEA
:103450003A2001F079FF552001F06AFF112001F0B8
:1034600073FF6420FEF7D4FC292001F06DFF3520A6
:1034700001F06AFF002001F05BFF512001F064FFC2
:10348000FF2001F055FF532001F05EFF2C2001F0DA
:103490004FFF552001F058FF822001F049FF2C20FA
:1034A00001F052FF10BD10B555214FF4704001F0EE
:1034B00061FFAA214FF2010001F05CFF52214FF29F
:1034C000020001F057FF08214FF2030001F052FF04
:1034D00001214FF2040001F04DFF0D214FF4304067
:1034E00001F048FF0D214BF2010001F043FF0D21D7
:1034F0004BF2020001F03EFF34214FF4364001F060
:1035000039FF34214BF2016001F034FF34214BF2DA
:10351000026001F02FFF0D214FF4314001F02AFF2E
:103520000D214BF2011001F025FF0D214BF202108D
:1035300001F020FF34214FF4374001F01BFF34210C
:103540004BF2017001F016FF34214BF2027001F0D2
:1035500011FF00214FF4324001F00CFF00214BF22B
:10356000012001F007FF00214BF2022001F002FFD1
:1035700024214FF4384001F0FDFE24214BF60100D8
:1035800001F0F8FE24214BF6020001F0F3FE0121C8
:103590004FF43F4001F0EEFE0F214FF4334001F0B5
:1035A000E9FE0F214BF2013001F0E4FE0F214BF256
:1035B000023001F0DFFE34214FF4394001F0DAFE31
:1035C00034214BF6011001F0D5FE34214BF60210E8
:1035D00001F0D0FE08214FF4354001F0CBFE082168
:1035E0004BF2015001F0C6FE08214BF2025001F0EF
:1035F000C1FE03214FF4424001F0BCFE24214FF4F0
:103600003A4001F0B7FE24214BF6012001F0B2FE52
:1036100024214BF6022001F0ADFE00214FF43C4086
:1036200001F0A8FE78214BF6014001F0A3FE002135
:103630004BF6024001F09EFE00214FF43D4001F0A8
:1036400099FE78214BF6015001F094FE00214BF6D3
:10365000025001F08FFE00214FF43E4001F08AFE3F
:1036600064214BF6016001F085FE00214FF45140CA
:1036700001F080FE33214DF2011001F07BFE0021AC
:103680004DF2021001F076FE34214DF2031001F0EC
:1036900071FE00214DF2041001F06CFE3A214DF252
:1036A000051001F067FE00214DF2061001F062FEE8
:1036B0004A214DF2071001F05DFE00214DF2081085
:1036C00001F058FE5C214DF2091001F053FE00217B
:1036D0004DF20A1001F04EFE81214DF20B1001F067
:1036E00049FE00214DF20C1001F044FEA6214DF2DE
:1036F0000D1001F03FFE00214DF20E1001F03AFED8
:10370000E5214DF20F1001F035FE01214DF21010B0
:1037100001F030FE13214DF2111001F02BFE0121BA
:103720004DF2121001F026FE54214DF2131001F05B
:1037300021FE01214DF2141001F01CFE82214DF2F8
:10374000151001F017FE01214DF2161001F012FEC6
:10375000CA214DF2171001F00DFE02214DF2181092
:1037600001F008FE00214DF2191001F003FE0221C4
:103770004DF21A1001F0FEFD01214DF21B1001F077
:10378000F9FD02214DF21C1001F0F4FD34214DF23F
:103790001D1001F0EFFD02214DF21E1001F0EAFDB7
:1037A00067214DF21F1001F0E5FD02214DF22010BE
:1037B00001F0E0FD84214DF2211001F0DBFD02213A
:1037C0004DF2221001F0D6FDA4214DF2231001F09C
:1037D000D1FD02214DF2241001F0CCFDB7214DF2B4
:1037E000251001F0C7FD02214DF2261001F0C2FDA7
:1037F000CF214DF2271001F0BDFD02214DF228101E
:1038000001F0B8FDDE214DF2291001F0B3FD0221D7
:103810004DF22A1001F0AEFDF2214DF22B1001F015
:10382000A9FD02214DF22C1001F0A4FDFE214DF264
:103830002D1001F09FFD03214DF22E1001F09AFD95
:1038400010214DF22F1001F095FD03214DF23010A3
:1038500001F090FD33214DF2311001F08BFD032179
:103860004DF2321001F086FD6D214DF2331001F062
:1038700081FD00214FF4524001F07CFD33214DF2D7
:10388000012001F077FD00214DF2022001F072FDD0
:1038900034214DF2032001F06DFD00214DF2042092
:1038A00001F068FD3A214DF2052001F063FD002191
:1038B0004DF2062001F05EFD4A214DF2072001F095
:1038C00059FD00214DF2082001F054FD5C214DF21C
:1038D000092001F04FFD00214DF20A2001F04AFDC0
:1038E00081214DF20B2001F045FD00214DF20C200D
:1038F00001F040FDA6214DF20D2001F03BFD00211D
:103900004DF20E2001F036FDE5214DF20F2001F0C1
:1039100031FD01214DF2102001F02CFD13214DF25B
:10392000112001F027FD01214DF2122001F022FDAE
:1039300054214DF2132001F01DFD01214DF2142000
:1039400001F018FD82214DF2152001F013FD012137
:103950004DF2162001F00EFDCA214DF2172001F0A4
:1039600009FD02214DF2182001F004FD00214DF265
:10397000192001F0FFFC02214DF21A2001F0FAFC9F
:1039800001214DF21B2001F0F5FC02214DF21C201B
:1039900001F0F0FC34214DF21D2001F0EBFC02217E
:1039A0004DF21E2001F0E6FC67214DF21F2001F0D0
:1039B000E1FC02214DF2202001F0DCFC84214DF2DB
:1039C000212001F0D7FC02214DF2222001F0D2FC8F
:1039D000A4214DF2232001F0CDFC02214DF2242040
:1039E00001F0C8FCB7214DF2252001F0C3FC0221F3
:1039F0004DF2262001F0BEFCCF214DF2272001F030
:103A0000B9FC02214DF2282001F0B4FCDE214DF278
:103A1000292001F0AFFC02214DF22A2001F0AAFC7E
:103A2000F2214DF22B2001F0A5FC02214DF22C20B9
:103A300001F0A0FCFE214DF22D2001F09BFC0321A2
:103A40004DF22E2001F096FC10214DF22F2001F0B6
:103A500091FC03214DF2302001F08CFC33214DF21A
:103A6000312001F087FC03214DF2322001F082FC6D
:103A70006D214DF2332001F07DFC00214FF45340C5
:103A800001F078FC33214DF2013001F073FC00218C
:103A90004DF2023001F06EFC34214DF2033001F0A2
:103AA00069FC00214DF2043001F064FC3A214DF232
:103AB000053001F05FFC00214DF2063001F05AFCA8
:103AC0004A214DF2073001F055FC00214DF208303B
:103AD00001F050FC5C214DF2093001F04BFC00215B
:103AE0004DF20A3001F046FC81214DF20B3001F01D
:103AF00041FC00214DF20C3001F03CFCA6214DF2BE
:103B00000D3001F037FC00214DF20E3001F032FC97
:103B1000E5214DF20F3001F02DFC01214DF2103066
:103B200001F028FC13214DF2113001F023FC01219A
:103B30004DF2123001F01EFC54214DF2133001F011
:103B400019FC01214DF2143001F014FC82214DF2D8
:103B5000153001F00FFC01214DF2163001F00AFC86
:103B6000CA214DF2173001F005FC02214DF2183048
:103B700001F000FC00214DF2193001F0FBFB0221A5
:103B80004DF21A3001F0F6FB01214DF21B3001F02D
:103B9000F1FB02214DF21C3001F0ECFB34214DF21F
:103BA0001D3001F0E7FB02214DF21E3001F0E2FB77
:103BB00067214DF21F3001F0DDFB02214DF2203074
:103BC00001F0D8FB84214DF2213001F0D3FB02211A
:103BD0004DF2223001F0CEFBA4214DF2233001F052
:103BE000C9FB02214DF2243001F0C4FBB7214DF294
:103BF000253001F0BFFB02214DF2263001F0BAFB67
:103C0000CF214DF2273001F0B5FB02214DF22830D3
:103C100001F0B0FBDE214DF2293001F0ABFB0221B7
:103C20004DF22A3001F0A6FBF2214DF22B3001F0CB
:103C3000A1FB02214DF22C3001F09CFBFE214DF244
:103C40002D3001F097FB03214DF22E3001F092FB55
:103C500010214DF22F3001F08DFB03214DF2303059
:103C600001F088FB33214DF2313001F083FB032159
:103C70004DF2323001F07EFB6D214DF2333001F018
:103C800079FB00214FF4544001F074FB33214DF2D5
:103C9000014001F06FFB00214DF2024001F06AFB90
:103CA00034214DF2034001F065FB00214DF2044048
:103CB00001F060FB3A214DF2054001F05BFB002171
:103CC0004DF2064001F056FB4A214DF2074001F04B
:103CD00051FB00214DF2084001F04CFB5C214DF2FC
:103CE000094001F047FB00214DF20A4001F042FB80
:103CF00081214DF20B4001F03DFB00214DF20C40C3
:103D000001F038FBA6214DF20D4001F033FB0021FC
:103D10004DF20E4001F02EFBE5214DF20F4001F077
:103D200029FB01214DF2104001F024FB13214DF23B
:103D3000114001F01FFB01214DF2124001F01AFB6E
:103D400054214DF2134001F015FB01214DF21440B6
:103D500001F010FB82214DF2154001F00BFB012117
:103D60004DF2164001F006FBCA214DF2174001F05A
:103D700001FB02214DF2184001F0FCFA00214DF246
:103D8000194001F0F7FA02214DF21A4001F0F2FA5F
:103D900001214DF21B4001F0EDFA02214DF21C40D1
:103DA00001F0E8FA34214DF21D4001F0E3FA02215E
:103DB0004DF21E4001F0DEFA67214DF21F4001F086
:103DC000D9FA02214DF2204001F0D4FA84214DF2BB
:103DD000214001F0CFFA02214DF2224001F0CAFA4F
:103DE000A4214DF2234001F0C5FA02214DF22440F6
:103DF00001F0C0FAB7214DF2254001F0BBFA0221D3
:103E00004DF2264001F0B6FACF214DF2274001F0E5
:103E1000B1FA02214DF2284001F0ACFADE214DF258
:103E2000294001F0A7FA02214DF22A4001F0A2FA3E
:103E3000F2214DF22B4001F09DFA02214DF22C406F
:103E400001F098FAFE214DF22D4001F093FA032182
:103E50004DF22E4001F08EFA10214DF22F4001F06C
:103E600089FA03214DF2304001F084FA33214DF2FA
:103E7000314001F07FFA03214DF2324001F07AFA2D
:103E80006D214DF2334001F075FA00214FF4554099
:103E900001F070FA33214DF2015001F06BFA00216C
:103EA0004DF2025001F066FA34214DF2035001F058
:103EB00061FA00214DF2045001F05CFA3A214DF212
:103EC000055001F057FA00214DF2065001F052FA68
:103ED0004A214DF2075001F04DFA00214DF20850F1
:103EE00001F048FA5C214DF2095001F043FA00213B
:103EF0004DF20A5001F03EFA81214DF20B5001F0D3
:103F000039FA00214DF20C5001F034FAA6214DF29D
:103F10000D5001F02FFA00214DF20E5001F02AFA57
:103F2000E5214DF20F5001F025FA01214DF210501C
:103F300001F020FA13214DF2115001F01BFA01217A
:103F40004DF2125001F016FA54214DF2135001F0C7
:103F500011FA01214DF2145001F00CFA82214DF2B8
:103F6000155001F007FA01214DF2165001F002FA46
:103F7000CA214DF2175001F0FDF902214DF21850FF
:103F800001F0F8F900214DF2195001F0F3F9022186
:103F90004DF21A5001F0EEF901214DF21B5001F0E3
:103FA000E9F902214DF21C5001F0E4F934214DF2FF
:103FB0001D5001F0DFF902214DF21E5001F0DAF937
:103FC00067214DF21F5001F0D5F902214DF220502A
:103FD00001F0D0F984214DF2215001F0CBF90221FA
:103FE0004DF2225001F0C6F9A4214DF2235001F008
:103FF000C1F902214DF2245001F0BCF9B7214DF274
:10400000255001F0B7F902214DF2265001F0B2F926
:10401000CF214DF2275001F0ADF902214DF2285089
:1040200001F0A8F9DE214DF2295001F0A3F9022197
:104030004DF22A5001F09EF9F2214DF22B5001F081
:1040400099F902214DF22C5001F094F9FE214DF224
:104050002D5001F08FF903214DF22E5001F08AF915
:1040600010214DF22F5001F085F903214DF230500F
:1040700001F080F933214DF2315001F07BF9032139
:104080004DF2325001F076F96D214DF2335001F0CE
:1040900071F900214FF4564001F06CF933214DF2D3
:1040A000016001F067F900214DF2026001F062F950
:1040B00034214DF2036001F05DF900214DF20460FE
:1040C00001F058F93A214DF2056001F053F9002151
:1040D0004DF2066001F04EF94A214DF2076001F001
:1040E00049F900214DF2086001F044F95C214DF2DC
:1040F000096001F03FF900214DF20A6001F03AF940
:1041000081214DF20B6001F035F900214DF20C6078
:1041100001F030F9A6214DF20D6001F02BF90021DC
:104120004DF20E6001F026F9E5214DF20F6001F02D
:1041300021F901214DF2106001F01CF913214DF21B
:10414000116001F017F901214DF2126001F012F92E
:1041500054214DF2136001F00DF901214DF214606C
:1041600001F008F982214DF2156001F003F90121F7
:104170004DF2166001F0FEF8CA214DF2176001F011
:10418000F9F802214DF2186001F0F4F800214DF227
:10419000196001F0EFF802214DF21A6001F0EAF81F
:1041A00001214DF21B6001F0E5F802214DF21C6087
:1041B00001F0E0F834214DF21D6001F0DBF802213E
:1041C0004DF21E6001F0D6F867214DF21F6001F03C
:1041D000D1F802214DF2206001F0CCF884214DF29B
:1041E000216001F0C7F802214DF2226001F0C2F80F
:1041F000A4214DF2236001F0BDF802214DF22460AC
:1042000001F0B8F8B7214DF2256001F0B3F80221B2
:104210004DF2266001F0AEF8CF214DF2276001F09B
:10422000A9F802214DF2286001F0A4F8DE214DF238
:10423000296001F09FF802214DF22A6001F09AF8FE
:10424000F2214DF22B6001F095F802214DF22C6025
:1042500001F090F8FE214DF22D6001F08BF8032162
:104260004DF22E6001F086F810214DF22F6001F022
:1042700081F803214DF2306001F07CF833214DF2DA
:10428000316001F077F803214DF2326001F072F8ED
:104290006D214DF2336001F06DF855214FF47040FF
:1042A00001F068F8AA214FF2010001F063F85221F1
:1042B0004FF2020001F05EF808214FF2030001F016
:1042C00059F800214FF2040001F054F8CC214FF4CA
:1042D000314001F04FF800214BF2011001F04AF893
:1042E00005214FF4364001F045F870214FF4374076
:1042F00001F040F870214BF2017001F03BF8012110
:104300004FF4384001F036F803214BF6010001F07C
:1043100031F803214BF6020001F02CF803214BF693
:10432000030001F027F802214FF43C4001F022F88D
:1043300000214BF6014001F01DF800214BF6024030
:1043400001F018F8D0214FF4494001F013F8022190
:104350004CF6011001F00EF850214CF6021001F05D
:1043600009F850214CF6031001F004F850214CF6E6
:10437000041000F0FFFF00214FF4545000F0FAFF4A
:1043800055214FF4685000F0F5FF4FF4885000F0CD
:10439000DBFF7820FDF746FD4FF4245000F0D4FFFA
:1043A00010BD10B5E22000F0CFFF1D2000F0C0FFCF
:1043B000022000F0BDFF042000F0BAFF6420FDF7EA
:1043C00031FDE02000F0C0FF012000F0B1FF0A2025
:1043D000FDF71EFDE02000F0B7FF032000F0A8FF6E
:1043E0000C20FDF715FD012000F0AEFF0A20FDF7BF
:1043F0000FFDE62000F0A8FF2F2000F099FFFF201E
:1044000000F096FFFF2000F093FFB02000F09CFF2B
:10441000202000F08DFF002000F08AFF032000F034
:1044200087FF40F21F3000F083FF012000F080FF83
:1044300040F2DF1000F07CFF002000F079FFB42094
:1044400000F082FF042000F073FF40F21F4000F0F4
:104450006FFF002000F06CFF2E2000F069FF0020AD
:1044600000F066FF002000F063FF002000F060FF16
:10447000002000F05DFFB62000F066FF022000F093
:1044800057FF4FF4037000F053FF002000F050FF7F
:10449000172000F04DFF152000F04AFF002000F02B
:1044A00047FF002000F044FFF02000F04DFF032004
:1044B00000F03EFF292000F047FFD02000F044FF2D
:1044C000002000F035FFBE2000F03EFF052000F088
:1044D0002FFFFE2000F02CFF012000F029FF00201C
:1044E00000F026FF002000F023FF002000F020FF56
:1044F000B82000F029FF032000F01AFF012000F08F
:1045000017FFBA2000F020FF012000F011FF10BDBE
:1045100010B5112000F018FF7820FDF779FC362047
:1045200000F012FF002000F003FF3A2000F00CFF23
:10453000052000F0FDFEB22000F006FF0C2000F088
:10454000F7FE0C2000F0F4FE002000F0F1FE332016
:1045500000F0EEFE332000F0EBFEB72000F0F4FE9A
:10456000352000F0E5FEBB2000F0EEFE322000F02A
:10457000DFFEC02000F0E8FE0C2000F0D9FEC220D3
:1045800000F0E2FE012000F0D3FEC32000F0DCFECC
:10459000102000F0CDFEC42000F0D6FE202000F058
:1045A000C7FEC62000F0D0FE0F2000F0C1FED020D4
:1045B00000F0CAFEA42000F0BBFEA12000F0B8FE6F
:1045C000E02000F0C1FED02000F0B2FE002000F09C
:1045D000AFFE022000F0ACFE072000F0A9FE0A208A
:1045E00000F0A6FE282000F0A3FE322000F0A0FE7E
:1045F000442000F09DFE422000F09AFE062000F0CC
:1046000097FE0E2000F094FE122000F091FE142080
:1046100000F08EFE172000F08BFEE12000F094FEEB
:10462000D02000F085FE002000F082FE022000F085
:104630007FFE072000F07CFE0A2000F079FE282093
:1046400000F076FE312000F073FE542000F070FE82
:10465000472000F06DFE0E2000F06AFE1C2000F0E6
:1046600067FE172000F064FE1B2000F061FE1E2094
:1046700000F05EFE2A2000F067FE002000F058FEE9
:10468000002000F055FE002000F052FEEF2000F068
:104690004FFE2B2000F058FE002000F049FE0020C5
:1046A00000F046FE012000F043FE3F2000F040FEF7
:1046B000292000F049FE10BD10B5112000F044FE85
:1046C0007820FDF7A5FB362000F03EFE482000F0E4
:1046D0002FFE3A2000F038FE552000F029FEF02091
:1046E00000F032FEC32000F023FEF02000F02CFE8C
:1046F000962000F01DFEB42000F026FE012000F000
:1047000017FEB62000F020FE0A2000F011FEA220C5
:1047100000F00EFEB72000F017FEC62000F008FEE5
:10472000B92000F011FE022000F002FEE02000F0AF
:10473000FFFDC02000F008FE802000F0F9FD1620EB
:1047400000F0F6FDC12000F0FFFD192000F0F0FDA3
:10475000C22000F0F9FDA72000F0EAFDC52000F01E
:10476000F3FD162000F0E4FDE82000F0EDFD402010
:1047700000F0DEFD8A2000F0DBFD002000F0D8FD17
:10478000002000F0D5FD292000F0D2FD192000F016
:10479000CFFDA52000F0CCFD332000F0C9FDE020C6
:1047A00000F0D2FDF02000F0C3FD072000F0C0FDB6
:1047B0000D2000F0BDFD042000F0BAFD052000F042
:1047C000B7FD142000F0B4FD362000F0B1FD5420F8
:1047D00000F0AEFD4C2000F0ABFD382000F0A8FD4D
:1047E000132000F0A5FD142000F0A2FD2E2000F003
:1047F0009FFD342000F09CFDE12000F0A5FDF0209D
:1048000000F096FD102000F093FD142000F090FDC4
:104810000E2000F08DFD0C2000F08AFD082000F035
:1048200087FD352000F084FD442000F081FD4C2000
:1048300000F07EFD262000F07BFD102000F078FDCA
:10484000122000F075FD2C2000F072FD322000F0E7
:104850006FFDF02000F078FD3C2000F069FDF020B5
:1048600000F072FD692000F063FD7820FDF7D0FABA
:10487000212000F069FD292000F066FD10BD000038
:1048800000B595B000BF00BF00200190F948006856
:1048900040F04000F74908600846006800F040001A
:1048A000019000BF00BF00BF00BF00BF002001900B
:1048B0000846006840F0080008600846006800F0FC
:1048C0000800019000BF00BF00BF00BF00BF002074
:1048D00001900846006840F008000860084600683B
:1048E00000F00800019000BF00BF00BF00BF00BF84
:1048F000002001900846006840F02000086008464B
:10490000006800F02000019000BF00BF00BF00BFA2
:1049100000BF002001900846006840F002000860D7
:104920000846006800F00200019000BF00BF00BF11
:1049300080201090022011900120129002201390EC
:104940000C20149010A9CC48FBF7ECFF202010900D
:1049500010A9C948FBF7E6FF1020109010A9C6481F
:10496000FBF7E0FF4FF40050109010A9C248FBF78E
:10497000D9FF022010900120119010A9BF48FBF729
:10498000D1FF4FF02040BE490860BE48486000207B
:1049900088600021BA48C160102141610021816115
:1049A000C16141624FF4805181620021C1624FF4C4
:1049B000804101630021416381630F200990002041
:1049C0000A903C200B9000200F90092002900020BC
:1049D0000390092004900020089002AA09A9A84881
:1049E000FCF7FAFC3220FDF713FAD32000F0ACFC00
:1049F00000F0DEF9A449888000F0DAF9A249888045
:104A000000F0D6F9A0498880084680884FF6FF71EB
:104A100001EA00209C49888000F0CAF99A498988F7
:104A200008439949888047F28970888008468088C1
:104A300049F2413188427CD0042000F085FC00F02E
:104A4000B7F99149888000F0B3F98F49888000F068
:104A5000AFF98D498880084680884FF6FF7101EADA
:104A600000208949888000F0A3F987498988084394
:104A7000854988800846808848F25251884203D18F
:104A800047F28970804988807F48808847F2897121
:104A90008842D0D0D42000F057FC00F089F97A4940
:104AA000888000F085F97849888000F081F976499E
:104AB0008880084680884FF6FF7101EA002072491D
:104AC000888000F075F97049898808436E498880AC
:104AD0000846808845F210318842ACD0D32000F0DF
:104AE00033FC00F065F96849888000F061F9664997
:104AF000888000F05DF964498880084680884FF618
:104B0000FF7101EA00206049888000F051F95E4998
:104B1000898808435C4988800846808847F29671F6
:104B2000884288D055214FF4704000F023FCAA2120
:104B300000E07EE04FF2010000F01CFC52214FF239
:104B4000020000F017FC08214FF2030000F012FCF5
:104B500001214FF2040000F00DFC4FF4454000F03D
:104B6000F3FB00F025F948498880084680884FF615
:104B7000FF7101EA0020444988804CF2015000F0A6
:104B8000E3FB00F015F94049898808433E498880D5
:104B90000520FDF73DF93C48808845F210518842D8
:104BA00047D0D32000F0D0FB00F002F936498880CE
:104BB00000F0FEF83449888000F0FAF83249888025
:104BC000084680884FF6FF7101EA00202E49888050
:104BD00000F0EEF82C49898808432B498880084664
:104BE000808849F60601884223D0A12000F0ACFB62
:104BF00000F0DEF82449888000F0DAF82249888045
:104C0000084680884FF6FF7101EA00201E4988801F
:104C100000F0CEF81C49898808431B498880084663
:104C2000808845F26171884203D141F663101649CC
:104C300088801548818815A0FBF798FB124880886A
:104C400047F28971884202D1FFF762FC4AE00E48C0
:104C5000808849F24131884202D1FDF7F5F941E0FF
:104C60000948808845F21031884215D1FDF7A2FC31
:104C700038E0000030380240000C024000040240DE
:104C800030010020040100A0800100204C4344209A
:104C900049443A25780D0A003F48808847F29671CA
:104CA000884202D1FFF708FD1CE03B48808845F2AE
:104CB0001051884202D1FEF7F6FB13E03648808897
:104CC00049F60601884202D1FDF7D4FA0AE03248DB
:104CD000808841F66311884204D1FFF762FB6420AB
:104CE00000F0F6FA2C48808847F2897188420AD190
:104CF00003200290049029490B6B8A68486802A936
:104D0000FBF732FD38E02448808849F606018842E6
:104D10000BD02148808849F24131884205D01E4895
:104D2000808845F2105188420AD1022002900490F6
:104D30001A490B6B8A68486802A9FBF715FD1BE04E
:104D40001548808845F2103188420BD0124880887F
:104D500047F29671884205D00F48808841F663116A
:104D6000884209D10120029004900C490B6B8A689B
:104D7000486802A9FBF7F8FC0020FDF79FF800BF88
:104D8000012202210648FBF7D9FE00BF4FF6FF7053
:104D9000FDF77AF815B000BD800100203001002039
:104DA0000004024000BF011EA0F10100FBD17047CA
:104DB00008B50220FFF7F6FF024800880090BDF812
:104DC000000008BD00000860F0B50546002400277B
:104DD0008B488079012805D18948808841F6631184
:104DE000884208D186488079F0B98548808841F6A4
:104DF0006311884218D1082D15D2DFE805F00406AA
:104E0000080A0C0E101206250DE007250BE00425FC
:104E100009E0052507E0012505E0002503E003255D
:104E200001E0022500BF00BF082D1CD2DFE805F01D
:104E30000406090C0F12151800BF14E044F080049A
:104E400011E044F040040EE044F0C0040BE044F0F4
:104E5000200408E044F0600405E044F0A00402E00F
:104E600044F0E00400BF00BF36276548808845F263
:104E70001051884200D13F026148808849F2413197
:104E800088420BD05E48808847F28971884205D0FD
:104E90005B48808847F29671884201D144F008044B
:104EA0002146384600F066FA5548808841F663117D
:104EB00088421DD004F0200068B151480088504954
:104EC0004988884214DA4E48068840884C49088050
:104ED000084646800CE04A4800884949498888428B
:104EE00006DD4748068840884549088008464680D0
:104EF0004348808845F21051884252D14049488940
:104F000000F022FA002000F013FA3D494989491CBB
:104F100088B200F019FA002000F00AFA38494989ED
:104F2000891C88B200F010FA35490988491EC1F37E
:104F30000F2000F0FDF932494989C91C88B200F000
:104F400003FA2F490978491EC8B200F0F1F92C493B
:104F5000888900F0F9F9002000F0EAF928498989E8
:104F6000491C88B200F0F0F9002000F0E1F9244972
:104F70008989891C88B200F0E7F921494988491ECE
:104F8000C1F30F2000F0D4F91D498989C91C88B2EA
:104F900000F0DAF91A498978491EC8B200F0C8F958
:104FA0002DE01749488900F0CFF9002000F0C0F942
:104FB000002000F0BDF912490988491EC1F30F20F5
:104FC00000F0B6F90E490978491EC8B200F0B0F9F0
:104FD0000B49888900F0B8F9002000F0A9F90020F9
:104FE00000F0A6F906494988491EC1F30F2000F0D8
:104FF0009FF903498978491EC8B200F099F9F0BDBC
:105000008001002010B502460C464548808841F6D4
:105010006311884247D142488079A8B94048008846
:10502000401E801A82B23E49488900F08DF9002066
:1050300000F07EF9002000F07BF9101200F078F902
:10504000D0B200F075F916E03549488900F07CF9D6
:10505000101200F06DF9D0B200F06AF930490988F9
:10506000491EC1F30F2000F063F92D490978491E4C
:10507000C8B200F05DF92A49888900F065F920126C
:1050800000F056F9E0B200F053F925494988491E6D
:10509000C1F30F2000F04CF921498978491EC8B2AC
:1050A00000F046F93AE01E48808845F210518842E7
:1050B00020D11B49488900F047F9101200F038F957
:1050C00017494989491C88B200F03EF9D0B200F076
:1050D0002FF91349888900F037F9201200F028F9D8
:1050E0000F498989491C88B200F02EF9E0B200F01E
:1050F0001FF913E00A49488900F026F9101200F060
:1051000017F9D0B200F014F90549888900F01CF9AC
:10511000201200F00DF9E0B200F00AF910BD000015
:10512000800100202DE9FC4F80460E4615461C46A6
:10513000B3460020019000902046E31704EB537320
:10514000DB1021464FEAE47C04EB5C7C4FEAEC0C7C
:10515000A4EBCC0CBCF1000F02D04FF0010C01E02D
:105160004FF0000C6344224604EBD27C4FEA6C0CF7
:1051700003FB0CF3DBB20193A5F12000C5B20C2CAC
:1051800006D0102C0BD0182C0ED0202C18D112E0E9
:1051900005EB45002D4901EB8000009012E02C4802
:1051A00000EB051000900DE005EBC500294901EB6F
:1051B0008000009006E0284800EB8510009001E098
:1051C000BDE8FC8F00BF00273AE0009810F8079078
:1051D0004FF0000A2EE009F0800028B13146404629
:1051E0000C9AFCF721FF07E00B9828B91B483146C1
:1051F00002684046FCF718FF4FEA49604FEA106921
:10520000701C86B216484088B04200DCD8E7A6EB96
:105210000B00A0420AD15E4608F101001FFA80F897
:105220000F480088404500DCCAE706E00AF10100AB
:1052300000F0FF0ABAF1080FCDDB00BF781CC7B23F
:1052400001988742C1DB00BFBAE700005A59000845
:10525000CE5D0008BE6300081A710008200000201F
:10526000800100202DE9FC4F04460D4690469946EA
:10527000DDE90C7A0B9E04F0FF0B08EB04001FFA2B
:1052800080F809EB05001FFA80F917E0444502DBBE
:105290005C46A81985B24D4500DB15E00020CDE93C
:1052A000000A3A78334629462046FFF73BFF30464E
:1052B00006EBD07104EB61018CB27F1C38787E283C
:1052C00002DC38782028E1DA00BFBDE8FC8F00005E
:1052D00070B52DED048B0446BE2000F035F8052096
:1052E00000F026F8204600F016FA41EC190B9FED6D
:1052F0000E0B53EC102B00F021FA41EC180B00F0D0
:10530000DDF985B2284600F013F8012000F010F80E
:10531000FF2000F00DF8002000F00AF8002000F057
:1053200007F8BDEC048B70BD666666666666044071
:1053300001B5BDF800000090BDF8000001490880EB
:1053400008BD00000000086001B5BDF80000009035
:10535000BDF800000149088008BD0000FEFF07609D
:10536000024800890249088070470000800100203F
:10537000FEFF0760024A1080921C118070470000F7
:10538000FEFF076000B587B000BF00BF002001909E
:105390001F48006840F001001D4908600846006889
:1053A00000F00100019000BF00BF00BF00BF00BFC0
:1053B000002001900846006840F00100086008469F
:1053C000006800F00100019000BF00BF00BF402056
:1053D00002900120039004900220059002A90D483C
:1053E000FBF7A0FA8020029002A90A48FBF79AFA7C
:1053F00000BF012240210748FBF7A0FB00BF00BF10
:10540000012280210348FBF799FB00BF07B000BDD4
:10541000303802400000024086B00024FBF7ACFBAD
:105420000723022208214FF4A87000F0BDF8A8203D
:10543000FCF7E8FC4FF4E13000F024F9FFF7A2FF9D
:10544000FFF71EFA4FF478404849086048488288C0
:1054500048A103A8FAF796FF87E00C2C41D2DFE8B9
:1054600004F0060B0F13181D22272C31363B4FF684
:10547000FF70FCF709FD34E00020FCF705FD30E08B
:105480001F20FCF701FD2CE04FF47840FCF7FCFCFA
:1054900027E04FF61F00FCF7F7FC22E04FF4FC601A
:1054A000FCF7F2FC1DE040F2FF70FCF7EDFC18E0A9
:1054B0004FF6E070FCF7E8FC13E04FF60740FCF70E
:1054C000E3FC0EE048F23040FCF7DEFC09E04CF271
:1054D0001860FCF7D9FC04E04BF64040FCF7D4FC24
:1054E00000BF00BF4FF4784025A120221346CDE92C
:1054F00000210290F02228210A20FFF7B3FE4FF48A
:10550000784021A118221346CDE900210290F02213
:1055100050210A20FFF7A6FE4FF478401DA110226B
:105520001346CDE900210290F0226E210A20FFF7F8
:1055300099FE4FF4784003A910221346CDE90021CB
:105540000290F02282210A20FFF78CFE601CC4B278
:105550000C2C00D1002400BF40211248FBF7E4FAD4
:1055600000BF4FF47A70FCF753FC76E71C00002074
:10557000800100204C43442049443A2530345800EF
:1055800053544D33320000005446544C434420548D
:105590004553540041544F4D40414C49454E5445AC
:1055A0004B000000000002402DE9F04192B080461F
:1055B0000C4615461E460027302106A8FAF7E6FFDE
:1055C000142101A8FAF7E2FF00BF002000902A484A
:1055D000006840F08050284908600846006800F0E4
:1055E0008050009000BF00BF00BF00200090234803
:1055F000006840F48040214908600846006800F4D3
:105600008040009000BF00BF01200690000407907A
:1056100002200C9041050D91CDF83C800E94109520
:10562000119606A8FBF78AFC07461FB1012012B0AD
:10563000BDE8F0810F20019002200290002003902D
:105640004FF4A05004904FF480500590052101A81C
:10565000FBF734FB07460FB10120E8E7FBF774FACC
:1056600041F20101884205D10548006840F480708C
:10567000034908600020DAE740380240007000402B
:10568000003C024010B5044609480A490860084633
:10569000446000218160C160016181610C21416130
:1056A000FCF75CF8012204490248FCF7F7F810BD4A
:1056B00000100140EC0000200E0000204FEA1153C2
:1056C000A3F58063D3F11E03A8BFD3F1200C08DB40
:1056D0004FF0004242EAC12252EA505232FA03F03D
:1056E000704709420BD4102BC4BF0020704703F54C
:1056F000787CBCF1FF3F05D04FF0FF3070474FF092
:105700000000704770B500F0C3F800BF49922480D4
:1057100000207047F0E7B0FA80F310FA03F10AD0E6
:10572000C3F11D0303F580634FEA41504FEA035272
:1057300002EBD12170474FF000007047DFF848C1FD
:1057400070B51CEA111E1EBF1CEA13159EEA0C0F51
:1057500095EA0C0F00F06F8081EA030423EA4C13F2
:105760004EEAD47E21EA4C1141F4801143F48013B7
:10577000AE44A1FB024CA0FB0365AEF17F7E36195F
:1057800055EB0C05A1FB034C4CF10003A0FB021CE4
:1057900016EB0C06654153F10003094218BF46F0B1
:1057A000010613F4007F0BD14FEA03314FEA0530B5
:1057B000340341EA155140EA16506FF003020AE043
:1057C0004FEAC3214FEAC520F40241EA555140EAAD
:1057D00056506FF0020202EB2E4201EB025585EAB1
:1057E000CE710AD05FEA440C18BF24F0004450F197
:1057F000000041F1000120EAD47040F2FE7C6245D5
:1058000000D270BDA84214BF4FF080444FF0404416
:10581000002E08BF0024BEF1806FA8BFA1F1C041D7
:10582000BDE8704080F282804FF0000001F1C0417D
:1058300001F0004170479EEA0C0F0CEA131518BFE7
:1058400095EA0C0F06D04FF0000081EA030E0EF02F
:10585000004170BD00F01CF88900013E00F007B85F
:1058600000F009B84FEA430C5FEA5C5C08D081EABB
:10587000030100F05BB84FEA410C5FEA5C5CF6D1D3
:105880004FF00000014970470000FF070000F87F5B
:105890000EF1020E2EF0030E5EF8046B364205D4B4
:1058A000012A43EB030515F5001F12D8012841EB2F
:1058B000010C1CF5001F0CD80ED14FEAD17C15F558
:1058C000001F0CEB4C0C0CF1020C08BF4CEBD37C12
:1058D00004E04FF0080C01E04FEAD37C0CEB4C05E0
:1058E00026FA05F606F00706B6F1040C06D20EEB12
:1058F000860CBDE870404CF0010C6047DFE80CF00E
:10590000090B02024FF000414FF00000A1F5002109
:1059100070BD19461046012851EB010418BFD4F59B
:10592000001484BF002001F0004170BD0808A0F5FC
:1059300000114FEA310170474FF04070E1EE100A5C
:105940007047000000000000000001020304060789
:10595000080900000000010203040000000000002C
:10596000000000000000000000003F4000000000B8
:10597000000000003000400030004000000009003E
:105980000BC03D000BC03D00090018C024407FE063
:10599000224031800000180024C01B000D803240DE
:1059A000018003801C4027401C80074000401000FD
:1059B0006000000000000000000000000000000087
:1059C0001F80204040200000402020401F80000019
:1059D0000000090006001F80060009000000040006
:1059E00004003F800400040000000010006000007C
:1059F0000000000000000400040004000400040093
:105A00000000000000400000000000000000002036
:105A100001C006003800400000001F8020402040E8
:105A200020401F800000000010403FC000400000E8
:105A3000000018C02140224024401840000010807F
:105A40002040244024401B80000002000D00110073
:105A50003FC0014000003C8024402440244023807B
:105A600000001F80244024403440038000003000A8
:105A7000200027C03800200000001B802440244064
:105A800024401B8000001C0022C0224022401F80B6
:105A900000000000000008400000000000000000BE
:105AA00000000460000000000000000004000A0084
:105AB0001100208040400900090009000900090088
:105AC000000000004040208011000A00040018007F
:105AD000200023402400180000001F8020402740A1
