:020000040800F2
:10000000B804002001010008C10C0008F10B000831
:10001000BD0C0008B5010008290F00080000000011
:10002000000000000000000000000000210D00089A
:10003000B901000800000000F10C0008550D00088F
:100040001B0100081B0100081B0100081B01000820
:100050001B0100081B0100081B0100081B01000810
:100060001B0100081B0100081B0100081B01000800
:100070001B0100081B0100081B0100081B010008F0
:100080001B0100081B0100081B0100081B010008E0
:100090001B0100081B0100081B0100081B010008D0
:1000A0001B0100081B0100081B0100081B010008C0
:1000B0001B0100081B0100081B0100081B010008B0
:1000C0001B0100081B0100081B0100081B010008A0
:1000D0001B0100081B0100081B0100081B01000890
:1000E0001B0100081B0100081B010008DFF80CD0F1
:1000F00000F02AF800480047F5110008B804002075
:100100000648804706480047FEE7FEE7FEE7FEE7B1
:10011000FEE7FEE7FEE7FEE7FEE7FEE7BD0D0008AF
:10012000ED000008D2B201E000F8012B491EFBD21D
:1001300070470022F6E710B513460A4604461946F2
:10014000FFF7F0FF204610BD064C074D06E0E068C3
:1001500040F0010394E8070098471034AC42F6D30E
:10016000FFF7C8FFE81200080813000880B505A0D3
:1001700001F09CF840F60040C4F20100012100F0BB
:100180003BF980BD4B4559312050726573730D00AA
:1001900080B505A001F08AF840F60040C4F20100E5
:1001A000022100F029F980BD4B455932205072657B
:1001B00073730D00FEE7000070470000EFF310803E
:1001C00072B600BFFEE70000B0B5044600F022F9A9
:1001D000054640F20800C2F200000078611C18BF1A
:1001E000044400BF00F016F9401BA042FAD3B0BD92
:1001F0002DE9F04F82B00E68002E00F0F38041F23E
:100200000042C4F20102042340F2004E904208BFB3
:1002100003234FF6FF7CC4F2010E00930024012358
:10022000C1F2100C4FF0000A4FF0000941E0012527
:1002300004F00C030F279F402BEA070705FA03F38E
:100240003B4342F826304E6840F20C45F202DEF89D
:10025000082054BF22EA080242EA0802C4F201055B
:10026000CEF808202A68B30254BF22EA080242EA04
:1002700008022A60B303DEF8042054BF22EA080211
:1002800042EA0802F303CEF80420DEF800204FF023
:10029000010354BF22EA080242EA0802CEF8002015
:1002A0000E680AF1010A36FA0AF204F1040400F0B9
:1002B000998003FA0AFB16EA0B08F1D04A686245F6
:1002C00010DC122A50D8DFE802F0330A41454F4FC4
:1002D0004F4F4F4F4F4F4F4F4F4F4F484C00D1F85C
:1002E0000C9041E04FF6FF75C1F22105AA420FDCE8
:1002F0000025C1F21105AA421AD00025C1F212054B
:10030000AA4215D00025C1F22105AA4210D02BE047
:100310000025C1F22205AA420AD00025C1F231050A
:10032000AA4205D00025C1F23205AA421CD100BF65
:100330008A6842B1012A14BFC0F814B0C0F810B0E6
:100340004FF0080910E04FF004090DE0CA6802F10F
:10035000080909E04FF0000906E0CA6802F1040943
:1003600002E0CA6802F10C0922460546B8F5807F12
:1003700024BF203A04352E680F279740BE4309FA60
:1003800002F232432A60CA79D2067FF589AF41F280
:100390001803C4F202031A684FEA9A0642F00102F7
:1003A0001A601A6840F6000302F001020192019AF5
:1003B000AEF57E7252F826B0C4F2010398420FD017
:1003C00040F60043C4F2010398423FF430AF41F2DB
:1003D0000003C4F20103009D984208BF022527E7ED
:1003E000002525E702B0BDE8F08F000080680840D6
:1003F00018BF012070470000C26802EA0103914360
:1004000041EA034101617047002A08BF0904016104
:100410007047000040F2B400C2F20000006870476C
:1004200040F2080040F2B401C2F20000C2F2000142
:1004300000780A68104408607047000080B542F2F6
:100440000000C4F20200016841F0100101600320C5
:1004500000F062F80F2000F005F800F02BF8002003
:1004600080BD0000B0B540F20802C2F2000240F2C6
:1004700004011278C2F200014FF47A730968B3FBE9
:10048000F2F20446B1FBF2F1084600F0E3FA0F2C59
:100490004FF001050CD858B94FF0FF30214600222B
:1004A000002500F029F840F20C00C2F200000460C0
:1004B0002846B0BD82B041F21800C4F202000168C3
:1004C000042241F001010160016801F00101019184
:1004D0000199416841F080514160406800F08050CE
:1004E000009000980420C4F20100016862F31A61D0
:1004F000016002B07047000070B514460D46064614
:1005000000F014FD2946224600F0DCFB014630468F
:1005100000F014FD70BD000080B500F021FD80BD2D
:100520002DE9F04381B0002800F0898042F20008F4
:10053000C4F202080446D8F800000D4600F0070097
:1005400088420CD2D8F8000020F007002843C8F8F1
:100550000000D8F8000000F00700A8426FD1206822
:1005600041F204098107C4F2020917D5410705D5F4
:10057000D9F8001041F4E061C9F80010010705D571
:10058000D9F8001041F46051C9F80010D9F80010F2
:10059000A26821F0F0011143C9F80010C00745D14D
:1005A000D8F8000000F00700A8420CD9D8F80000E5
:1005B00020F007002843C8F80000D8F8000000F039
:1005C0000700A8423BD12068410707D5D9F80010A1
:1005D000E26821F4E0611143C9F80010000708D572
:1005E000D9F80000216920F4605040EAC100C9F840
:1005F000000000F079F8D9F8001041F2D022C1F3E0
:100600000311C0F60002515C40F2040220FA01F12D
:1006100040F20C00C2F200000068C2F20002116059
:10062000FFF720FF002001B0BDE8F08360680228DA
:1006300009D0012829D159F8041C890307D40120C5
:1006400001B0BDE8F08359F8041C8901F7D5D9F849
:10065000001021F003010843C9F80000FFF7DAFE9B
:10066000064641F2883700BFD9F80000616800F003
:100670000C00B0EB810F93D0FFF7CCFE801BB8428B
:10068000F2D9032001B0BDE8F08359F8041C8907B2
:10069000D5D5DCE740F20400C2F2000000687047E4
:1006A00080B5FFF7F7FF41F20401C4F202010968C7
:1006B00041F2E022C1F30221C0F60002515CC840C1
:1006C00080BD000080B5FFF7E5FF41F20401C4F2F0
:1006D0000201096841F2E022C1F3C221C0F6000222
:1006E000515CC84080BD000041F2040CC4F2020C11
:1006F000DCF8003003F00C00082841F20020C0F2C2
:100700007A0018BF7047C3F383420AA18A5CD903F9
:1007100005D440F60010C0F23D0050437047DCF8AD
:10072000001008A3C1F34041595C5043B0FBF1F005
:10073000704700BF02030405060708090A0B0C0DE9
:100740000E0F1010010200002DE9F04182B00028C8
:1007500000F0C4800446007841F20006C007C4F2ED
:10076000020643D0706800F00C00042817D07068AF
:1007700000F00C00082802D17068C0030FD465682F
:100780002DB1B5F5A02F10D0B5F5803F11D0306850
:1007900020F480303060306820F480200CE0306835
:1007A000800323D5606808BB98E0306840F480205F
:1007B0003060306840F480303060FFF72BFE002D51
:1007C000054610D03068800310D4FFF723FE401B8D
:1007D0006428F7D904E100BFFFF71CFE401B642822
:1007E0004FF0030077D830688003F5D42078800775
:1007F00018D5706810F00C0F07D0706800F00C006E
:10080000082826D17068C00323D43068800702D539
:100810002069012862D13068616920F0F80040EA5F
:10082000C1003060207800073DD5A06938B30020B2
:10083000C4F242200121C0F88014FFF7EBFD054609
:10084000706A80072DD4FFF7E5FD401B0228F7D919
:10085000C6E02069002840F20000C4F2422000F007
:10086000968001210160FFF7D5FD054630688007BD
:10087000D1D4FFF7CFFD401B0228F7D9B0E000200C
:10088000C4F242200021C0F88014FFF7C3FD0546E2
:10089000706A800707D5FFF7BDFD401B0228F7D916
:1008A0009EE000F027FA207840071BD4E5698DB15F
:1008B000706800F00C00082847D1012D0ED0706838
:1008C000216A00F480328A4208D1616A00F4701013
:1008D000884203D1002002B0BDE8F081012002B0BF
:1008E000BDE8F081F06910F0805808D1F06940F05F
:1008F0008050F061F06900F080500190019847F25B
:100900000007C4F200073868C00510D4386840F406
:1009100080703860FFF77EFD054600BF3868C0056F
:1009200005D4FFF777FD401B6428F7D958E0E56848
:100930001DB1052D3CD0012D3ED0306A20F00100C4
:100940003062306A20F0040039E00027C4F2422708
:1009500000203866FFF75EFD022D05460CD100BF72
:100960003068800154D5FFF755FD401B02284FF039
:100970000300F5D9AFE700BF30688001AAD5FFF7C3
:1009800049FD401B02284FF00300F5D9A3E70021E1
:100990000160FFF73FFD0546306880077FF542AFF5
:1009A000FFF738FD401B02284FF00300F4D992E70F
:1009B000306A40F004003062306A40F0010030627A
:1009C000FFF728FD002D054641F2883714D000BFFF
:1009D000306A800713D4FFF71DFD401BB842F7D9DA
:1009E000032002B0BDE8F081FFF714FD401BB842C0
:1009F0004FF003003FF66FAF306A8007F4D4B8F1D0
:100A0000000F7FF453AFF06920F08050F0614DE7A4
:100A1000206AB0F5803F05D17168A26821F40031E9
:100A2000114371607168626A21F4741110430843C4
:100A3000706001203866FFF7EDFC044630688001E5
:100A40003FF548AFFFF7E6FC001B02284FF003001C
:100A5000F4D940E780B500F065F980BD002804BFF7
:100A60000120704710B5044690F8410028B90020D5
:100A700084F84000204600F021F8242084F841004A
:100A80002068C16821F40051C160204600F0C0F91F
:100A90002068016921F490410161416921F02A0136
:100AA0004161C16841F40051C160002020216064AF
:100AB00084F8411084F84210606310BD70B586B0B0
:100AC00040F60004C4F20104006804F54051002619
:100AD00088420596CDE90366029601D006B070BD46
:100AE00041F21800C4F20200016802AD41F48041F5
:100AF0000160016801F4804101910199016841F0B0
:100B0000040101600068294600F00400019001988A
:100B10004FF40070029002200390032005902046BD
:100B2000FFF766FB4FF48060CDE9020620462946B8
:100B30000496FFF75DFB06B070BD00002DE9F041A3
:100B4000044690F8410020281CBF0220BDE8F08137
:100B50000E4600294FF0010042D01746002A08BF78
:100B6000BDE8F0814FF0000821201D46C4F8448004
:100B700084F84100FFF74EFCA784E784A16807468C
:100B8000B1F5805F0DD12069002814BF3046B04612
:100B9000064606E016F8010B21684860E08C013833
:100BA000E084E08C80B1204680213A462B4600F05C
:100BB00077F9B8B9002EEDD138F8020B21686FF340
:100BC0005F2048600026E9E7204640213A462B4650
:100BD00000F066F9202184F84110002818BF032096
:100BE000BDE8F081202084F841000320BDE8F081B9
:100BF000FEE700002DE9F04186B0002641F2180022
:100C0000CDE90466CDE90266C4F20200016840F64F
:100C1000004441F0200101600168C4F2010401F0C8
:100C20002001019101990168012241F00401016054
:100C30000168032701F004010191019901684FF057
:100C4000010841F0080101600068032100F008007C
:100C5000019001982046FFF7D7FB02ADA4F5806014
:100C60002946CDE90276CDF81080FFF7C1FA20467B
:100C70002946CDE90278CDE90467FFF7B9FA06B055
:100C8000BDE8F08180B540F26C0043F60001C2F28D
:100C90000000C4F2010100234FF00C0C4FF4E132CC
:100CA00080E80E00C0E90333C0E905C3C361FFF764
:100CB000D5FE002818BFFFF781FA80BDFEE70000CF
:100CC000FEE7000000F0070080F00703042B28BFB8
:100CD00004234FF0FF3C03380CFA03F338BF002025
:100CE000994381400CFA00F022EA00000843704763
:100CF0007047000081B040F20400C2F200000068BA
:100D000044F6D351C1F26201A0FB0101480A0090F0
:100D100000BF0098411E00280091F9D101B0704732
:100D200070470000B0B501380024B4EB106F1CBF51
:100D30000120B0BD4EF21005CEF2000568604FF004
:100D4000FF300F2100F0FAF80720AC602860204641
:100D5000B0BD000080B5FFF763FB80BD70B590B0FB
:100D600006AC20462821FFF7E4F9012006900A90FE
:100D70004FF4E01000254FF4803102260F902046FA
:100D80000595CDE90355CDE90155CDE90715CDE927
:100D90000D61FFF7D9FC78B90F20CDE901064FF4BA
:100DA0008060CDE9040501A802210395FFF7B8FB97
:100DB000002804BF10B070BDFFF700FA70470000B4
:100DC000016851E8031F026821F4907142E803139F
:100DD000002BF5D1016851E8051F026821F00101DF
:100DE00042E80513002BF5D1016B01290AD100BFA0
:100DF000016851E8031F026821F0100142E8031363
:100E0000002BF5D1202180F84210002101637047AA
:100E100010B504460068D4E902C22369016921F4CF
:100E2000405111430161616943EA0C021143C268F8
:100E300041F20C639A431143C1604169A26921F4F4
:100E40004071114343F60002C4F201029042416135
:100E500002D0FFF725FC01E0FFF734FC626819219E
:100E600048439100B0FBF1F048F21F51C5F2EB117D
:100E7000A0FB01235A096FF0630302FB0300322336
:100E800003EB0010A0FB0101F02303EA51132068DB
:100E900003EB0212C1F343111144816010BD000045
:100EA0002DE9F04182B0044600680068084088429D
:100EB00003D1002002B0BDE8F0811D460E469046E9
:100EC0005F1C04E0206800683040B04228D0002F4A
:100ED000F8D0FFF79FFA01464FF003000DB3A1EBE6
:100EE0000801A9421DD82068C1684907EAD5402EEB
:100EF000E8D0802EE6D001680907E3D500250195EA
:100F0000016801914068019001982046FFF758FF61
:100F10000820606484F84050012002B0BDE8F081F0
:100F2000002002B0BDE8F081FEE700004EF60C5054
:100F3000CEF200000068C0F3022070474EF6145352
:100F400000F00F02CEF2000309011A4400F16043E1
:100F5000B0F1FF3FC8BF03F5644211707047000055
:100F60004EF60C51CEF200010A684FF6FF031A400C
:100F700060F30A2242F0806040F0FD700860704724
:100F800000EB8100C260704710B5044681680079AB
:100F90008847E1784A0702D0228801322280B0EBEC
:100FA000D11F02D101F0C7000FE0012202EBD102F4
:100FB00002F0070201F0C70343EAC203032AE37009
:100FC00004D301F0470141EAC010E070E07800F07E
:100FD0000701052965D8DFE801F0031B3257646873
:100FE000A278C0F38011B1EBD01F02F00F006DD1D9
:100FF000E168A07009B12046884700202080A078D1
:10100000E17800F0F0000130A07001F0F80045E058
:10101000C0F38011B1EBD01F5BD12088C92843D326
:10102000A078216A052262F31F10A07009B1204642
:101030008847E07800F0F8000530E07010BDC0F39C
:101040008011B1EBD01F4ED1A078E16800F00F0005
:10105000A07009B120468847A07800F00F010F2941
:1010600006D0411C01F00F0100F0F0000844A07010
:10107000616909B120468847E1780020208001F0AD
:10108000F8000330E07010BDC0F38011B1EBD01F49
:1010900036D121883D2907D300F0F8000130E070F7
:1010A00010BD00F0F800E07010BDA278C0F3801110
:1010B000B1EBD01F02F00F0036D1616A6030002919
:1010C000A07008BF10BD2046884710BD8030A070BA
:1010D00010BDA0782169012262F31F10A070D9B160
:1010E0002046884718E020883D28DDD3A07800F00E
:1010F0000F0002281FD0012823D1A16930301CE045
:10110000A0782169012262F31F10A07009B1204666
:10111000884720883B2814D8E1780020208001F0FF
:10112000F8000230E07010BD21691030A07041B1AC
:101130002046884705E0E1694030A07009B12046AB
:101140008847E07800F0F800E07010BDF0B581B09D
:101150000E462C211C4615460746FEF7EAFFB878D6
:10116000082262F31F10B870B5FA85F0F9784009CB
:10117000C00101F03F0165F386100844BE60F870BD
:101180003C7101B0F0BD000040F26801C2F2000104
:101190000A683AB1824204BF4FF0FF307047926A4A
:1011A000002AF7D10A6808608262002070470000B8
:1011B00010B540F26800C2F200000468002C08BFBD
:1011C00010BD00BF2046FFF7DFFEA46A002CF9D156
:1011D00010BD000080B582B0019040F26C00C2F2F8
:1011E000000001A901224FF6FF73FFF7A7FC019849
:1011F00002B080BDFFF722F9FFF7B0FDFFF7FAFC60
:10120000FFF740FD40F2100441F26D26C2F20004E7
:10121000C0F600062046314600220023FFF796FF65
:1012200040F23C05C2F20005284631460022012367
:10123000FFF78CFF40F26D12C0F60002204603213A
:10124000FFF79EFE40F29112C0F6000228460421EC
:10125000FFF796FE2046FFF797FF2846FFF794FF1B
:10126000FFF7A6FF0520FEF7AFFFF9E728B1012839
:101270001CBF00207047022100E0012180B540F62C
:101280000000C4F20100FFF7B1F880BD02E008C819
:10129000121F08C1002AFAD170477047002001E0F0
:1012A00001C1121F002AFBD17047000010B504468F
:1012B00001E0FFF78FFF14F8010B04490028F8D173
:1012C000BDE810400A20FFF785BF000000000020A5
:1012D00000000000000000000102030406070809E6
:1012E00000000000010203040813000800000020B1
:1012F000100000008C1200081813000810000020D5
:10130000A80400009C1200080000000000127A00EF
:081310000100000010000000C4
:04000005080000ED02
:00000001FF
