:020000040800F2
:1000000030DC01203D0300085D3500089330000816
:10001000593500080D0E000839470008000000009F
:100020000000000000000000000000007D02000849
:10003000110E000800000000D9020008F542000877
:100040006103000861030008610300086103000800
:1000500061030008610300086103000861030008F0
:1000600061030008610300086103000861030008E0
:1000700061030008610300086103000861030008D0
:1000800061030008610300086103000861030008C0
:1000900061030008610300086103000861030008B0
:1000A00061030008610300086103000861030008A0
:1000B0006103000861030008610300086103000890
:1000C0006103000861030008610300086103000880
:1000D0006103000829470008610300086103000864
:1000E0006103000861030008610300086103000860
:1000F0006103000861030008610300086103000850
:10010000610300086103000861030008610300083F
:1001100061030008610300081D4300086103000833
:10012000610300086103000861030008610300081F
:10013000610300086103000861030008610300080F
:1001400061030008610300086103000861030008FF
:1001500061030008610300086103000861030008EF
:1001600061030008610300086103000861030008DF
:10017000610300086103000861030008000000003B
:10018000610300086103000800F002F800F067F85E
:100190000AA090E8000C82448344AAF10107DA45E2
:1001A00001D100F05CF8AFF2090EBAE80F0013F0CD
:1001B000010F18BFFB1A43F0010318477C310700F9
:1001C0009C3107000A444FF0000C10F8013B13F07B
:1001D000070408BF10F8014B1D1108BF10F8015BA0
:1001E000641E05D010F8016B641E01F8016BF9D193
:1001F00013F0080F1EBF10F8014BAD1C0C1B09D1EA
:100200006D1E58BF01F801CBFAD505E014F8016B5B
:1002100001F8016B6D1EF9D59142D6D370470000ED
:100220000023002400250026103A28BF78C1FBD8FF
:10023000520728BF30C148BF0B607047642900F0E7
:100240007581782900F0AE81732900F03384002095
:1002500070471FB540F0B0FD1FBD10B510BD00F0D8
:1002600043FC1146FFF7F5FF35F090FE00F061FC0E
:1002700003B4FFF7F2FF03BC06F090FB2C4B1968A8
:100280000868B0E8F04F80F30988BFF36F8F4FF034
:10029000000080F3118870470000000008480068E3
:1002A000006880F308884FF0000080F3148862B67D
:1002B00061B6BFF34F8FBFF36F8F00DF00BF00BF8A
:1002C00008ED00E0DFF80C00016841F47001016006
:1002D000704700BF88ED00E0EFF30980BFF36F8F38
:1002E000134B1A681EF0100F08BF20ED108A20E98A
:1002F000F04F106009B44FF0500080F31188BFF345
:100300004F8FBFF36F8F3FF0CFFB4FF0000080F3B4
:10031000118809BC19680868B0E8F04F1EF0100F8A
:1003200008BFB0EC108A80F30988BFF36F8F704765
:10033000A4000020EFF30580704700000C4801681E
:1003400041F4700101600B4880470B480047FEE70D
:10035000FEE7FEE7FEE7FEE7FEE7FEE7FEE7FEE775
:10036000FEE7000005480649044A064B70470000B6
:1003700088ED00E0094300088901000830CC012025
:1003800030DC012030CC0120704753EA020C00F031
:1003900069802DE9F04B4FF00006002B1FBFB3FA28
:1003A00083F503FA05F424FA05F65E4012BF1643FE
:1003B000B2FA82F502FA05F4C5F120051EBF22FA51
:1003C00005FC44EA0C04203556EA044C4FEA144478
:1003D00018BF641C4FF000084FF00009904271EB09
:1003E000030C39D3002919BFB1FA81F701FA07F6D6
:1003F000B0FA80F700FA07F6C7F120071EBF20FA0F
:1004000007FC46EA0C062037B6FBF4FCA7EB050711
:10041000103F07F01F0BCBF120060CFA0BFB2CFA58
:1004200006F644BFB3460026202FA4BF5E464FF019
:10043000000B5BEA060C08BF4FF0010B19EB0B0930
:10044000ABFB027C48EB0608C01B06FB02CC0BFB97
:1004500003CC71EB0C01C1E70B460246414648460E
:10046000BDE8F08B13B54FF000004FF00001AFF383
:100470000080BDE81C40704710B54C1084EA53045E
:1004800004D54042C1F1000138BF491E1B4204D5CA
:100490005242C3F1000338BF5B1EFFF776FF14F032
:1004A000804F04D04042C1F1000138BF491E14F012
:1004B000004F04D05242C3F1000338BF5B1E10BD91
:1004C0000FB4044910B503AA029800F0F7FA10BC63
:1004D0005DF814FB1400002070B50C460546012A97
:1004E00005D02878800600D5EA69002302E00123C0
:1004F00005E05B1C934202D2E05C0028F9D1A869B8
:10050000E618C01AA861286A184428622846AFF382
:10051000008004E0D5E9012114F8010B9047B442B2
:10052000F8D32846AFF3008070BD00002DE9F041FC
:100530000646002410687529314616A510D0AFF381
:100540000080002802DA404213A507E031688A07DC
:1005500001D512A502E0490704D511A5012401E047
:10056000AFF3008000210A2206F1240709E0B0FB66
:10057000F2FCB0FBF2F302FB1C003030785418465A
:10058000491C0028F3D123462A463046BDE8F041F5
:1005900000F00CBA000000002D0000002B0000004D
:1005A0002000000070B504460D4621461068AFF3E8
:1005B00000802188090502D50F4A7A4402E00E4ADC
:1005C0007A440E32002104F1240305E000F00F0606
:1005D0000009965D5E54491C0028F7D1207800235D
:1005E000000704D5702D02D009B102231132204634
:1005F000BDE8704000F0DAB92C2807002DE9F04181
:100600000F460546002028622846E968884770B3EF
:10061000252805D0D5E901219047286A401CF2E73A
:10062000E9682846002688476C2804460AD0682CCA
:1006300008D04C2C35D06A2C31D0742C31D07A2C87
:100640002FD016E0E968064628468847B04204469F
:1006500008D16C2E23D04FF480662846E96888477D
:10066000044606E06C2E03D04FF4807601E01EE0D5
:100670004026E4B1A4F14100192802D8203446F400
:1006800000663A46214628462E60FFF7D7FD60B146
:10069000012808D0FF1D27F007070837B4E7802698
:1006A000DBE70026D9E73F1DAEE72046B2E7286A20
:1006B000BDE8F08140EA010310B59B070FD1042A81
:1006C0000DD310C808C9121F9C42F8D020BA19BA1D
:1006D000884201D9012010BD4FF0FF3010BD1AB182
:1006E000D30703D0521C07E0002010BD10F8013BD7
:1006F00011F8014B1B1B07D110F8013B11F8014BFE
:100700001B1B01D1921EF1D1184610BD40EA010316
:10071000024630B59B0710D14FF0013400E008C20B
:1007200008C91D1B9D4315EAC41FF8D013F0FF0133
:1007300002F8011B0DD01B0AF8E711F8013B002B52
:1007400002F8013B05D011F8013B002B02F8013BF8
:10075000F3D130BD10B5431C02E010F8011B71B19C
:100760008107FAD14FF0013202C88C1A8C4314EA87
:10077000C211F9D0C01A0A0603D0C01E10BDC01A9B
:1007800010BD0A0401D0801E10BD0902FCD0401E1D
:1007900010BD032A40F2308010F0030C00F01580E9
:1007A00011F8013BBCF1020F624498BF11F801CB74
:1007B00000F8013B38BF11F8013BA2F1040298BFD9
:1007C00000F801CB38BF00F8013B11F0030300F043
:1007D0002580083AC0F0088051F8043B083A51F8E7
:1007E00004CBA0E80810F5E7121D5CBF51F8043BEC
:1007F00040F8043BAFF30080D20724BF11F8013B5F
:1008000011F801CB48BF11F8012B24BF00F8013BC0
:1008100000F801CB48BF00F8012B704710B5203A13
:10082000C0F00B80B1E81850203AA0E81850B1E8A9
:100830001850A0E81850BFF4F5AF5FEA027C24BF5F
:10084000B1E81850A0E8185044BF18C918C0BDE856
:1008500010405FEA827C24BF51F8043B40F8043B1F
:1008600008BF7047D20728BF31F8023B48BF11F8D4
:10087000012B28BF20F8023B48BF00F8012B70472E
:1008800002F0FF0343EA032242EA024200F002B808
:100890004FF000020429C0F0128010F0030C00F0A9
:1008A0001B80CCF1040CBCF1020F18BF00F8012B27
:1008B000A8BF20F8022BA1EB0C0100F00DB85FEAF5
:1008C000C17C24BF00F8012B00F8012B48BF00F8C1
:1008D000012B70474FF0000200B513469446964630
:1008E000203922BFA0E80C50A0E80C50B1F1200143
:1008F000BFF4F7AF090728BFA0E80C5048BF0CC0F1
:100900005DF804EB890028BF40F8042B08BF70474E
:1009100048BF20F8022B11F0804F18BF00F8012BC0
:10092000704700004FF0013C50F8042B51F8043B95
:100930009A4221D1A2EB0C03934313EACC1317D1B3
:1009400050F8042B51F8043B9A4215D1A2EB0C034A
:10095000934313EACC130BD150F8042B51F8043B0A
:100960009A4209D1A2EB0C03934313EACC13DBD0D8
:100970004FF00000704700BFD01A01BAB1FA81F100
:1009800001F0180122FA01F0CB40C1F12001DBB2E5
:10099000C0B2C01A2CFA01F3D11A914311EAC31163
:1009A000E6D1704770477047704770472DE9F047B0
:1009B0000D4699469246044600F1240801688806CF
:1009C00004D5E06921F01001216000E00120A84277
:1009D00001DD471B00E00027A1697A1902EB09003D
:1009E000081AA0612078C00602D42046AFF3008028
:1009F000002608E0D4E901211AF806009047206A91
:100A0000401C761C20624E45F4DB2078C0060AD5D7
:100A10002046AFF3008006E0D4E901213020904762
:100A2000206A401C2062381EA7F10107F4DC07E0B1
:100A3000D4E9012118F805009047206A401C206283
:100A4000281EA5F10105F3DC2046AFF300802078D5
:100A5000000602D50220BDE8F0870120FBE7000078
:100A600001694A1C02610878704700B58FB0CDE972
:100A700001310021059105497944CDE90310114662
:100A80006846FFF7BBFD0FB000BD0000E5FFFFFFAC
:100A900010B5436913B1AFF3008001E0FFF71CFD0F
:100AA000012010BD127800F124010A7000224A7062
:100AB0000122EDE711684FF0FF32E9E7074B70B50F
:100AC0000D467B44FFF7D1FF0446284600F008F8A6
:100AD00010B14FF0FF3070BD204670BDCB54010007
:100AE000007B00F080007047754600F02BF8AE46A2
:100AF00005006946534620F00700854618B020B52A
:100B0000FFF730FCBDE820404FF000064FF0000733
:100B10004FF000084FF0000B21F00701AC46ACE8A5
:100B2000C009ACE8C009ACE8C009ACE8C0098D4612
:100B3000704710B50446AFF300802046BDE8104072
:100B4000FFF796BB00487047D0CB01202DE9FF4F3F
:100B5000ABB081468A461646389D05A92E980DAB46
:100B600015AACDE90016CDE902051DA924A800F0BB
:100B7000A7F8082D48D3002443E0EB08002139E012
:100B8000002031E00DF1140858F824800DF1900B8D
:100B90005BF824B001FB0B0B0BFB0387DFF8108124
:100BA00058F82480DFF80CB15BF824B001FB0B8807
:100BB000DFF804B15BF824B008FB06B8DFF8FCB03E
:100BC0005BF824B000FB0B8808FB03FC002208E064
:100BD00007EB02081AF808800CEB020B09F80B80EF
:100BE000521C9A42F4D3401C24AF57F82470874219
:100BF000C8D8491C1DAF57F824708F42C0D8601C5C
:100C00000446072CB9D150E000244CE024A850F849
:100C100024006843049005FB06F003904FF00008A1
:100C20003BE0002732E0049808FB00F007FB0500DA
:100C300005A951F82410082202FB010001901C486C
:100C400050F824001B4951F8241008FB01000399B7
:100C50004843194951F82410184A52F8242007FB38
:100C6000021101FB050002904FF0000B0BE0514612
:100C700001A837F095FE0090494602A8009A39F085
:100C8000E9FC0BF1010BAB45F1D37F1C24A850F814
:100C90002400B842C7D808F101081DA850F8240064
:100CA0004045BED8641C072CB0D12FB0BDE8F08FF2
:100CB00078810408B08104085C81040894810408E8
:100CC0002DE9F0470446DDE9097C0B9E089D0020D4
:100CD0003CE0DFF8288158F82080B844DFF8209104
:100CE00059F82090A8EB0908A8F10108DFF80C9149
:100CF00059F82090B8FBF9F844F82080DFF8048117
:100D000058F82080E044DFF8009159F82090A8EBD3
:100D10000908A8F10108DFF8EC9059F82090B8FB19
:100D2000F9F841F8208054F82080B8F1000F03D181
:100D30004FF0000841F8208051F82080B8F1000FF2
:100D400003D14FF0000844F82080401C0728C0D190
:100D50004FF00008C5F80080C3F80080C2F800809A
:100D6000002046E054F82080B8F1000F13D051F86D
:100D70002080B8F1000F0ED051F8209054F8208058
:100D800008FB06F808F107084FF0010A0AEBD8083B
:100D900009FB08F801E04FF0000852F82090C14428
:100DA00000F1010842F8289053F8209051F820A053
:100DB00054F8208008FB06F808F107084FEAD80825
:100DC0000AFB089900F1010843F8289051F82080A7
:100DD00054F8209008FB09F808FB06F808F107080A
:100DE00055F8209009EBD80900F1010845F8289042
:100DF000401C0728B6D1BDE8F087000094810408A4
:100E00005C810408B08104087881040800BFFEE713
:100E10007047000070B504461D460023B5F5804FAD
:100E200013D154F822300C480340D1E9000640EABF
:100E300006108E6840EA06208E8940EA06408E69D8
:100E40003043034344F8223003E06FF0704044F82D
:100E50002200002070BD00000000F0CF10B5034656
:100E60000022086853F8202012480240D1E901040A
:100E70002043CC6820430C6920434C6920438C6993
:100E80002043CC6920430C6A20434C6A20438C6A7F
:100E90002043CC6A2043CC6B20430C6B204302439D
:100EA0008868082801D142F04002086843F82020F1
:100EB000002010BD8000F0FF30B503460024501C18
:100EC00053F8204004F04044D1E9000540EA051001
:100ED0008D6840EA05208D8940EA0545088A401E54
:100EE00045EA0055087D801E45EA00608D6928436B
:100EF0000443501C43F82040002030BD70B5044628
:100F0000A56D00F099F9064694F83500022808D03E
:100F10008020606500BF002084F8340000BF0120FD
:100F200070BD2068006820F0160021680860206805
:100F3000406920F0800021684861206C08B9A06CED
:100F400028B12068006820F0080021680860206847
:100F5000006820F00100216808600FE000F06CF9E3
:100F6000801B05280AD92020606500BF002084F876
:100F7000340000BF032084F83500D1E72068006802
:100F800000F001000028E9D194F85C103F2088406F
:100F9000A86000BF002084F8340000BF012084F85E
:100FA00035000020BCE7014691F83500022803D047
:100FB0008020486501207047052081F835000868C9
:100FC000006820F001000A6810600020F3E70000CC
:100FD00070B5044600F030F906462546681C10B18D
:100FE00004480078054400BF00F026F9801BA842A1
:100FF000FAD370BD24000020F8B502460B46002548
:10100000002400200021DEE0012606FA01F51E681A
:1010100006EA0504AC4275D11E7906F00306012EDE
:1010200004D01E7906F00306022E13D190684F00FB
:101030000326BE40B0434F00DE68BE4030439060A0
:10104000506801268E40B0431E79C6F300168E40CC
:10105000304350601E7906F00306032E09D0D06895
:101060004F000326BE40B0434F009E68BE40304351
:10107000D0601E7906F00306022E13D1CF0802F1CC
:10108000200656F827004E07F70E0F26BE40B04345
:101090004F07FF0E1E69BE403043CF0802F1200605
:1010A00046F8270010684F000326BE40B0431E7963
:1010B00006F003064F00BE40304310605E6806F045
:1010C0008056B6F1805F7DD100BF00260096404E6D
:1010D000366846F480463E4F3E603E46366806F42B
:1010E0008046009600BF00BF3A4E8F0856F8270092
:1010F0008E07370F0F26BE40B043374EB24202D1A3
:10110000002624E05EE0354EB24201D101261EE009
:10111000334EB24201D1022619E0324EB24201D121
:10112000032614E0304EB24201D104260FE02F4EC8
:10113000B24201D105260AE02D4EB24201D1062667
:1011400005E02C4EB24201D1072600E008268F07A9
:101150003F0FBE4030431F4E8F0846F82700264EF3
:101160003068A0435E6806F48036B6F5803F00D153
:101170002043214E3060361D3068A0435E6806F47F
:101180000036B6F5003F00D120431B4E361D3060BF
:10119000361D3068A0435E6806F48016B6F5801FE1
:1011A00000D12043144E08363060361D3068A0430D
:1011B0005E6806F40016B6F5001F00D120430E4EFF
:1011C0000C363060491C1029FFF41EAFF8BD00003A
:1011D0004438024008380140000002400004024048
:1011E00000080240000C02400010024000140240BF
:1011F00000180240001C0240003C014002461369F6
:101200000B400BB1012000E00020704710B542698F
:1012100021EA020302EA010443EA0443836110BDA8
:101220000AB1816101E00B048361704701480068E5
:10123000000C7047002004E001480068704700007F
:101240001C0000200348006803490978084401494C
:10125000086070471C0000202400002010B50A48D8
:10126000006840F40070084908600846006840F4CF
:1012700080600860032000F07FF80F2000F006F87F
:1012800000F02AF8002010BD003C024070B5044672
:101290000E4800784FF47A71B1FBF0F00C49096800
:1012A000B1FBF0F5284601F0CDFB08B1012070BD7F
:1012B000102C07D200222146501E00F01EF80548CF
:1012C000046001E00120F2E70020F0E724000020A4
:1012D000000000202000002070470146084600283A
:1012E00009DB00F01F0301229A4043099B0003F130
:1012F000E023C3F8002100BF70472DE9F05F80466E
:101300000D461646002703F019FA074639462A46C5
:10131000334601F00700C0F1070ABAF1040F02D901
:101320004FF0040A01E0C0F1070AD14600F1040AB7
:10133000BAF1070F02D24FF0000A01E0A0F1030A50
:10134000D4464FF0010A0AFA09FAAAF1010A0AEA98
:10135000020A0AFA0CFA4FF0010B0BFA0CFBABF184
:10136000010B0BEA030B4AEA0B042146404603F04B
:10137000EDF9BDE8F09F000000BF00F00702064B4A
:1013800019684FF6FF031940044B0B4343EA02214F
:10139000014B196000BF70470CED00E00000FA053A
:1013A00070B504460D460CB9012070BD5848006860
:1013B00000F00700A84209D255490D7008460068A0
:1013C00000F00700A84201D00120EEE7207800F0ED
:1013D000020002281DD1207800F00400042805D165
:1013E0004C48006840F4E0504A490860207800F01A
:1013F0000800082805D14748006840F46040454986
:1014000008604448006820F0F000A16808434149A2
:101410000860207800F00100A8B36068012807D1B7
:101420003C4808380068C0F34040B8B90120BCE728
:101430006068022802D06068032807D13548083860
:101440000068C0F3406048B90120AEE73148083871
:101450000068C0F3400008B90120A6E72D480068E5
:1014600020F00300616808432A490860FFF7E4FEA2
:10147000064609E0FFF7E0FE801B41F28831884212
:1014800002D9032091E707E02248006800F00C0031
:101490006168B0EB810FEDD11D48006800F00700D6
:1014A000A84209D91A490D700846006800F00700E3
:1014B000A84201D0012078E7207800F00400042839
:1014C00007D11448006820F4E050E168084311494E
:1014D0000860207800F00800082808D10D4800684E
:1014E00020F46040216940EAC1000A49086000F028
:1014F0003FF808490968C1F30311074A515CC84025
:101500000649086006480068FFF7C0FE00204CE767
:10151000003C024008380240C20D040800000020D0
:1015200020000020014800687047000000000020F3
:1015300000B5FFF7F7FF04490968C1F38221034AA8
:10154000515CC84000BD000008380240D20D0408BC
:1015500000B5FFF7E7FF04490968C1F34231034AC8
:10156000515CC84000BD000008380240D20D04089C
:101570002DE9F047002400250026A14625480068F3
:1015800000F00C0020B1042805D008283AD105E06D
:10159000DFF8849039E0DFF8849036E01D48001FC2
:1015A000006800F03F041B48001F006800F4800042
:1015B00078B11A481749091F0968C1F38811A0FBBF
:1015C00001700146224600233846FEF7DEFE05463E
:1015D0000EE011480F49091F0968C1F38811A0FBEB
:1015E00001700146224600233846FEF7CEFE05462E
:1015F0000848001F0068C0F30140401C4600B5FBCE
:10160000F6F902E0DFF8109000BF00BF4846BDE8E1
:10161000F0870000083802400024F40000127A002D
:10162000F8B504460CB90120F8BD207800F001009F
:10163000002874D0F948006800F00C0004280DD090
:10164000F648006800F00C00082813D1F348001F8A
:10165000006800F48000B0F5800F0BD1EF48083827
:101660000068C0F34040002859D06068002856D177
:101670000120D9E700BF6068B0F5803F08D1E74896
:101680000838006840F48030E449083908601EE0FA
:101690006068B0F5A02F0DD1E0480838006840F42C
:1016A0008020DE49083908600846006840F4803030
:1016B00008600CE0D9480838006820F48030D74929
:1016C000083908600846006820F48020086000BFE0
:1016D000606890B1FFF7B0FD054606E0FFF7ACFD8E
:1016E000401B642801D903209EE7CC4808380068D5
:1016F000C0F340400028F1D011E0FFF79DFD054602
:1017000006E0FFF799FD401B642801D903208BE711
:10171000C24808380068C0F340400028F1D1207862
:1017200000F0020002285FD1BC48006800F00C0005
:1017300058B1BA48006800F00C0008281CD1B7481E
:10174000001F006800F48000B0B9B4480838006891
:10175000C0F3400020B1E068012801D0012063E718
:10176000AE480838006820F0F800216940EAC1005E
:10177000AA490839086037E0E06800B30120A849A9
:101780000860FFF759FD054606E0FFF755FD401BD1
:10179000022801D9032047E7A04808380068C0F3B1
:1017A00040000028F1D09D480838006820F0F8007B
:1017B000216940EAC10099490839086014E0002015
:1017C00097490860FFF738FD054606E0FFF734FD4E
:1017D000401B022801D9032026E7904808380068FA
:1017E000C0F340000028F1D1207800F0080008285C
:1017F0002CD16069A8B101208A490860FFF71CFD5F
:10180000054606E0FFF718FD401B022801D903201A
:101810000AE782486C300068C0F340000028F1D02D
:1018200014E000207F490860FFF706FD054606E04A
:10183000FFF702FD401B022801D90320F4E6774898
:101840006C300068C0F340000028F1D1207800F02F
:101850000400042870D1002770483830006800F078
:10186000805090B900BF002000906C48383000686C
:1018700040F080506949383108600846006800F03F
:101880008050009000BF00BF01276748006800F447
:101890008070B0B96448006840F4807062490860A4
:1018A000FFF7CAFC054606E0FFF7C6FC401B02280E
:1018B00001D90320B8E65C48006800F48070002875
:1018C000F2D000BFA068012808D1544868300068F1
:1018D00040F001005149683108601DE0A06805280A
:1018E0000DD14E486830006840F004004B49683123
:1018F00008600846006840F0010008600CE04748B6
:101900006830006820F001004449683108600846EA
:10191000006820F00400086000BFA068A8B1FFF7CD
:101920008BFC054609E0FFF787FC401B41F288313C
:10193000884202D9032077E626E0384868300068FC
:10194000C0F340000028EED013E0FFF775FC054619
:1019500008E0FFF771FC401B41F28831884201D951
:10196000032061E62D4868300068C0F3400000287D
:10197000EFD1012F07D129483830006820F080507E
:1019800026493831086000BFA069002845D02348A7
:10199000006800F00C0008285DD0A069022845D13D
:1019A00000201F490866FFF747FC054606E0FFF7E1
:1019B00043FC401B022801D9032035E617480838AC
:1019C0000068C0F340600028F1D1D4E90701084362
:1019D000616A40EA81110122A06AC2EB500041EA2B
:1019E00000412C20005D41EA00600C49091F08609D
:1019F00001200B490866FFF71FFC054606E0FFF7CC
:101A00001BFC401B022801D903200DE603480838BF
:101A10000068C0F340600028F1D049E00838024077
:101A200000004742800E47420070004000202149DC
:101A30000866FFF701FC054606E0FFF7FDFB401BCB
:101A4000022801D90320EFE51B480068C0F340607D
:101A50000028F2D12CE0A069012800D1E4E5164865
:101A6000001D0668A069012820D006F48001E06905
:101A700081421BD106F03F01206A814216D147F610
:101A8000C0703040616AB0EB811F0FD106F4403165
:101A90000122A06AC2EB5000B1EB004F06D106F064
:101AA00070612C20005DB1EB006F01D00120BBE51F
:101AB0000020B9E50000474200380240F0B589B087
:101AC00004460E460027032084F83400606C032887
:101AD00020D0B6F5805F04D1A06B40F08050A063A9
:101AE0001CE0B6F5006F07D1204602F02DFB05463D
:101AF000A06B2843A06311E03EB9204602F0F0FA43
:101B00000546A06B2843A06308E0A06B40F000608E
:101B1000A06303E0A06B40F08050A063A06B38B1DD
:101B2000174821688863012084F83400012713E0F6
:101B300060680390A0680490E0680590069660696C
:101B40000790A069089006A807C88DE807002068DC
:101B500003A90EC901F028FD4FF40071206801F0BF
:101B60009FFD054635B1064821688863A06B284370
:101B7000A0630127012084F83400384609B0F0BD85
:101B8000FF05400010B50246506E800F0870506E81
:101B9000C0F383604870506EC0F301608870506E6F
:101BA000000CC870B2F86400000A087192F8640072
:101BB0004871906E000DC880906EC0F303400872AB
:101BC0006820805AC0F3C03048726820805AC0F341
:101BD000803088726820805AC0F34030C872682014
:101BE000805AC0F30030087300204873506C0028FE
:101BF00036D16820805A8005030DD06E43EA90707C
:101C00000861D06EC0F3C2600875D06EC0F3026088
:101C10004875D06EC0F342508875D06EC0F38240D4
:101C2000C875D06EC0F3C23008760869401C506594
:101C30000B7E506D03F007039B1C01249C40604306
:101C40005065087A00F00F03012098409065D2E9B2
:101C500015035B0A5843D0654FF40073136621E007
:101C6000506C012813D16820805C8006830AD06EF6
:101C700043EA104008610869401C83025365536DB4
:101C8000D3654FF400739365936D13660AE02E4895
:101C900013689863906B40F080509063012082F845
:101CA000340010BD6C20805AC0F3803001F8190F49
:101CB0006C20805AC0F3C61048706C20805C00F025
:101CC0007F008870106FC00FC870106FC0F3417034
:101CD0000871106FC0F382604871106FC0F38350B9
:101CE0008871106FC0F34050C87100200872106FE7
:101CF000C0F3004048727020805AC0F3C030887230
:101D00007020805AC0F38030C8727020805AC0F3AF
:101D1000403008737020805AC0F300304873702040
:101D2000805AC0F3812088737020805AC0F301204C
:101D3000C8737020805CC0F34600087401204874AA
:101D400019390020ADE70000FF0540000246506C45
:101D50000860906C4860D06C8860106DC860506DF1
:101D60000861906D4861D06D8861106EC861002077
:101D70007047F8B50446002000906946204602F0FE
:101D800097F9054615B1A06B2843A0630098C0F3EE
:101D900043263046F8BD10B504460CB9012010BDED
:101DA00094F8340020B900202077204600F068F82D
:101DB000032084F83400204600F00CF808B101201C
:101DC000EDE70020A0632063012084F834000020A8
:101DD000E5E7000070B58AB0044600200490059045
:101DE0000690079008907620099007A807C88DE80C
:101DF0000700206804A90EC901F0D6FB064616B1FB
:101E000001200AB070BD00201B490860206801F065
:101E1000E5FB01201849A039C1F8A000204602F0D6
:101E2000E1F805463DB1012084F83400A06B284359
:101E3000A0630120E5E7204602F053F805463DB1D6
:101E4000012084F83400A06B2843A0630120D8E768
:101E50004FF40071206801F023FC05464DB107489E
:101E600021688863A06B2843A063012084F83400B4
:101E7000C7E70020C5E70000A0802542FF0540001D
:101E800010B586B0044600BF00200090534800689B
:101E900040F40060514908600846006800F40060A2
:101EA000009000BF00BF00BF00BF002000904B4863
:101EB0001438006840F004004849143908600846A6
:101EC000006800F00400009000BF00BF00BF00BF2A
:101ED00000BF002000900846006840F00400086041
:101EE0000846006800F00400009000BF00BF00BF7B
:101EF00000BF00BF002000900846006840F00400CA
:101F000008600846006800F00400009000BF00BFB1
:101F100000BF00BF00BF002000900846006840F0EE
:101F2000040008600846006800F00400009000BF4C
:101F300000BF00BF00BF00BF00200090084600683F
:101F400040F0040008600846006800F004000090BB
:101F500000BF00BF00BF00BF00BF002000900846C8
:101F6000006840F0080008600846006800F00800BB
:101F7000009000BF00BF00BF8815019002200290B2
:101F800001200390022004900C20059001A9144820
:101F9000FFF732F84FF40070019001A91048FFF7E5
:101FA0002BF84FF48060019001A90D48FFF724F849
:101FB0004FF40060019001A90948FFF71DF84FF4A4
:101FC0008050019001A90648FFF716F804200190FF
:101FD00001A90448FFF710F806B010BD44380240CC
:101FE00000080240000C02402DE9FF4F89B0044672
:101FF0008B469946DDF858A0FFF71EF902900B9822
:1020000000905D46BBF1000F07D1A06B40F000606F
:10201000A06301200DB0BDE8F08F94F834000128D2
:102020007ED10020A063009800EB0901E06D8142A1
:1020300005D9A06B40F00070A0630120EAE70320FF
:1020400084F8340000202168C862606C012802D046
:102050000098400200904FF0FF3003904FEA492073
:102060000490902005900220069000200790012007
:10207000089003A9206801F072FAB9F1010F07D99D
:10208000022020632068009901F072FB804606E080
:10209000012020632068009901F086FB8046B8F19A
:1020A000000F0DD0754821688863A06B40EA0800D6
:1020B000A063012084F83400002020630120A9E7F8
:1020C000049E3AE02068406B00F40040E0B1DEB1CD
:1020D0000020019015E0206801F089FA07462F7072
:1020E0006D1C761E380A28706D1C761E380C287000
:1020F0006D1C761E380E28706D1C761E0198401CD3
:10210000019001980828E6D3FFF796F80299401A43
:10211000504502D2BAF1000F0FD15848216800E0B3
:10212000A6E08863A06B40F00040A063012084F823
:1021300034000020206303206CE72068406B40F2ED
:102140002A3108400028BDD02068406B00F4807020
:10215000D0B1B9F1010F17D9606C032814D02068F1
:1021600001F0E2FB8046B8F1000F0DD04348216832
:102170008863A06B40EA0800A063012084F8340063
:1021800000202063012045E72068406B00F0080034
:1021900068B13A4821688863A06B40F00800A063EA
:1021A000012084F8340000202063012032E72068F9
:1021B000406B00F0020068B1304821688863A06B72
:1021C00040F00200A063012084F834000020206366
:1021D00001201FE72068406B00F0200068B127480D
:1021E00021688863A06B40F02000A063012084F880
:1021F00034000020206301200CE729E0206801F072
:10220000F6F907462F706D1C761E380A28706D1C73
:10221000761E380C28706D1C761E380E28706D1CCA
:10222000761EFFF709F80299401A504502D2BAF11A
:10223000000F0DD1114821688863A06B40F0004069
:10224000A063012084F83400002020630120E1E62F
:102250002068406B00F4001008B1002ECED140F28F
:102260003A5021688863012084F834000020D1E6C8
:10227000A06B40F00050A0630120CBE6FF054000BA
:102280002DE9F04F89B00446894693469846FEF7FB
:10229000D3FF0290DA464D46B9F1000F07D1A06B8B
:1022A00040F00060A063012009B0BDE8F08F94F811
:1022B000340001287ED10020A0630AEB0801E06D04
:1022C000814205D9A06B40F00070A0630120EBE7CC
:1022D000032084F8340000202168C862606C012863
:1022E00001D04FEA4A2A4FF0FF3003904FEA4820CE
:1022F00004909020059000200690079001200890FF
:1023000003A9206801F02BF9B8F1010F07D92020AB
:1023100020635146206801F025FB064606E01020A8
:1023200020635146206801F039FB064666B15F48DC
:1023300021688863A06B3043A063012084F83400D7
:10234000002020630120AFE7049F43E02068406B3A
:1023500000F4804030B32FB3002001901FE02878B4
:1023600000906D1C7F1E2878009941EA00200090A3
:102370006D1C7F1E2878009941EA004000906D1C7A
:102380007F1E2878009941EA006000906D1C7F1E36
:102390006946206801F043F90198401C01900198BA
:1023A0000828DCD3FEF748FF0299411A12988142AF
:1023B00003D200E074E0129860B93C482168886359
:1023C000A06B3043A063012084F834000020206318
:1023D000032069E72068406B40F21A31084000286A
:1023E000B4D02068406B00F48070B8B1B8F1010F30
:1023F00014D9606C032811D0206801F095FA0646C4
:1024000066B12A4821688863A06B3043A06301202D
:1024100084F8340000202063012045E72068406BE9
:1024200000F0080068B1214821688863A06B40F083
:102430000800A063012084F83400002020630120FC
:1024400032E72068406B00F0020068B1174821684D
:102450008863A06B40F00200A063012084F8340080
:102460000020206301201FE72068406B00F010006F
:1024700068B10E4821688863A06B40F01000A0632B
:10248000012084F834000020206301200CE740F292
:102490003A5021688863012084F83400002003E763
:1024A000A06B40F00050A0630120FDE6FF05400056
:1024B00010B504460CB9012010BD606A38B96068D7
:1024C000B0F5827F00D105E00021E16102E000214A
:1024D00021616161A06AB0F5005F00D100BF94F88E
:1024E000510028B9002084F85000204600F050F830
:1024F000022084F851002068006820F04000216824
:102500000860A08800F48270218901F40441084326
:10251000A18901F400610843217C01F00201084314
:10252000217D01F001010843218B01F40071084372
:10253000217F01F0380108432021095D01F080016D
:102540000843218D01F400510843216808600421EB
:10255000A06901EA104094F8241001F0100108432A
:1025600021684860A06AB0F5005F03D1A08D80B2F9
:10257000216808612068C06920F400602168C86192
:1025800000206065012084F85100002094E70000DD
:1025900010B586B004462A49206888424DD100BF54
:1025A00000BF002000902748006840F00200254945
:1025B00008600846006800F00200009000BF00BFFD
:1025C00000BF00BF00BF002000900846006840F038
:1025D000020008600846006800F00200009000BF9A
:1025E00000BF00BF00BF00BF002000900846006889
:1025F00040F0020008600846006800F00200009009
:1026000000BF00BF00BF08200190022002900120FF
:102610000390022004900520059001A90A48FEF7C6
:10262000EBFC1020019001A90748FEF7E5FC2020F3
:10263000019001A90448FEF7DFFC06B010BD0000C0
:102640000030014030380240000402402DE9F04FD4
:1026500085B00446884691461D460E9E0020049093
:10266000012002900020019000BF94F85000012842
:1026700003D1022005B0BDE8F08F012084F850009E
:1026800000BFFEF7D9FD074694F851B0606803908B
:10269000AA46BBF1010F0BD00398B0F5827F04D19D
:1026A000A06810B9BBF1040F02D0022001902CE108
:1026B000B8F1000F03D0B9F1000F00D015B9012017
:1026C000019022E194F85100042802D0052084F8FA
:1026D000510000206065C4F83890E587A587C4F8EC
:1026E0003080E586A58620646064A06AB0F5005F4E
:1026F0000DD100BF2068006820F4005021680860F8
:102700002068006840F400502168086000BF20681D
:10271000006800F04000402805D02068006840F0C4
:10272000400021680860E068B0F5006F56D160682D
:1027300010B1BAF1010F09D1206B00882168C8607F
:10274000206B801C2063E08E401EE0863FE0206806
:10275000806800F0020002281CD1E08ED0B10298FF
:10276000012817D1206B00882168C860206B801C6D
:102770002063E08E401EE08600200290E08E48B983
:10278000A06AB0F5005F05D12068006840F4805071
:10279000216808602068806800F0010068B1E08F5F
:1027A00058B12068C068A16B0880A06B801CA06332
:1027B000E08F401EE08701200290FEF73DFDC01B28
:1027C000B04204D3701C10B1032001909DE0E08E54
:1027D0000028BCD1E08F0028B9D156E0606810B164
:1027E000BAF1010F09D1206B007821680873206BC2
:1027F000401C2063E08E401EE08640E02068806838
:1028000000F0020002281CD1E08ED0B1029801280D
:1028100017D1206B007821680873206B401C20635F
:10282000E08E401EE08600200290E08E48B9A06A4B
:10283000B0F5005F05D12068006840F48050216841
:1028400008602068806800F0010068B1E08F58B12E
:102850002068C068A16B0870A06B401CA063E08F6B
:10286000401EE08701200290FEF7E6FCC01BB0424C
:1028700001D3701C00B916B90320019045E0E08E29
:102880000028BBD1E08F0028B8D1A06AB0F5005F66
:1028900012D13346012211462046009701F0BEFCBA
:1028A00030B1606D40F002006065032001902CE0C3
:1028B0002068C068049000BF2068806800F01000A5
:1028C000102809D1606D40F0020060654FF6EF708E
:1028D00021688860012001903A463146204601F087
:1028E00067FC20B101200190202060650DE0A06808
:1028F00050B900BF002000902068C0680090206898
:102900008068009000BF00BF00BF012084F8510024
:1029100000BF002084F8500000BF0198AAE670B5FF
:1029200004460E4615460CB9012070BD94F84900C6
:1029300028B9002084F84800204600F01DF804F172
:1029400008012068FEF78AFA3146A2682068FEF77F
:10295000B3FA2946236BD4E90102FEF75BFAA168BA
:10296000206850F8210040F00100A268216841F879
:1029700022000020D9E7000010B586B0044600BF51
:10298000002000902248006840F0010020490860C3
:102990000846006800F00100009000BF00BF00BFC3
:1029A000002000901A480838006840F008001849D4
:1029B000083908600846006800F00800009000BF71
:1029C00000BF00BF002000900846006840F01000E3
:1029D00008600846006800F01000009000BF00BFCB
:1029E0004CF203700190022002900120039002201B
:1029F00004900C20059001A90648FEF7FDFA4FF659
:102A00008070019001A90448FEF7F6FA06B010BDE7
:102A100038380240000C024000100240042808D15F
:102A20004FF0E021096941F004014FF0E02211610B
:102A300007E04FF0E021096921F004014FF0E022A6
:102A40001161704770B504462546681EB0F1807F5D
:102A500001D301200FE0681E4FF0E02148610F21F3
:102A60004FF0FF3001F072FE00204FF0E02188614E
:102A700007200861002070BD70477047704710B58F
:102A8000044620680069C0F34000D8B12068C068DF
:102A9000C0F34000B0B16FF002002168086101206E
:102AA00020772068806900F0030018B12046FFF706
:102AB000E5FF05E0204600F0ADF8204600F0ABF859
:102AC0000020207720680069C0F38000D8B120681A
:102AD000C068C0F38000B0B16FF0040021680861E5
:102AE000022020772068806900F4407018B12046E9
:102AF000FFF7C4FF05E0204600F08CF8204600F008
:102B00008AF80020207720680069C0F3C000D8B19F
:102B10002068C068C0F3C000B0B16FF00800216841
:102B20000861042020772068C06900F0030018B114
:102B30002046FFF7A3FF05E0204600F06BF8204693
:102B400000F069F80020207720680069C0F30010C9
:102B5000D8B12068C068C0F30010B0B16FF01000A9
:102B600021680861082020772068C06900F440705F
:102B700018B12046FFF782FF05E0204600F04AF832
:102B8000204600F048F8002020772068006900F017
:102B9000010058B12068C06800F0010030B16FF04A
:102BA000010021680861204600F036F820680069BD
:102BB000C0F3C01058B12068C068C0F3C01030B175
:102BC0006FF08000216808612046FFF755FF2068FC
:102BD0000069C0F3801058B12068C068C0F380104D
:102BE00030B16FF0400021680861204600F015F810
:102BF00020680069C0F3401058B12068C068C0F375
:102C0000401030B16FF02000216808612046FFF7C6
:102C100034FF10BD7047704770477047704770476A
:102C20002DE9F84F0446206805682068C6682068CA
:102C300047694FF00009CA4605F00F09B9F1000FC6
:102C40000AD105F0200038B106F0200020B120465E
:102C500001F0A1FBBDE8F88FB9F1000F72D007F0C9
:102C6000010018B906F4907000286BD005F001003F
:102C700030B106F4807018B1206C40F0010020647F
:102C800005F0040030B107F0010018B1206C40F0ED
:102C90000200206405F0020030B107F0010018B115
:102CA000206C40F00400206405F0080048B106F0F4
:102CB000200010B907F0010018B1206C40F00800A6
:102CC0002064206C70B305F0200028B106F02000CD
:102CD00010B1204601F05FFB20684069C0F3801A04
:102CE000206C00F0080010B9BAF1000F23D0204684
:102CF00001F026FB2068406900F04000402816D112
:102D00002068406920F0400021684861A06B50B104
:102D10005648A16B0865A06BFEF745F910B1A06B92
:102D2000016D88470CE02046FFF779FF08E0204658
:102D3000FFF775FF04E02046FFF771FF00202064D5
:102D400088E7FFE7206B012879D105F01000002803
:102D500075D006F01000002871D000BF0020009050
:102D600020680068009020684068009000BF00BFA5
:102D70002068406900F04000402839D1A06B00680D
:102D800040681FFA80F8B8F1000F30D0A08D4045A0
:102D90002DDDA4F82E80A06BC069B0F5807F1FD018
:102DA0002068C06820F480702168C860206840698D
:102DB00020F00100216848612068406920F040004F
:102DC00021684861202084F83E00002020632068AC
:102DD000C06820F010002168C860A06BFEF78EF874
:102DE000A08DE28D801A81B22046FFF717FF31E7F0
:102DF000A08DE18D401A1FFA80F8E08DE8B1B8F19E
:102E0000000F1AD02068C06820F490702168C86054
:102E10002068406920F0010021684861202084F882
:102E20003E00002020632068C06820F01000216868
:102E3000C86041462046FFF7F1FE0BE7FFE705F0CB
:102E4000800030B106F0800018B1204601F03BFC54
:102E500000E705F0400030B106F0400018B1204610
:102E600001F089FAF6E600BFF4E600002D43000801
:102E700010B504460CB9012010BDA06900B100E0F6
:102E800000BF94F83D0028B9002084F83C0020469B
:102E900000F028F8242084F83D002068C06820F461
:102EA00000502168C860204601F0D4FA206800690B
:102EB00020F49040216808612068406920F02A00D1
:102EC000216848612068C06840F400502168C860EB
:102ED00000202064202084F83D0084F83E0000207B
:102EE000CAE7000010B586B004462E492068884223
:102EF00055D100BF00BF002000902B48006840F073
:102F00001000294908600846006800F01000009091
:102F100000BF00BF00BF00BF00BF002000902248DC
:102F20001438006840F001001F4914390860084651
:102F3000006800F00100009000BF00BF00BF00BFAC
:102F400000BF002000900846006840F001000860C3
:102F50000846006800F00100009000BF00BF00BFFD
:102F60004815019002200290012003900220049055
:102F70000720059001A90D48FEF73EF84FF4806048
:102F800001900720059001A90848FEF735F8252093
:102F9000FEF7A3F9032211462520FEF7AEF906B08D
:102FA00010BD000000100140443802400000024003
:102FB00070B504460D46164694F83E00202816D1FA
:102FC00005B10EB9012070BD00BF94F83C00012886
:102FD00001D10220F7E7012084F83C0000BF002067
:102FE000206332462946204601F04AFBEBE70220E7
:102FF000E9E7000010B504462049206888423BD12B
:103000001F48008800F4004088BB1D48008800F479
:10301000804070B11B4800780A2803D0002018496E
:10302000088024E01648008840F4004014490880D5
:103030001DE0144800780D2806D11148008840F49E
:1030400080400F49088012E00E4800780C4909883A
:10305000C1F30D010C4A505409480088401C08492E
:10306000088008460088C72801DD0020088001226A
:1030700004490648FFF79CFF10BD00000010014006
:10308000180000201A0000202C070020F407002060
:10309000704700BFFEE710B5044620681CF0ECFD49
:1030A00060681CF0E9FD20691CF0E6FD60691CF019
:1030B000E3FD10BD00210160416001614161704785
:1030C0002DE9F04104460F4616469846B0001CF024
:1030D00080FF6060606810B95320BDE8F081002572
:1030E00005E057F82500616841F825006D1CB542E0
:1030F000F7D1E660C4F80880204600F001F8ECE75C
:103100002DE9F04704464FF00009E16888001CF003
:1031100060FF2060A168491C88001CF05AFF8046AF
:10312000A168491C88001CF054FF0746206818B1AC
:10313000B8F1000F00D00FB94FF05309B9F1000FEB
:1031400055D1002505E0002047F8250048F8250066
:103150006D1CA068401CA842F5D100260BE06068F9
:1031600050F8260058F82000401C616851F82610DD
:1031700048F82100761CE068B042F0D1012609E051
:10318000701E57F8201058F820000844400047F8F7
:103190002600761CA068B042F2D2002524E06068C8
:1031A00050F82500F8B1606850F8250057F8200065
:1031B000216841F82500606850F8250057F8200084
:1031C000401C616851F8251047F82100206850F82C
:1031D0002510606810F8252001209040401E014015
:1031E000206840F825106D1CE068A842D7D1404601
:1031F0001CF042FD38461CF03FFDB9F1000F03D131
:10320000204600F004F881464846BDE8F0872DE9E5
:10321000F04F85B005464FF400601CF0DAFE8046A2
:10322000B8F1000F03D1532005B0BDE8F08F4FF483
:103230000062002140461CF0DCFE00241FE02868EC
:1032400050F824000490686850F824B0BBF1090FCE
:1032500000D813E0ABF10902049921FA02F0092128
:1032600036F059FC064658F82600584502D958F859
:10327000260000E0584648F8260000BF641CE868B5
:10328000A042DCD84FF40077002409E058F824006D
:10329000092804D9A0F1090101228A401744641CBD
:1032A000B4F5007FF2D338461CF093FE2861780015
:1032B0001CF08FFE6861286908B1686920B9404632
:1032C0001CF0DAFC5320AFE7002403E0102029694A
:1032D0000855641CBC42F9D34FF4007A002410E076
:1032E00058F82400092800D80AE02A6910556A69AC
:1032F00022F814A0A0F1090101228A40924400BFE3
:10330000641CB4F5007FEBD340461CF0B5FC4FF0D5
:103310000009002468E0686850F82460286850F8C4
:10332000240004903146049836F0F5FB834606B934
:1033300059E009F10109092E1CD8C6F10902012042
:1033400000FA02F3002112E001FA06F040EA0B0253
:103350002869805C102801D0372065E7D5F810C0B7
:103360000CF80260D5F814C02CF81240491C9942A0
:10337000EAD337E0CBF308022869835CA3F10900A4
:103380000390686930F812000290A6F10900DDF898
:103390000CC0ACEB000C012000FA0CF00190B34221
:1033A00001D2372040E7002118E04FEA5B2CCDF82E
:1033B00000C0A6F1090C01FA0CFCDDF800E04CEAB3
:1033C0000E0CDDF808E00CEB0E00D5F810E00EF85E
:1033D0000060D5F814E02EF81040491C0198814295
:1033E000E3D300BF00BF641CE868A04293D8B9F1E2
:1033F000020F16D2002411E02869005D10280CD1BC
:10340000B4F5007F01D2012000E00A2029690855A7
:103410004FF6FF70696921F81400641CBC42EBD3BD
:103420000AE0002406E02869005D102801D1372059
:10343000FAE6641CBC42F6D30020F5E6F8B5044673
:103440000E4615462660656004F1080208212846EC
:103450001CF0D8FD08B16920F8BD6A464021A0687B
:103460001CF073F808B16920F6E70020E0602061E5
:1034700000BFF1E770B50446002514E0E16C01EBF4
:10348000850037F068FD216D01EB850037F063FDA5
:10349000616D01EB850037F05EFDA16D01EB8500EC
:1034A00037F059FD6D1CA06CA842E7D1E06C1CF010
:1034B000E3FB206D1CF0E0FB606D1CF0DDFBA06DFC
:1034C0001CF0DAFB70BD00218164C16401654165B7
:1034D0008165704770B5044600250AE0216C01EB58
:1034E000850037F038FD616C01EB850037F033FD66
:1034F0006D1CE06BA842F1D1206C1CF0BDFB606C30
:103500001CF0BAFB70BD0021C163016441647047C7
:1035100070B50546002406E005F1CC0151F8240001
:103520001CF0AAFB641C032CF6D170BD01460020E0
:1035300005E0002301F1CC0242F82030401C0328B2
:10354000F7D1002005E0002301F1D80242F8203035
:10355000401C0328F7D1704700BFFEE7704710B545
:10356000024600230868506248689062D1E902046C
:1035700020430C6920434C6920430343D06A20F068
:10358000F7001843D062002010BD01460869C0B2A0
:1035900070470146086800F003007047024602F1D8
:1035A00014004318186870470FB410B50446002182
:1035B000DDE903021043059A1043069A1043079A67
:1035C0001043089A10430143606847F6FF62904336
:1035D00008436060002010BC5DF814FB10B5044681
:1035E000032020600220FDF7F3FC002010BD0146FF
:1035F000D1F88000704710B502460023086890603B
:10360000D1E901042043CC6820430C6920430343E3
:10361000D0686FF30B001843D060002010BD024645
:103620000868C2F880000020704770B586B0054673
:103630000C46019437200290402003900020049013
:103640004FF48060059001A92846FFF7D4FF41F2AE
:1036500088323721284600F0DDF90646304606B0AC
:1036600070BD000070B586B005460C460B4820437F
:1036700001902920029040200390002004904FF4F4
:103680008060059001A92846FFF7B5FF284600F0A5
:10369000C9FA0646304606B070BD00000000108032
:1036A00070B586B005460C4601941020029040206B
:1036B0000390002004904FF48060059001A92846F3
:1036C000FFF799FF41F288321021284600F0A2F955
:1036D0000646304606B070BD70B586B005460C464D
:1036E00001940620029040200390002004904FF4A3
:1036F0008060059001A92846FFF77DFF41F28832DE
:103700000621284600F086F90646304606B070BD10
:1037100030B585B0044600200090019002900390DF
:103720004FF48060049069462046FFF764FF20460E
:1037300000F050F90546284605B030BD30B585B0DB
:1037400004464FF4D570009008200190402002906C
:10375000002003904FF48060049069462046FFF7F4
:103760004AFF204600F0E6FA0546284605B030BD7F
:1037700070B586B005460C46019412200290402098
:103780000390002004904FF48060059001A9284622
:10379000FFF731FF41F288321221284600F03AF952
:1037A0000646304606B070BD70B586B005460C467C
:1037B00001941120029040200390002004904FF4C7
:1037C0008060059001A92846FFF715FF41F2883275
:1037D0001121284600F01EF90646304606B070BD9D
:1037E000F0B585B0064614461D46009407200190AA
:1037F00040200290002003904FF4806004906946BE
:103800003046FFF7F8FE41F288320721304600F0DB
:1038100001F90746384605B0F0BD30B585B004461D
:103820000020009002200190C02002900020039010
:103830004FF48060049069462046FFF7DCFE204686
:1038400000F0BEF90546284605B030BD70B586B01B
:1038500005460C46019409200290C02003900020E8
:1038600004904FF48060059001A92846FFF7C3FE3D
:10387000284600F0A5F90646304606B070BD30B5C2
:1038800085B0044600200090332001904020029033
:10389000002003904FF48060049069462046FFF7B3
:1038A000AAFE41F288323321204600F0B3F80546E3
:1038B000284605B030BD70B586B005460C4601946B
:1038C0000D20029040200390002004904FF480606F
:1038D000059001A92846FFF78EFE41F288320D219E
:1038E000284600F097F80646304606B070BD70B521
:1038F00086B005460C46002001900320029040202F
:103900000390002004904FF48060059001A92846A0
:10391000FFF771FE22460321284600F0AFF9064664
:10392000304606B070BD000030B585B004460020BA
:1039300000900C20019040200290002003904FF452
:103940008060049069462046FFF755FE044A0C212A
:10395000204600F05FF80546284605B030BD00005F
:1039600000E1F50570B586B005460C4601941920B6
:10397000029040200390002004904FF48060059056
:1039800001A92846FFF737FE41F28832192128465F
:1039900000F040F80646304606B070BD70B586B0FF
:1039A00005460C4601941820029040200390002008
:1039B00004904FF48060059001A92846FFF71BFE94
:1039C00041F288321821284600F024F80646304695
:1039D00006B070BD01460E480068C0084FF47A7307
:1039E000B0FBF3F041F2883300FB03F200BF101E7E
:1039F000A2F1010202D14FF000407047486B00F085
:103A000080000028F3D0C52088630020F5E700007F
:103A1000000000202DE9F04305460F469046664819
:103A20000068C0084FF47A71B0FBF1F000FB08F9B0
:103A300000BFB9F10000A9F1010903D14FF0004026
:103A4000BDE8F0836E6B06F045000028F1D006F467
:103A500000600028EDD1686B00F0040010B1042074
:103A6000A863EDE7686B00F0010010B10120A863C6
:103A7000E6E7C520A8632846FFF787FDB84201D0D6
:103A80000120DDE700212846FFF788FD04464B486A
:103A9000204008B90020D3E704F00040B0F1004F07
:103AA00002D14FF00070CBE704F08040B0F1804FBE
:103AB00001D14020C4E704F00050B0F1005F01D113
:103AC0008020BDE704F08050B0F1805F02D14FF458
:103AD0008070B5E704F00060B0F1006F02D14FF4E0
:103AE0000070ADE704F08060B0F1806F02D14FF458
:103AF0008060A5E704F08070B0F1807F02D14FF4C0
:103B000000609DE704F40000B0F5000F02D14FF40F
:103B1000805095E704F48000B0F5800F02D14FF497
:103B200000508DE704F40010B0F5001F02D14FF4EF
:103B3000804085E704F48010B0F5801F02D14FF477
:103B400000407DE704F48020B0F5802F02D14FF4CF
:103B5000003075E704F40030B0F5003F02D14FF4B7
:103B600080206DE704F48030B0F5803F02D14FF43F
:103B7000002065E704F40040B0F5004F02D14FF497
:103B800080105DE704F48040B0F5804F02D14FF41F
:103B9000001055E704F40050B0F5005F02D14FF477
:103BA00080004DE704F00800082801D1000547E730
:103BB0004FF4803044E700000000002008E0FFFDE3
:103BC00010B5014616480068C0084FF47A74B0FB7F
:103BD000F4F041F2883400FB04F300BF181EA3F197
:103BE000010302D14FF0004010BD4A6B02F04500C6
:103BF0000028F3D002F400600028EFD1486B00F0F9
:103C0000040010B104208863EEE7486B00F0010067
:103C100010B101208863E7E7C52088630020E3E74F
:103C20000000002010B5014613480068C0084FF49A
:103C30007A74B0FBF4F041F2883400FB04F300BF67
:103C4000181EA3F1010302D14FF0004010BD4A6BD2
:103C500002F045000028F3D002F400600028EFD104
:103C6000486B00F0040010B104208863EEE7C52023
:103C700088630020EAE70000000000202DE9F043FF
:103C800004460F4690462A480068C0084FF47A71EF
:103C9000B0FBF1F041F2883100FB01F900BFB9F14E
:103CA0000000A9F1010903D14FF00040BDE8F08305
:103CB000666B06F045000028F1D006F4006000288D
:103CC000EDD1606B00F0040010B10420A063EDE7BB
:103CD000606B00F0010010B10120A063E6E7204610
:103CE000FFF753FCB84201D00120DFE7C520A063F5
:103CF00000212046FFF752FC054605F4604020B93C
:103D0000280CA8F800000020D0E705F48040B0F5AA
:103D1000804F02D14FF40050C8E705F40040B0F5E1
:103D2000004F02D14FF48050C0E74FF48030BDE720
:103D30000000002010B5014618480068C0084FF484
:103D40007A74B0FBF4F041F2883400FB04F300BF56
:103D5000181EA3F1010302D14FF0004010BD4A6BC1
:103D600002F045000028F3D002F400600028EFD1F3
:103D7000486B00F0040010B104208863EEE7486B44
:103D800000F0010010B101208863E7E7486B00F004
:103D9000400008B1402088630020DFE700000020D9
:103DA0002DE9F04389B004460F46FDF745FA8146F8
:103DB0004FF000080020019002903E460821206844
:103DC000FFF76EFC05461DB1284609B0BDE8F0833B
:103DD0005022125B11042068FFF727FC05460DB145
:103DE0002846F2E74FF0FF3003900820049030207F
:103DF000059002200690002007900120089003A95A
:103E00002068FFF7ACFB2068FFF739FD05460DB1D0
:103E10002846DAE71CE02068406B00F4001040B14F
:103E20002068FFF7E4FB01A941F8280008F1010828
:103E300005E02068406B00F4005000B90EE0FDF78B
:103E4000FBF9A0EB0900401C10B94FF00040BCE7A3
:103E50002068406B00F02A000028DCD000BF2068FA
:103E6000406B00F0080018B1082021688863ACE7B7
:103E70002068406B00F0020018B1022021688863BE
:103E8000A3E72068406B00F0200018B120202168D3
:103E900088639AE740F23A502168886302980006E6
:103EA000029901F47F4140EA0120029901F47F0167
:103EB00040EA1120029940EA11603060361D0198F5
:103EC0000006019901F47F4140EA0120019901F4C3
:103ED0007F0140EA1120019940EA11603060002022
:103EE00073E730B58FB00446012003902068FFF7D8
:103EF00050FB18B94FF080600FB030BD606C0328E4
:103F00001BD02068FFF789FC05460DB12846F3E772
:103F100000212068FFF742FB606704212068FFF75B
:103F20003DFBA06708212068FFF738FBE0670C2104
:103F30002068FFF733FB80210851606C032807D00D
:103F400003A92068FFF7D3FC05460DB12846D3E747
:103F5000606C032820D0BDF80C1021655022125B44
:103F600011042068FFF772FC05460DB12846C3E72F
:103F700000212068FFF712FB606604212068FFF72C
:103F80000DFBA06608212068FFF708FBE0660C2106
:103F90002068FFF703FB206704212068FFF7FEFA83
:103FA000010DE16404A92046FDF7ECFD10B14FF0CE
:103FB0008050A1E75020005B01040A4600232068DE
:103FC000FFF70EFC05460DB1284695E7D4E904122B
:103FD000A069CDE90012029094E80F00FFF7E4FA1F
:103FE000002089E7F8B5044600200090002600274D
:103FF0002068FFF78DFB05460DB12846F8BD206807
:10400000FFF79CFB054645B10021A1642068FFF73E
:104010007FFB05461DB12846F0E70121A164A06C95
:10402000012808D100212068FFF7FFFA054615B1E5
:104030004FF08050E2E71DE000212068FFF7F5FA1D
:1040400005460DB12846D9E718492068FFF70AFB55
:10405000054615B14FF08050D0E700212068FFF7EA
:104060009DFA0646012080EAD67080F0010700988C
:10407000401C00904FF6FF710098884201D2002F3B
:10408000DAD04FF6FF710098884202D34FF080706B
:10409000B4E706F08040B0F1804F02D101206064A7
:1040A00001E0002060640020A8E70000000010C1CB
:1040B00070B504460D4615B94FF0006070BD502232
:1040C000125B11042068FFF7F6FB06460EB130467E
:1040D000F4E700212068FFF761FA28600020EDE78F
:1040E0007CB5044600200090019000212068FFF775
:1040F00055FA00F00070B0F1007F02D14FF400607B
:104100007CBD69462046FFF74BFE05460DB12846AB
:10411000F6E7019800F4803098B15022125B110448
:104120002068FFF782FA05460DB12846E8E700212E
:104130002068FFF7D1FA05460DB12846E0E70020D8
:10414000DEE74FF08060DBE77CB50446002000909E
:10415000019000212068FFF721FA00F00070B0F113
:10416000007F02D14FF400607CBD69462046FFF716
:1041700017FE05460DB12846F6E7019800F48020A9
:1041800098B15022125B11042068FFF74EFA0546E1
:104190000DB12846E8E702212068FFF79DFA0546A1
:1041A0000DB12846E0E70020DEE74FF08060DBE756
:1041B0007CB504460D461646164800681821B0FB2B
:1041C000F1F01549B0FBF1F04FF47A7148430190DA
:1041D0006068B0F5827F0DD12B46002280212046F9
:1041E000009600F01BF898B1606D40F0200060650B
:1041F00003207CBD00BF019800B908E00198401E73
:10420000019020688068C0F3C0100028F3D100BF7F
:104210000020EEE70000002040420F002DE9F84F9B
:1042200004460D4690461E46DDF82890FDF704F83A
:10423000A0EB0900371AFCF7FFFF82462C48006804
:10424000C0F3CB307843009045E0701C002842D08A
:10425000FCF7F2FFA0EB0A00B84200D2A7BB20682F
:10426000406820F0E000216848606068B0F5827F17
:104270000DD1A068B0F5004F03D0A068B0F5806FF5
:1042800005D12068006820F0400021680860A06A1D
:10429000B0F5005F0DD100BF2068006820F4005029
:1042A000216808602068006840F4005021680860B8
:1042B00000BF012084F8510000BF002084F85000A6
:1042C00000BF0320BDE8F88FFFE7009800B9002782
:1042D0000098401E0090206880682840A84201D1C4
:1042E000012000E000204045AFD10020EAE70000B7
:1042F0000000002010B5FCF7A5FF3CF033F80128C2
:1043000001D03BF0F9FD10BD0348006840F4700097
:10431000014908607047000088ED00E010B50248D0
:10432000FEF7ADFB10BD00009808002070B50546F3
:10433000AC6B0020E085E0842046FEF770FC70BD89
:104340000168C96821F490710268D1600168496907
:1043500021F0010102685161016B012905D1016859
:10436000C96821F010010268D160202180F83E1058
:1043700000210163704710B504462068C06820F032
:1043800040002168C860202084F83D002046FEF7E8
:104390007FFE002010BD70B5044694F83E00222830
:1043A00056D1A068B0F5805F0CD1206950B90025C6
:1043B000A66A20684068C0F308003080A06A801CAC
:1043C000A06215E0A56A0026A068B0F5805F03D062
:1043D000A06828B9206918B920684068287004E0EE
:1043E0002068406800F07F002870A06A401CA0622E
:1043F000E08D401E80B2E08540BB2068C06820F0A0
:1044000020002168C8602068C06820F4807021689E
:10441000C8602068406920F00100216848612020C0
:1044200084F83E00206B01280AD12068C06820F083
:1044300010002168C860A18D2046FEF7EFFB02E066
:104440002046FEF7D7FD0020206370BD0020FCE76A
:104450000220FAE72DE9F84F04462068006920F4AD
:104460004050E1680843216808612169A068084359
:1044700061690843E169084300902068C06849F217
:104480000C618843009908432168C860206840692E
:1044900020F44070A169084321684861764920688A
:1044A000884203D075492068884203D1FDF750F84F
:1044B000814602E0FDF73CF88146E069B0F5004F27
:1044C0006CD102206168A0FB015003461920A9FBB2
:1044D000007001462A463846FBF757FF6421B0FBBF
:1044E000F1F04FEA001A02206168A0FB01510B466F
:1044F0001920A9FB00712A463846FBF746FF834680
:1045000002206168A0FB015003461920A9FB00713D
:104510002A463846FBF739FF6421B0FBF1F000EB87
:10452000C00101EB0010ABEB8000322101EBC000B9
:104530006421B0FBF1F000F0F8000AEB400A022021
:104540006168A0FB015003461920A9FB00700146D9
:104550002A463846FBF719FF834602206168A0FB14
:10456000015003461920A9FB00712A463846FBF783
:104570000CFF6421B0FBF1F000EBC00101EB001077
:10458000ABEB8000322101EBC0006421B0FBF1F005
:1045900000F007005044216888606AE004206168E8
:1045A000A0FB015003461920A9FB007001462A46D2
:1045B0003846FBF7EAFE824604206168A0FB015002
:1045C00003461920A9FB007001462A463846FBF72E
:1045D000DCFE6421B0FBF1F000EBC00101EB001048
:1045E000AAEB8000322101EB00106421B0FBF1F056
:1045F00000F0F00A04206168A0FB01700346192056
:10460000A9FB00513A462846FBF7BFFE6421B0FBE8
:10461000F1F00AEB001A04206168A0FB01510B467F
:104620001920A9FB00712A463846FBF7AEFE8346E7
:1046300004206168A0FB015003461920A9FB00700B
:1046400001462A463846FBF7A0FE6421B0FBF1F094
:1046500000EBC00101EB0010ABEB8000322101EB5D
:1046600000106421B0FBF1F000F00F00504421680D
:104670008860BDE8F88F0000001001400014014080
:1046800010B5034699629A85DA85002018642220C5
:1046900083F83E0000BF002083F83C0000BF18688C
:1046A000C06840F480701C68E0601868406940F0A1
:1046B00001001C6860611868C06840F020001C6838
:1046C000E060002010BD014691F83D00212828D16E
:1046D0008868B0F5805F0BD1086948B90A6A10880C
:1046E000C0F308000B685860086A801C086205E087
:1046F0000B6A581C086218780B685860C88C401EFA
:1047000080B2C88458B90868C06820F080000B687F
:10471000D8600868C06840F040000B68D86000208E
:1047200070470220FCE7000010B50248FEF778FA57
:1047300010BD0000F407002000BFFEE7024800683B
:10474000C0F30220704700000CED00E010B5002817
:1047500004DB0A07130E054A135406E00A07140E79
:10476000034A00F00F031B1FD45410BD00E400E007
:1047700018ED00E070B50446002508E02168481CEB
:1047800020600878303805EB850100EB4105216891
:10479000087800F004F80028F0D1284670BD0146E2
:1047A000302903DB392901DC012070470020FCE7B8
:1047B00010B54021074801F0E3FA00220421064821
:1047C00030F082FD0549086002F056FE00200449E1
:1047D000087010BD50B000204575000898020020F8
:1047E0009402002030B50346B1F90040B2F9005000
:1047F000AC4202DDB1F9004001E0B2F900401C809A
:10480000B1F90240B2F90250AC4202DDB1F9024006
:1048100001E0B2F902405C80B1F90440B2F9045001
:10482000AC4202DAB1F9044001E0B2F904409C80E4
:10483000B1F90640B2F90650AC4202DAB1F90640CD
:1048400001E0B2F90640DC800120B3F90040B3F981
:104850000450AC4205DCB3F90240B3F90650AC4257
:1048600000DD002030BDF8B504460D461646002791
:10487000B4F90000B5F90010884212DBB4F9020067
:10488000B5F9021088420CDBB4F90400B5F9041044
:10489000884206DCB4F90600B5F90610884200DC4F
:1048A00001270FB90020F8BD0EB90120FBE72088D1
:1048B000ADF800006088ADF802003246694628462F
:1048C00000F0A7F808B90020EDE7A088ADF80000D7
:1048D0006088ADF8020032466946284600F099F833
:1048E00008B90020DFE72088ADF80000E088ADF8C7
:1048F000020032466946284600F08BF808B90020CD
:10490000D1E7A088ADF80000E088ADF8020032469B
:104910006946284600F07DF808B90020C3E7012069
:10492000C1E70246B2F90000B1F90430984213DC45
:10493000B2F90400B1F9003098420DDBB2F902007F
:10494000B1F90630984207DCB2F90600B1F902303D
:10495000984201DB012070470020FCE7F8B50446CF
:104960000D461646B4F90400B5F90010884211DB73
:10497000B4F90600B5F9021088420BDBB4F9000067
:10498000B5F90410884205DCB4F90200B5F9061047
:10499000884201DD0120F8BD0EB90020FBE7208828
:1049A000ADF800006088ADF802003246694628463E
:1049B00000F02FF808B10020EDE7A088ADF8000066
:1049C0006088ADF8020032466946284600F021F8BA
:1049D00008B10020DFE72088ADF80000E088ADF8DE
:1049E000020032466946284600F013F808B100205C
:1049F000D1E7A088ADF80000E088ADF802003246AB
:104A00006946284600F005F808B10020C3E70120F8
:104A1000C1E72DE9FC5F05460E4614464FF0000A3B
:104A2000B6F90000B5F90010884213DBB6F90000B2
:104A3000B5F9041088420DDCB6F90200B5F9021090
:104A4000884207DBB6F90200B5F90610884201DC9E
:104A50004FF0010ABAF1000F02D10020BDE8FC9F1F
:104A6000002C01DC0120F9E728461CF058FB8346A6
:104A700000EBDB70471028461CF0C9FA834600EBB8
:104A8000DB704FEA6008474501DA384600E04046EF
:104A900081464C4500DD4C462888ADF8000028884A
:104AA000204400B2ADF804006888ADF802006888C0
:104AB000204400B2ADF80600002231466846FFF7F8
:104AC000A8FF80B1BDF80400204400B2ADF8040096
:104AD000BDF80600204400B2ADF806003146684635
:104AE0002CF0BCFFBAE7E888001B00B2ADF802006A
:104AF000E888ADF80600002231466846FFF789FFD6
:104B000080B1BDF80400204400B2ADF80400BDF847
:104B10000200001B00B2ADF80200314668462CF0DE
:104B20009DFF9BE7A888001B00B2ADF80000A88895
:104B3000ADF80400002231466846FFF76AFF80B1F5
:104B4000BDF80000001B00B2ADF80000BDF8020087
:104B5000001B00B2ADF80200314668462CF07EFF23
:104B60007CE76888ADF802006888204400B2ADF8A0
:104B70000600002231466846FFF74BFF80B1BDF8C2
:104B80000000001B00B2ADF80000BDF80600204494
:104B900000B2ADF80600314668462CF05FFF5DE7D5
:104BA00001205BE710B5B1F90030B2F90040A34233
:104BB00002DAB1F9003001E0B2F900300380B1F956
:104BC0000230B2F90240A34202DAB1F9023001E048
:104BD000B2F902304380B1F90430B2F90440A34283
:104BE00002DDB1F9043001E0B2F904308380B1F99B
:104BF0000630B2F90640A34202DDB1F9063001E009
:104C0000B2F90630C38010BD2DE9FF41044630F0F3
:104C1000FCFA05460020039034B14749E06808607B
:104C2000204630F069FC03E01FF0D6F842490860E6
:104C30004149096808692CF041FE3F480068406915
:104C400020B13D49096848692CF038FE3A490968A5
:104C5000C8692CF033FE38490968086A2CF02EFE2A
:104C600035480068006940B9002033490968A1F857
:104C7000500100BF00BFBDE8FF812DF0EFF92DF01E
:104C800035F92D480068B0F8500100284BD02A486B
:104C900000680068007CC0F34000E8B12648006866
:104CA0001FF018F9401E06B2234800681FF0ACF848
:104CB000401E07B23B460022114601A800961CF098
:104CC00073FA01A81C4909680968896B48601A4889
:104CD000006807F041FB00BF4FF480711648006880
:104CE000303027F076F820211348006800F59870DE
:104CF00027F06FF8002010490968A1F850012846F4
:104D000030F076FA03900C4800680068406A50B1B1
:104D10000949096808680849096809684B6A074928
:104D20000A680399984726F08BFD00F03FF800F0E1
:104D300007F800BF9FE70000580100205401002041
:104D400010B5002416E0C4EBC4000C4951F8200053
:104D500030B1C4EBC401094A52F8210026F022FE0A
:104D6000C4EBC401054A02EB81001C2127F031F895
:104D7000601CC4B2042CE6DB10BD00002CB1002086
:104D80000146094A10680BE042688A4202D0026874
:104D90008A4204D1027E22F00102521C027640694E
:104DA0000028F1D1704700002C010020704700005E
:104DB00010B50421014800F0E3FF10BD44B000200D
:104DC00010B51C21014800F0DBFF10BD5CB00020D5
:104DD0002DE9FF4F8BB004469A46199DBAF1000F9A
:104DE00011D11898B0F5807F0DD10020208060800F
:104DF0000C98401E00B2A0800D98401E00B2E080CA
:104E00000FB0BDE8F08FB5F9000040421899484353
:104E10000121C1EB202000B22080B5F90200404200
:104E2000189948430121C1EB202000B26080B5F9F8
:104E300000100C98401A18994843022101EB2020D9
:104E400000B2A080B5F902100D98401A1899484395
:104E5000022101EB202000B2E080BAF1000F14D152
:104E600020882988084400B2208060886988084426
:104E700000B26080A0882988084400B2A080E08841
:104E80006988084400B2E080BAE70A209AFBF0F093
:104E90000A900A98401C09900A9800EB8000AAEB3F
:104EA000400B0A9800B230F0ADFC0890099800B2AF
:104EB00030F0A8FC07900A985A3000B230F0A2FCFB
:104EC000069009985A3000B230F09CFC0590CBF166
:104ED0000A0108984143079800FB0B100A2190FB38
:104EE000F1F6CBF10A0106984143059800FB0B103F
:104EF0000A2190FBF1F776117F11B4F90080B4F923
:104F0000029007FB08F006FB1900298801EBA0209E
:104F100000B2ADF8100006FB08F007FB0900698835
:104F200001EBA02000B2ADF81200B4F90480B4F98E
:104F3000029007FB08F006FB1900298801EBA0206E
:104F400000B2ADF80C0006FB08F007FB0900698809
:104F500001EBA02000B2ADF80E00B4F90080B4F966
:104F6000069007FB08F006FB1900298801EBA0203A
:104F700000B2ADF8080006FB08F007FB09006988DD
:104F800001EBA02000B2ADF80A00B4F90480B4F936
:104F9000069007FB08F006FB1900298801EBA0200A
:104FA00000B2ADF8040006FB08F007FB09006988B1
:104FB00001EBA02000B2ADF80600BDF90800BDF974
:104FC0001010884202DABDF9080001E0BDF91000B6
:104FD000BDF90410BDF90C20914202DABDF90410AC
:104FE00001E0BDF90C1088420BDABDF90800BDF9EB
:104FF0001010884202DABDF908000DE0BDF910007A
:105000000AE0BDF90400BDF90C10884202DABDF9CE
:10501000040001E0BDF90C002080BDF90800BDF9D5
:105020001010884202DDBDF9080001E0BDF9100052
:10503000BDF90410BDF90C20914202DDBDF9041048
:1050400001E0BDF90C1088420BDDBDF90800BDF987
:105050001010884202DDBDF908000DE0BDF9100016
:105060000AE0BDF90400BDF90C10884202DDBDF96B
:10507000040001E0BDF90C00A080BDF90A00BDF9F3
:105080001210884202DABDF90A0001E0BDF91200EF
:10509000BDF90610BDF90E20914202DABDF90610E5
:1050A00001E0BDF90E1088420BDABDF90A00BDF926
:1050B0001210884202DABDF90A000DE0BDF91200B3
:1050C0000AE0BDF90600BDF90E10884202DABDF90A
:1050D000060001E0BDF90E006080BDF90A00BDF9CF
:1050E0001210884202DDBDF90A0001E0BDF912008C
:1050F000BDF90610BDF90E20914202DDBDF9061082
:1051000001E0BDF90E1088420BDDBDF90A00BDF9C2
:105110001210884202DDBDF90A000DE0BDF912004F
:105120000AE0BDF90600BDF90E10884202DDBDF9A6
:10513000060001E0BDF90E00E08000BF60E62DE949
:10514000F74F86B0044620680590B4F90810079818
:10515000A0EB0108B4F90A100898A0EB0109E08956
:10516000B0F5807F13D1206B00FB08F0E16A01FBF2
:105170001901606A00EBA10BE06A00FB08F0216BEB
:1051800001FB0901A06A00EBA10004902FE0A089B7
:1051900080B9A06B00FB08F04FEA6018A06B00FB21
:1051A00009F04FEA6019606A00EB080BA06A4844F6
:1051B00004901CE0A06B00FB08F04FEA6018A06BA5
:1051C00000FB09F04FEA6019206B00FB08F0E16A70
:1051D00001FB1901606A00EBA12BE06A00FB08F0FB
:1051E000216B01FB0901A06A00EBA12004904FEAAA
:1051F0002B2604980712B4F90400B04203DC002007
:1052000009B0BDE8F08F002E01DA0020F8E7B4F90C
:105210000600B84201DC0020F2E7002F01DA00208E
:10522000EEE73420005DC0F3800050B33420005D11
:10523000C0F3400078B90225B4F90400784368430C
:1052400006FB050A059800EB0A012A4604F1140042
:1052500026F06DFD2CE00325B4F904007843684383
:1052600006FB050A6A1E059800EB0A0104F114000A
:1052700026F05DFD0AEB0500401E0599095CA1754D
:1052800016E04FF0000A0025208A03463AB231B2F8
:10529000019004F1180023F00DFA0290BDF8080007
:1052A000A0823AB231B204F1180023F063F9A0757C
:1052B0003420005D00F00100B0B14FF47F400021C8
:1052C00000F47C4241EA5211C0F3C402114301913F
:1052D000BDF8042011460291A08ABDF8081088424A
:1052E00001D100208CE700BFE07C08B9012087E7EE
:1052F0000FFA8BF1A187049801B2E18731B2402007
:10530000015339B242200153C4F844A084F84850F4
:10531000204600F003F80390039871E72DE9F04F61
:105320008DB00446D4F8009094F83C000C9094F8AA
:105330003E000B900C9870280BDA4FF0FF35B4F953
:1053400040002844002800DA00250C988030C7B2BD
:1053500013E00C9890280EDD0125B4F94000284494
:10536000B4F90410884200DB00250C98C0F1FF005E
:105370008030C7B201E00025FF270B9870280CDAB7
:105380004FF0FF36B4F942003044002800DA00261E
:105390000B98803000F0FF0815E00B9890280FDD87
:1053A0000126B4F942003044B4F90610884200DB0B
:1053B00000260B98C0F1FF00803000F0FF0802E0EB
:1053C00000264FF0FF08A08A0A90A07D06900020DA
:1053D0000590049003903420005DC0F38000002805
:1053E0005BD094F84800626C00FB052000EB0901DB
:1053F000022209A826F09BFCA28894F8480012FB20
:1054000000F2606C02FB060000EB0901022208A812
:1054100026F08DFCA28894F8480012FB00F2606C24
:1054200002FB060294F8480000FB052000EB09018E
:10543000022207A826F07BFC3420005DC0F3400068
:1054400000287ED094F84800616C00FB05110844E8
:10545000401E19F800000590A18894F8480011FB3F
:1054600000F1606C01FB060194F848000844401EFE
:1054700019F800000490A18894F8480011FB00F18D
:10548000606C01FB060194F8480000FB051108441C
:10549000401E19F80000039053E0208A0090B4F9F0
:1054A00042204020005B284401B204F11800009B18
:1054B00023F000F90990208A00904220005B3044DC
:1054C00002B2B4F9401004F11800009B23F0F2F886
:1054D0000890208A00904220005B304402B24020B5
:1054E000005B284401B204F11800009B23F0E2F8AD
:1054F00007903420005DC0F3400010B3B4F942209F
:105500004020005B284401B204F1180023F032F877
:1055100005904220005B304402B2B4F9401004F11F
:10552000180023F027F804904220005B304402B2B8
:105530004020005B284401B204F1180023F01AF85F
:105540000390BA46BB463420005DC0F34000E0B390
:1055500006987843C7F1FF0C059B03FB0C00C0F3D2
:10556000072104987843C7F1FF0C039B03FB0C0051
:10557000C0F3072201FB08F0C8F1FF0302FB0300A0
:10558000030AA375022905DC022A03DC00200DB002
:10559000BDE8F08F022901DC4FF00008022A01DC8F
:1055A0004FF0FF080698022801DC4FF0000A05982A
:1055B000022801DC4FF0FF0A0498022801DC4FF0BA
:1055C000000B0398022803DC00E002E04FF0FF0B21
:1055D00003E0BA46BB46FF21A175BAF1000F02D124
:1055E000099802900BE0BAF1FF0F02D10A980290DD
:1055F00005E05246DDE909101DF07EFE0290BBF188
:10560000000F02D1079801900BE0BBF1FF0F02D110
:105610000898019005E05A46DDE907101DF06CFE80
:105620000190B8F1000F03D1BDF80400A0820FE093
:10563000B8F1FF0F03D1BDF80800A08208E0424690
:10564000DDE901101DF058FE0090BDF80000A082B9
:1056500001209CE72DE9F05F0446B4F9080001023F
:105660006162B4F90A000102A162B4F90C000A21D6
:1056700090FBF1F56F1CB4F90C0005EB8501A0EB74
:105680004106684200B230F0BDF88046784200B270
:1056900030F0B8F88146C5F15A0000B230F0B2F8E7
:1056A0008246C7F15A0000B230F0ACF88346C6F12A
:1056B0000A0000FB08F009FB06000A2190FBF1F14B
:1056C000E162C6F10A0000FB0AF00BFB06000A21AA
:1056D00090FBF1F12163E06A4111E162206B41111D
:1056E0002163A07C23F0F5F83421095D60F300010B
:1056F00034200155A07C23F0CFF83421095D60F3FC
:10570000410134200155A07C042805D0A07C052847
:1057100002D0A07C062807D13420005D20F00400D0
:10572000001D3421085505E03420005D20F00401FF
:105730003420015521682162A06920F0E000A061B9
:10574000A17CA06961F30400A061A188A06961F354
:105750009420A061E188A06961F35F50A061E089B5
:1057600000EBD071491001F5001191FBF0F2A2633A
:10577000FF21A175208AA082BDE8F09F2DE9F743A3
:10578000054616460024134C2FF03FFD8046334655
:1057900029462046019A23F04BFD07465FB900BF1A
:1057A00000BF2C21204626F014FB4FF00040A062E1
:1057B0000020BDE8FE830020A062E06918B94046E1
:1057C0002FF016FDE061E06908B90120E061204694
:1057D000EFE7000080B0002010B51421114800F060
:1057E000CFFA23F0D7FC044600BF1CB900BF00BFAE
:1057F00000BFFEE700BF14B900BF00BF10BD0A49DB
:10580000204623F0AFFD0949204623F0ADFD0849AD
:10581000204623F0ABFD0749204623F0A1FD00BF41
:10582000ECE7000068B00020B1890208858E02080C
:10583000A19002087989020870B504460D4610212E
:10584000284626F0C6FA20680078012804D1208A6C
:105850002880608A68800CE020680078022802D1E5
:10586000E068686005E020680078042801D10A201B
:1058700068602068406820B12068294642689047E7
:1058800001E000BF00BF70BD2DE9FE430446A66ADB
:10589000EEB9A18A208A084401B2A182E18A608A15
:1058A000084401B2E18220460FF0D8FC06460EB94A
:1058B000BDE8FE83204614F079FF0022092130461E
:1058C00021F05EFF6078C0F3400000B1F0E7208A6D
:1058D00010B9608A002870D000200290019094F8DE
:1058E0003C0000F00F00032812D1304628F02AFBBC
:1058F0000746304628F0AEFA804603200090B4F9FF
:1059000010103B46424630460DF03AFD029012E040
:10591000304628F099FB0746304628F00DFA8046BD
:105920000C200090B4F9121043463A4630460DF070
:1059300027FD019000BF304628F05EFA054605F0CD
:10594000010028B9BDF90800002801DD00200290FF
:1059500005F0020028B9BDF90800002801DA00208E
:10596000029005F0040028B9BDF90400002801DD0B
:105970000020019005F0080028B9BDF904000028B6
:1059800001DA0020019001AA02A9204634F068FC47
:105990000023BDF90420BDF9081030462BF032FA7F
:1059A000A08ABDF80810084401B2A182E08ABDF8BF
:1059B0000410084401B2E18200BF00BF78E72DE97E
:1059C000F84F0446D4F828B0BBF1000F01D1BDE870
:1059D000F88F94F83C0000F00F0000B9F7E723F0CF
:1059E000A9FF06463068477E4021584629F034FF1B
:1059F00010B9002161832183584628F011FB8046AD
:105A0000584628F017FB054694F83C0000F00F00BC
:105A10000C2843D1002121831DBBB4F91A00C7F122
:105A200064014843642190FBF1F001B26183584660
:105A300028F082F98146584628F006FB82460C2061
:105A40000090B4F91A104B46524658460DF098FC97
:105A50006083B4F91A200023194658462BF0D2F976
:105A600069E0204634F053FC0090002161836A46CF
:105A7000204634F0F5FBBDF9003041F6FF7251428B
:105A800058460FF093FD8146BDF80000484402B22D
:105A90000123002158462BF0B5F94CE094F83C0066
:105AA00000F00F00032846D100216183B8F1000FF8
:105AB00023D1B4F91800C7F164014843642190FB75
:105AC000F1F001B22183584628F0C4F981465846C6
:105AD00028F038FA824603200090B4F91810534693
