:020000040800F2
:10000000B0A201203D0300086F2E0008672E0008F3
:100010006B2E0008E10B00084940000800000000BA
:100020000000000000000000000000007D02000849
:10003000E50B000800000000D9020008053C00089C
:100040006103000861030008610300086103000800
:1000500061030008610300086103000861030008F0
:1000600061030008610300086103000861030008E0
:1000700061030008610300086103000861030008D0
:1000800061030008610300086103000861030008C0
:1000900061030008610300086103000861030008B0
:1000A00061030008610300086103000861030008A0
:1000B0006103000861030008610300086103000890
:1000C0006103000861030008610300086103000880
:1000D000610300083940000861030008610300085B
:1000E0006103000861030008610300086103000860
:1000F0006103000861030008610300086103000850
:10010000610300086103000861030008610300083F
:1001100061030008610300082D3C0008610300082A
:10012000610300086103000861030008610300081F
:10013000610300086103000861030008610300080F
:1001400061030008610300086103000861030008FF
:1001500061030008610300086103000861030008EF
:1001600061030008610300086103000861030008DF
:10017000610300086103000861030008000000003B
:10018000610300086103000800F002F800F067F85E
:100190000AA090E8000C82448344AAF10107DA45E2
:1001A00001D100F05CF8AFF2090EBAE80F0013F0CD
:1001B000010F18BFFB1A43F00103184760BE070088
:1001C00080BE07000A444FF0000C10F8013B13F00A
:1001D000070408BF10F8014B1D1108BF10F8015BA0
:1001E000641E05D010F8016B641E01F8016BF9D193
:1001F00013F0080F1EBF10F8014BAD1C0C1B09D1EA
:100200006D1E58BF01F801CBFAD505E014F8016B5B
:1002100001F8016B6D1EF9D59142D6D370470000ED
:100220000023002400250026103A28BF78C1FBD8FF
:10023000520728BF30C148BF0B607047642900F0E7
:100240007581782900F0AE81732900F07D8400204B
:1002500070471FB53EF0B8F91FBD10B510BD00F0D6
:100260008DFC1146FFF7F5FF34F0ECF800F0ABFC25
:1002700003B4FFF7F2FF03BC06F018F82C4B196823
:100280000868B0E8F04F80F30988BFF36F8F4FF034
:10029000000080F3118870470000000008480068E3
:1002A000006880F308884FF0000080F3148862B67D
:1002B00061B6BFF34F8FBFF36F8F00DF00BF00BF8A
:1002C00008ED00E0DFF80C00016841F47001016006
:1002D000704700BF88ED00E0EFF30980BFF36F8F38
:1002E000134B1A681EF0100F08BF20ED108A20E98A
:1002F000F04F106009B44FF0500080F31188BFF345
:100300004F8FBFF36F8F3DF013F84FF0000080F375
:10031000118809BC19680868B0E8F04F1EF0100F8A
:1003200008BFB0EC108A80F30988BFF36F8F704765
:10033000A4000020EFF30580704700000C4801681E
:1003400041F4700101600B4880470B480047FEE70D
:10035000FEE7FEE7FEE7FEE7FEE7FEE7FEE7FEE775
:10036000FEE7000005480649044A064B70470000B6
:1003700088ED00E0193C000889010008B0920120D6
:10038000B0A20120B0920120704753EA020C00F0A5
:1003900069802DE9F04B4FF00006002B1FBFB3FA28
:1003A00083F503FA05F424FA05F65E4012BF1643FE
:1003B000B2FA82F502FA05F4C5F120051EBF22FA51
:1003C00005FC44EA0C04203556EA044C4FEA144478
:1003D00018BF641C4FF000084FF00009904271EB09
:1003E000030C39D3002919BFB1FA81F701FA07F6D6
:1003F000B0FA80F700FA07F6C7F120071EBF20FA0F
:1004000007FC46EA0C062037B6FBF4FCA7EB050711
:10041000103F07F01F0BCBF120060CFA0BFB2CFA58
:1004200006F644BFB3460026202FA4BF5E464FF019
:10043000000B5BEA060C08BF4FF0010B19EB0B0930
:10044000ABFB027C48EB0608C01B06FB02CC0BFB97
:1004500003CC71EB0C01C1E70B460246414648460E
:10046000BDE8F08B13B54FF000004FF00001AFF383
:100470000080BDE81C40704710B54C1084EA53045E
:1004800004D54042C1F1000138BF491E1B4204D5CA
:100490005242C3F1000338BF5B1EFFF776FF14F032
:1004A000804F04D04042C1F1000138BF491E14F012
:1004B000004F04D05242C3F1000338BF5B1E10BD91
:1004C0000FB4044910B503AA029800F041FB10BC18
:1004D0005DF814FB1400002070B50C460546012A97
:1004E00005D02878800600D5EA69002302E00123C0
:1004F00005E05B1C934202D2E05C0028F9D1A869B8
:10050000E618C01AA861286A184428622846AFF382
:10051000008004E0D5E9012114F8010B9047B442B2
:10052000F8D32846AFF3008070BD00002DE9F041FC
:100530000646002410687529314616A510D0AFF381
:100540000080002802DA404213A507E031688A07DC
:1005500001D512A502E0490704D511A5012401E047
:10056000AFF3008000210A2206F1240709E0B0FB66
:10057000F2FCB0FBF2F302FB1C003030785418465A
:10058000491C0028F3D123462A463046BDE8F041F5
:1005900000F056BA000000002D0000002B00000003
:1005A0002000000070B504460D4621461068AFF3E8
:1005B00000802188090502D50F4A7A4402E00E4ADC
:1005C0007A440E32002104F1240305E000F00F0606
:1005D0000009965D5E54491C0028F7D1207800235D
:1005E000000704D5702D02D009B102231132204634
:1005F000BDE8704000F024BA68B507002DE9F0416D
:100600000F460546002028622846E968884770B3EF
:10061000252805D0D5E901219047286A401CF2E73A
:10062000E9682846002688476C2804460AD0682CCA
:1006300008D04C2C35D06A2C31D0742C31D07A2C87
:100640002FD016E0E968064628468847B04204469F
:1006500008D16C2E23D04FF480662846E96888477D
:10066000044606E06C2E03D04FF4807601E01EE0D5
:100670004026E4B1A4F14100192802D8203446F400
:1006800000663A46214628462E60FFF7D7FD60B146
:10069000012808D0FF1D27F007070837B4E7802698
:1006A000DBE70026D9E73F1DAEE72046B2E7286A20
:1006B000BDE8F08140EA010310B59B070FD1042A81
:1006C0000DD310C808C9121F9C42F8D020BA19BA1D
:1006D000884201D9012010BD4FF0FF3010BD1AB182
:1006E000D30703D0521C07E0002010BD10F8013BD7
:1006F00011F8014B1B1B07D110F8013B11F8014BFE
:100700001B1B01D1921EF1D1184610BD40EA010316
:10071000024630B59B0710D14FF0013400E008C20B
:1007200008C91D1B9D4315EAC41FF8D013F0FF0133
:1007300002F8011B0DD01B0AF8E711F8013B002B52
:1007400002F8013B05D011F8013B002B02F8013BF8
:10075000F3D130BD10B5431C02E010F8011B71B19C
:100760008107FAD14FF0013202C88C1A8C4314EA87
:10077000C211F9D0C01A0A0603D0C01E10BDC01A9B
:1007800010BD0A0401D0801E10BD0902FCD0401E1D
:1007900010BD40EA010370B59B072ED14FF0013622
:1007A000042A2AD308C810C99D1B9D43121F15EAAD
:1007B000C61517D0D8B2E1B2401A50EA056110D17F
:1007C00098B2A1B2401A50EA05410AD123F07F4005
:1007D00024F07F41401A50EA052102D1180EA0EB07
:1007E000146070BDA342DBD018BA21BA884201D987
:1007F000012070BD4FF0FF3070BD0AB9002070BD00
:1008000010F8013B11F8014B63B1A3420AD1521E0B
:1008100008D010F8013B11F8014B1BB1A34201D1E4
:10082000521EEDD1181B70BD032A40F2308010F02B
:10083000030C00F0158011F8013BBCF1020F62447B
:1008400098BF11F801CB00F8013B38BF11F8013B0C
:10085000A2F1040298BF00F801CB38BF00F8013BB9
:1008600011F0030300F02580083AC0F0088051F829
:10087000043B083A51F804CBA0E80810F5E7121D34
:100880005CBF51F8043B40F8043BAFF30080D20753
:1008900024BF11F8013B11F801CB48BF11F8012B1F
:1008A00024BF00F8013B00F801CB48BF00F8012B42
:1008B000704710B5203AC0F00B80B1E81850203ACC
:1008C000A0E81850B1E81850A0E81850BFF4F5AFF0
:1008D0005FEA027C24BFB1E81850A0E8185044BF7A
:1008E00018C918C0BDE810405FEA827C24BF51F8E7
:1008F000043B40F8043B08BF7047D20728BF31F8DB
:10090000023B48BF11F8012B28BF20F8023B48BF2B
:1009100000F8012B704702F0FF0343EA032242EA8A
:10092000024200F002B84FF000020429C0F0128029
:1009300010F0030C00F01B80CCF1040CBCF1020F92
:1009400018BF00F8012BA8BF20F8022BA1EB0C0167
:1009500000F00DB85FEAC17C24BF00F8012B00F85D
:10096000012B48BF00F8012B70474FF0000200B583
:10097000134694469646203922BFA0E80C50A0E8C2
:100980000C50B1F12001BFF4F7AF090728BFA0E870
:100990000C5048BF0CC05DF804EB890028BF40F83C
:1009A000042B08BF704748BF20F8022B11F0804F7E
:1009B00018BF00F8012B70474FF0013C50F8042B92
:1009C00051F8043B9A4221D1A2EB0C03934313EA62
:1009D000CC1317D150F8042B51F8043B9A4215D18F
:1009E000A2EB0C03934313EACC130BD150F8042B66
:1009F00051F8043B9A4209D1A2EB0C03934313EA4A
:100A0000CC13DBD04FF00000704700BFD01A01BA02
:100A1000B1FA81F101F0180122FA01F0CB40C1F1E5
:100A20002001DBB2C0B2C01A2CFA01F3D11A9143F3
:100A300011EAC311E6D1704770477047704770479D
:100A40002DE9F0470D4699469246044600F12408E8
:100A50000168880604D5E06921F01001216000E0FA
:100A60000120A84201DD471B00E00027A1697A1997
:100A700002EB0900081AA0612078C00602D42046C3
:100A8000AFF30080002608E0D4E901211AF806003F
:100A90009047206A401C761C20624E45F4DB20788B
:100AA000C0060AD52046AFF3008006E0D4E9012154
:100AB00030209047206A401C2062381EA7F10107B1
:100AC000F4DC07E0D4E9012118F805009047206A1A
:100AD000401C2062281EA5F10105F3DC2046AFF37F
:100AE00000802078000602D50220BDE8F0870120B2
:100AF000FBE7000001694A1C02610878704700B5F5
:100B00008FB0CDE901310021059105497944CDE946
:100B1000031011466846FFF771FD0FB000BD0000DD
:100B2000E5FFFFFF10B5436913B1AFF3008001E0AB
:100B3000FFF7D2FC012010BD127800F124010A70E9
:100B400000224A700122EDE711684FF0FF32E9E719
:100B5000074B70B50D467B44FFF7D1FF044628468E
:100B600000F008F810B14FF0FF3070BD204670BDA6
:100B7000D3500100007B00F080007047754600F004
:100B80002BF8AE4605006946534620F0070085461F
:100B900018B020B5FFF7E6FBBDE820404FF0000697
:100BA0004FF000074FF000084FF0000B21F0070155
:100BB000AC46ACE8C009ACE8C009ACE8C009ACE898
:100BC000C0098D46704710B50446AFF3008020463B
:100BD000BDE81040FFF74CBB004870475092012021
:100BE00000BFFEE77047000070B504461D460023B5
:100BF000B5F5804F13D154F822300C480340D1E9A9
:100C0000000640EA06108E6840EA06208E8940EA17
:100C100006408E693043034344F8223003E06FF00E
:100C2000704044F82200002070BD00000000F0CFAA
:100C300010B503460022086853F8202012480240ED
:100C4000D1E901042043CC6820430C6920434C695E
:100C500020438C692043CC6920430C6A20434C6AB2
:100C600020438C6A2043CC6A2043CC6B20430C6B1E
:100C7000204302438868082801D142F040020868F6
:100C800043F82020002010BD8000F0FF30B503465F
:100C90000024501C53F8204004F04044D1E90005E2
:100CA00040EA05108D6840EA05208D8940EA054537
:100CB000088A401E45EA0055087D801E45EA00600E
:100CC0008D6928430443501C43F82040002030BD68
:100CD00070B50446A56D00F099F9064694F8350004
:100CE000022808D08020606500BF002084F834000E
:100CF00000BF012070BD2068006820F01600216848
:100D000008602068406920F0800021684861206CFC
:100D100008B9A06C28B12068006820F0080021689C
:100D200008602068006820F00100216808600FE07A
:100D300000F06CF9801B05280AD92020606500BFEF
:100D4000002084F8340000BF032084F83500D1E788
:100D50002068006800F001000028E9D194F85C10D8
:100D60003F208840A86000BF002084F8340000BF06
:100D7000012084F835000020BCE7014691F83500D9
:100D8000022803D08020486501207047052081F8A3
:100D900035000868006820F001000A681060002033
:100DA000F3E7000070B5044600F030F9064625462A
:100DB000681C10B104480078054400BF00F026F913
:100DC000801BA842FAD370BD24000020F8B502466B
:100DD0000B460025002400200021DEE0012606FA53
:100DE00001F51E6806EA0504AC4275D11E7906F0CD
:100DF0000306012E04D01E7906F00306022E13D13D
:100E000090684F000326BE40B0434F00DE68BE40EE
:100E100030439060506801268E40B0431E79C6F37F
:100E200000168E40304350601E7906F00306032EF4
:100E300009D0D0684F000326BE40B0434F009E68E3
:100E4000BE403043D0601E7906F00306022E13D157
:100E5000CF0802F1200656F827004E07F70E0F269E
:100E6000BE40B0434F07FF0E1E69BE403043CF085F
:100E700002F1200646F8270010684F000326BE4006
:100E8000B0431E7906F003064F00BE4030431060A9
:100E90005E6806F08056B6F1805F7DD100BF002607
:100EA0000096404E366846F480463E4F3E603E46D1
:100EB000366806F48046009600BF00BF3A4E8F08A1
:100EC00056F827008E07370F0F26BE40B043374E27
:100ED000B24202D1002624E05EE0354EB24201D19A
:100EE00001261EE0334EB24201D1022619E0324EF5
:100EF000B24201D1032614E0304EB24201D10426A1
:100F00000FE02F4EB24201D105260AE02D4EB2422B
:100F100001D1062605E02C4EB24201D1072600E0A1
:100F200008268F073F0FBE4030431F4E8F0846F8FC
:100F30002700264E3068A0435E6806F48036B6F57A
:100F4000803F00D12043214E3060361D3068A043E1
:100F50005E6806F40036B6F5003F00D120431B4E14
:100F6000361D3060361D3068A0435E6806F480167A
:100F7000B6F5801F00D12043144E08363060361D70
:100F80003068A0435E6806F40016B6F5001F00D175
:100F900020430E4E0C363060491C1029FFF41EAF62
:100FA000F8BD00004438024008380140000002400B
:100FB0000004024000080240000C02400010024001
:100FC0000014024000180240001C0240003C014096
:100FD000024613690B400BB1012000E0002070476E
:100FE00010B5426921EA020302EA010443EA04431C
:100FF000836110BD0AB1816101E00B048361704718
:1010000001480068000C7047002004E001480068B7
:10101000704700001C00002003480068034909785D
:1010200008440149086070471C000020240000208B
:1010300010B50A48006840F4007008490860084686
:10104000006840F480600860032000F07FF80F2003
:1010500000F006F800F02AF8002010BD003C024025
:1010600070B504460E4800784FF47A71B1FBF0F089
:101070000C490968B1FBF0F5284601F0CDFB08B139
:10108000012070BD102C07D200222146501E00F016
:101090001EF80548046001E00120F2E70020F0E7B7
:1010A000240000200000002020000020704701469E
:1010B0000846002809DB00F01F0301229A4043097B
:1010C0009B0003F1E023C3F8002100BF70472DE926
:1010D000F05F80460D461646002702F0B7FF074630
:1010E00039462A46334601F00700C0F1070ABAF133
:1010F000040F02D94FF0040A01E0C0F1070AD146FB
:1011000000F1040ABAF1070F02D24FF0000A01E021
:10111000A0F1030AD4464FF0010A0AFA09FAAAF12B
:10112000010A0AEA020A0AFA0CFA4FF0010B0BFA5A
:101130000CFBABF1010B0BEA030B4AEA0B04214653
:10114000404602F08BFFBDE8F09F000000BF00F0BA
:101150000702064B19684FF6FF031940044B0B4377
:1011600043EA0221014B196000BF70470CED00E01B
:101170000000FA0570B504460D460CB9012070BD9B
:101180005848006800F00700A84209D255490D7080
:101190000846006800F00700A84201D00120EEE7F1
:1011A000207800F0020002281DD1207800F0040011
:1011B000042805D14C48006840F4E0504A490860D2
:1011C000207800F00800082805D14748006840F45E
:1011D0006040454908604448006820F0F000A1687C
:1011E000084341490860207800F00100A8B3606816
:1011F000012807D13C4808380068C0F34040B8B91E
:101200000120BCE76068022802D06068032807D18B
:10121000354808380068C0F3406048B90120AEE79F
:10122000314808380068C0F3400008B90120A6E73B
:101230002D48006820F00300616808432A490860CF
:10124000FFF7E4FE064609E0FFF7E0FE801B41F2EF
:101250008831884202D9032091E707E022480068DC
:1012600000F00C006168B0EB810FEDD11D48006803
:1012700000F00700A84209D91A490D700846006815
:1012800000F00700A84201D0012078E7207800F0A4
:101290000400042807D11448006820F4E050E168F5
:1012A000084311490860207800F00800082808D198
:1012B0000D48006820F46040216940EAC1000A49F5
:1012C000086000F03FF808490968C1F30311074AB4
:1012D000515CC8400649086006480068FFF7C0FE38
:1012E00000204CE7003C024008380240D2E50308E9
:1012F0000000002020000020014800687047000026
:101300000000002000B5FFF7F7FF04490968C1F3AA
:101310008221034A515CC84000BD000008380240E9
:10132000E2E5030800B5FFF7E7FF04490968C1F3E8
:101330004231034A515CC84000BD000008380240F9
:10134000E2E503082DE9F047002400250026A14628
:101350002548006800F00C0020B1042805D00828BA
:101360003AD105E0DFF8849039E0DFF8849036E088
:101370001D48001F006800F03F041B48001F006864
:1013800000F4800078B11A481749091F0968C1F3B1
:101390008811A0FB01700146224600233846FEF763
:1013A000F4FF05460EE011480F49091F0968C1F313
:1013B0008811A0FB01700146224600233846FEF743
:1013C000E4FF05460848001F0068C0F30140401CC8
:1013D0004600B5FBF6F902E0DFF8109000BF00BF51
:1013E0004846BDE8F0870000083802400024F400B9
:1013F00000127A00F8B504460CB90120F8BD207837
:1014000000F00100002874D0F948006800F00C00DA
:1014100004280DD0F648006800F00C00082813D10D
:10142000F348001F006800F48000B0F5800F0BD176
:10143000EF4808380068C0F34040002859D0606881
:10144000002856D10120D9E700BF6068B0F5803F81
:1014500008D1E7480838006840F48030E44908398A
:1014600008601EE06068B0F5A02F0DD1E048083894
:10147000006840F48020DE490839086008460068AA
:1014800040F4803008600CE0D9480838006820F447
:101490008030D749083908600846006820F4802069
:1014A000086000BF606890B1FFF7B0FD054606E038
:1014B000FFF7ACFD401B642801D903209EE7CC4810
:1014C00008380068C0F340400028F1D011E0FFF771
:1014D0009DFD054606E0FFF799FD401B642801D9F4
:1014E00003208BE7C24808380068C0F3404000285A
:1014F000F1D1207800F0020002285FD1BC480068DA
:1015000000F00C0058B1BA48006800F00C00082840
:101510001CD1B748001F006800F48000B0B9B4487F
:1015200008380068C0F3400020B1E068012801D00D
:10153000012063E7AE480838006820F0F800216910
:1015400040EAC100AA490839086037E0E06800B302
:101550000120A8490860FFF759FD054606E0FFF79E
:1015600055FD401B022801D9032047E7A048083851
:101570000068C0F340000028F1D09D48083800689A
:1015800020F0F800216940EAC10099490839086053
:1015900014E0002097490860FFF738FD054606E093
:1015A000FFF734FD401B022801D9032026E79048AD
:1015B00008380068C0F340000028F1D1207800F01E
:1015C000080008282CD16069A8B101208A49086068
:1015D000FFF71CFD054606E0FFF718FD401B02283B
:1015E00001D903200AE782486C300068C0F340004C
:1015F0000028F1D014E000207F490860FFF706FDC5
:10160000054606E0FFF702FD401B022801D9032032
:10161000F4E677486C300068C0F340000028F1D150
:10162000207800F00400042870D10027704838307A
:10163000006800F0805090B900BF002000906C4816
:101640003830006840F080506949383108600846F9
:10165000006800F08050009000BF00BF012767487D
:10166000006800F48070B0B96448006840F480708D
:1016700062490860FFF7CAFC054606E0FFF7C6FCB2
:10168000401B022801D90320B8E65C48006800F43A
:1016900080700028F2D000BFA068012808D154480B
:1016A0006830006840F001005149683108601DE071
:1016B000A06805280DD14E486830006840F004004D
:1016C0004B49683108600846006840F00100086036
:1016D0000CE047486830006820F001004449683158
:1016E00008600846006820F00400086000BFA06899
:1016F000A8B1FFF78BFC054609E0FFF787FC401B0C
:1017000041F28831884202D9032077E626E0384842
:1017100068300068C0F340000028EED013E0FFF707
:1017200075FC054608E0FFF771FC401B41F288316B
:10173000884201D9032061E62D4868300068C0F373
:1017400040000028EFD1012F07D129483830006828
:1017500020F0805026493831086000BFA069002879
:1017600045D02348006800F00C0008285DD0A0692F
:10177000022845D100201F490866FFF747FC0546AF
:1017800006E0FFF743FC401B022801D9032035E6A1
:10179000174808380068C0F340600028F1D1D4E948
:1017A00007010843616A40EA81110122A06AC2EB85
:1017B000500041EA00412C20005D41EA00600C49E4
:1017C000091F086001200B490866FFF71FFC05464A
:1017D00006E0FFF71BFC401B022801D903200DE6A1
:1017E000034808380068C0F340600028F1D049E0A1
:1017F0000838024000004742800E47420070004017
:10180000002021490866FFF701FC054606E0FFF7C6
:10181000FDFB401B022801D90320EFE51B480068AF
:10182000C0F340600028F2D12CE0A069012800D16B
:10183000E4E51648001D0668A069012820D006F4DA
:101840008001E06981421BD106F03F01206A81429C
:1018500016D147F6C0703040616AB0EB811F0FD1DE
:1018600006F440310122A06AC2EB5000B1EB004FF8
:1018700006D106F070612C20005DB1EB006F01D045
:101880000120BBE50020B9E50000474200380240D6
:10189000F0B589B004460E460027032084F83400D2
:1018A000606C032820D0B6F5805F04D1A06B40F0B7
:1018B0008050A0631CE0B6F5006F07D1204602F00F
:1018C000CBF80546A06B2843A06311E03EB9204643
:1018D00002F08EF80546A06B2843A06308E0A06BD9
:1018E00040F00060A06303E0A06B40F08050A06374
:1018F000A06B38B1174821688863012084F8340050
:10190000012713E060680390A0680490E0680590E8
:10191000069660690790A069089006A807C88DE838
:101920000700206803A90EC901F0C7FA4FF400713F
:10193000206801F03DFB054635B106482168886303
:10194000A06B2843A0630127012084F834003846A7
:1019500009B0F0BDFF05400010B50246506E800F83
:101960000870506EC0F383604870506EC0F3016021
:101970008870506E000CC870B2F86400000A0871DC
:1019800092F864004871906E000DC880906EC0F3AC
:10199000034008726820805AC0F3C0304872682043
:1019A000805AC0F3803088726820805AC0F340307B
:1019B000C8726820805AC0F3003008730020487352
:1019C000506C002836D16820805A8005030DD06EF7
:1019D00043EA90700861D06EC0F3C2600875D06EA3
:1019E000C0F302604875D06EC0F342508875D06E67
:1019F000C0F38240C875D06EC0F3C2300876086963
:101A0000401C50650B7E506D03F007039B1C0124A6
:101A10009C4060435065087A00F00F030120984015
:101A20009065D2E915035B0A5843D0654FF4007303
:101A3000136621E0506C012813D16820805C800679
:101A4000830AD06E43EA104008610869401C830293
:101A50005365536DD3654FF400739365936D1366AF
:101A60000AE02E4813689863906B40F080509063B2
:101A7000012082F8340010BD6C20805AC0F3803001
:101A800001F8190F6C20805AC0F3C61048706C2002
:101A9000805C00F07F008870106FC00FC870106FFE
:101AA000C0F341700871106FC0F382604871106F0D
:101AB000C0F383508871106FC0F34050C87100208C
:101AC0000872106FC0F3004048727020805AC0F353
:101AD000C03088727020805AC0F38030C872702085
:101AE000805AC0F3403008737020805AC0F3003031
:101AF00048737020805AC0F3812088737020805A08
:101B0000C0F30120C8737020805CC0F346000874E5
:101B10000120487419390020ADE70000FF0540009E
:101B20000246506C0860906C4860D06C8860106D04
:101B3000C860506D0861906D4861D06D8861106E0D
:101B4000C86100207047F8B504460020009069463F
:101B5000204601F035FF054615B1A06B2843A06370
:101B60000098C0F343263046F8BD10B504460CB9C2
:101B7000012010BD94F8340020B9002020772046C1
:101B800000F068F8032084F83400204600F00CF8D8
:101B900008B10120EDE70020A0632063012084F854
:101BA00034000020E5E7000070B58AB0044600204C
:101BB000049005900690079008907620099007A859
:101BC00007C88DE80700206804A90EC901F075F95F
:101BD000064616B101200AB070BD00201B490860FE
:101BE000206801F084F901201849A039C1F8A0004B
:101BF000204601F07FFE05463DB1012084F8340007
:101C0000A06B2843A0630120E5E7204601F0F1FD29
:101C100005463DB1012084F83400A06B2843A06341
:101C20000120D8E74FF40071206801F0C1F90546A2
:101C30004DB1074821688863A06B2843A063012049
:101C400084F83400C7E70020C5E70000A0802542E3
:101C5000FF05400010B586B0044600BF002000908C
:101C60005348006840F40060514908600846006825
:101C700000F40060009000BF00BF00BF00BF002064
:101C800000904B481438006840F00400484914396B
:101C900008600846006800F00400009000BF00BF24
:101CA00000BF00BF00BF002000900846006840F061
:101CB000040008600846006800F00400009000BFBF
:101CC00000BF00BF00BF00BF0020009008460068B2
:101CD00040F0040008600846006800F0040000902E
:101CE00000BF00BF00BF00BF00BF0020009008463B
:101CF000006840F0040008600846006800F0040036
:101D0000009000BF00BF00BF00BF00BF00200090D8
:101D10000846006840F0040008600846006800F0CB
:101D20000400009000BF00BF00BF00BF00BF002044
:101D300000900846006840F0080008600846006807
:101D400000F00800009000BF00BF00BF88150190A0
:101D50000220029001200390022004900C200590A4
:101D600001A91448FFF732F84FF40070019001A95F
:101D70001048FFF72BF84FF48060019001A90D483F
:101D8000FFF724F84FF40060019001A90948FFF71C
:101D90001DF84FF48050019001A90648FFF716F88E
:101DA0000420019001A90448FFF710F806B010BD07
:101DB0004438024000080240000C02402DE9FF4F69
:101DC00089B004468B469946DDF858A0FFF71EF906
:101DD00002900B9800905D46BBF1000F07D1A06BFD
:101DE00040F00060A06301200DB0BDE8F08F94F8D2
:101DF000340001287ED10020A063009800EB090187
:101E0000E06D814205D9A06B40F00070A063012015
:101E1000EAE7032084F8340000202168C862606C7F
:101E2000012802D00098400200904FF0FF3003904C
:101E30004FEA49200490902005900220069000204F
:101E400007900120089003A9206801F011F8B9F16A
:101E5000010F07D9022020632068009901F010F9D2
:101E6000804606E0012020632068009901F024F9F3
:101E70008046B8F1000F0DD0754821688863A06BCB
:101E800040EA0800A063012084F8340000202063A9
:101E90000120A9E7049E3AE02068406B00F400406E
:101EA000E0B1DEB10020019015E0206801F028F8D3
:101EB00007462F706D1C761E380A28706D1C761E22
:101EC000380C28706D1C761E380E28706D1C761E1E
:101ED0000198401C019001980828E6D3FFF796F876
:101EE0000299401A504502D2BAF1000F0FD158485A
:101EF000216800E0A6E08863A06B40F00040A0638A
:101F0000012084F834000020206303206CE720685F
:101F1000406B40F22A3108400028BDD02068406B59
:101F200000F48070D0B1B9F1010F17D9606C0328AB
:101F300014D0206801F080F98046B8F1000F0DD070
:101F4000434821688863A06B40EA0800A063012031
:101F500084F8340000202063012045E72068406BAE
:101F600000F0080068B13A4821688863A06B40F02F
:101F70000800A063012084F83400002020630120C1
:101F800032E72068406B00F0020068B130482168F9
:101F90008863A06B40F00200A063012084F8340045
:101FA0000020206301201FE72068406B00F0200024
:101FB00068B1274821688863A06B40F02000A063C7
:101FC000012084F834000020206301200CE729E080
:101FD000206800F095FF07462F706D1C761E380AAA
:101FE00028706D1C761E380C28706D1C761E380EFD
:101FF00028706D1C761EFFF709F80299401A5045AB
:1020000002D2BAF1000F0DD1114821688863A06B8C
:1020100040F00040A063012084F8340000202063D9
:102020000120E1E62068406B00F4001008B1002EAA
:10203000CED140F23A5021688863012084F8340000
:102040000020D1E6A06B40F00050A0630120CBE659
:10205000FF0540002DE9F04F89B0044689469346BC
:102060009846FEF7D3FF0290DA464D46B9F1000FCD
:1020700007D1A06B40F00060A063012009B0BDE86B
:10208000F08F94F8340001287ED10020A0630AEB81
:102090000801E06D814205D9A06B40F00070A0639B
:1020A0000120EBE7032084F8340000202168C86297
:1020B000606C012801D04FEA4A2A4FF0FF300390AC
:1020C0004FEA482004909020059000200690079049
:1020D0000120089003A9206800F0CAFEB8F1010FA2
:1020E00007D9202020635146206801F0C3F8064636
:1020F00006E0102020635146206801F0D7F806461C
:1021000066B15F4821688863A06B3043A0630120FB
:1021100084F83400002020630120AFE7049F43E0EF
:102120002068406B00F4804030B32FB30020019052
:102130001FE0287800906D1C7F1E2878009941EAE6
:10214000002000906D1C7F1E2878009941EA004015
:1021500000906D1C7F1E2878009941EA0060009075
:102160006D1C7F1E6946206800F0E2FE0198401C4D
:10217000019001980828DCD3FEF748FF0299411A24
:102180001298814203D200E074E0129860B93C4892
:1021900021688863A06B3043A063012084F8340079
:1021A00000202063032069E72068406B40F21A3169
:1021B00008400028B4D02068406B00F48070B8B1AB
:1021C000B8F1010F14D9606C032811D0206801F018
:1021D00033F8064666B12A4821688863A06B30430D
:1021E000A063012084F8340000202063012045E72B
:1021F0002068406B00F0080068B1214821688863BE
:10220000A06B40F00800A063012084F83400002097
:102210002063012032E72068406B00F0020068B1C3
:10222000174821688863A06B40F00200A06301207A
:1022300084F834000020206301201FE72068406BF1
:1022400000F0100068B10E4821688863A06B40F070
:102250001000A063012084F83400002020630120D6
:102260000CE740F23A5021688863012084F834007A
:10227000002003E7A06B40F00050A0630120FDE6C2
:10228000FF05400010B504460CB9012010BD606A7E
:1022900038B96068B0F5827F00D105E00021E161C6
:1022A00002E0002121616161A06AB0F5005F00D108
:1022B00000BF94F8510028B9002084F8500020464F
:1022C00000F050F8022084F851002068006820F0E7
:1022D000400021680860A08800F48270218901F420
:1022E00004410843A18901F400610843217C01F005
:1022F00002010843217D01F001010843218B01F413
:1023000000710843217F01F0380108432021095D55
:1023100001F080010843218D01F400510843216838
:1023200008600421A06901EA104094F8241001F02B
:102330001001084321684860A06AB0F5005F03D12E
:10234000A08D80B2216808612068C06920F4006017
:102350002168C86100206065012084F851000020D8
:1023600094E7000010B586B004462A4920688842E8
:102370004DD100BF00BF002000902748006840F00A
:102380000200254908600846006800F0020000903D
:1023900000BF00BF00BF00BF00BF00200090084684
:1023A000006840F0020008600846006800F0020083
:1023B000009000BF00BF00BF00BF00BF0020009022
:1023C0000846006840F0020008600846006800F017
:1023D0000200009000BF00BF00BF08200190022053
:1023E000029001200390022004900520059001A98D
:1023F0000A48FEF7EBFC1020019001A90748FEF700
:10240000E5FC2020019001A90448FEF7DFFC06B09E
:1024100010BD00000030014030380240000402408E
:102420002DE9F04F85B00446884691461D460E9E24
:1024300000200490012002900020019000BF94F839
:102440005000012803D1022005B0BDE8F08F012023
:1024500084F8500000BFFEF7D9FD074694F851B04C
:1024600060680390AA46BBF1010F0BD00398B0F54A
:10247000827F04D1A06810B9BBF1040F02D0022002
:1024800001902CE1B8F1000F03D0B9F1000F00D09A
:1024900015B90120019022E194F85100042802D0DE
:1024A000052084F8510000206065C4F83890E58765
:1024B000A587C4F83080E586A58620646064A06A9C
:1024C000B0F5005F0DD100BF2068006820F4005017
:1024D000216808602068006840F4005021680860A6
:1024E00000BF2068006800F04000402805D0206848
:1024F000006840F0400021680860E068B0F5006FB7
:1025000056D1606810B1BAF1010F09D1206B008873
:102510002168C860206B801C2063E08E401EE0862E
:102520003FE02068806800F0020002281CD1E08EA5
:10253000D0B10298012817D1206B00882168C860AB
:10254000206B801C2063E08E401EE08600200290FD
:10255000E08E48B9A06AB0F5005F05D12068006838
:1025600040F48050216808602068806800F0010015
:1025700068B1E08F58B12068C068A16B0880A06B7B
:10258000801CA063E08F401EE08701200290FEF7D0
:102590003DFDC01BB04204D3701C10B1032001905C
:1025A0009DE0E08E0028BCD1E08F0028B9D156E034
:1025B000606810B1BAF1010F09D1206B0078216871
:1025C0000873206B401C2063E08E401EE08640E0D4
:1025D0002068806800F0020002281CD1E08ED0B193
:1025E0000298012817D1206B007821680873206BAE
:1025F000401C2063E08E401EE08600200290E08EAA
:1026000048B9A06AB0F5005F05D12068006840F4C1
:102610008050216808602068806800F0010068B17F
:10262000E08F58B12068C068A16B0870A06B401C97
:10263000A063E08F401EE08701200290FEF7E6FCD9
:10264000C01BB04201D3701C00B916B90320019021
:1026500045E0E08E0028BBD1E08F0028B8D1A06A09
:10266000B0F5005F12D13346012211462046009793
:1026700001F05CFA30B1606D40F00200606503204B
:1026800001902CE02068C068049000BF206880683A
:1026900000F01000102809D1606D40F00200606564
:1026A0004FF6EF7021688860012001903A4631466C
:1026B000204601F005FA20B101200190202060653C
:1026C0000DE0A06850B900BF002000902068C068ED
:1026D000009020688068009000BF00BF00BF01200C
:1026E00084F8510000BF002084F8500000BF01981A
:1026F000AAE670B504460E4615460CB9012070BD19
:1027000094F8490028B9002084F84800204600F0D9
:102710001DF804F108012068FEF78AFA3146A26824
:102720002068FEF7B3FA2946236BD4E90102FEF7CD
:102730005BFAA168206850F8210040F00100A2680F
:10274000216841F822000020D9E7000010B586B0CA
:10275000044600BF002000902248006840F00100BD
:10276000204908600846006800F00100009000BFA2
:1027700000BF00BF002000901A480838006840F0F1
:1027800008001849083908600846006800F0080089
:10279000009000BF00BF00BF002000900846006806
:1027A00040F0100008600846006800F0100000903B
:1027B00000BF00BF4CF20370019002200290012084
:1027C0000390022004900C20059001A90648FEF712
:1027D000FDFA4FF68070019001A90448FEF7F6FA61
:1027E00006B010BD38380240000C02400010024014
:1027F000042808D14FF0E021096941F004014FF0AD
:10280000E022116107E04FF0E021096921F00401A5
:102810004FF0E0221161704770B504462546681EEE
:10282000B0F1807F01D301200FE0681E4FF0E0215E
:1028300048610F214FF0FF3001F010FC00204FF0F5
:10284000E021886107200861002070BD7047704753
:10285000704710B5044620680069C0F34000D8B145
:102860002068C068C0F34000B0B16FF0020021687A
:102870000861012020772068806900F0030018B10A
:102880002046FFF7E5FF05E0204600F0ADF82046C2
:1028900000F0ABF80020207720680069C0F38000CA
:1028A000D8B12068C068C0F38000B0B16FF00400F8
:1028B00021680861022020772068806900F4407058
:1028C00018B12046FFF7C4FF05E0204600F08CF861
:1028D000204600F08AF80020207720680069C0F3C5
:1028E000C000D8B12068C068C0F3C000B0B16FF0BC
:1028F000080021680861042020772068C06900F082
:10290000030018B12046FFF7A3FF05E0204600F0C2
:102910006BF8204600F069F80020207720680069F5
:10292000C0F30010D8B12068C068C0F30010B0B187
:102930006FF0100021680861082020772068C069C6
:1029400000F4407018B12046FFF782FF05E02046F2
:1029500000F04AF8204600F048F800202077206870
:10296000006900F0010058B12068C06800F0010063
:1029700030B16FF0010021680861204600F036F8A0
:1029800020680069C0F3C01058B12068C068C0F367
:10299000C01030B16FF08000216808612046FFF759
:1029A00055FF20680069C0F3801058B12068C068E6
:1029B000C0F3801030B16FF04000216808612046FC
:1029C00000F015F820680069C0F3401058B1206885
:1029D000C068C0F3401030B16FF02000216808617A
:1029E0002046FFF734FF10BD7047704770477047AF
:1029F000704770472DE9F84F044620680568206845
:102A0000C668206847694FF00009CA4605F00F09FB
:102A1000B9F1000F0AD105F0200038B106F020000E
:102A200020B1204601F03FF9BDE8F88FB9F1000F61
:102A300072D007F0010018B906F4907000286BD02E
:102A400005F0010030B106F4807018B1206C40F040
:102A50000100206405F0040030B107F0010018B156
:102A6000206C40F00200206405F0020030B107F055
:102A7000010018B1206C40F00400206405F008004B
:102A800048B106F0200010B907F0010018B1206C21
:102A900040F008002064206C70B305F0200028B1DD
:102AA00006F0200010B1204601F0FDF820684069D2
:102AB000C0F3801A206C00F0080010B9BAF1000FC2
:102AC00023D0204601F0C4F82068406900F040009F
:102AD000402816D12068406920F0400021684861F4
:102AE000A06B50B15648A16B0865A06BFEF745F985
:102AF00010B1A06B016D88470CE02046FFF779FF0D
:102B000008E02046FFF775FF04E02046FFF771FF5D
:102B10000020206488E7FFE7206B012879D105F0C9
:102B20001000002875D006F01000002871D000BFFA
:102B300000200090206800680090206840680090A5
:102B400000BF00BF2068406900F04000402839D134
:102B5000A06B006840681FFA80F8B8F1000F30D011
:102B6000A08D40452DDDA4F82E80A06BC069B0F586
:102B7000807F1FD02068C06820F480702168C86002
:102B80002068406920F001002168486120684069A0
:102B900020F0400021684861202084F83E00002099
:102BA00020632068C06820F010002168C860A06B16
:102BB000FEF78EF8A08DE28D801A81B22046FFF7D5
:102BC00017FF31E7A08DE18D401A1FFA80F8E08DE4
:102BD000E8B1B8F1000F1AD02068C06820F49070F6
:102BE0002168C8602068406920F0010021684861C0
:102BF000202084F83E00002020632068C06820F078
:102C000010002168C86041462046FFF7F1FE0BE73F
:102C1000FFE705F0800030B106F0800018B12046D3
:102C200001F0D9F900E705F0400030B106F04000AE
:102C300018B1204601F027F8F6E600BFF4E60000E0
:102C40003D3C000810B504460CB9012010BDA06938
:102C500000B100E000BF94F83D0028B9002084F8DE
:102C60003C00204600F028F8242084F83D0020682D
:102C7000C06820F400502168C860204601F072F856
:102C80002068006920F4904021680861206840694C
:102C900020F02A00216848612068C06840F4005094
:102CA0002168C86000202064202084F83D0084F85A
:102CB0003E000020CAE7000010B586B004462E4949
:102CC0002068884255D100BF00BF002000902B48EB
:102CD000006840F01000294908600846006800F0CC
:102CE0001000009000BF00BF00BF00BF00BF002069
:102CF000009022481438006840F001001F49143940
:102D000008600846006800F00100009000BF00BFA6
:102D100000BF00BF00BF002000900846006840F0E0
:102D2000010008600846006800F00100009000BF44
:102D300000BF00BF481501900220029001200390BF
:102D4000022004900720059001A90D48FEF73EF8E7
:102D50004FF4806001900720059001A90848FEF714
:102D600035F82520FEF7A3F9032211462520FEF7AA
:102D7000AEF906B010BD000000100140443802401A
:102D80000000024070B504460D46164694F83E0019
:102D9000202816D105B10EB9012070BD00BF94F8EE
:102DA0003C00012801D10220F7E7012084F83C0013
:102DB00000BF0020206332462946204601F0E8F893
:102DC000EBE70220E9E7000010B50446204920683F
:102DD00088423BD11F48008800F4004088BB1D4852
:102DE000008800F4804070B11B4800780A2803D0A6
:102DF00000201849088024E01648008840F400406C
:102E0000144908801DE0144800780D2806D11148A7
:102E1000008840F480400F49088012E00E48007896
:102E20000C490988C1F30D010C4A50540948008827
:102E3000401C0849088008460088C72801DD00209A
:102E40000880012204490648FFF79CFF10BD0000DE
:102E500000100140180000201A0000202C03002060
:102E6000F4030020704700BFFEE700BFFEE7704795
:102E700010B5024600230868506248689062D1E9A4
:102E8000020420430C6920434C6920430343D06A69
:102E900020F0F7001843D062002010BD01460869F9
:102EA000C0B270470146086800F003007047024650
:102EB00002F114004318186870470FB410B50446A7
:102EC0000021DDE903021043059A1043069A1043DE
:102ED000079A1043089A10430143606847F6FF625F
:102EE000904308436060002010BC5DF814FB10B5EF
:102EF0000446032020600220FDF754FF002010BD8F
:102F00000146D1F88000704710B5024600230868DA
:102F10009060D1E901042043CC6820430C69204330
:102F20000343D0686FF30B001843D060002010BD3E
:102F300002460868C2F880000020704770B586B06D
:102F400005460C4601943720029040200390002053
:102F500004904FF48060059001A92846FFF7D4FF44
:102F600041F288323721284600F0DCF90646304627
:102F700006B070BD70B586B005460C460B482043C0
:102F800001902920029040200390002004904FF4EB
:102F90008060059001A92846FFF7B6FF284600F09B
:102FA000C9FA0646304606B070BD00000000108029
:102FB00070B586B005460C46019410200290402062
:102FC0000390002004904FF48060059001A92846EA
:102FD000FFF79AFF41F288321021284600F0A2F94B
:102FE0000646304606B070BD70B586B005460C4644
:102FF00001940620029040200390002004904FF49A
:103000008060059001A92846FFF77EFF41F28832D3
:103010000621284600F086F90646304606B070BD07
:1030200030B585B0044600200090019002900390D6
:103030004FF48060049069462046FFF765FF204604
:1030400000F050F90546284605B030BD30B585B0D2
:1030500004464FF4D5700090082001904020029063
:10306000002003904FF48060049069462046FFF7EB
:103070004BFF204600F0E6FA0546284605B030BD75
:1030800070B586B005460C4601941220029040208F
:103090000390002004904FF48060059001A9284619
:1030A000FFF732FF41F288321221284600F03AF948
:1030B0000646304606B070BD70B586B005460C4673
:1030C00001941120029040200390002004904FF4BE
:1030D0008060059001A92846FFF716FF41F288326B
:1030E0001121284600F01EF90646304606B070BD94
:1030F000F0B585B0064614461D46009407200190A1
:1031000040200290002003904FF4806004906946B4
:103110003046FFF7F9FE41F288320721304600F0D1
:1031200001F90746384605B0F0BD30B585B0044614
:103130000020009002200190C02002900020039007
:103140004FF48060049069462046FFF7DDFE20467C
:1031500000F0BEF90546284605B030BD70B586B012
:1031600005460C46019409200290C02003900020DF
:1031700004904FF48060059001A92846FFF7C4FE33
:10318000284600F0A5F90646304606B070BD30B5B9
:1031900085B004460020009033200190402002902A
:1031A000002003904FF48060049069462046FFF7AA
:1031B000ABFE41F288323321204600F0B3F80546D9
:1031C000284605B030BD70B586B005460C46019462
:1031D0000D20029040200390002004904FF4806066
:1031E000059001A92846FFF78FFE41F288320D2194
:1031F000284600F097F80646304606B070BD70B518
:1032000086B005460C460020019003200290402025
:103210000390002004904FF48060059001A9284697
:10322000FFF772FE22460321284600F0AFF906465A
:10323000304606B070BD000030B585B004460020B1
:1032400000900C20019040200290002003904FF449
:103250008060049069462046FFF756FE044A0C2120
:10326000204600F05FF80546284605B030BD000056
:1032700000E1F50570B586B005460C4601941920AD
:10328000029040200390002004904FF4806005904D
:1032900001A92846FFF738FE41F288321921284655
:1032A00000F040F80646304606B070BD70B586B0F6
:1032B00005460C46019418200290402003900020FF
:1032C00004904FF48060059001A92846FFF71CFE8A
:1032D00041F288321821284600F024F8064630468C
:1032E00006B070BD01460E480068C0084FF47A73FE
:1032F000B0FBF3F041F2883300FB03F200BF101E75
:10330000A2F1010202D14FF000407047486B00F07B
:1033100080000028F3D0C52088630020F5E7000076
:10332000000000202DE9F04305460F469046664810
:103330000068C0084FF47A71B0FBF1F000FB08F9A7
:1033400000BFB9F10000A9F1010903D14FF000401D
:10335000BDE8F0836E6B06F045000028F1D006F45E
:1033600000600028EDD1686B00F0040010B104206B
:10337000A863EDE7686B00F0010010B10120A863BD
:10338000E6E7C520A8632846FFF788FDB84201D0CC
:103390000120DDE700212846FFF789FD04464B4860
:1033A000204008B90020D3E704F00040B0F1004FFE
:1033B00002D14FF00070CBE704F08040B0F1804FB5
:1033C00001D14020C4E704F00050B0F1005F01D10A
:1033D0008020BDE704F08050B0F1805F02D14FF44F
:1033E0008070B5E704F00060B0F1006F02D14FF4D7
:1033F0000070ADE704F08060B0F1806F02D14FF44F
:103400008060A5E704F08070B0F1807F02D14FF4B6
:1034100000609DE704F40000B0F5000F02D14FF406
:10342000805095E704F48000B0F5800F02D14FF48E
:1034300000508DE704F40010B0F5001F02D14FF4E6
:10344000804085E704F48010B0F5801F02D14FF46E
:1034500000407DE704F48020B0F5802F02D14FF4C6
:10346000003075E704F40030B0F5003F02D14FF4AE
:1034700080206DE704F48030B0F5803F02D14FF436
:10348000002065E704F40040B0F5004F02D14FF48E
:1034900080105DE704F48040B0F5804F02D14FF416
:1034A000001055E704F40050B0F5005F02D14FF46E
:1034B00080004DE704F00800082801D1000547E727
:1034C0004FF4803044E700000000002008E0FFFDDA
:1034D00010B5014616480068C0084FF47A74B0FB76
:1034E000F4F041F2883400FB04F300BF181EA3F18E
:1034F000010302D14FF0004010BD4A6B02F04500BD
:103500000028F3D002F400600028EFD1486B00F0EF
:10351000040010B104208863EEE7486B00F001005E
:1035200010B101208863E7E7C52088630020E3E746
:103530000000002010B5014613480068C0084FF491
:103540007A74B0FBF4F041F2883400FB04F300BF5E
:10355000181EA3F1010302D14FF0004010BD4A6BC9
:1035600002F045000028F3D002F400600028EFD1FB
:10357000486B00F0040010B104208863EEE7C5201A
:1035800088630020EAE70000000000202DE9F043F6
:1035900004460F4690462A480068C0084FF47A71E6
:1035A000B0FBF1F041F2883100FB01F900BFB9F145
:1035B0000000A9F1010903D14FF00040BDE8F083FC
:1035C000666B06F045000028F1D006F40060002884
:1035D000EDD1606B00F0040010B10420A063EDE7B2
:1035E000606B00F0010010B10120A063E6E7204607
:1035F000FFF754FCB84201D00120DFE7C520A063EB
:1036000000212046FFF753FC054605F4604020B931
:10361000280CA8F800000020D0E705F48040B0F5A1
:10362000804F02D14FF40050C8E705F40040B0F5D8
:10363000004F02D14FF48050C0E74FF48030BDE717
:103640000000002010B5014618480068C0084FF47B
:103650007A74B0FBF4F041F2883400FB04F300BF4D
:10366000181EA3F1010302D14FF0004010BD4A6BB8
:1036700002F045000028F3D002F400600028EFD1EA
:10368000486B00F0040010B104208863EEE7486B3B
:1036900000F0010010B101208863E7E7486B00F0FB
:1036A000400008B1402088630020DFE700000020D0
:1036B0002DE9F04389B004460F46FDF7A7FC81468B
:1036C0004FF000080020019002903E46082120683B
:1036D000FFF76EFC05461DB1284609B0BDE8F08332
:1036E0005022125B11042068FFF728FC05460DB13B
:1036F0002846F2E74FF0FF30039008200490302076
:10370000059002200690002007900120089003A950
:103710002068FFF7ADFB2068FFF739FD05460DB1C6
:103720002846DAE71CE02068406B00F4001040B146
:103730002068FFF7E5FB01A941F8280008F101081E
:1037400005E02068406B00F4005000B90EE0FDF782
:103750005DFCA0EB0900401C10B94FF00040BCE735
:103760002068406B00F02A000028DCD000BF2068F1
:10377000406B00F0080018B1082021688863ACE7AE
:103780002068406B00F0020018B1022021688863B5
:10379000A3E72068406B00F0200018B120202168CA
:1037A00088639AE740F23A502168886302980006DD
:1037B000029901F47F4140EA0120029901F47F015E
:1037C00040EA1120029940EA11603060361D0198EC
:1037D0000006019901F47F4140EA0120019901F4BA
:1037E0007F0140EA1120019940EA11603060002019
:1037F00073E730B58FB00446012003902068FFF7CF
:1038000051FB18B94FF080600FB030BD606C0328D9
:103810001BD02068FFF789FC05460DB12846F3E769
:1038200000212068FFF743FB606704212068FFF751
:103830003EFBA06708212068FFF739FBE0670C21F9
:103840002068FFF734FB80210851606C032807D003
:1038500003A92068FFF7D3FC05460DB12846D3E73E
:10386000606C032820D0BDF80C1021655022125B3B
:1038700011042068FFF772FC05460DB12846C3E726
:1038800000212068FFF713FB606604212068FFF722
:103890000EFBA06608212068FFF709FBE0660C21FB
:1038A0002068FFF704FB206704212068FFF7FFFA78
:1038B000010DE16404A92046FEF74EF810B14FF067
:1038C0008050A1E75020005B01040A4600232068D5
:1038D000FFF70EFC05460DB1284695E7D4E9041222
:1038E000A069CDE90012029094E80F00FFF7E5FA15
:1038F000002089E7F8B50446002000900026002744
:103900002068FFF78DFB05460DB12846F8BD2068FD
:10391000FFF79CFB054645B10021A1642068FFF735
:103920007FFB05461DB12846F0E70121A164A06C8C
:10393000012808D100212068FFF700FB054615B1DA
:103940004FF08050E2E71DE000212068FFF7F6FA13
:1039500005460DB12846D9E718492068FFF70AFB4C
:10396000054615B14FF08050D0E700212068FFF7E1
:103970009EFA0646012080EAD67080F00107009882
:10398000401C00904FF6FF710098884201D2002F32
:10399000DAD04FF6FF710098884202D34FF0807062
:1039A000B4E706F08040B0F1804F02D1012060649E
:1039B00001E0002060640020A8E70000000010C1C2
:1039C00070B504460D4615B94FF0006070BD502229
:1039D000125B11042068FFF7F6FB06460EB1304675
:1039E000F4E700212068FFF762FA28600020EDE785
:1039F0007CB5044600200090019000212068FFF76C
:103A000056FA00F00070B0F1007F02D14FF4006070
:103A10007CBD69462046FFF74BFE05460DB12846A2
:103A2000F6E7019800F4803098B15022125B11043F
:103A30002068FFF783FA05460DB12846E8E7002124
:103A40002068FFF7D1FA05460DB12846E0E70020CF
:103A5000DEE74FF08060DBE77CB504460020009095
:103A6000019000212068FFF722FA00F00070B0F109
:103A7000007F02D14FF400607CBD69462046FFF70D
:103A800017FE05460DB12846F6E7019800F48020A0
:103A900098B15022125B11042068FFF74FFA0546D7
:103AA0000DB12846E8E702212068FFF79DFA054698
:103AB0000DB12846E0E70020DEE74FF08060DBE74D
:103AC0007CB504460D461646164800681821B0FB22
:103AD000F1F01549B0FBF1F04FF47A7148430190D1
:103AE0006068B0F5827F0DD12B46002280212046F0
:103AF000009600F01BF898B1606D40F02000606502
:103B000003207CBD00BF019800B908E00198401E69
:103B1000019020688068C0F3C0100028F3D100BF76
:103B20000020EEE70000002040420F002DE9F84F92
:103B300004460D4690461E46DDF82890FDF766FACD
:103B4000A0EB0900371AFDF761FA82462C4800689D
:103B5000C0F3CB307843009045E0701C002842D081
:103B6000FDF754FAA0EB0A00B84200D2A7BB2068C8
:103B7000406820F0E000216848606068B0F5827F0E
:103B80000DD1A068B0F5004F03D0A068B0F5806FEC
:103B900005D12068006820F0400021680860A06A14
:103BA000B0F5005F0DD100BF2068006820F4005020
:103BB000216808602068006840F4005021680860AF
:103BC00000BF012084F8510000BF002084F850009D
:103BD00000BF0320BDE8F88FFFE7009800B9002779
:103BE0000098401E0090206880682840A84201D1BB
:103BF000012000E000204045AFD10020EAE70000AE
:103C00000000002010B5FDF707FA39F0EFFF01289A
:103C100001D039F0B5FD10BD0348006840F47000D4
:103C2000014908607047000088ED00E010B50248C7
:103C3000FEF70FFE10BD00009804002070B5054689
:103C4000AC6B0020E085E0842046FEF7D2FE70BD1C
:103C50000168C96821F490710268D16001684969FE
:103C600021F0010102685161016B012905D1016850
:103C7000C96821F010010268D160202180F83E104F
:103C800000210163704710B504462068C06820F029
:103C900040002168C860202084F83D002046FFF7DE
:103CA000E1F8002010BD70B5044694F83E002228CB
:103CB00056D1A068B0F5805F0CD1206950B90025BD
:103CC000A66A20684068C0F308003080A06A801CA3
:103CD000A06215E0A56A0026A068B0F5805F03D059
:103CE000A06828B9206918B920684068287004E0E5
:103CF0002068406800F07F002870A06A401CA06225
:103D0000E08D401E80B2E08540BB2068C06820F096
:103D100020002168C8602068C06820F48070216895
:103D2000C8602068406920F00100216848612020B7
:103D300084F83E00206B01280AD12068C06820F07A
:103D400010002168C860A18D2046FEF751FE02E0F8
:103D50002046FFF739F80020206370BD0020FCE703
:103D60000220FAE72DE9F84F04462068006920F4A4
:103D70004050E1680843216808612169A068084350
:103D800061690843E169084300902068C06849F20E
:103D90000C618843009908432168C8602068406925
:103DA00020F44070A1690843216848617649206881
:103DB000884203D075492068884203D1FDF7B2FAE2
:103DC000814602E0FDF79EFA8146E069B0F5004FBA
:103DD0006CD102206168A0FB015003461920A9FBA9
:103DE000007001462A463846FCF7CFFA6421B0FB42
:103DF000F1F04FEA001A02206168A0FB01510B4666
:103E00001920A9FB00712A463846FCF7BEFA834602
:103E100002206168A0FB015003461920A9FB007134
:103E20002A463846FCF7B1FA6421B0FBF1F000EB0A
:103E3000C00101EB0010ABEB8000322101EBC000B0
:103E40006421B0FBF1F000F0F8000AEB400A022018
:103E50006168A0FB015003461920A9FB00700146D0
:103E60002A463846FCF791FA834602206168A0FB97
:103E7000015003461920A9FB00712A463846FCF779
:103E800084FA6421B0FBF1F000EBC00101EB0010FB
:103E9000ABEB8000322101EBC0006421B0FBF1F0FC
:103EA00000F007005044216888606AE004206168DF
:103EB000A0FB015003461920A9FB007001462A46C9
:103EC0003846FCF762FA824604206168A0FB015084
:103ED00003461920A9FB007001462A463846FCF724
:103EE00054FA6421B0FBF1F000EBC00101EB0010CB
:103EF000AAEB8000322101EB00106421B0FBF1F04D
:103F000000F0F00A04206168A0FB0170034619204C
:103F1000A9FB00513A462846FCF737FA6421B0FB6A
:103F2000F1F00AEB001A04206168A0FB01510B4676
:103F30001920A9FB00712A463846FCF726FA834669
:103F400004206168A0FB015003461920A9FB007002
:103F500001462A463846FCF718FA6421B0FBF1F016
:103F600000EBC00101EB0010ABEB8000322101EB54
:103F700000106421B0FBF1F000F00F005044216804
:103F80008860BDE8F88F0000001001400014014077
:103F900010B5034699629A85DA85002018642220BC
:103FA00083F83E0000BF002083F83C0000BF186883
:103FB000C06840F480701C68E0601868406940F098
:103FC00001001C6860611868C06840F020001C682F
:103FD000E060002010BD014691F83D00212828D165
:103FE0008868B0F5805F0BD1086948B90A6A108803
:103FF000C0F308000B685860086A801C086205E07E
:104000000B6A581C086218780B685860C88C401EF0
:1040100080B2C88458B90868C06820F080000B6876
:10402000D8600868C06840F040000B68D860002085
:1040300070470220FCE7000010B50248FEF7DAFCEA
:1040400010BD0000F403002000BFFEE70248006836
:10405000C0F30220704700000CED00E010B500280E
:1040600004DB0A07130E054A135406E00A07140E70
:10407000034A00F00F031B1FD45410BD00E400E0FE
:1040800018ED00E070B50446002508E02168481CE2
:1040900020600878303805EB850100EB4105216888
:1040A000087800F004F80028F0D1284670BD0146D9
:1040B000302903DB392901DC012070470020FCE7AF
:1040C00010B54021074801F0E3FA00220421064818
:1040D0002FF056FB0549086002F010FE002004494D
:1040E000087010BDD0D60020C96D0008A0020020C5
:1040F0009C02002030B50346B1F90040B2F90050EF
:10410000AC4202DDB1F9004001E0B2F900401C8090
:10411000B1F90240B2F90250AC4202DDB1F90240FD
:1041200001E0B2F902405C80B1F90440B2F90450F8
:10413000AC4202DAB1F9044001E0B2F904409C80DB
:10414000B1F90640B2F90650AC4202DAB1F90640C4
:1041500001E0B2F90640DC800120B3F90040B3F978
:104160000450AC4205DCB3F90240B3F90650AC424E
:1041700000DD002030BDF8B504460D461646002788
:10418000B4F90000B5F90010884212DBB4F902005E
:10419000B5F9021088420CDBB4F90400B5F904103B
:1041A000884206DCB4F90600B5F90610884200DC46
:1041B00001270FB90020F8BD0EB90120FBE72088C8
:1041C000ADF800006088ADF8020032466946284626
:1041D00000F0A7F808B90020EDE7A088ADF80000CE
:1041E0006088ADF8020032466946284600F099F82A
:1041F00008B90020DFE72088ADF80000E088ADF8BE
:10420000020032466946284600F08BF808B90020C3
:10421000D1E7A088ADF80000E088ADF80200324692
:104220006946284600F07DF808B90020C3E7012060
:10423000C1E70246B2F90000B1F90430984213DC3C
:10424000B2F90400B1F9003098420DDBB2F9020076
:10425000B1F90630984207DCB2F90600B1F9023034
:10426000984201DB012070470020FCE7F8B50446C6
:104270000D461646B4F90400B5F90010884211DB6A
:10428000B4F90600B5F9021088420BDBB4F900005E
:10429000B5F90410884205DCB4F90200B5F906103E
:1042A000884201DD0120F8BD0EB90020FBE720881F
:1042B000ADF800006088ADF8020032466946284635
:1042C00000F02FF808B10020EDE7A088ADF800005D
:1042D0006088ADF8020032466946284600F021F8B1
:1042E00008B10020DFE72088ADF80000E088ADF8D5
:1042F000020032466946284600F013F808B1002053
:10430000D1E7A088ADF80000E088ADF802003246A1
:104310006946284600F005F808B10020C3E70120EF
:10432000C1E72DE9FC5F05460E4614464FF0000A32
:10433000B6F90000B5F90010884213DBB6F90000A9
:10434000B5F9041088420DDCB6F90200B5F9021087
:10435000884207DBB6F90200B5F90610884201DC95
:104360004FF0010ABAF1000F02D10020BDE8FC9F16
:10437000002C01DC0120F9E728461BF0BAF883463F
:1043800000EBDB70471028461BF02BF8834600EB50
:10439000DB704FEA6008474501DA384600E04046E6
:1043A00081464C4500DD4C462888ADF80000288841
:1043B000204400B2ADF804006888ADF802006888B7
:1043C000204400B2ADF80600002231466846FFF7EF
:1043D000A8FF80B1BDF80400204400B2ADF804008D
:1043E000BDF80600204400B2ADF80600314668462C
:1043F0002BF04AFDBAE7E888001B00B2ADF80200D6
:10440000E888ADF80600002231466846FFF789FFCC
:1044100080B1BDF80400204400B2ADF80400BDF83E
:104420000200001B00B2ADF80200314668462BF0D6
:104430002BFD9BE7A888001B00B2ADF80000A88800
:10444000ADF80400002231466846FFF76AFF80B1EC
:10445000BDF80000001B00B2ADF80000BDF802007E
:10446000001B00B2ADF80200314668462BF00CFD8F
:104470007CE76888ADF802006888204400B2ADF897
:104480000600002231466846FFF74BFF80B1BDF8B9
:104490000000001B00B2ADF80000BDF8060020448B
:1044A00000B2ADF80600314668462BF0EDFC5DE742
:1044B00001205BE710B5B1F90030B2F90040A3422A
:1044C00002DAB1F9003001E0B2F900300380B1F94D
:1044D0000230B2F90240A34202DAB1F9023001E03F
:1044E000B2F902304380B1F90430B2F90440A3427A
:1044F00002DDB1F9043001E0B2F904308380B1F992
:104500000630B2F90640A34202DDB1F9063001E0FF
:10451000B2F90630C38010BD2DE9FF4104462FF0EB
:10452000D0F805460020039034B14749E0680860A0
:1045300020462FF03DFA03E01DF038FE42490860A6
:104540004149096808692BF0FDFB3F480068406954
:1045500020B13D49096848692BF0F4FB3A490968E4
:10456000C8692BF0EFFB38490968086A2BF0EAFBB1
:1045700035480068006940B9002033490968A1F84E
:10458000500100BF00BFBDE8FF812BF07DFF2BF085
:10459000C3FE2D480068B0F8500100284BD02A48CF
:1045A00000680068007CC0F34000E8B1264800685D
:1045B0001DF07AFE401E06B2234800681DF00EFE74
:1045C000401E07B23B460022114601A800961AF091
:1045D000D5FF01A81C4909680968896B48601A4819
:1045E000006807F025FE00BF4FF480711648006890
:1045F000303025F004FE20211348006800F5987043
:1046000025F0FDFD002010490968A1F85001284659
:104610002FF04AF803900C4800680068406A50B1D7
:104620000949096808680849096809684B6A07491F
:104630000A680399984725F019FB00F03FF800F04D
:1046400007F800BF9FE70000580100205401002038
:1046500010B5002416E0C4EBC4000C4951F820004A
:1046600030B1C4EBC401094A52F8210025F0B0FB77
:10467000C4EBC401054A02EB81001C2125F0BFFDFB
:10468000601CC4B2042CE6DB10BD0000ACD70020D7
:104690000146094A10680BE042688A4202D002686B
:1046A0008A4204D1027E22F00102521C0276406945
:1046B0000028F1D1704700002C0100207047000055
:1046C00010B50421014800F0E3FF10BDC4D600205E
:1046D00010B51C21014800F0DBFF10BDDCD6002026
:1046E0002DE9FF4F8BB004469A46199DBAF1000F91
:1046F00011D11898B0F5807F0DD100202080608006
:104700000C98401E00B2A0800D98401E00B2E080C0
:104710000FB0BDE8F08FB5F900004042189948434A
:104720000121C1EB202000B22080B5F902004042F7
:10473000189948430121C1EB202000B26080B5F9EF
:1047400000100C98401A18994843022101EB2020D0
:1047500000B2A080B5F902100D98401A189948438C
:10476000022101EB202000B2E080BAF1000F14D149
:1047700020882988084400B220806088698808441D
:1047800000B26080A0882988084400B2A080E08838
:104790006988084400B2E080BAE70A209AFBF0F08A
:1047A0000A900A98401C09900A9800EB8000AAEB36
:1047B000400B0A9800B22FF081FA0890099800B2D5
:1047C0002FF07CFA07900A985A3000B22FF076FA50
:1047D000069009985A3000B22FF070FA0590CBF18C
:1047E0000A0108984143079800FB0B100A2190FB2F
:1047F000F1F6CBF10A0106984143059800FB0B1036
:104800000A2190FBF1F776117F11B4F90080B4F919
:10481000029007FB08F006FB1900298801EBA02095
:1048200000B2ADF8100006FB08F007FB090069882C
:1048300001EBA02000B2ADF81200B4F90480B4F985
:10484000029007FB08F006FB1900298801EBA02065
:1048500000B2ADF80C0006FB08F007FB0900698800
:1048600001EBA02000B2ADF80E00B4F90080B4F95D
:10487000069007FB08F006FB1900298801EBA02031
:1048800000B2ADF8080006FB08F007FB09006988D4
:1048900001EBA02000B2ADF80A00B4F90480B4F92D
:1048A000069007FB08F006FB1900298801EBA02001
:1048B00000B2ADF8040006FB08F007FB09006988A8
:1048C00001EBA02000B2ADF80600BDF90800BDF96B
:1048D0001010884202DABDF9080001E0BDF91000AD
:1048E000BDF90410BDF90C20914202DABDF90410A3
:1048F00001E0BDF90C1088420BDABDF90800BDF9E2
:104900001010884202DABDF908000DE0BDF9100070
:104910000AE0BDF90400BDF90C10884202DABDF9C5
:10492000040001E0BDF90C002080BDF90800BDF9CC
:104930001010884202DDBDF9080001E0BDF9100049
:10494000BDF90410BDF90C20914202DDBDF904103F
:1049500001E0BDF90C1088420BDDBDF90800BDF97E
:104960001010884202DDBDF908000DE0BDF910000D
:104970000AE0BDF90400BDF90C10884202DDBDF962
:10498000040001E0BDF90C00A080BDF90A00BDF9EA
:104990001210884202DABDF90A0001E0BDF91200E6
:1049A000BDF90610BDF90E20914202DABDF90610DC
:1049B00001E0BDF90E1088420BDABDF90A00BDF91D
:1049C0001210884202DABDF90A000DE0BDF91200AA
:1049D0000AE0BDF90600BDF90E10884202DABDF901
:1049E000060001E0BDF90E006080BDF90A00BDF9C6
:1049F0001210884202DDBDF90A0001E0BDF9120083
:104A0000BDF90610BDF90E20914202DDBDF9061078
:104A100001E0BDF90E1088420BDDBDF90A00BDF9B9
:104A20001210884202DDBDF90A000DE0BDF9120046
:104A30000AE0BDF90600BDF90E10884202DDBDF99D
:104A4000060001E0BDF90E00E08000BF60E62DE940
:104A5000F74F86B0044620680590B4F9081007980F
:104A6000A0EB0108B4F90A100898A0EB0109E0894D
:104A7000B0F5807F13D1206B00FB08F0E16A01FBE9
:104A80001901606A00EBA10BE06A00FB08F0216BE2
:104A900001FB0901A06A00EBA10004902FE0A089AE
:104AA00080B9A06B00FB08F04FEA6018A06B00FB18
:104AB00009F04FEA6019606A00EB080BA06A4844ED
:104AC00004901CE0A06B00FB08F04FEA6018A06B9C
:104AD00000FB09F04FEA6019206B00FB08F0E16A67
:104AE00001FB1901606A00EBA12BE06A00FB08F0F2
:104AF000216B01FB0901A06A00EBA12004904FEAA1
:104B00002B2604980712B4F90400B04203DC0020FD
:104B100009B0BDE8F08F002E01DA0020F8E7B4F903
:104B20000600B84201DC0020F2E7002F01DA002085
:104B3000EEE73420005DC0F3800050B33420005D08
:104B4000C0F3400078B90225B4F904007843684303
:104B500006FB050A059800EB0A012A4604F1140039
:104B600025F0FBFA2CE00325B4F9040078436843F0
:104B700006FB050A6A1E059800EB0A0104F1140001
:104B800025F0EBFA0AEB0500401E0599095CA175BA
:104B900016E04FF0000A0025208A03463AB231B2EF
:104BA000019004F1180021F06FFF0290BDF8080099
:104BB000A0823AB231B204F1180021F0C5FEA0750E
:104BC0003420005D00F00100B0B14FF47F400021BF
:104BD00000F47C4241EA5211C0F3C4021143019136
:104BE000BDF8042011460291A08ABDF80810884241
:104BF00001D100208CE700BFE07C08B9012087E7E5
:104C00000FFA8BF1A187049801B2E18731B24020FD
:104C1000015339B242200153C4F844A084F84850EB
:104C2000204600F003F80390039871E72DE9F04F58
:104C30008DB00446D4F8009094F83C000C9094F8A1
:104C40003E000B900C9870280BDA4FF0FF35B4F94A
:104C500040002844002800DA00250C988030C7B2B4
:104C600013E00C9890280EDD0125B4F9400028448B
:104C7000B4F90410884200DB00250C98C0F1FF0055
:104C80008030C7B201E00025FF270B9870280CDAAE
:104C90004FF0FF36B4F942003044002800DA002615
:104CA0000B98803000F0FF0815E00B9890280FDD7E
:104CB0000126B4F942003044B4F90610884200DB02
:104CC00000260B98C0F1FF00803000F0FF0802E0E2
:104CD00000264FF0FF08A08A0A90A07D06900020D1
:104CE0000590049003903420005DC0F380000028FC
:104CF0005BD094F84800626C00FB052000EB0901D2
:104D0000022209A825F029FAA28894F8480012FB8B
:104D100000F2606C02FB060000EB0901022208A809
:104D200025F01BFAA28894F8480012FB00F2606C90
:104D300002FB060294F8480000FB052000EB090185
:104D4000022207A825F009FA3420005DC0F34000D4
:104D500000287ED094F84800616C00FB05110844DF
:104D6000401E19F800000590A18894F8480011FB36
:104D700000F1606C01FB060194F848000844401EF5
:104D800019F800000490A18894F8480011FB00F184
:104D9000606C01FB060194F8480000FB0511084413
:104DA000401E19F80000039053E0208A0090B4F9E7
:104DB00042204020005B284401B204F11800009B0F
:104DC00021F062FE0990208A00904220005B30446E
:104DD00002B2B4F9401004F11800009B21F054FE17
:104DE0000890208A00904220005B304402B24020AC
:104DF000005B284401B204F11800009B21F044FE3E
:104E000007903420005DC0F3400010B3B4F9422095
:104E10004020005B284401B204F1180021F094FD09
:104E200005904220005B304402B2B4F9401004F116
:104E3000180021F089FD04904220005B304402B24A
:104E40004020005B284401B204F1180021F07CFDF1
:104E50000390BA46BB463420005DC0F34000E0B387
:104E600006987843C7F1FF0C059B03FB0C00C0F3C9
:104E7000072104987843C7F1FF0C039B03FB0C0048
:104E8000C0F3072201FB08F0C8F1FF0302FB030097
:104E9000030AA375022905DC022A03DC00200DB0F9
:104EA000BDE8F08F022901DC4FF00008022A01DC86
:104EB0004FF0FF080698022801DC4FF0000A059821
:104EC000022801DC4FF0FF0A0498022801DC4FF0B1
:104ED000000B0398022803DC00E002E04FF0FF0B18
:104EE00003E0BA46BB46FF21A175BAF1000F02D11B
:104EF000099802900BE0BAF1FF0F02D10A980290D4
:104F000005E05246DDE909101CF0E0FB0290BBF120
:104F1000000F02D1079801900BE0BBF1FF0F02D107
:104F20000898019005E05A46DDE907101CF0CEFB19
:104F30000190B8F1000F03D1BDF80400A0820FE08A
:104F4000B8F1FF0F03D1BDF80800A08208E0424687
:104F5000DDE901101CF0BAFB0090BDF80000A08252
:104F600001209CE72DE9F05F0446B4F90800010236
:104F70006162B4F90A000102A162B4F90C000A21CD
:104F800090FBF1F56F1CB4F90C0005EB8501A0EB6B
:104F90004106684200B22EF091FE8046784200B28F
:104FA0002EF08CFE8146C5F15A0000B22EF086FE2E
:104FB0008246C7F15A0000B22EF080FE8346C6F149
:104FC0000A0000FB08F009FB06000A2190FBF1F142
:104FD000E162C6F10A0000FB0AF00BFB06000A21A1
:104FE00090FBF1F12163E06A4111E162206B411114
:104FF0002163A07C21F057FE3421095D60F300019C
:1050000034200155A07C21F031FE3421095D60F38C
:10501000410134200155A07C042805D0A07C05283E
:1050200002D0A07C062807D13420005D20F00400C7
:10503000001D3421085505E03420005D20F00401F6
:105040003420015521682162A06920F0E000A061B0
:10505000A17CA06961F30400A061A188A06961F34B
:105060009420A061E188A06961F35F50A061E089AC
:1050700000EBD071491001F5001191FBF0F2A26331
:10508000FF21A175208AA082BDE8F09F2DE9F7439A
:10509000054616460024134C2EF013FB804633467B
:1050A00029462046019A22F0ADFA07465FB900BFB3
:1050B00000BF2C21204625F0A2F84FF00040A0624E
:1050C0000020BDE8FE830020A062E06918B94046D8
:1050D0002EF0EAFAE061E06908B90120E0612046BB
:1050E000EFE7000000D7002010B51421114800F0B0
:1050F000CFFA22F039FA044600BF1CB900BF00BF46
:1051000000BFFEE700BF14B900BF00BF10BD0A49D1
:10511000204622F011FB0949204622F00FFB0849E6
:10512000204622F00DFB0749204622F003FB00BF7A
:10513000ECE70000E8D60020856D020859720208ED
:10514000757402084D6D020870B504460D461021B5
:10515000284625F054F820680078012804D1208AD8
:105160002880608A68800CE020680078022802D1DC
:10517000E068686005E020680078042801D10A2012
:1051800068602068406820B12068294642689047DE
:1051900001E000BF00BF70BD2DE9FE430446A66AD2
:1051A000EEB9A18A208A084401B2A182E18A608A0C
:1051B000084401B2E18220460FF09EFE06460EB979
:1051C000BDE8FE83204614F08BF900220921304609
:1051D00020F0C0FC6078C0F3400000B1F0E7208A06
:1051E00010B9608A002870D000200290019094F8D5
:1051F0003C0000F00F00032812D1304627F0B8F829
:105200000746304627F03CF8804603200090B4F96A
:1052100010103B46424630460EF01EF8029012E057
:10522000304627F027F90746304626F09BFF804698
:105230000C200090B4F9121043463A4630460EF066
:105240000BF8019000BF304626F0ECFF054605F054
:10525000010028B9BDF90800002801DD00200290F6
:1052600005F0020028B9BDF90800002801DA002085
:10527000029005F0040028B9BDF90400002801DD02
:105280000020019005F0080028B9BDF904000028AD
:1052900001DA0020019001AA02A9204632F066FE40
:1052A0000023BDF90420BDF90810304629F0C0FFE5
:1052B000A08ABDF80810084401B2A182E08ABDF8B6
:1052C0000410084401B2E18200BF00BF78E72DE975
:1052D000F84F0446D4F828B0BBF1000F01D1BDE867
:1052E000F88F94F83C0000F00F0000B9F7E722F0C7
:1052F0000BFD06463068477E4021584628F0C2FC28
:1053000010B9002161832183584627F09FF8804619
:10531000584627F0A5F8054694F83C0000F00F0029
:105320000C2843D1002121831DBBB4F91A00C7F119
:1053300064014843642190FBF1F001B26183584657
:1053400026F010FF8146584627F094F882460C203C
:105350000090B4F91A104B46524658460DF07CFFA7
:105360006083B4F91A2000231946584629F060FFDB
:1053700069E0204632F051FE0090002161836A46C8
:10538000204632F0F3FDBDF9003041F6FF72514284
:1053900058460FF059FF8146BDF80000484402B25C
:1053A00001230021584629F043FF4CE094F83C00CB
:1053B00000F00F00032846D100216183B8F1000FEF
:1053C00023D1B4F91800C7F164014843642190FB6C
:1053D000F1F001B22183584626F052FF814658462B
:1053E00026F0C6FF824603200090B4F918105346F9
:1053F0004A4658460DF030FF2083B4F918100023B8
:105400001A46584629F014FF1DE0204632F0EAFD06
:1054100000900021218300226946204632F0A6FD3B
:10542000BDF9003041F6FF72514258460FF072FE4E
:105430008146BDF80000484401B2012300225846CD
:1054400029F0F6FE00BF208B002860D1608B002879
:105450005DD11DBB584627F00DF88146584626F011
:1054600081FE8246B9F1000F02DCBAF1000F14DDB3
:10547000B9F1000F06DA01234A460021584629F007
:10548000D7FE0AE0BAF1000F07DA0123CAF10000E3
:1054900002B20021584629F0CBFE00BFB8F1000F40
:1054A00023D1584626F0ECFE8146584626F060FF90
:1054B0008246B9F1000F02DCBAF1000F14DDB9F138
:1054C000000F06DA012300224946584629F0B0FEB3
:1054D0000AE0BAF1000F07DA01230022CAF1000046
:1054E00001B2584629F0A4FE00BF32460A215846B0
:1054F00020F030FB6078C0F3400000B1EFE694F894
:105500003C0020F00F0184F83C100021A16200BF94
:10551000E5E62DE9FF4104460F4614B91CF046FEAE
:1055200004460CB9BDE8FF811FB90020A4F8500162
:10553000F8E70020ADF80800ADF80A0020461CF09E
:105540004DFE401E00B2ADF80C0020461CF0ACFE33
:10555000401E00B2ADF80E0002AA39466846FEF7BA
:10556000C9FD064606B9DDE72068007CC0F34000AF
:1055700060B102982063039860630120A4F8500191
:10558000606810B160682EF01FFACBE72068806970
:1055900018B1206869468269904700250BE004F144
:1055A000300000EBC50100226846FEF7E4FD00B1C3
:1055B000B8E7681C85B2B4F85001A842EFDCB4F833
:1055C0005001202809DAB4F8502104F1300101EB30
:1055D000C200694619F075FE0BE00020A4F85001E6
:1055E000B4F8502104F1300101EBC20002A919F016
:1055F00068FEB4F85001401CA4F85001606810B176
:1056000060682EF0E1F900BF8CE770B505462846CA
:1056100000F013F8044600260CE02146284600F06E
:1056200024F806462146284600F086F8204624F055
:10563000CFFB3446002CF0D170BD014609B90020E3
:1056400070474868FCE770B5064600243046FFF70F
:10565000F4FF054605E0641C2946304600F005F8D5
:105660000546002DF7D1204670BD02460B46106856
:10567000001D03441868704702460B461068034437
:1056800018687047014609B9002070478868FCE730
:10569000002242608260CA1C22F003010160704750
:1056A00070B50446216801F1080024F0C3FA0546EC
:1056B000A5B100222946204630F0A4F9294620460B
:1056C000626830F091F9606820B12A46204661682E
:1056D00030F098F96560A06800B9A560284670BDF3
:1056E00070B50446216801F1080024F0A3FA0546CC
:1056F000A5B100222946204630F076F929462046F9
:10570000A26830F07FF9A06820B12A462046A1683F
:1057100030F06AF9A560606800B96560284670BD20
:10572000014609B901207047486818B9886808B966
:105730000120F8E70020F6E72DE9F04104460D4688
:105740000CB9BDE8F0812046FFF777FFA8420FD1E2
:1057500029462046FFF789FF6060606810B9002085
:10576000A0602FE000222046616830F04BF929E06C
:105770002046FFF787FFA8420FD129462046FFF7B2
:105780007BFFA060A06810B9002060601AE00022D2
:105790002046A16830F028F914E029462046FFF79A
:1057A0006BFF064629462046FFF75FFF07463A464D
:1057B0003146204630F018F932463946204630F05E
:1057C00021F900BF00BFBCE710B50446206880681F
:1057D00018B120682146826890472068006828B187
:1057E0002068006820602046FFF7EEFF10BD0146EC
:1057F000886818B18868B0F9160070470020FCE787
:105800002DE9F04F93B005468B4691469A461C9E73
:10581000688C20F00400001D6884A5F8209032896F
:105820005946284627F0AAFF1290A5F820A03289F1
:105830005946284627F0A2FF1190688C20F00400FA
:105840006884DDE9111088420CD1DDE9111088422D
:1058500008D1BDF84800BDF84410884202D113B009
:10586000BDE8F08FA5F8209032895946284627F0E8
:1058700085FF1290A5F820A05946284612F053F84B
:1058800010903189109A1068129A2CF0D6FB30894A
:10589000602833D147F6FF711298884202D01198E0
:1058A00088422BD1284628F090F90F9000EBD07059
:1058B0004710284628F089F90F9000EBD0704FEA86
:1058C000600847F6FF711298884208D1781C08F1E9
:1058D0000101884200DA01E008F10100129047F668
:1058E000FF711198884208D1781C08F101018842A3
:1058F00000DA01E008F10100119000BF2448FFF731
:10590000CFFE044600BF1CB900BF00BF00BFFEE7CA
:1059100000BF04B9A3E71298E06011982061ACB30E
:1059200025603089A080C4F808B0684618F090FE61
:105930002146684618F03FFF1649684618F00BFFED
:105940001548029000BF1549684618F012FFFF2263
:105950000021684618F01FFF3188684618F011FFD3
:105960007188684618F0F2FEF068069000BF68463D
:10597000002190F83E2061F3000280F83E2000BF35
:1059800030690590684618F02DFF00BF00BF66E73C
:10599000F4D600203DC60308E9C8030819C8030867
:1059A00010B514210148FFF773FE10BDF4D6002096
:1059B0002DE9FE4F04460F4690464FF000090025A2
:1059C0006BE1E06800EBC5004068C0F3406000B1E7
:1059D00062E1E16801EBC501496821F07F402AF0EE
:1059E000ADF9064626EA070008B9012000E00020CC
:1059F000029026EA080008B9012000E0002001908A
:105A0000DDE90101814272D0E06850F835A04FF025
:105A1000000B6A4641F6100150462BF0A7FF10B16B
:105A20004FF0010BA9E06A4641F6110150462BF0F8
:105A30009DFF10B14FF0010B9FE06A4641F6120145
:105A400050462BF093FF10B14FF0010B95E06A46E2
:105A500041F6130150462BF089FF10B14FF0010BB6
:105A60008BE06A4641F6150150462BF07FFF10B1DE
:105A70004FF0010B81E06A4641F6140150462BF0CD
:105A800075FF10B14FF0010B77E06A4641F26901F2
:105A900050462BF06BFF10B14FF0010B6DE06A46E2
:105AA00043F20C0150462BF061FF10B14FF0010B97
:105AB00063E06A4643F20D0150462BF057FF10B1E8
:105AC0004FF0010B59E06A4641F2010150462BF0BC
:105AD0004DFF10B14FF0010B4FE06A4641F2040157
