:020000040800F2
:10000000380B002001010008BD170008B5160008D4
:10001000B9170008AD060008B51B00080000000075
:10002000000000000000000000000000AD19000802
:10003000B106000800000000ED170008E1190008F3
:100040001B0100081B0100081B0100081B01000820
:100050001B0100081B0100081B0100081B01000810
:100060001B0100081B0100081B0100081B01000800
:100070001B0100081B0100081B0100081B010008F0
:100080001B0100081B0100081B0100081B010008E0
:100090001B0100081B0100081B0100081B010008D0
:1000A0001B0100081B0100081B0100081B010008C0
:1000B0001B0100081B0100081B0100081B010008B0
:1000C0001B0100081B0100081B0100081B010008A0
:1000D0001B0100081B0100081B0100081B01000890
:1000E0001B0100081B0100081B010008DFF80CD0F1
:1000F00000F03CFA00480047211F0008380B0020A0
:100100000648804706480047FEE7FEE7FEE7FEE7B1
:10011000FEE7FEE7FEE7FEE7FEE7FEE7491A000816
:10012000ED00000840EA01039B0703D009E008C97D
:10013000121F08C0042AFAD203E011F8013B00F8AC
:10014000013B521EF9D27047D2B201E000F8012BF8
:10015000491EFBD270470022F6E710B513460A4647
:1001600004461946FFF7F0FF204610BD30B50B4698
:10017000014600202022012409E021FA02F59D42D7
:1001800005D303FA02F5491B04FA02F52844151EAB
:10019000A2F10102F1DC30BD2DE9F05F054600203F
:1001A00092469B4688460646814640241BE02846E8
:1001B00041464746224600F0FAF953465A46C01ACD
:1001C000914110D311461846224600F0E1F92D1A4C
:1001D00067EB01084F4622460120002100F0D8F9C4
:1001E00017EB00094E41201EA4F10104DFDC484654
:1001F00031462A464346BDE8F09F2DE9FE4F804632
:1002000081EA0300C00F0C46009021F0004123F06A
:100210000045B8EB0200A94105D240462146904670
:100220001C460B46024623F00040104347D0270DE2
:10023000C7F30A00C3F30A510290401A0190402804
:100240006BDAC3F3130040F4801B0098924620B190
:100250000023D2EB030A63EB0B0B01985946C0F164
:100260004002504600F094F906460D465046594665
:10027000019A00F0ACF910EB08006141002487EA14
:10028000115284EAE7731A4340D0009A62B3019A8C
:10029000012A4FEA075215DC001B61EB02014FF007
:1002A000004202EA0752CDE90042001C41F58011EC
:1002B00032462B4600F0ACF903B0BDE8F08F404663
:1002C0002146F9E7001B61EB0201001C41F5801398
:1002D00000185B412018A2F5001747EB030140EA24
:1002E000D570B6196D4111E06D084FEA360645EA42
:1002F000C0754FEA0752001B61EB0201001C41F57B
:10030000801149084FEA30000019514132462B460E
:1003100003B0BDE8F04F00F06CB900980122400036
:100320000023D0EB020263EBE073009821464FEA12
:10033000E074B8EB000061EB0401E9E783F00043EF
:100340005BE781F0004158E72DE9FE4F81EA0304A5
:1003500004F0004421F0004100944FF0000B23F022
:10036000004350EA01045ED052EA03045BD0C3F3B9
:100370000A54C1F30A552C44A4F2F3340194A0FBAF
:100380000254C1F3130141F48011C3F3130343F486
:10039000801301FB024400FB034E840A970A44EADF
:1003A000815447EA8357A4FB076802958D0A05FB31
:1003B00007854FEA932C04FB0C542705029D4FEA56
:1003C000065847EA1637B5EB08056EEB070C870EA3
:1003D000920E47EA811742EA8312A7FB0201B6EBAD
:1003E0000B0164EB00042B0D43EA0C335E1844EB65
:1003F0001C50DA465146E7FB0201C5F313044FEAED
:100400000B3343EA14534FEA0432019C43EA0603D8
:10041000A4F10C040294009CCDE900B400F0F8F8BB
:1004200003B0BDE8F08F00200146F9E72DE9F04D5B
:1004300081EA030404F0004B21F0004514464FF01C
:10044000000A23F0004150EA050220D054EA0102DC
:100450001DD0C5F30A570246C5F31303C1F31300B9
:10046000C1F30A5640F4801543F48013A7EB060845
:10047000101BD64608F2FD3873EB050002D308F1D5
:10048000010801E092185B41B8F1000F03DA002087
:100490000146BDE8F08D00204FF4801106468446E9
:1004A0000EE0171B73EB050705D3121B63EB050367
:1004B00006434CEA010C49084FEA300092185B41B0
:1004C00050EA0107EDD152EA030012D082EA04009B
:1004D00083EA0501084305D0101BAB4106D2012277
:1004E000002306E000224FF0004302E06FF001021B
:1004F00053101AEB06004CEB085110EB0A0041EBCD
:100500000B01BDE8F04D00F074B8C1F30A52C1F31D
:10051000130140F2FF3341F480119A4202DA0020C5
:100520000146704740F233439A42A2F2334202DC62
:10053000524200F03CB800F02BB8000030B5041E69
:1005400071F1000404DB4FF00044404264EB010110
:10055000141E73F1000405DB1C464FF000435242A9
:1005600063EB0403994208BF904230BD064C074D2F
:1005700006E0E06840F0010394E807009847103473
:10058000AC42F6D3FFF7B6FD883C0008A83C000853
:10059000202A04DB203A00FA02F100207047914043
:1005A000C2F1200320FA03F3194390407047202A38
:1005B00004DB203A21FA02F00021704721FA02F30D
:1005C000D040C2F120029140084319467047202ACA
:1005D00006DBCB17203A41FA02F043EAE07306E06B
:1005E00041FA02F3D040C2F120029140084319467B
:1005F000704710B5141E73F1000408DA401C41F175
:10060000000192185B411A4301D120F0010010BD96
:100610002DE9F04D92469B4611B1B1FA81F202E00C
:10062000B0FA80F220329046FFF7B2FF04460F4640
:1006300040EA0A0041EA0B0153465A46084313D0E8
:10064000114653EA010019D0C8F140025046FFF7A5
:10065000AEFF05460E46504659464246FFF798FF04
:10066000084305D0012004E020463946BDE8F08D5E
:100670000020054346EAE0762C4337430A98630599
:10068000E40AA0EB08000022FD0A44EA47540A30BD
:1006900002D500200146E9E7010510196941DDE9AD
:1006A000084500196941BDE8F04DA2E7FEE70000EA
:1006B00070470000EFF3108072B600BFFEE7000045
:1006C0002DE9F04F82B00E68002E00F0F38041F269
:1006D0000042C4F20102042340F2004E904208BFDF
:1006E00003234FF6FF7CC4F2010E00930024012384
:1006F000C1F2100C4FF0000A4FF0000941E0012553
:1007000004F00C030F279F402BEA070705FA03F3B9
:100710003B4342F826304E6840F20C45F202DEF8C8
:10072000082054BF22EA080242EA0802C4F2010586
:10073000CEF808202A68B30254BF22EA080242EA2F
:1007400008022A60B303DEF8042054BF22EA08023C
:1007500042EA0802F303CEF80420DEF800204FF04E
:10076000010354BF22EA080242EA0802CEF8002040
:100770000E680AF1010A36FA0AF204F1040400F0E4
:10078000998003FA0AFB16EA0B08F1D04A68624521
:1007900010DC122A50D8DFE802F0330A41454F4FEF
:1007A0004F4F4F4F4F4F4F4F4F4F4F484C00D1F887
:1007B0000C9041E04FF6FF75C1F22105AA420FDC13
:1007C0000025C1F21105AA421AD00025C1F2120576
:1007D000AA4215D00025C1F22105AA4210D02BE073
:1007E0000025C1F22205AA420AD00025C1F2310536
:1007F000AA4205D00025C1F23205AA421CD100BF91
:100800008A6842B1012A14BFC0F814B0C0F810B011
:100810004FF0080910E04FF004090DE0CA6802F13A
:10082000080909E04FF0000906E0CA6802F104096E
:1008300002E0CA6802F10C0922460546B8F5807F3D
:1008400024BF203A04352E680F279740BE4309FA8B
:1008500002F232432A60CA79D2067FF589AF41F2AB
:100860001803C4F202031A684FEA9A0642F0010222
:100870001A601A6840F6000302F001020192019A20
:10088000AEF57E7252F826B0C4F2010398420FD042
:1008900040F60043C4F2010398423FF430AF41F206
:1008A0000003C4F20103009D984208BF022527E718
:1008B000002525E702B0BDE8F08F0000002A08BF40
:1008C000090401617047000040F23070C2F200007C
:1008D0000068704740F27C0040F23071C2F20000C4
:1008E000C2F2000100780A681044086070470000F6
:1008F00080B542F20000C4F20200016841F010012C
:100900000160032000F062F80F2000F005F800F00D
:100910002BF8002080BD0000B0B540F27C02C2F28E
:10092000000240F204011278C2F200014FF47A731F
:100930000968B3FBF2F20446B1FBF2F1084600F09D
:10094000EBFD0F2C4FF001050CD858B94FF0FF30DC
:1009500021460022002500F029F840F28000C2F272
:10096000000004602846B0BD82B041F21800C4F215
:1009700002000168022241F001010160016801F0FA
:10098000010101910199416841F080514160406845
:1009900000F08050009000980420C4F2010001682B
:1009A00062F31A61016002B07047000070B514462E
:1009B0000D46064601F000F92946224600F000FFE8
:1009C0000146304601F000F970BD000080B501F02D
:1009D0000DF980BD2DE9F04381B0002800F0898039
:1009E00042F20008C4F202080446D8F800000D469E
:1009F00000F0070088420CD2D8F8000020F0070071
:100A00002843C8F80000D8F8000000F00700A8420A
:100A10006FD1206841F204098107C4F2020917D599
:100A2000410705D5D9F8001041F4E061C9F800107C
:100A3000010705D5D9F8001041F46051C9F800103C
:100A4000D9F80010A26821F0F0011143C9F8001094
:100A5000C00745D1D8F8000000F00700A8420CD923
:100A6000D8F8000020F007002843C8F80000D8F8A4
:100A7000000000F00700A8423BD12068410707D5DD
:100A8000D9F80010E26821F4E0611143C9F80010C0
:100A9000000708D5D9F80000216920F4605040EA29
:100AA000C100C9F8000000F079F8D9F8001043F24D
:100AB0003872C1F30311C0F60002515C40F2040227
:100AC00020FA01F140F28000C2F200000068C2F298
:100AD00000021160FFF720FF002001B0BDE8F083A5
:100AE0006068022809D0012829D159F8041C89031B
:100AF00007D4012001B0BDE8F08359F8041C890136
:100B0000F7D5D9F8001021F003010843C9F8000017
:100B1000FFF7DAFE064641F2883700BFD9F8000039
:100B2000616800F00C00B0EB810F93D0FFF7CCFEB2
:100B3000801BB842F2D9032001B0BDE8F08359F818
:100B4000041C8907D5D5DCE740F20400C2F200009E
:100B50000068704780B5FFF7F7FF41F20401C4F267
:100B60000201096843F24872C1F30221C0F6000293
:100B7000515CC84080BD000080B5FFF7E5FF41F241
:100B80000401C4F20201096843F24872C1F3C221B0
:100B9000C0F60002515CC84080BD000041F2040C68
:100BA000C4F2020CDCF8003003F00C00082841F21B
:100BB0000020C0F27A0018BF7047C3F383420AA135
:100BC0008A5CD90305D440F60010C0F23D005043C2
:100BD0007047DCF8001008A3C1F34041595C504352
:100BE000B0FBF1F0704700BF0203040506070809D7
:100BF0000A0B0C0D0E0F1010010200002DE9F04140
:100C000082B0002800F0C4800446007841F200065B
:100C1000C007C4F2020643D0706800F00C0004283C
:100C200017D0706800F00C00082802D17068C0036B
:100C30000FD465682DB1B5F5A02F10D0B5F5803F64
:100C400011D0306820F480303060306820F480208B
:100C50000CE03068800323D5606808BB98E03068FA
:100C600040F480203060306840F480303060FFF71E
:100C70002BFE002D054610D03068800310D4FFF7FE
:100C800023FE401B6428F7D904E100BFFFF71CFED8
:100C9000401B64284FF0030077D830688003F5D4F8
:100CA0002078800718D5706810F00C0F07D0706896
:100CB00000F00C00082826D17068C00323D43068E7
:100CC000800702D52069012862D13068616920F06F
:100CD000F80040EAC1003060207800073DD5A069E7
:100CE00038B30020C4F242200121C0F88014FFF77D
:100CF000EBFD0546706A80072DD4FFF7E5FD401B2C
:100D00000228F7D9C6E02069002840F20000C4F2AA
:100D1000422000F0968001210160FFF7D5FD0546D5
:100D200030688007D1D4FFF7CFFD401B0228F7D9E8
:100D3000B0E00020C4F242200021C0F88014FFF788
:100D4000C3FD0546706A800707D5FFF7BDFD401B50
:100D50000228F7D99EE000F04BFD207840071BD415
:100D6000E5698DB1706800F00C00082847D1012DAD
:100D70000ED07068216A00F480328A4208D1616A1C
:100D800000F47010884203D1002002B0BDE8F08169
:100D9000012002B0BDE8F081F06910F0805808D160
:100DA000F06940F08050F061F06900F080500190EF
:100DB000019847F20007C4F200073868C00510D454
:100DC000386840F480703860FFF77EFD054600BF4C
:100DD0003868C00505D4FFF777FD401B6428F7D9B4
:100DE00058E0E5681DB1052D3CD0012D3ED0306A9C
:100DF00020F001003062306A20F0040039E0002762
:100E0000C4F2422700203866FFF75EFD022D05463A
:100E10000CD100BF3068800154D5FFF755FD401B51
:100E200002284FF00300F5D9AFE700BF306880011A
:100E3000AAD5FFF749FD401B02284FF00300F5D962
:100E4000A3E700210160FFF73FFD054630688007FA
:100E50007FF542AFFFF738FD401B02284FF003003B
:100E6000F4D992E7306A40F004003062306A40F012
:100E700001003062FFF728FD002D054641F288375A
:100E800014D000BF306A800713D4FFF71DFD401B4C
:100E9000B842F7D9032002B0BDE8F081FFF714FD96
:100EA000401BB8424FF003003FF66FAF306A800737
:100EB000F4D4B8F1000F7FF453AFF06920F0805004
:100EC000F0614DE7206AB0F5803F05D17168A268F6
:100ED00021F40031114371607168626A21F4741168
:100EE00010430843706001203866FFF7EDFC0446AC
:100EF000306880013FF548AFFFF7E6FC001B022891
:100F00004FF00300F4D940E770B538B10446406AA9
:100F100030B10020206104F1140007E0012070BD11
:100F20006068B0F5827F03D004F11C0000210160ED
:100F30000026A66294F8510020B9204684F850603B
:100F400000F038F8022084F8510094E8071001F40A
:100F50008271036802F4044223F0400303602369B2
:100F600011440CF40062114403F00202636911445D
:100F700003F00102A369E569114403F4007211440E
:100F800005F03802256A114405F08002A56A114374
:100F900005F4005211430160042101EA134141604C
:100FA000C16921F40061C1610120666584F85100C6
:100FB000304670BD70B586B040F60044C4F20104FE
:100FC0000068A4F55441002688420596CDE90366E1
:100FD000029601D006B070BD41F21800C4F20200C2
:100FE000416802AD41F480414160416801F48041B3
:100FF00001910199016841F00801016000682946EA
:1010000000F00800019001984FF420400290022067
:101010000390032005902046FFF752FB4FF48040D9
:10102000CDE90206204629460496FFF749FB06B0A3
:1010300070BD00002DE9F04182B0044690F85100E7
:10104000012818D160681D4617460E46B0F5827F0C
:1010500001D1A06898B1FFF737FC8046002E4FF011
:10106000010018BF002F02D102B0BDE8F08194F852
:101070005000012810D1022002B0BDE8F081042008
:1010800084F851002046314632463B46009500F038
:1010900047F902B0BDE8F081012084F85000042037
:1010A00084F8510000206065A663A787E787206366
:1010B000A086E086A1682064B1F5004F606408D185
:1010C0002068016821F040010160016821F480413D
:1010D000016020680168490603D4016841F04001BD
:1010E0000160E168E08FD1B1E8B36E1C0AE000BF97
:1010F000C068A16B21F8020BA163E08F0138E08783
:10110000E08F80B320688168C907F1D1FFF7DCFB6D
:10111000002EF5D0A0EB0800A842F1D319E010B3DF
:101120006E1C0AE0007BA16B0870A06B0130A0630D
:10113000E08F0138E087E08FA8B120688168C90797
:10114000F0D1FFF7C1FB002EF5D0A0EB0800A842BC
:10115000F1D3012084F85100002084F850000320CE
:1011600002B0BDE8F08120462946424600F056FB19
:1011700000281CBF20206065012084F85100002059
:1011800084F85000606D002818BF012002B0BDE84F
:10119000F08100002DE9F04182B01D4616460F4651
:1011A0000446FFF791FB94F8511001290DD18046B8
:1011B000002F4FF0010018BF002E02D102B0BDE891
:1011C000F08194F85000012803D1022002B0BDE85C
:1011D000F081012084F85000032084F851000020A1
:1011E00060652763A686E686A063A087E087A1687E
:1011F000C4E91000B1F5004F08D12068016821F062
:1012000040010160016841F480410160206801688B
:10121000490603D4016841F0400101606168731E12
:10122000E268B1FA81F1B3FA83F349095B09B2F5D7
:10123000006F41EA030124D139B1216B0988C160F3
:10124000B81C2063E08E0138E086E08E002846D08E
:101250006E1C09E0216B31F8022BC2602163E08E25
:101260000138E086E08ED0B3206881688907F1D428
:10127000FFF72AFB002EF5D0A0EB0800A842F1D31F
:1012800023E039B139780173206B01302063E08E9F
:101290000138E086E08E10B36E1C0AE0216B0978FD
:1012A0000173206B01302063E08E0138E086E08E10
:1012B000A8B1206881688907F0D4FFF705FB002EEC
:1012C000F5D0A0EB0800A842F1D3012084F851002A
:1012D000002084F85000032002B0BDE8F0812046D1
:1012E0002946424600F0D4FA00281CBF2020606541
:1012F000A06838B9002001902068C1680191806819
:1013000001900198012084F85100002084F85000D9
:10131000606D002818BF012002B0BDE8F081000018
:101320002DE9F04381B01E4615460F460446FFF7EF
:10133000CBFA94F851108146012909D06068B0F5C4
:10134000827F14D104294FF0020007D1A16829B986
:10135000002F4FF0010018BF002D02D101B0BDE8F1
:10136000F083002EFAD094F85000012803D1022017
:1013700001B0BDE8F083012084F8500094F85100DA
:10138000002104281CBF052084F851006165A56375
:10139000E687A6872763E6862068A68621646164BF
:1013A0000168490603D4016841F0400101606168A9
:1013B000731EE268B1FA81F1B3FA83F3DDF820809D
:1013C00049095B09B2F5006F41EA030139D139B12E
:1013D000216B0988C160B81C2063E08E0138E0866B
:1013E000012608F1010500BFE08E10B9E08F00284A
:1013F0006CD02068816889070CD5E18E012E09D157
:1014000041B1216B002631F8022BC2602163E18ECD
:101410000139E1868168C9070AD0E18F41B1C0680E
:10142000A16B012621F8020BA163E08F0138E08750
:10143000FFF74AFA002DD7D0A0EB09004045D3D3DF
:101440003AE039B139780173206B01302063E08EC6
:101450000138E086012608F1010500BFE08E08B9D9
:10146000E08F98B32068816889070DD5E18E012E41
:101470000AD149B1216B002609780173206B013034
:101480002063E08E0138E08620688168C9070BD0B0
:10149000E18F49B1C068A16B01260870A06B0130D3
:1014A000A063E08F0138E087FFF70EFA002DD5D05A
:1014B000A0EB09004045D1D3012084F85100002061
:1014C00084F85000032001B0BDE8F0832046414677
:1014D0004A4600F0DDF940B120206065002084F824
:1014E0005000012001B0BDE8F083A06838B90020A9
:1014F00000902068C16800918068009000980120E9
:1015000084F85100002084F85000606D002818BF56
:10151000012001B0BDE8F08380B500F049FA80BD3C
:10152000002804BF0120704710B5044690F8410020
:1015300028B9002084F84000204600F021F824203B
:1015400084F841002068C16821F40051C160204640
:1015500000F0A4FA2068016921F490410161416919
:1015600021F02A014161C16841F40051C1600020AD
:101570002021606484F8411084F84210606310BD3B
:1015800070B586B040F60004C4F20104006804F5AA
:101590004051002688420596CDE90366029601D0A7
:1015A00006B070BD41F21800C4F20200016802AD3D
:1015B00041F480410160016801F480410191019989
:1015C000016841F0040101600068294600F0040050
:1015D000019001984FF400700290022003900320C4
:1015E00005902046FFF76CF84FF48060CDE90206C5
:1015F000204629460496FFF763F806B070BD000048
:101600002DE9F041044690F8410020281CBF02203B
:10161000BDE8F0810E4600294FF0010042D0174688
:10162000002A08BFBDE8F0814FF0000821201D46C8
:10163000C4F8448084F84100FFF746F9A784E784A2
:10164000A1680746B1F5805F0DD12069002814BF5D
:101650003046B046064606E016F8010B21684860A1
:10166000E08C0138E084E08C80B1204680213A464D
:101670002B4600F05BFAB8B9002EEDD138F8020B1A
:1016800021686FF35F2048600026E9E7204640218B
:101690003A462B4600F04AFA202184F841100028EF
:1016A00018BF0320BDE8F081202084F8410003200A
:1016B000BDE8F081FEE70000F0B585B0002541F2FD
:1016C0001800CDE90355CDE90155C4F202000168C7
:1016D00040F6004441F0200101600168C4F20104B9
:1016E00001F02001009100990168012241F00801F8
:1016F000016001684FF4805601F0080100910099E3
:101700000168012741F00401016000684FF4805135
:1017100000F00400009000982046FFF7CFF8032067
:10172000049001A92046CDE901670395FEF7C8FFA3
:1017300005B0F0BD10B540F2880043F60001C2F2DA
:101740000000C4F200014FF48272002380E80E0012
:1017500000F10C014FF0020C4FF0010E4FF4007439
:1017600081E808500A21C0E90643C0E90833C0E90E
:101770000A31FFF7C9FB002818BFFEF79BFF10BD19
:1017800080B540F2E00043F60001C2F20000C4F26E
:10179000010100234FF00C0C4FF4E13280E80E0001
:1017A000C0E90333C0E905C3C361FFF7B9FE0028F0
:1017B00018BFFEF77FFF80BDFEE70000FEE70000D8
:1017C00000F0070080F00703042B28BF04234FF02C
:1017D000FF3C03380CFA03F338BF002099438140E3
:1017E0000CFA00F022EA000008437047704700003E
:1017F00081B040F20400C2F20000006844F6D35108
:10180000C1F26201A0FB0101480A009000BF0098EC
:10181000411E00280091F9D101B07047B0B582B0E7
:10182000044640680B46B0F5827F20D1A168B1F52F
:10183000004F02D0B1F5806F04D121680D6825F00A
:1018400040050D60B0F5827F11D1A068B0F5806FC2
:101850000DD10092204601210022002500F036F82B
:1018600090B1606D032540F0200060650CE00092AF
:10187000204680210022002500F028F820B1606D6C
:10188000032540F020006065284602B0B0BD00008E
:1018900070B582B00D461646022101222B46044641
:1018A000009600F013F840B92046802100222B4614
:1018B0000096002500F00AF820B1606D032540F085
:1018C00020006065284602B070BD00002DE9F04799
:1018D00082B00A9C984615460E468146FEF7F4FFF4
:1018E000201A00EB0804FEF7EFFF40F20401C2F2F9
:1018F00000010968C1F3CB3161430191D9F80010AF
:1019000089683140891BB1FA81F14909A94203D1A3
:10191000002002B0BDE8F087824608F1010709E027
:10192000D9F8000080683040801BB0FA80F0400990
:10193000A842EDD0002FF3D0FEF7C6FFA0EB0A00BF
:10194000A04207D201980199002808BF0446481E0A
:101950000190E5E7D9E900014268B1F5827F22F004
:10196000E00242600BD1D9F80810B1F5004F02D067
:10197000B1F5806F03D1016821F040010160D9F811
:101980002810B1F5005F07D1016821F40051016012
:10199000016841F400510160012089F851000020E4
:1019A00089F85000032002B0BDE8F08770470000BE
:1019B000B0B501380024B4EB106F1CBF0120B0BDDE
:1019C0004EF21005CEF2000568604FF0FF300F2197
:1019D00000F0FAF80720AC6028602046B0BD000097
:1019E00080B5FEF777FF80BD70B590B006AC20469D
:1019F0002821FEF7B0FB012006900A904FF4E0107A
:101A000000254FF4803102260F9020460595CDE940
:101A10000355CDE90155CDE90715CDE90D61FFF776
:101A2000EDF878B90F20CDE901064FF48060CDE9DB
:101A3000040501A802210395FEF7CCFF002804BF8E
:101A400010B070BDFEF736FE70470000016851E827
:101A5000031F026821F4907142E80313002BF5D1B3
:101A6000016851E8051F026821F0010142E80513F1
:101A7000002BF5D1016B01290AD100BF016851E8A3
:101A8000031F026821F0100142E80313002BF5D177
:101A9000202180F8421000210163704710B50446F0
:101AA0000068D4E902C22369016921F4405111435D
:101AB0000161616943EA0C021143C26841F20C639F
:101AC0009A431143C1604169A26921F440711143F5
:101AD00043F60002C4F201029042416102D0FFF7D6
:101AE00039F801E0FFF748F862681921484391008E
:101AF000B0FBF1F048F21F51C5F2EB11A0FB01233E
:101B00005A096FF0630302FB0300322303EB00105A
:101B1000A0FB0101F02303EA5113206803EB02123A
:101B2000C1F343111144816010BD00002DE9F04163
:101B300082B00446006800680840884203D1002053
:101B400002B0BDE8F0811D460E4690465F1C04E0E1
:101B5000206800683040B04228D0002FF8D0FEF74F
:101B6000B3FE01464FF003000DB3A1EB0801A942FB
:101B70001DD82068C1684907EAD5402EE8D0802EDC
:101B8000E6D001680907E3D50025019501680191B8
:101B90004068019001982046FFF758FF08206064D4
:101BA00084F84050012002B0BDE8F081002002B06E
:101BB000BDE8F081FEE700004EF60C50CEF20000CA
:101BC0000068C0F3022070474EF6145300F00F0275
:101BD000CEF2000309011A4400F16043B0F1FF3F67
:101BE000C8BF03F564421170704700004EF60C51F7
:101BF000CEF200010A684FF6FF031A4060F30A2292
:101C000042F0806040F0FD70086070472DE9F04FB1
:101C100085B0834600690E461144814207D943F6D8
:101C20001120C0F6000000F029FF05248DE0DBF84C
:101C30002810154699460BF1200809B140468847FF
:101C4000F0070ED05846314601220123CDF800900E
:101C500000F0A0F9044600286DD109F10109013610
:101C6000013D5846012100F09BFC0446002862D14A
:101C7000AD20022D8DF80C0040D303AF781C0190ED
:101C8000012002900298C00716D0019A58463146AA
:101C900000F064F99BF8350099F8001000284FF027
:101CA000050008BF0420395499F801103A18517002
:101CB0000021029109E000BF99F800008DF80D00A5
:101CC00099F801008DF80E000120DBF8244040F067
:101CD0000202C2464046B846394600230027009714
:101CE000A047F0B9584601F039F810BB023D023662
:101CF000012D09F102094746D046C3D858460021B4
:101D000000F04EFC012D044608BF002C13D15846AC
:101D1000314601220123CDF8009000F03BF9044642
:101D200009E0044643F63720C0F6000000F0A6FEA6
:101D300000E00446D0461CB15846002100F030FCBB
:101D4000DBF82C1009B140468847204605B0BDE8B5
:101D5000F08F000080B582B0019040F2E000C2F246
:101D6000000001A901224FF6FF73FFF749FC01981B
:101D700002B080BD10B5044600F032FF00B110BDC6
:101D8000206928B1A08A18B1A06908B1207F48BB9A
:101D9000204600F0C9FA0028F1D1204600F0CEFE1E
:101DA00000B3D4E9141200202161B4F848100123D3
:101DB000A060012908BF022394F85810A382A261F1
:101DC000217702E0013003280CD004EBC001CA6D7A
:101DD000002AF7D0A3699342F4D991F86010A26168
:101DE0002177EFE72369ABB1A08A98B1A06988B1E8
:101DF000207F78B1217B43F2507C0020C0F6000C9C
:101E00000CEBC00212798A420CD001301228F7D1B3
:101E1000002109E043F6D710C0F6000000F02EFEC6
:101E2000012010BD5CF8301029B1A26842B11BA09E
:101E300000F024FE08E030A0194600F01FFE03E089
:101E400022A01A4600F01AFE204600F025FB0028CA
:101E50007FF495AFA18A49070BD4217BC2290DD10C
:101E6000617B20290AD1A17B162907D120460021B8
:101E700001E020460121002200F0ECFE002818BFFE
:101E800010BD2169B1F1807F03D9204600F04CFBE1
:101E900010BD002184F8351010BD00BF466F756E6F
:101EA00064206120257320257320666C617368208F
:101EB000636869702E2053697A6520697320256CE8
:101EC000642062797465732E00000000466F756EA1
:101ED00064206120257320666C61736820636869E3
:101EE000702E2053697A6520697320256C64206206
:101EF000797465732E000000466F756E6420612052
:101F0000666C61736820636869702E2053697A6516
:101F100020697320256C642062797465732E00003B
:101F2000FEF7E6FCFFF760FDFFF7C6FBFFF702FCDC
:101F3000FFF726FC00F098FD70B943F61D10C0F6BF
:101F4000000001F0E7FB40F22D32C2F20002002057
:101F50004FF4806100F0D6FBFEE7000080B590F8FA
:101F600035004FF0040C00284FF0000E4FF0000039
:101F700008BF4FF0030C00BF6FEA0E036344DB00A1
:101F800021FA03F3013002F80E305FFA80FEF445C7
:101F9000F2D880BD2DE9F04F83B0834600690F462B
:101FA0001144814207D943F61120C0F6000000F029
:101FB00065FD05245DE0DBF82810164699460BF117
:101FC000200409B120468847002E02943DD00C9D84
:101FD00040F2282AC2F2000A5846012100F0E0FA35
:101FE000A8BB5246022002F8010B58463946FFF7BB
:101FF000B5FF9BF8350005240028B7FBF9F008BFB2
:10200000042400FB09F0C01B09EB0008464598BFFB
:10201000B0460AEB040029464246FEF783F8DBF897
:1020200024C0029808EB04025146002300240094C7
:10203000E04770B9584600F091FE044680B9B6EB0F
:10204000080647444544C7D10AE0002408E0044696
:1020500006E0044643F63720C0F6000000F00EFD0F
:102060005846002100F09CFADBF82C1009B10298C8
:102070008847204603B0BDE8F08F000010B582B05D
:102080000C460021CDE900116A460821082300F022
:1020900083F918B117A000F0F1FC24E09DF80000CE
:1020A0009DF802302070BDF804C09DF806009DF830
:1020B00001209DF803104CEA0040022B6270A370CF
:1020C000E170606007D343F6B230C0F600001946F5
:1020D00000F0D4FC07E0082908D843F60840C0F611
:1020E000000000F0CBFC002002B010BD012002B0C7
:1020F00010BD00BF4572726F723A2043616E277443
:102100002072656164204A454445432062617369D9
:102110006320666C61736820706172616D657465BF
:1021200072206865616465722E0000002DE9F0413F
:102130008AB001AD4E68804628462421FEF70BF890
:10214000404631462A46242300F026F938B15FA0E4
:1021500000F094FC002528460AB0BDE8F0819DF807
:1021600004009DF8052000F00301012988F84B20A8
:1021700003D0032911D1002100E0012188F84A1081
:1021800041074FF4807158BF01210207A8F8481099
:102190000BD4012088F84C0010E043F64F40C0F605
:1021A000000000F06BFC0025D5E70021C00688F890
:1021B0004C104CBF0620502088F84D009DF80600BA
:1021C000C0F34100032806D100254EA0A8F84E50C8
:1021D00000F054FCBFE740F20012C00040F20111D1
:1021E000C0F20102C14022FA00F09DF80A209DF8D9
:1021F0000B3088F84E109DF80910120488F84F0033
:102200009DF8080042EA036242EA01211A060844E6
:1022100003D4012101EBD00011E020F0004024287C
:1022200009D343F66D300025C0F60000C8F85050C1
:1022300000F024FC8FE70338012101FA00F0C8F810
:10224000500000200121002203E000BF01300428DB
:102250000FD005EB40031E7F002EF7D0D4B25B7F7A
:1022600001FA06F608EBC4040132666584F85830BA
:10227000ECE74FF0000C04E00CF1010CBCF1040F92
:1022800020D008EBCC02114651F8543F002BF3D07C
:10229000BCF1020FF0D85832634602E00133032B41
:1022A000EAD008EBC306F56D002DF7D00C68AC4200
:1022B000F4D9177896F860000D601070F46586F810
:1022C0006070EBE7012588F8445044E75761726E6F
:1022D000696E673A2043616E2774207265616420DD
:1022E0004A4544454320626173696320666C6173AB
:1022F0006820706172616D65746572207461626CD2
:10230000652E00004572726F723A2052656164203A
:102310006164647265737320627974657320657299
:10232000726F722100000000B0B582B004469F2198
:10233000656A20308DF807104FF0030C0DF107018E
:1023400001AB0122CDF800C0A847054618B107A08F
:1023500000F094FB06E09DF80400BDF80510207322
:10236000A4F80D10284602B0B0BD00BF4572726FD0
:10237000723A205265616420666C617368206465FE
:1023800076696365204A4544454320494420657287
:10239000726F722E0000000080B584B09C46134618
:1023A0005A228DF80B200A0C8DF80C200A0A8DF8A1
:1023B0000E10FF21D0F824E08DF80D208DF80F10BD
:1023C00020300DF10B010522CDF800C0F04704B01C
:1023D00080BD000010B582B004460020CDE90000A9
:1023E00084F844006A46204600210823FFF7D4FF02
:1023F00018B113A000F042FB1CE09DF80000532828
:1024000018D19DF80100462814D19DF802004428F7
:1024100010D19DF8030050280CD19DF805109DF8AF
:102420000420022984F8462084F8451005D30CA026
:1024300000F024FB002002B010BD012002B010BD4E
:102440004572726F723A2043616E27742072656123
:10245000642053464450206865616465722E000014
:102460004572726F723A205468697320726576659E
:102470007273696F6E285625642E256429206F6655
:102480002053464450206973206E6F74207375701A
:10249000706F727465642E002DE9F04182B00446BD
:1024A00000F120056620666A0DF106078DF806002A
:1024B0004FF000082846394601220023CDF800805D
:1024C000B0470646A0B9204600F048FC791C992088
:1024D000676A8DF80700284601220023CDF80080A6
:1024E000B847064618B9204600F038FC064616B133
:1024F00003A000F0C3FA304602B0BDE8F08100BF8F
:102500004572726F723A20466C617368206465761A
:10251000696365207265736574206661696C6564C2
:102520002E0000007047000070B582B00121044603
:1025300000F036F80546B0B9B720656A00218DF87D
:10254000070004F1200000910DF107010122002392
:102550000126A847054620B104A00FA100F08EFA7D
:1025600001E084F83560284602B070BD4572726F94
:10257000723A20257320342D427974652061646499
:1025800072657373696E67206D6F6465206661693B
:102590006C65642E00000000456E746572000000DA
:1025A00070B582B005460420002918BF06206C6A69
:1025B0000E468DF8070005F120004FF0000C0DF1DC
:1025C000070101220023CDF800C0A04708B190B94F
:1025D00005E00DF10601284600F0CCFA58B936B1F5
:1025E0009DF80610890701D410A007E01EB99DF8D8
:1025F0000610890701D402B070BD03A000F03EFAB6
:10260000022002B070BD00BF4572726F723A204363
:10261000616E27742064697361626C6520777269EA
:102620007465207374617475732E00004572726F47
:10263000723A2043616E277420656E61626C65207A
:102640007772697465207374617475732E0000006D
:1026500070B582B0816A054600F1200409B12046B8
:10266000884728460121FFF79BFF064638BBA88A0A
:10267000C72100078DF8041006D46E6A4FF0000CD5
:1026800001A9204601220CE048F29400ADF80500B3
:102690009A206E6A8DF807004FF0000C01A92046C1
:1026A00004220023CDF800C0B047064618B109A0A7
:1026B00000F0E4F903E0284600F050FB0646284607
:1026C0000021FFF76DFFE96A09B1204688473046CF
:1026D00002B070BD4572726F723A20466C617368C9
:1026E00020636869702065726173652053504920CA
:1026F000636F6D6D756E6963617465206572726F6D
:10270000722E00002DE9F04F81B0074600201646DA
:102710000C4600F09FF9054644B160424FF0FF318E
:1027200072180131517042180132F9D128463946E8
:10273000224600F0DFF8296808B141A010E043F616
:102740004A00C0F600003A46234600F045FB284602
:1027500039462246334600F063FA296828B141A081
:1027600000F03AFB01B0BDE8F08F43F68C00C0F6F4
:1027700000003A46234600F02FFB28463946224601
:10278000334600F09DF9296818B13FA000F024FB02
:1027900035E043F6CE00C0F600003A46234600F08E
:1027A0001BFB43F66D10C0F6000000F0B3FF1CB336
:1027B000A4F1010B4FF000080FF2F8090FF2FC0A28
:1027C00002E000BF444517D05FEA087004D107EB70
:1027D000080136A000F000FB16F80810484600F08B
:1027E000FBFAC34508F1010818BF18F00F00E9D142
:1027F000504600F08FFFE5E730A000F08BFF002788
:1028000044B100BFF05DF9B288420FD10137BC423C
:10281000F8D12746A74206D1296843F62A00C0F618
:10282000000000F0D9FA01B0BDE8F08F296843F24A
:10283000E070C0F6000000F0CFFAA742F3D1EBE75A
:1028400045726173652074686520257320666C612C
:1028500073682064617461206661696C65642E0D23
:102860000A0000005772697465207468652025733A
:1028700020666C6173682064617461206661696CB4
:1028800065642E0D0A00000052656164207468655D
:1028900020257320666C6173682064617461206612
:1028A00061696C65642E0D0A000000005B253038FC
:1028B000585D200025303258200000000D00000037
:1028C000B0B50446FFF756FA0546B0FA80F0420963
:1028D00043F6612143F6A910C0F60001C0F60000DE
:1028E000002D08BF0846216884F8342000F0C6F89F
:1028F0002846B0BD2DE9F04F87B0044600690D466B
:102900001144814207D943F61120C0F6000000F0BF
:10291000B5F8052684E09046002D08BF404571D0EB
:10292000A16A04F1200609B130468847B8F1000FCA
:1029300003966CD004F1180004900DF1170004F117
:102940001C070130CDE9017094F844000499002877
:10295000384609D020462946424600F01FF904EBCC
:10296000C00101F158005431D1F8009090F800A056
:10297000204601214FF0010BFFF712FE20B1064661
:10298000BBF1000F26D043E0029A294620468DF87D
:1029900017A0FFF7E3FA94F8350005220028666ACD
:1029A00008BF042203980DF11701002300270097A8
:1029B000B04720B106461CA000F060F804E02046B5
:1029C00000F0CCF9064648B1019F4FF0010BBBF176
:1029D000000F1DD1B8F1000FB6D119E0B5FBF9F029
:1029E000294600FB195008B1A9EB0009019FC84511
:1029F000EBD94D44A8EB09084FF0000BBBF1000FD9
:102A0000E8D005E02046FFF723FE064608E0002652
:102A100020460021FFF7C4FDE16A09B10398884709
:102A2000304607B0BDE8F08F4572726F723A2046AB
:102A30006C6173682065726173652053504920632F
:102A40006F6D6D756E6963617465206572726F720A
:102A50002E00000040F20801C2F20001002818BF59
:102A6000002108467047000080B540F20800C2F21D
:102A7000000000214160FFF723FF80BD83B0B0B5A7
:102A800081B0044605A80EC005A800900AA000F079
:102A9000A3F940F22815009BC2F2000528464FF426
:102AA0008071224600F0A8F9284600F033FE01B0FC
:102AB000BDE8B04003B070475B534655445D00002D
:102AC0002DE9F04383B0044600690F46114481426A
:102AD00007D943F61120C0F60000FFF7CFFF052508
:102AE00027E0A16A1646984604F1200909B1484634
:102AF0008847204600F032F90546B0B903200DF1B1
:102B000007058DF807006A1C20463946FFF726FAAC
:102B100094F83500676A052200284846294643464E
:102B200008BF04220096B8470546E16A09B1484645
:102B30008847284603B0BDE8F083000010B582B096
:102B40000446FFF747FC50B169462046FFF796FA66
:102B500028B169462046FFF7E9FA02B010BD2168A6
:102B600043F61130C0F60000FFF788FF002002B0E6
:102B700010BD000080B582B00B460521D0F824C0FE
:102B80008DF8071020304FF0010E0DF107010122E2
:102B9000CDF800E0E04702B080BD000080B5D0F87D
:102BA00054C0B1FBFCF303FB1C130BB1002080BD30
:102BB00000F16C0C4FF0000E5CF83E30581E904255
:102BC00004D2B1FBF3F000FB131028B11EF1030097
:102BD000ECD0AEF1010EEFE70EF1030080BD000076
:102BE000416809B10020704742F6F54142F6E942DA
:102BF000C0F60001C0F6000242F6F14300F1240CD9
:102C0000C0F600038CE80E0042F2255142F2C07279
:102C1000C0F60001C0F20902C0E90E1200207047A0
:102C200080B582B0B0F814E09C465FEACE7308D15C
:102C30005FEA4E7352BF00206346FEF7E7FF02B023
:102C400080BD4FF48073CDF800C0FFF7A3F902B048
:102C500080BD0000F0B583B01546064600F12004A3
:102C600071B15020776A8DF80A004FF0000C0DF119
:102C70000A01204601220023CDF800C0B84703E036
:102C800030460121FFF78CFC074630B117B10CA08C
:102C9000FFF7F4FE384603B0F0BD0120776A8DF8E7
:102CA0000A0000260DF10A012046022200238DF8B9
:102CB0000B500096B8470746002FE8D1EAE700BF5F
:102CC0004572726F723A2057726974655F737461EE
:102CD00074757320726567697374657220666169C3
:102CE0006C65642E00000000EFF3108072B6704730
:102CF00062B670472DE9F04140F60048C4F2010881
:102D000015460F46069C40464FF4805100221E4651
:102D1000FDF7D4FD40F28800AAB2C2F200003946A5
:102D20004FF47A73FEF736FA054654B140F2880044
:102D3000A2B2C2F2000031464FF47A73FEF77AF97C
:102D4000054340464FF480510122002D18BF012554
:102D5000FDF7B4FDA800BDE8F0810000F0B581B03A
:102D6000C76B05460DF1030608E000BFA86B0028FD
:102D700018BF8047781E002F07460ED028463146E0
:102D8000FFF7F8FE044618B99DF80300C00704D009
:102D9000002FEBD104240020EDE71CB99DF80300BF
:102DA000C00702D002A0FFF769FE204601B0F0BDC7
:102DB0004572726F723A20466C6173682077616960
:102DC0007420627573792068617320616E2065726A
:102DD000726F722E000000000FB4054B10B503A9EE
:102DE000044A029800F0F4F810BC5DF814FB0000EF
:102DF000551D0008000000207CB50C001D4616463D
:102E0000014601D0601E00E00020CDE90010064B15
:102E10006A462946304600F0DBF8002C02D0009AC2
:102E2000002111707CBD0000FF36000802E008C8D8
:102E3000121F08C1002AFAD170477047002001E034
:102E400001C1121F002AFBD1704700002DE9FF5F6E
:102E500082B00021DDE90430020DDDF840B003430B
:102E600018D044F61050A2F2FF32424315141198C4
:102E700001281FD0A5EB0B00401C5FEA000A4FF0B1
:102E800000064E4FDFF83891B046504615D5CAF1CE
:102E9000000413E0119801244AA3012801D16FEA2C
:102EA0000B010298119AC0E90031C0E9024206B054
:102EB000BDE8F09FCBF10000DFE704460021404A67
:102EC000491842EB0450CDE9001012E0E00707D0AA
:102ED00032463B4640464946FDF736FA804689462B
:102EE00032463B4610461946FDF72EFA06460F4677
:102EF0006410002CEAD1DDE90401DDE90023BAF118
:102F0000000F06DAFDF720FA42464B46FDF71CFAA1
:102F100005E0FDF78BFA42464B46FDF787FA04467B
:102F20000E460022284BFDF709FB03D84FF0FF3077
:102F3000014607E00022254B20463146FDF75DF9AA
:102F4000FDF7E3FA102409E0002C0ADB0A22002333
:102F5000FDF722F9039B30321A55641E50EA010234
:102F6000F2D1641C039AC4F111031444119A012A8A
:102F700003D0012208430DD10AE0084304D0002009
:102F80004FF0110B119072E7A3EB0B056D1E0DE0D6
:102F90005B4504DD4FF0000205F1010504E003DAB2
:102FA0004FF00002A5F10105002AECD0029811991A
:102FB000C0E90231C0E9004579E700000000144093
:102FC0000000F03F300000000000F0430000E03F50
:102FD0002DE9FF4F95B09B468946064600250FE236
:102FE000252877D100242746F84A0121059400E0DE
:102FF000044316F8013F203B01FA03F01042F7D1D9
:1030000030782A2811D06FF02F033078A0F13002E9
:10301000092A16D8059A44F0020402EB820203EB57
:1030200042021044761C0590EFE759F8042B0592F4
:10303000002A03DA504244F40054059044F002049C
:10304000761C30782E2816D116F8010F44F00404AF
:103050002A280DD06FF02F023078A0F13003092B11
:1030600009D807EB870302EB4303C718761CF3E785
:1030700059F8047B761C30786C280FD006DC4C287D
:1030800017D068280DD06A2814D104E0742810D015
:103090007A280FD10DE044F400140AE044F48014BF
:1030A00001E044F440147278824202D104F58014A5
:1030B000761C761C307866280BD013DC582877D025
:1030C00009DC002875D04528F6D04628F4D04728DA
:1030D0001AD19DE118E0632835D0642879D065289D
:1030E00012D195E1702873D008DC6728F1D06928E7
:1030F0006FD06E280DD06F2806D1B5E073282CD084
:10310000752875D0782874D05A46179990476D1C49
:1031100075E1C4F30250022809D003280DD0D9F874
:10312000001004280DD00D6009F1040967E1D9F8F9
:103130000010EA17C1E90052F6E7D9F800100D8037
:10314000F2E70D70F0E719F8041B8DF8001000206D
:103150008DF80100EA46012003E059F804AB4FF076
:10316000FF3061074FF0000102D40DE008F10101CA
:103170008846B9420FDA8045F8DB1AF808100029B2
:10318000F4D108E008F1010188468142FADB1AF81F
:1031900008100029F6D105985B46A0EB08072146E8
:1031A0003846179A00F094FA284400EB080507E027
:1031B0004DE029E10DE01AF8010B5A4617999047A6
:1031C000B8F10108F7D25B4621463846179A13E159
:1031D00042E00A220092C4F302524FF0000A022A8F
:1031E00008D059F804CB032A4FEAEC710AD00DE05D
:1031F00029E02AE009F1070121F00702F2E802C103
:10320000914609E00FFA8CFC4FEAEC71042A03D1D5
:103210004FFA8CFC4FEAEC71002907DA0A460021CC
:10322000DCF1000C61EB02012D2202E0220504D545
:103230002B228DF80420012203E0E20701D0202296
:10324000F7E7904659E00A2102E010220DE0102134
:103250004FF0000A00910BE010224FF0000A44F0FA
:1032600004040827009203E008224FF0000A0092AD
:10327000C4F30252022A05D059F804CB0021032AD4
:1032800008D009E009F1070121F00702F2E802C1C4
:10329000914605E01FFA8CFC042A01D10CF0FF0CCA
:1032A0004FF00008220728D5702806D0009B83F035
:1032B000100353EA0A0305D00EE040228DF80420E3
:1032C000012208E05CEA010206D030228DF80420D9
:1032D0008DF8050002229046009B83F0080353EA14
:1032E0000A030AD15CEA010201D1620705D5302246
:1032F0008DF804204FF001087F1E582804D034A018
:1033000003900EA802900DE036A0F9E75346604600
:10331000009AFCF741FF84460398825C0298401EA5
:10332000029002705CEA0100F0D1029806A9081A26
:1033300000F1200A600702D524F4803400E0012760
:10334000574502DDA7EB0A0000E0002000EB0A0170
:10335000009005984144401A0590E00306D45B466E
:103360002146179A059800F0B3F90544002706E0B6
:1033700001A85A46C05D179990476D1C7F1C4745B0
:10338000F6DBE0030CD55B462146179A059800F062
:103390009FF9054404E030205A46179990476D1C68
:1033A0000099481E00900029F5DC08E00298029977
:1033B0005A460078491C0291179990476D1CBAF142
:1033C0000001AAF1010AF1DC65E100000928010011
:1033D000303132333435363738396162636465668B
:1033E000000000003031323334353637383941424D
:1033F000434445460000000000F058F90544761C9F
:10340000307800287FF4ECAD19B02846BDE8F08F85
:10341000620700D4062709F1070222F0070CFCE836
:103420000223E14603F000485FEA080C02D00FF2E5
:10343000702C0DE05FEA045C02D50FF2682C07E007
:103440005FEAC47C02D00FF2602C01E0AFF2700C96
:103450004FF0FF3823F00043CDF850C065280CD062
:1034600006DC452809D046281DD047283DD13DE03F
:10347000662818D067287ED138E00021112F01DBA3
:10348000112000E0781CCDE9000106A90EA8FFF785
:10349000DDFCDDE90F010E9A03910021009207F196
:1034A000010A04914DE04FF000400097CDE9011072
:1034B00006A90EA8FFF7CAFCDDE90F0203920E9BD6
:1034C00011990022DDF80CA00093049211B9791C27
:1034D00000EB010AB7EB0A0004D4C0F1FF3007F19A
:1034E000010A0490AAEB0700019044E0012F00DAE2
:1034F00001270021112F01DD112000E03846CDE920
:10350000000106A90EA8FFF7A1FCDDE90F010E9A44
:103510000391002104910092BA4621070CD403992B
:10352000514500DA8A46BAF1010F05DD009AAAF189
:103530000101515C302908D0B84202DA10F1040FC1
:1035400006DA0121CDE9011015E0AAF10101E9E750
:10355000002805DC049901440491AAEB000102E073
:10356000411C514500DD8A460499401A401C0190D7
:103570004FF000400290200704D40198504501DB31
:10358000CDF8048000208DF84F0002980DF14F0710
:10359000B0F1004F25D02B200E9002984FF002087A
:1035A00000280CDA404202902D200E9007E00A21FC
:1035B0000298FCF7DBFD3031029007F8011DB8F1ED
:1035C0000001A8F10108F2DC02980028EFD1791E71
:1035D0000E980870307800F0200040F0450007F8A1
:1035E000020D12A8C01B00F107081498007800B162
:1035F000012000EB0A01019801EBE07105984144BC
:10360000401A401E0590E00306D45B462146179AF7
:10361000059800F05DF805441498007818B15A46F2
:10362000179990476D1CE00324D55B462146179AF5
:10363000059800F04DF805441CE00498002807DBCD
:10364000DDE90301884203DD0098405C179901E041
:10365000179930205A469047049805F10105401CFF
:1036600004900198401E019004D12E205A461799CB
:1036700090476D1CBAF10001AAF1010ADDDC05E0FA
:1036800017F8010B5A46179990476D1CB8F10001C5
:10369000A8F10108F4DC5B462146179A0598ABE6D1
:1036A0002D0000002B000000200000002DE9F0415B
:1036B000044600251E461746880404D405E0394612
:1036C0002020B0476D1C641EF9D52846BDE8F08166
:1036D0002DE9F041044600251E469046C80301D559
:1036E000302700E02027880404D505E0414638460D
:1036F000B0476D1C641EF9D52846BDE8F0814A68C4
:10370000002A06D00A68531C0B6010704868401EDF
:103710004860704710B5044601E0FEF71BFB14F843
:10372000010B04490028F8D1BDE810400A20FEF73B
:1037300011BB00000000002000000000000000009D
:103740000102030406070809000000000102030447
:10375000F83A000801000000003B000804000000E7
:10376000A73A00081C000000D93A00081F0000001A
:10377000EB3A000820000000953A000837000000EE
:10378000F23A000862000000DF3A000889000000F9
:10379000AB3A00088C000000E53A0008A1000000E8
:1037A000D13A0008AD000000B03A0008BF000000A8
:1037B000C63A0008C80000009A3A0008D500000088
:1037C000BE3A0008EF000000083B0008C2000000FD
:1037D0009F3A000852000000903A0008850000005F
:1037E0005265616420616E6420636865636B207755
:1037F0007269746520646174612068617320616E10
:10380000206572726F722E20577269746520746819
:103810006520257320666C61736820646174612083
:103820006661696C65642E0D0A0054686520257315
:1038300020666C61736820746573742069732073EB
:103840007563636573732E0D0A004572617365209D
:1038500074686520257320666C61736820646174E8
:10386000612066696E6973682E20537461727420DA
:1038700066726F6D203078253038582C2073697A45
:103880006520697320257A752E0D0A0057726974B8
:10389000652074686520257320666C6173682064F8
:1038A0006174612066696E6973682E205374617259
:1038B000742066726F6D203078253038582C207354
:1038C000697A6520697320257A752E0D0A00526584
:1038D00061642074686520257320666C61736820BC
:1038E0006461746120737563636573732E20537410
:1038F0006172742066726F6D203078253038582CD4
:103900002073697A6520697320257A752E205468A2
:103910006520646174612069733A0D0A000D0A2DF7
:103920002D2D2D2D2D2D2D2D2D2D2D2D2D2D2D2DC7
:103930002D2D2D2D2D2D2D2D2D2D2D2D2D2D2D2DB7
:103940002D2D2D2D2D2D2D2D2D2D2D2D2D2D2D2DA7
:103950002D2D2D2D2D2D2D2D2D2D2D2D2D2D2D2D97
:103960002D2D2D2D2D2D2D2D2D2D2D0D004F666640
:10397000736574202868292030302030312030329F
:10398000203033203034203035203036203037207E
:103990003038203039203041203042203043203030
:1039A000442030452030460D004572726F723A2037
:1039B000257320666C617368206465766963652091
:1039C000696E697469616C697A6174696F6E206689
:1039D00061696C65642E005761726E696E673A208A
:1039E0005468697320666C617368206465766963E6
:1039F00065206973206E6F7420666F756E64206F2A
:103A000072206E6F7420737570706F727465642E9F
:103A1000004572726F723A20466C6173682061646F
:103A20006472657373206973206F7574206F6620EC
:103A3000626F756E642E004572726F723A20466C2A
:103A40006173682077726974652053504920636FF1
:103A50006D6D756E6963617465206572726F722E2B
:103A600000257320666C6173682064657669636500
:103A700020696E697469616C697A65642073756325
:103A80006365737366756C6C792E00535049320010
:103A90005055594100414D49430049535349004E47
:103AA0004F522D4D454D00454F4E0045534D54004E
:103AB000535354005732355131323842560057690A
:103AC0006E626F6E6400476967614465766963651D
:103AD000004879756E6461690041746D656C0049D8
:103AE0006E74656C00467564616E004D6963726F3B
:103AF0006E0053616E796F00437970726573730065
:103B000046756A69747375004D6163726F6E69788A
:103B1000005761726E696E673A2052656164205386
:103B200046445020706172616D65746572206865ED
:103B30006164657220696E666F726D6174696F6E23
:103B4000206661696C65642E2054686520257320A9
:103B5000646F6573206E6F7420737570706F72740C
:103B6000204A4544454320534644502E0045727236
:103B70006F723A2054686520666C617368206361D7
:103B8000706163697479206973206772617465720A
:103B9000207468616E2033322047622F2034204722
:103BA0004221204E6F7420537570706F727465647B
:103BB0002E004572726F723A2054686973207265E4
:103BC00076657273696F6E285625642E25642920E8
:103BD0006F66204A454445432062617369632066ED
:103BE0006C61736820706172616D657465722068C4
:103BF0006561646572206973206E6F7420737570DF
:103C0000706F727465642E004572726F723A205440
:103C10006865204A454445432062617369632066B4
:103C20006C61736820706172616D65746572207477
:103C300061626C65206C656E67746820286E6F77B2
:103C400020697320256429206572726F722E0045E9
:103C500072726F723A20556E69666F726D203420F1
:103C60004B4220657261736520737570706F72745A
:103C7000656420696E666F726D6174696F6E206530
:103C800072726F722E000000A83C00080000002035
:103C9000880000002C2E0008303D0008880000201D
:103CA000B00A00003C2E00080000000000127A005C
:103CB000B43A00080000000000000000000000000E
:103CC00000000000000000000000000000000000F4
:103CD0008B3A000800000000000000000000000017
:103CE00000000000000000000000000000000000D4
:103CF00000000000000000000000000000000000C4
:103D000000000000000000000000000000000000B3
:103D100000000000000000000000000000000000A3
:103D20000000000001000000100000000000000082
:04000005080000ED02
:00000001FF
