:020000040800F2
:10000000E891012059030008273200081F32000838
:1000100023320008251E00086D360008000000008D
:10002000000000000000000000000000990200082D
:10003000291E000800000000F5020008293200080F
:100040007D0300087D0300087D0300087D03000890
:100050007D0300087D0300087D0300087D03000880
:100060007D0300087D0300087D0300087D03000870
:100070007D0300087D0300087D0300087D03000860
:100080007D0300087D0300087D0300087D03000850
:100090007D0300087D0300087D0300087D03000840
:1000A0007D0300087D0300087D0300087D03000830
:1000B0007D0300087D0300087D0300087D03000820
:1000C0007D0300087D0300087D0300087D03000810
:1000D0007D0300085D3600087D0300087D030008ED
:1000E0007D0300087D0300087D0300087D030008F0
:1000F0007D0300087D0300087D0300087D030008E0
:100100007D0300087D0300087D0300087D030008CF
:100110007D0300087D030008513200087D030008BC
:100120007D0300087D0300087D0300087D030008AF
:100130007D0300087D0300087D0300087D0300089F
:100140007D0300087D0300087D0300087D0300088F
:100150007D0300087D0300087D0300087D0300087F
:100160007D0300087D0300087D0300087D0300086F
:100170007D0300087D0300087D03000800000000E7
:100180007D0300087D03000800F002F800F075F818
:100190000AA090E8000C82448344AAF10107DA45E2
:1001A00001D100F06AF8AFF2090EBAE80F0013F0BF
:1001B000010F18BFFB1A43F001031847181F040072
:1001C000381F04000A444FF0000C10F8013B13F0F4
:1001D000070408BF10F8014B1D1108BF10F8015BA0
:1001E000641E05D010F8016B641E01F8016BF9D193
:1001F00013F0080F1EBF10F8014BAD1C0C1B09D1EA
:100200006D1E58BF01F801CBFAD505E014F8016B5B
:1002100001F8016B6D1EF9D59142D6D370470000ED
:100220000023002400250026103A28BF78C1FBD8FF
:10023000520728BF30C148BF0B607047642900F0E7
:100240007381782900F0AC81732900F014840020B8
:1002500070471FB53AF008FB00F060FF0400002073
:10026000002139F0A3FC401C60600020002139F01F
:1002700087FCE0601FBD10B510BD00F09BFC11466F
:10028000FFF7E7FF31F05AF900F03EFF03B4FFF744
:10029000F2FF03BC06F046FB2C4B19680868B0E877
:1002A000F04F80F30988BFF36F8F4FF0000080F3A9
:1002B000118870470000000008480068006880F35B
:1002C00008884FF0000080F3148862B661B6BFF36F
:1002D0004F8FBFF36F8F00DF00BF00BF08ED00E05E
:1002E000DFF80C00016841F470010160704700BF45
:1002F00088ED00E0EFF30980BFF36F8F134B1A68AE
:100300001EF0100F08BF20ED108A20E9F04F10609A
:1003100009B44FF0500080F31188BFF34F8FBFF343
:100320006F8F38F081FC4FF0000080F3118809BC1A
:1003300019680868B0E8F04F1EF0100F08BFB0EC65
:10034000108A80F30988BFF36F8F7047A0000020E8
:10035000EFF30580704700000C48016841F470011C
:1003600001600B4880470B480047FEE7FEE7FEE7C9
:10037000FEE7FEE7FEE7FEE7FEE7FEE7FEE700003A
:1003800005480649044A064B7047000088ED00E026
:100390003D32000889010008E8810120E891012030
:1003A000E8810120704753EA020C00F069802DE9D2
:1003B000F04B4FF00006002B1FBFB3FA83F503FA92
:1003C00005F424FA05F65E4012BF1643B2FA82F530
:1003D00002FA05F4C5F120051EBF22FA05FC44EA25
:1003E0000C04203556EA044C4FEA144418BF641C30
:1003F0004FF000084FF00009904271EB030C39D325
:10040000002919BFB1FA81F701FA07F6B0FA80F7AF
:1004100000FA07F6C7F120071EBF20FA07FC46EADC
:100420000C062037B6FBF4FCA7EB0507103F07F0DE
:100430001F0BCBF120060CFA0BFB2CFA06F644BF7F
:10044000B3460026202FA4BF5E464FF0000B5BEAA8
:10045000060C08BF4FF0010B19EB0B09ABFB027C3C
:1004600048EB0608C01B06FB02CC0BFB03CC71EB70
:100470000C01C1E70B46024641464846BDE8F08BF9
:1004800013B54FF000004FF00001AFF30080BDE85E
:100490001C4070470FB4044910B503AA029800F03D
:1004A000EFFA10BC5DF814FB140000200FB41CB56B
:1004B000074B06AA7B4469460090059800F0B1FA04
:1004C0000020694600F0C0FA1CBC5DF814FB000077
:1004D0009105000070B50C460546012A05D0287824
:1004E000800600D5EA69002302E0012305E05B1CD9
:1004F000934202D2E05C0028F9D1A869E618C01A3C
:10050000A861286A184428622846AFF3008004E0F6
:10051000D5E9012114F8010B9047B442F8D32846DD
:10052000AFF3008070BD00002DE9F04106460024C5
:1005300010687529314616A510D0AFF30080002849
:1005400002DA404213A507E031688A0701D512A5F7
:1005500002E0490704D511A5012401E0AFF30080B2
:1005600000210A2206F1240709E0B0FBF2FCB0FBEF
:10057000F2F302FB1C00303078541846491C002866
:10058000F3D123462A463046BDE8F04100F0EBB9EE
:10059000000000002D0000002B00000020000000E3
:1005A00070B504460D4621461068AFF300802188DF
:1005B000090502D50F4A7A4402E00E4A7A440E3207
:1005C000002104F1240305E000F00F060009965D08
:1005D0005E54491C0028F7D120780023000704D579
:1005E000702D02D009B1022311322046BDE87040BF
:1005F00000F0B9B9FE1404002DE9F0410F4605469C
:10060000002028622846E968884770B3252805D06D
:10061000D5E901219047286A401CF2E7E96828469D
:10062000002688476C2804460AD0682C08D04C2C39
:1006300035D06A2C31D0742C31D07A2C2FD016E0E2
:10064000E968064628468847B042044608D16C2E21
:1006500023D04FF480662846E9688847044606E0C0
:100660006C2E03D04FF4807601E01EE04026E4B10A
:10067000A4F14100192802D8203446F400663A4615
:10068000214628462E60FFF7D9FD60B1012808D029
:10069000FF1D27F007070837B4E78026DBE70026B1
:1006A000D9E73F1DAEE72046B2E7286ABDE8F081F2
:1006B00040EA0103024630B59B0710D14FF00134E8
:1006C00000E008C208C91D1B9D4315EAC41FF8D0ED
:1006D00013F0FF0102F8011B0DD01B0AF8E711F817
:1006E000013B002B02F8013B05D011F8013B002B28
:1006F00002F8013BF3D130BD10B5431C02E010F805
:10070000011B71B18107FAD14FF0013202C88C1A76
:100710008C4314EAC211F9D0C01A0A0603D0C01ED5
:1007200010BDC01A10BD0A0401D0801E10BD090200
:10073000FCD0401E10BD032A40F2308010F0030CA4
:1007400000F0158011F8013BBCF1020F624498BF24
:1007500011F801CB00F8013B38BF11F8013BA2F1C1
:10076000040298BF00F801CB38BF00F8013B11F03C
:10077000030300F02580083AC0F0088051F8043BDC
:10078000083A51F804CBA0E80810F5E7121D5CBF49
:1007900051F8043B40F8043BAFF30080D20724BF7C
:1007A00011F8013B11F801CB48BF11F8012B24BF10
:1007B00000F8013B00F801CB48BF00F8012B70475F
:1007C00010B5203AC0F00B80B1E81850203AA0E8EC
:1007D0001850B1E81850A0E81850BFF4F5AF5FEA20
:1007E000027C24BFB1E81850A0E8185044BF18C9D3
:1007F00018C0BDE810405FEA827C24BF51F8043B7A
:1008000040F8043B08BF7047D20728BF31F8023BCD
:1008100048BF11F8012B28BF20F8023B48BF00F861
:10082000012B704702F0FF0343EA032242EA02422F
:1008300000F002B84FF000020429C0F0128010F05E
:10084000030C00F01B80CCF1040CBCF1020F18BFAC
:1008500000F8012BA8BF20F8022BA1EB0C0100F03F
:100860000DB85FEAC17C24BF00F8012B00F8012B12
:1008700048BF00F8012B70474FF0000200B5134647
:1008800094469646203922BFA0E80C50A0E80C50B0
:10089000B1F12001BFF4F7AF090728BFA0E80C5061
:1008A00048BF0CC05DF804EB890028BF40F8042B5A
:1008B00008BF704748BF20F8022B11F0804F18BFC7
:1008C00000F8012B704700004FF0013C50F8042B5A
:1008D00051F8043B9A4221D1A2EB0C03934313EA53
:1008E000CC1317D150F8042B51F8043B9A4215D180
:1008F000A2EB0C03934313EACC130BD150F8042B57
:1009000051F8043B9A4209D1A2EB0C03934313EA3A
:10091000CC13DBD04FF00000704700BFD01A01BAF3
:10092000B1FA81F101F0180122FA01F0CB40C1F1D6
:100930002001DBB2C0B2C01A2CFA01F3D11A9143E4
:1009400011EAC311E6D1704770477047704770478E
:1009500010B500F0F9F8006810BD10B5044600F0BD
:10096000F3F8046010BD2DE9F0470D469946924614
:10097000044600F124080168880604D5E06921F0E6
:100980001001216000E00120A84201DD471B00E0CA
:100990000027A1697A1902EB0900081AA0612078E2
:1009A000C00602D42046AFF30080002608E0D4E958
:1009B00001211AF806009047206A401C761C20622C
:1009C0004E45F4DB2078C0060AD52046AFF3008000
:1009D00006E0D4E9012130209047206A401C2062C3
:1009E000381EA7F10107F4DC07E0D4E9012118F86B
:1009F00005009047206A401C2062281EA5F10105D1
:100A0000F3DC2046AFF300802078000602D50220F8
:100A1000BDE8F0870120FBE701694A1C0261087804
:100A2000704700B58FB0CDE901310021059105492E
:100A30007944CDE9031011466846FFF7DDFD0FB09C
:100A400000BD0000E5FFFFFF0A6802F8010B0A6025
:100A5000704710B5436913B1AFF3008001E0FFF7B1
:100A600039FD012010BD127800F124010A70002226
:100A70004A700122EDE711684FF0FF32E9E700000C
:100A8000074B70B50D467B44FFF7CBFF0446284665
:100A900000F087F810B14FF0FF3070BD204670BDF8
:100AA000772301000FB4002300B589B00CA9009191
:100AB0000B99CB60214B7B440693214B7B440793DE
:100AC00004236FF00042CDE901321E4A7A446B469E
:100AD00008920246002039F034FF09B05DF814FB9B
:100AE00070B506464FF0FF3015460C46324686B0CC
:100AF0000091CDE9010169460020049004A8FFF7A8
:100B0000D1FF02460498211825B108B1084600E03B
:100B100020462860049800280DD0002A02DD0098A5
:100B2000884208D03246081B69460094CDE901048A
:100B300004A8FFF7B7FF06B070BD0000A9000000D1
:100B4000C10000008100000000487047888101203A
:100B500010B5044600F054F80068005D00F0010094
:100B600010BD426842B1016811F8013B23B1521E29
:100B7000C0E90012184670470121C160881E704705
:100B800042685AB1C368016843B983688B4205D093
:100B9000491E521CC0E90012002070474FF0FF3080
:100BA0007047007B00F080007047000000487047ED
:100BB000888101207546FFF7F9FFAE4605006946BA
:100BC000534620F00700854618B020B5FFF7D8FB44
:100BD000BDE820404FF000064FF000074FF000083E
:100BE0004FF0000B21F00701AC46ACE8C009ACE8BF
:100BF000C009ACE8C009ACE8C0098D4670470000E8
:100C000010B500F08BFA001D10BD00BFA18F0300CE
:100C10002DE9FF4F06468BB00878FF2806D0491C07
:100C20002D2805D000244FF0000908E000200CE03A
:100C30000124F8E709EB8903491C00EB4309087814
:100C4000FF28F7D114B1C9F10000814610780025C2
:100C50002C46AA4629462D2801D02B2804D1521C07
:100C60002D2813D0002082468B461078FF280FD005
:100C70004FF0000C0A21521CA5FB017804FB0181F6
:100C800005FB0C11C5194BEB0104EEE70120EAE767
:100C9000002108464FF00000BAF1000F02D000EB2F
:100CA00080004008C0F38157012F01DD4FF0FF376E
:100CB0000E9955EA040009EB01080BD04FF0020928
:100CC00018F5FA7F16DA4FEACA70002F706008DD57
:100CD000012007E04FEACA70C6E900B00FB0BDE8D6
:100CE000F08F00203060FFF72FFFC0F80090182130
:100CF000084616E0B8F5FA7F18DD002F02DAF7484B
:100D0000784401E0F6487844D0E90010C6E90010C4
:100D100040EACA707060FFF717FFC0F80090142116
:100D200008460FB0BDE8F04F39F0A8BD00210846D5
:100D30004FF00000B8F10001099002DAC7F100029B
:100D400000E03A4601DAC8F1000106A800F0EAF92D
:100D500006AB93E8070003AB83E8070044F23E00CC
:100D60005BEA04010090584604D144F21E012C466F
:100D70005D460091210C0904014306D10099240429
:100D800044EA15442D041039009104F07F410143D9
:100D900006D10099240244EA15642D020839009115
:100DA00004F07041014306D10099240144EA15740E
:100DB0002D01091F009104F04041014306D1009923
:100DC000A40044EA9574AD00891E009104F000412E
:100DD000084304D100986D196441401E00904FF003
:100DE00001033A466846B8F1000FCDE9014503A971
:100DF00002DD00F0E0FE01E000F0B3FEBAF1000F0A
:100E000004460D4601D084F00044002108464FF00E
:100E10000000099940F2FF77484010F00C0F07D10D
:100E200024F00040284303D0C4F30A50B84212D142
:100E3000FFF78AFEC0F80090C4F30A50B8420AD106
:100E4000A8487844D0E90010C6E9001004F0004139
:100E50000843706042E7C6E900543FE72DE9FF4FC1
:100E60001F464FF0000A4FF0FF38454691B0D7E9D2
:100E70000146CDF83CA000F051F9C0680168405C23
:100E80001090B96912986D1C8847396A8146884765
:100E90000028F6D1B9F1FF3F0AD0002E24F4D06427
:100EA00011DDB9F12B0F08D0B9F12D0F0BD102E0F4
:100EB000404615B013E744F48064B96912986D1C7C
:100EC0008847761E8146600504A901D52D2000E0E3
:100ED0002B20002E01F1010B0DF130088DF81000D0
:100EE0003FDDB9F1690F08D0B9F1490F05D0B9F16B
:100EF0006E0F02D0B9F14E0F1CD13B4601A80095F0
:100F000080E85002DDE912126FF0020039F01DFD99
:100F1000C11CCED10EE0B96912986D1C884781467C
:100F20001398761E44F4007405600F98401C002E40
:100F30000F9016DDB9F1300FEDD0B9F1780F02D076
:100F4000B9F1580F0DD10F9801280AD13B46CDE9D0
:100F50000054DDE91212001F029639F0F4FCC11CA6
:100F6000A7D1109989453ED144F0800406E0139939
:100F7000681CAAF1010A44F400740860B9696D1C88
:100F80001298761E884730288146F0D02BE01099C1
:100F9000894505D1200603D4761E44F0800418E06C
:100FA000484603F0C2FB08B3761E0DF123018B45C2
:100FB00044F4007408D2A9F130000BF8010B2006AC
:100FC00007D5AAF1010003E0200602D40AF10100CE
:100FD0008246A00502D51399681C0860B969129869
:100FE0006D1C88478146002ED1DC53E0002E51DD78
:100FF000B9F1650F02D0B9F1450F4BD1A00549D524
:10100000B9696D1C1298761E24F440748847002E2E
:1010100081460CDD2B2804D0B9F12D0F07D144F403
:101020008074B96912986D1C8847761E8146E00568
:1010300001D52D2100E02B2108F8011BCDF80080FF
:1010400021E0761E0DF13901884544F400740CD27C
:10105000A9F1300010F0FF0088F8000002D10099DB
:10106000884509D908F1010806E0E00501D51E48C8
:1010700001E042F20F708246B96912986D1C8847F0
:10108000814613980560002E04DD484603F04DFBB1
:101090000028D6D1F96912988847FF2053468BF86B
:1010A000000088F8000000200A900B9004AA0CA908
:1010B0000AA8FFF7ADFDA00502D46FF00100F8E625
:1010C00014F0240F12D0E0071CD13868DDE90A12B1
:1010D000031D3B600068C0E9001213E0F813040030
:1010E000EA130400AE120400F1D8FFFF0AA9684613
:1010F00003F0EAFAE00705D13868009A011D39606B
:10110000006802602846D4E610B50446AFF30080BC
:101110002046BDE81040FFF7B9B80000004870470E
:10112000A88101202DE9F047814616468AB035484E
:1011300078440DC88DE80D0032487844801C03AC1B
:101140000DC884E80D0041F69B300844372190FB20
:10115000F1F290FBF1F5A5F1800501FB12041B3CB7
:1011600002D56442012000E00020DFF898A080460C
:101170000027FA44AAF1BE0A0EE0E0070AD0324680
:10118000684607EB470101230AEB810100F0FEFCF2
:101190008DE8070064107F1C002CEED1194F7F44AE
:1011A000AE3F19E0E80715D007EB04100DF1180A5F
:1011B00090E80E008AE80E00C068F04201D198194C
:1011C00008903246012306A903A800F0DFFC03AB18
:1011D00083E807006D10641C002DE3D14FF001037C
:1011E00032466946B8F1000F03A802D000F0A4FC13
:1011F00001E000F0CBFCC9E90001C9F808200AB001
:10120000BDE8F087B80A04002DE9FF4F1F464FF0F4
:101210003C0987B04FF00042DDE9141001F10108EC
:10122000DDF858A002EA4050039000200590834664
:10123000054604460490B969461E08988847AAF1F5
:10124000010A0290BAF1000F3BDD02982E2815D05A
:10125000102100F016FA00282EDB4FF0010B059943
:10126000014317D0B9F1000F0BDB4A46C11700F05C
:10127000F5F905430C43A9F1040905E001200490A8
:101280000BE008B145F0010501200590049820B954
:10129000361D02E0049800B1361FB969089808F1BC
:1012A00001088847BBF1000FAAF1010A0290C9D0DA
:1012B0000999C1F80080C5E70298702808D0502825
:1012C00006D0F96908988847BBF1000F14D04FE0A9
:1012D000002002900120BBF1000F049009D0B969F1
:1012E000089808F101088847AAF10109B9F1000F2F
:1012F00007DCF969089888476FF001000BB0BDE87A
:10130000F08F2B2804D02D280CD14FF0FF30049003
:10131000B969089808F101088847A9F10109B9F1EC
:10132000000FE6DD411CE4D00A2100F0AAF90028F4
:10133000DFDB029908F1010801EB810100EB4100BC
:101340000290B969089888470A2100F09AF9099A29
:10135000A9F10109B9F1000FC2F8008001DD0028F0
:10136000E7DAF969089888470499029800FB016652
:1013700055EA040004D004F04041090002D006E020
:10138000039898E0A40044EA9574AD00B61E04F0FA
:101390000041080002D16D196441761E159810F0C5
:1013A000240F03D04FF00B095C4803E04FF02809ED
:1013B0006FF07D008246564507DAAAEB06018944A4
:1013C000B9F1410F01DD4FF0410901200021A9F1E0
:1013D000010200F043F9024628400B462140084331
:1013E00001D0012100E00021501E029143F1FF31A4
:1013F00028402140084301D0012000E0002002994C
:10140000834651EA0B014FD0002108464FF00000FF
:10141000039900F4400039B100EB80004FF4400123
:1014200000EBD07001EA60008015012802DD4FF06A
:10143000FF3000E013D0401C36D0029860B3BBF1FF
:10144000000F0CD14A460120002100F007F9284086
:101450002140084301D0012000E00020E0B101203C
:101460004A46002100F0FAF8034640190A46614155
:101470002D1A8C4111D3B9F1400F09DD159810F0E8
:10148000240F02D0AAF1340603E0AAF1170600E007
:10149000761C00254FF0004406E05B1E42F1FF324F
:1014A00020EA030521EA0204CAF10100B04206DA8B
:1014B0001B49039808430190002000900EE0039A16
:1014C000C4F3D321E80A0A43164940EA44500A43C8
:1014D0003146CDE90002684603F0FFF8159810F098
:1014E000240F0BD01598C00715D13868DDE900121C
:1014F000031D3B600068C0E900120CE002A86946C9
:1015000003F0E2F81598C00705D13868029A011D6A
:101510003960006802604046F0E6000002FCFFFF10
:101520000000F07F0000F03F2DE9FF4F92461D467E
:1015300085B04FF00041DDE9124BDDE914727F1EEA
:1015400001EA4B50414940F0FF4940EA01080021BF
:1015500022F020004928049102D04E2828D04CE0E7
:101560003BA0012607C88DE80700A9690698641CFE
:1015700088477F1E014606D41DF8060018B121F0E9
:10158000200181420BD0E96906988847032E34D0A8
:10159000082E32D06FF0010009B0BDE8F08F761C44
:1015A000032E01D0082EE0D1601CCAF80000DCE751
:1015B000A9690698641C88477F1E2AD420F0200061
:1015C000412826D1A9690698641C88477F1E20D42B
:1015D00020F020004E281CD1A9690698641C884779
:1015E0007F1E48F4002849F48009CAF8004001D45D
:1015F000282806D0E969069888475FEACB7012D0A0
:1016000022E0A9690698641C88477F1E01D400283F
:1016100003DAE96906988847BCE72928F1D1641CF8
:10162000CAF80040E9E71BF0240F07D028680499A6
:10163000031D2B600068C0E9001805E02868021D42
:101640002A600068C0F800902046A5E70000F07FFF
:10165000494E46494E49545900000000B2F120035A
:101660000AD5C2F1200301FA02F120FA03F300FACD
:1016700002F041EA0301704700FA03F14FF0000065
:1016800070473A2800D2303820F02002412A01D396
:10169000A2F13700884201D34FF0FF30704720F0AD
:1016A0007F4C80EA030023F07F47ACEB070303F590
:1016B0007C5300F0004003F1FF032DE980494FEA1D
:1016C000154B09B44FEA144325EA0B4E24EA0348AC
:1016D0000FF2042606EB132749083E785FEA320230
:1016E00003FB0667C7F5000707FB06F64FEA54370A
:1016F0004FEAD64606F1020607FB066CCCF1005C09
:101700004FEA1C472CEA074C07FB06F40CFB06F5D6
:1017100004EB15464FEA961634BF00204FF0004008
:101720004FEAD13706FB07FC4FEA1C4C0CFB0BF7CA
:10173000D21B03FB0CF761EB07010CFB0EF7B0EBC0
:10174000074072EB17420CFB08F734BFA2EB0742CD
:10175000B2EB074261EB17414FEA0C444FEA9107A5
:1017600006FB07FC4FEA1C4C0CFB0BF7B0EBC74029
:1017700072EB573203FB0CF734BFA2EBC742B2EB5C
:10178000C74261EB57310CFB0EF7B0EBC70072EBB1
:1017900057720CFB08F734BFA2EBC702B2EBC702CB
:1017A00061EB5771039F4FEA816141EA921104EBAB
:1017B000CC044FEAD1374FEA826206FB07FC42EACB
:1017C00090124FEA80604FEA1C4C0CFB0BF7D21BC7
:1017D00003FB0CF761EB07010CFB0EF7B0EB0740C6
:1017E00072EB17420CFB08F734BFA2EB0742B2EBD7
:1017F000074261EB17414FEA8C554FEA910704EB22
:101800009C2406FB07FC4FEA1C4C0CFB0BF7B0EBCF
:10181000C74072EB573203FB0CF734BFA2EBC74251
:10182000B2EBC74261EB57310CFB0EF7B0EBC700D0
:1018300072EB57720CFB08F734BFA2EBC702B2EB96
:10184000C70261EB577115EB4C254FEA816141EA04
:1018500092114FEA82624FEAD13742EA901206FBB8
:1018600007FC44F100044FEA80604FEA1C4C0CFB7B
:101870000BF7D21B03FB0CF761EB07010CFB0EF718
:10188000B0EB074072EB17420CFB08F734BFA2EB3A
:101890000742B2EB074261EB174115EB1C154FEA0B
:1018A000813141EA92414FEA823242EA90424FEA64
:1018B00080304FEA0C7644F1000448EA03434EEAD4
:1018C0000B484FF0000EB2EB080C71EB030724BF7E
:1018D000624639464EEB0E0E4FF0000B0018524197
:1018E00049414BEB0B0BB2EB080C71EB03077BF19F
:1018F000000B24BF624639464EEB0E0E4FF0000B34
:101900000018524149414BEB0B0BB2EB080C71EB49
:1019100003077BF1000B24BF624639464EEB0E0EE7
:1019200051EA020718BF46F0010616EB0E7655F194
:10193000000254F1000103D5BDE88901BDE800882B
:10194000BDE88901BDE80048B619524141EB0101EB
:10195000A3F10103704780807F7E7D7C7B7A79785C
:10196000777676757473727171706F6E6E6D6C6C64
:101970006B6A6A6968686766666564646363626106
:101980006160605F5F5E5E5D5D5C5C5B5B5A5A5987
:1019900059585857575656555555545453535252F3
:1019A0005251515050504F4F4F4E4E4D4D4D4C4C4B
:1019B0004C4B4B4B4A4A4A49494948484847474794
:1019C00047464646454545444444444343434342D1
:1019D000424242414141000046EA0646A3F57053A7
:1019E0004FEA164646EA42564FEAD22242EA4152AE
:1019F00010B54FEAD121A3F1010300F02FF820F038
:101A0000004000F1020C00F0004701EB00501146CD
:101A1000BCF5006F40EA070000D210BDBAF1000F1C
:101A20000AD01CB503B44FF004004FF004014FF08E
:101A300000000FBCBDE810404FF00001BBF1010FEA
:101A4000B9BF04484FF0FF310348002140EA0700C6
:101A500010BD00BFFFFFEF7F0000F07F002B9C4612
:101A600030D477002BD01CB54FEA370703B44FF0C2
:101A700010004FF01001BAF1000F06D0BCF1000FBA
:101A8000DCBF40F0080040F008014FF000000FBC40
:101A9000BDE810400BF1010BBBF1010F08BF5FEA7D
:101AA000170722BF12F1010211F101014FF00041AD
:101AB00043F1000300F0004043EA00007047F9D30F
:101AC0005708D0E746EA064613F1400F4FEA16469C
:101AD0001FDD13F1200FDFBF16430A46002120331C
:101AE0005B42BED0C3F1200746EA064602FA07F77A
:101AF0004FEA164646EA0706C3F1200722FA03F228
:101B000001FA07F721FA03F14FF0000342EA070256
:101B1000A7E746EA020646EA06464FEA164646EABE
:101B20000106BCBF46EA0646360C4FF000034FF0F4
:101B300000024FF0000194E72DE9804C9A4693464D
:101B400070B491E8380007C831EA400C48BF34EA65
:101B5000430C03D5FFF7A3FDFFF780FFF0BCBDE802
:101B6000008C2DE9804C9A46934670B491E8380079
:101B700007C831EA400C48BF34EA430C03D5FFF7ED
:101B80008EFDFFF729FFF0BCBDE8008C2DE9804CED
:101B90009A46934670B491E8380007C810F0804F19
:101BA00008BF13F0804F03D100F01AF8FFF756FF7B
:101BB000F0BCBDE8008C2DE9804C9A46934670B489
:101BC00091E8380007C810F0804F08BF13F0804F2D
:101BD00003D100F005F8FFF7FFFEF0BCBDE8008C74
:101BE00020F07F4780EA030023F07F4C07EB0C03D3
:101BF000A3F57C5300F00040A3F1FE0392F0000F28
:101C000000F0B38095F0000F00F077802DE90149D6
:101C10004FEA11404FEA144621EA004800FB06FC57
:101C200024EA064708FB06F607FB08F800FB07F75F
:101C300018EB06484CEB164C4FEA124B18EB0748D2
:101C40004FEA15464CEB174022EA0B4E0BFB06FC05
:101C500025EA06470EFB06F607FB0EFE0BFB07F711
:101C60001EEB064E4CEB164C4FF000061EEB074EDB
:101C70004CEB174B18EB0B0840F1000018EB0E0B68
:101C800058EB000840F100008F1A4FF000013CBFF4
:101C9000C943661B14BFB5EB040C00213CBFC9430C
:101CA000F61B4FEA17444EEA8E0E27EA04454FEA28
:101CB0001C4704FB07622CEA074C05FB07F70CFBEB
:101CC00005F604FB0CFC16EB074642EB174216EB3D
:101CD0000C4642EB1C421BEB060658EB020241414C
:101CE00046EA9E0601D5BDE80189B619524141EB8D
:101CF0000101A3F10103BDE801894FEA14454FEA50
:101D0000114724EA054621EA074C05FB07F406FBC8
:101D100007F70CFB06F105FB0CFC11EB074144EB4C
:101D200017444FEA124711EB0C4144EB1C4422EAE2
:101D3000074C05FB07F206FB07F70CFB06F605FB55
:101D40000CFC16EB074642EB174216EB0C4642EB37
:101D50001C456A1854F1000148BF7047B61952413A
:101D600041EB0101A3F10103704795F0000F37D05B
:101D70004FEA11424FEA144721EA024624EA074C8F
:101D800002FB07F106FB07F70CFB06F402FB0CFC59
:101D900014EB074441EB17414FEA154714EB0C4491
:101DA00041EB1C4125EA074C02FB07F506FB07F750
:101DB0000CFB06F602FB0CFC16EB074645EB174541
:101DC00016EB0C4645EB1C42121951F1000148BFBD
:101DD0007047B619524141EB0101A3F1010370476D
:101DE0004FEA14454FEA114724EA054621EA074C19
:101DF00005FB07F106FB07F70CFB06F24FF00006A8
:101E000005FB0CFC12EB074241EB174112EB0C42B5
:101E100051EB1C4148BF7047921841EB0101A3F1FF
:101E20000103704700BFFEE77047000070B504462D
:101E30001D460023B5F5804F13D154F822300C48CD
:101E40000340D1E9000640EA06108E6840EA062009
:101E50008E8940EA06408E693043034344F82230BD
:101E600003E06FF0704044F82200002070BD0000D5
:101E70000000F0CF10B503460022086853F8202078
:101E800012480240D1E901042043CC6820430C6988
:101E900020434C6920438C692043CC6920430C6A61
:101EA00020434C6A20438C6A2043CC6A2043CC6B8D
:101EB00020430C6B204302438868082801D142F07C
:101EC0004002086843F82020002010BD8000F0FF89
:101ED00030B503460024501C53F8204004F0404421
:101EE000D1E9000540EA05108D6840EA05208D899A
:101EF00040EA0545088A401E45EA0055087D801ED7
:101F000045EA00608D6928430443501C43F8204093
:101F1000002030BD70B50446A56D00F085F9064679
:101F200094F83500022808D08020606500BF0020AA
:101F300084F8340000BF012070BD2068006820F0E4
:101F40001600216808602068406920F08000216840
:101F50004861206C08B9A06C28B12068006820F0A6
:101F60000800216808602068006820F001002168EE
:101F700008600FE000F058F9801B05280AD92020DE
:101F8000606500BF002084F8340000BF032084F89F
:101F90003500D1E72068006800F001000028E9D191
:101FA00094F85C103F208840A86000BF002084F8AF
:101FB000340000BF012084F835000020BCE7014652
:101FC00091F83500022803D0802048650120704731
:101FD000052081F835000868006820F001000A68D3
:101FE00010600020F3E70000F8B502460B4600251C
:101FF000002400200021DEE0012606FA01F51E681B
:1020000006EA0504AC4275D11E7906F00306012EDE
:1020100004D01E7906F00306022E13D190684F00FB
:102020000326BE40B0434F00DE68BE4030439060A0
:10203000506801268E40B0431E79C6F300168E40CC
:10204000304350601E7906F00306032E09D0D06895
:102050004F000326BE40B0434F009E68BE40304351
:10206000D0601E7906F00306022E13D1CF0802F1CC
:10207000200656F827004E07F70E0F26BE40B04345
:102080004F07FF0E1E69BE403043CF0802F1200605
:1020900046F8270010684F000326BE40B0431E7963
:1020A00006F003064F00BE40304310605E6806F045
:1020B0008056B6F1805F7DD100BF00260096404E6D
:1020C000366846F480463E4F3E603E46366806F42B
:1020D0008046009600BF00BF3A4E8F0856F8270092
:1020E0008E07370F0F26BE40B043374EB24202D1A3
:1020F000002624E05EE0354EB24201D101261EE00A
:10210000334EB24201D1022619E0324EB24201D121
:10211000032614E0304EB24201D104260FE02F4EC8
:10212000B24201D105260AE02D4EB24201D1062667
:1021300005E02C4EB24201D1072600E008268F07A9
:102140003F0FBE4030431F4E8F0846F82700264EF3
:102150003068A0435E6806F48036B6F5803F00D153
:102160002043214E3060361D3068A0435E6806F47F
:102170000036B6F5003F00D120431B4E361D3060BF
:10218000361D3068A0435E6806F48016B6F5801FE1
:1021900000D12043144E08363060361D3068A0430D
:1021A0005E6806F40016B6F5001F00D120430E4EFF
:1021B0000C363060491C1029FFF41EAFF8BD00003A
:1021C0004438024008380140000002400004024048
:1021D00000080240000C02400010024000140240BF
:1021E00000180240001C0240003C014002461369F6
:1021F0000B400BB1012000E00020704710B5426990
:1022000021EA020302EA010443EA0443836110BDA8
:102210000AB1816101E00B048361704701480068E5
:10222000000C7047002004E001480068704700007F
:102230001C0000200348006803490978084401494C
:10224000086070471C0000202400002010B50A48D8
:10225000006840F40070084908600846006840F4CF
:1022600080600860032000F07FF80F2000F006F87F
:1022700000F02AF8002010BD003C024070B5044672
:102280000E4800784FF47A71B1FBF0F00C49096800
:10229000B1FBF0F5284600F09BFC08B1012070BDB1
:1022A000102C07D200222146501E00F01EF80548CF
:1022B000046001E00120F2E70020F0E724000020A4
:1022C000000000202000002070470146084600283A
:1022D00009DB00F01F0301229A4043099B0003F130
:1022E000E023C3F8002100BF70472DE9F05F80466E
:1022F0000D461646002701F0D3F9074639462A460F
:10230000334601F00700C0F1070ABAF1040F02D901
:102310004FF0040A01E0C0F1070AD14600F1040AB7
:10232000BAF1070F02D24FF0000A01E0A0F1030A50
:10233000D4464FF0010A0AFA09FAAAF1010A0AEA98
:10234000020A0AFA0CFA4FF0010B0BFA0CFBABF184
:10235000010B0BEA030B4AEA0B042146404601F04D
:10236000A7F9BDE8F09F000000BF00F00702064B90
:1023700019684FF6FF031940044B0B4343EA02214F
:10238000014B196000BF70470CED00E00000FA053A
:1023900070B504460D460CB9012070BD5848006860
:1023A00000F00700A84209D255490D7008460068A0
:1023B00000F00700A84201D00120EEE7207800F0ED
:1023C000020002281DD1207800F00400042805D165
:1023D0004C48006840F4E0504A490860207800F01A
:1023E0000800082805D14748006840F46040454986
:1023F00008604448006820F0F000A16808434149A3
:102400000860207800F00100A8B36068012807D1B7
:102410003C4808380068C0F34040B8B90120BCE728
:102420006068022802D06068032807D13548083860
:102430000068C0F3406048B90120AEE73148083871
:102440000068C0F3400008B90120A6E72D480068E5
:1024500020F00300616808432A490860FFF7E4FEA2
:10246000064609E0FFF7E0FE801B41F28831884212
:1024700002D9032091E707E02248006800F00C0031
:102480006168B0EB810FEDD11D48006800F00700D6
:10249000A84209D91A490D700846006800F00700E3
:1024A000A84201D0012078E7207800F00400042839
:1024B00007D11448006820F4E050E168084311494E
:1024C0000860207800F00800082808D10D4800684E
:1024D00020F46040216940EAC1000A49086000F028
:1024E0003FF808490968C1F30311074A515CC84025
:1024F0000649086006480068FFF7C0FE00204CE768
:10250000003C0240083802407EA903080000002079
:1025100020000020014800687047000000000020F3
:1025200000B5FFF7F7FF04490968C1F38221034AA8
:10253000515CC84000BD0000083802408EA9030865
:1025400000B5FFF7E7FF04490968C1F34231034AC8
:10255000515CC84000BD0000083802408EA9030845
:102560002DE9F047002400250026A14625480068F3
:1025700000F00C0020B1042805D008283AD105E06D
:10258000DFF8849039E0DFF8849036E01D48001FC2
:10259000006800F03F041B48001F006800F4800042
:1025A00078B11A481749091F0968C1F38811A0FBBF
:1025B00001700146224600233846FDF7F4FE054629
:1025C0000EE011480F49091F0968C1F38811A0FBEB
:1025D00001700146224600233846FDF7E4FE054619
:1025E0000848001F0068C0F30140401C4600B5FBCE
:1025F000F6F902E0DFF8109000BF00BF4846BDE8E2
:10260000F0870000083802400024F40000127A002D
:10261000F8B504460CB90120F8BD207800F001009F
:10262000002874D0F948006800F00C0004280DD090
:10263000F648006800F00C00082813D1F348001F8A
:10264000006800F48000B0F5800F0BD1EF48083827
:102650000068C0F34040002859D06068002856D177
:102660000120D9E700BF6068B0F5803F08D1E74896
:102670000838006840F48030E449083908601EE0FA
:102680006068B0F5A02F0DD1E0480838006840F42C
:102690008020DE49083908600846006840F4803030
:1026A00008600CE0D9480838006820F48030D74929
:1026B000083908600846006820F48020086000BFE0
:1026C000606890B1FFF7B0FD054606E0FFF7ACFD8E
:1026D000401B642801D903209EE7CC4808380068D5
:1026E000C0F340400028F1D011E0FFF79DFD054602
:1026F00006E0FFF799FD401B642801D903208BE712
:10270000C24808380068C0F340400028F1D1207862
:1027100000F0020002285FD1BC48006800F00C0005
:1027200058B1BA48006800F00C0008281CD1B7481E
:10273000001F006800F48000B0B9B4480838006891
:10274000C0F3400020B1E068012801D0012063E718
:10275000AE480838006820F0F800216940EAC1005E
:10276000AA490839086037E0E06800B30120A849A9
:102770000860FFF759FD054606E0FFF755FD401BD1
:10278000022801D9032047E7A04808380068C0F3B1
:1027900040000028F1D09D480838006820F0F8007B
:1027A000216940EAC10099490839086014E0002015
:1027B00097490860FFF738FD054606E0FFF734FD4E
:1027C000401B022801D9032026E7904808380068FA
:1027D000C0F340000028F1D1207800F0080008285C
:1027E0002CD16069A8B101208A490860FFF71CFD5F
:1027F000054606E0FFF718FD401B022801D903201B
:102800000AE782486C300068C0F340000028F1D02D
:1028100014E000207F490860FFF706FD054606E04A
:10282000FFF702FD401B022801D90320F4E6774898
:102830006C300068C0F340000028F1D1207800F02F
:102840000400042870D1002770483830006800F078
:10285000805090B900BF002000906C48383000686C
:1028600040F080506949383108600846006800F03F
:102870008050009000BF00BF01276748006800F447
:102880008070B0B96448006840F4807062490860A4
:10289000FFF7CAFC054606E0FFF7C6FC401B02280E
:1028A00001D90320B8E65C48006800F48070002875
:1028B000F2D000BFA068012808D1544868300068F1
:1028C00040F001005149683108601DE0A06805280A
:1028D0000DD14E486830006840F004004B49683123
:1028E00008600846006840F0010008600CE04748B6
:1028F0006830006820F001004449683108600846EB
:10290000006820F00400086000BFA068A8B1FFF7CD
:102910008BFC054609E0FFF787FC401B41F288313C
:10292000884202D9032077E626E0384868300068FC
:10293000C0F340000028EED013E0FFF775FC054619
:1029400008E0FFF771FC401B41F28831884201D951
:10295000032061E62D4868300068C0F3400000287D
:10296000EFD1012F07D129483830006820F080507E
:1029700026493831086000BFA069002845D02348A7
:10298000006800F00C0008285DD0A069022845D13D
:1029900000201F490866FFF747FC054606E0FFF7E1
:1029A00043FC401B022801D9032035E617480838AC
:1029B0000068C0F340600028F1D1D4E90701084362
:1029C000616A40EA81110122A06AC2EB500041EA2B
:1029D00000412C20005D41EA00600C49091F08609D
:1029E00001200B490866FFF71FFC054606E0FFF7CC
:1029F0001BFC401B022801D903200DE603480838C0
:102A00000068C0F340600028F1D049E00838024077
:102A100000004742800E47420070004000202149DC
:102A20000866FFF701FC054606E0FFF7FDFB401BCB
:102A3000022801D90320EFE51B480068C0F340607D
:102A40000028F2D12CE0A069012800D1E4E5164865
:102A5000001D0668A069012820D006F48001E06905
:102A600081421BD106F03F01206A814216D147F610
:102A7000C0703040616AB0EB811F0FD106F4403165
:102A80000122A06AC2EB5000B1EB004F06D106F064
:102A900070612C20005DB1EB006F01D00120BBE51F
:102AA0000020B9E5000047420038024070B50446F6
:102AB0000E4615460CB9012070BD94F8490028B99E
:102AC000002084F84800204600F01CF804F10801BA
:102AD0002068FFF7CFF93146A2682068FFF7F8F9C0
:102AE0002946236BD4E90102FFF7A0F9A168206809
:102AF00050F8210040F00100A268216841F822004E
:102B00000020D9E710B586B0044600BF0020009031
:102B10002248006840F0010020490860084600682B
:102B200000F00100009000BF00BF00BF0020009037
:102B30001A480838006840F0080018490839086049
:102B40000846006800F00800009000BF00BF00BF0A
:102B5000002000900846006840F010000860084619
:102B6000006800F01000009000BF00BF4CF203703E
:102B700001900220029001200390022004900C207A
:102B8000059001A90648FFF72FFA4FF680700190D3
:102B900001A90448FFF728FA06B010BD38380240F2
:102BA000000C024000100240042808D14FF0E02140
:102BB000096941F004014FF0E022116107E04FF094
:102BC000E021096921F004014FF0E0221161704712
:102BD00070B504462546681EB0F1807F01D3012000
:102BE0000FE0681E4FF0E02148610F214FF0FF30E9
:102BF00000F05EFD00204FF0E021886107200861B1
:102C0000002070BD70477047704710B504462068BB
:102C10000069C0F34000D8B12068C068C0F340002C
:102C2000B0B16FF0020021680861012020772068B0
:102C3000806900F0030018B12046FFF7E5FF05E0CA
:102C4000204600F0ADF8204600F0ABF800202077D9
:102C500020680069C0F38000D8B12068C068C0F364
:102C60008000B0B16FF00400216808610220207775
:102C70002068806900F4407018B12046FFF7C4FF57
:102C800005E0204600F08CF8204600F08AF800208D
:102C9000207720680069C0F3C000D8B12068C06800
:102CA000C0F3C000B0B16FF00800216808610420D3
:102CB00020772068C06900F0030018B12046FFF7B4
:102CC000A3FF05E0204600F06BF8204600F069F80D
:102CD0000020207720680069C0F30010D8B1206878
:102CE000C068C0F30010B0B16FF010002168086137
:102CF000082020772068C06900F4407018B1204691
:102D0000FFF782FF05E0204600F04AF8204600F079
:102D100048F8002020772068006900F0010058B1D1
:102D20002068C06800F0010030B16FF00100216838
:102D30000861204600F036F820680069C0F3C01032
:102D400058B12068C068C0F3C01030B16FF0800087
:102D5000216808612046FFF755FF20680069C0F32D
:102D6000801058B12068C068C0F3801030B16FF097
:102D7000400021680861204600F015F820680069CD
:102D8000C0F3401058B12068C068C0F3401030B1A3
:102D90006FF02000216808612046FFF734FF10BD66
:102DA0007047704770477047704770472DE9F84F7C
:102DB0000446206805682068C668206847694FF0A7
:102DC0000009CA4605F00F09B9F1000F0AD105F054
:102DD000200038B106F0200020B1204600F075FA3E
:102DE000BDE8F88FB9F1000F72D007F0010018B9F3
:102DF00006F4907000286BD005F0010030B106F4A5
:102E0000807018B1206C40F00100206405F00400CF
:102E100030B107F0010018B1206C40F002002064CE
:102E200005F0020030B107F0010018B1206C40F04D
:102E30000400206405F0080048B106F0200010B935
:102E400007F0010018B1206C40F008002064206CED
:102E500070B305F0200028B106F0200010B1204624
:102E600000F033FA20684069C0F3801A206C00F04B
:102E7000080010B9BAF1000F23D0204600F0FAF98B
:102E80002068406900F04000402816D12068406961
:102E900020F0400021684861A06B50B15648A16BFA
:102EA0000865A06BFFF78BF810B1A06B016D884728
:102EB0000CE02046FFF779FF08E02046FFF775FF9A
:102EC00004E02046FFF771FF0020206488E7FFE759
:102ED000206B012879D105F01000002875D006F08C
:102EE0001000002871D000BF00200090206800680A
:102EF000009020684068009000BF00BF20684069D3
:102F000000F04000402839D1A06B006840681FFAEB
:102F100080F8B8F1000F30D0A08D40452DDDA4F829
:102F20002E80A06BC069B0F5807F1FD02068C0687C
:102F300020F480702168C8602068406920F001009A
:102F4000216848612068406920F04000216848619C
:102F5000202084F83E00002020632068C06820F014
:102F600010002168C860A06BFEF7D4FFA08DE28D31
:102F7000801A81B22046FFF717FF31E7A08DE18D5F
:102F8000401A1FFA80F8E08DE8B1B8F1000F1AD0AE
:102F90002068C06820F490702168C860206840698B
:102FA00020F0010021684861202084F83E000020C4
:102FB00020632068C06820F010002168C860414686
:102FC0002046FFF7F1FE0BE7FFE705F0800030B188
:102FD00006F0800018B1204600F00FFB00E705F076
:102FE000400030B106F0400018B1204600F05DF915
:102FF000F6E600BFF4E600006132000810B50446B2
:103000000CB9012010BDA06900B100E000BF94F828
:103010003D0028B9002084F83C00204600F028F844
:10302000242084F83D002068C06820F40050216806
:10303000C860204600F0A8F92068006920F490409C
:10304000216808612068406920F02A0021684861F1
:103050002068C06840F400502168C86000202064E7
:10306000202084F83D0084F83E000020CAE70000DC
:1030700010B586B004462E492068884255D100BF5D
:1030800000BF002000902B48006840F01000294944
:1030900008600846006800F01000009000BF00BF04
:1030A00000BF00BF00BF0020009022481438006815
:1030B00040F001001F49143908600846006800F01C
:1030C0000100009000BF00BF00BF00BF00BF002094
:1030D00000900846006840F001000860084600685B
:1030E00000F00100009000BF00BF00BF4815019034
:1030F00002200290012003900220049007200590F6
:1031000001A90D48FEF770FF4FF480600190072081
:10311000059001A90848FEF767FF2520FFF7D5F8BD
:10312000032211462520FFF7E0F806B010BD00008D
:1031300000100140443802400000024070B50446CF
:103140000D46164694F83E00202816D105B10EB95A
:10315000012070BD00BF94F83C00012801D102207D
:10316000F7E7012084F83C0000BF002020633246CE
:103170002946204600F01EFAEBE70220E9E70000AE
:1031800010B504462049206888423BD11F4800887A
:1031900000F4004088BB1D48008800F4804070B1F6
:1031A0001B4800780A2803D000201849088024E032
:1031B0001648008840F40040144908801DE0144877
:1031C00000780D2806D11148008840F480400F494E
:1031D000088012E00E4800780C490988C1F30D01FF
:1031E0000C4A505409480088401C08490880084689
:1031F0000088C72801DD0020088001220449064814
:10320000FFF79CFF10BD00000010014018000020D7
:103210001A0000209803002060040020704700BFBF
:10322000FEE700BFFEE7704710B5FFF703F836F082
:103230003BF9012801D035F001FF10BD03480068BB
:1032400040F47000014908607047000088ED00E01C
:1032500010B50248FFF7D9FC10BD0000040500209E
:1032600070B50546AC6B0020E085E0842046FFF792
:103270009CFD70BD0168C96821F490710268D1603D
:103280000168496921F0010102685161016B01295E
:1032900005D10168C96821F010010268D1602021C0
:1032A00080F83E1000210163704710B50446206885
:1032B000C06820F040002168C860202084F83D00EC
:1032C0002046FFF7ABFF002010BD70B5044694F810
:1032D0003E00222856D1A068B0F5805F0CD120694D
:1032E00050B90025A66A20684068C0F30800308005
:1032F000A06A801CA06215E0A56A0026A068B0F54F
:10330000805F03D0A06828B9206918B92068406898
:10331000287004E02068406800F07F002870A06AF0
:10332000401CA062E08D401E80B2E08540BB20685A
:10333000C06820F020002168C8602068C06820F4C0
:1033400080702168C8602068406920F00100216811
:103350004861202084F83E00206B01280AD12068B3
:10336000C06820F010002168C860A18D2046FFF7DA
:103370001BFD02E02046FFF703FF0020206370BD25
:103380000020FCE70220FAE72DE9F84F0446206808
:10339000006920F44050E168084321680861216910
:1033A000A068084361690843E16908430090206808
:1033B000C06849F20C618843009908432168C860DD
:1033C0002068406920F44070A16908432168486181
:1033D00076492068884203D075492068884203D125
:1033E000FFF7AEF8814602E0FFF79AF88146E06900
:1033F000B0F5004F6CD102206168A0FB015003467C
:103400001920A9FB007001462A463846FCF7CBFF7D
:103410006421B0FBF1F04FEA001A02206168A0FBC2
:1034200001510B461920A9FB00712A463846FCF7CA
:10343000BAFF834602206168A0FB015003461920B1
:10344000A9FB00712A463846FCF7ADFF6421B0FBAA
:10345000F1F000EBC00101EB0010ABEB800032217A
:1034600001EBC0006421B0FBF1F000F0F8000AEBC2
:10347000400A02206168A0FB015003461920A9FB05
:10348000007001462A463846FCF78DFF834602202D
:103490006168A0FB015003461920A9FB00712A4670
:1034A0003846FCF780FF6421B0FBF1F000EBC0016F
:1034B00001EB0010ABEB8000322101EBC000642176
:1034C000B0FBF1F000F007005044216888606AE02A
:1034D00004206168A0FB015003461920A9FB00707D
:1034E00001462A463846FCF75EFF824604206168A2
:1034F000A0FB015003461920A9FB007001462A4693
:103500003846FCF750FF6421B0FBF1F000EBC0013E
:1035100001EB0010AAEB8000322101EB00106421C6
:10352000B0FBF1F000F0F00A04206168A0FB01702C
:1035300003461920A9FB00513A462846FCF733FF01
:103540006421B0FBF1F00AEB001A04206168A0FBD3
:1035500001510B461920A9FB00712A463846FCF799
:1035600022FF834604206168A0FB01500346192016
:10357000A9FB007001462A463846FCF714FF642177
:10358000B0FBF1F000EBC00101EB0010ABEB8000F1
:10359000322101EB00106421B0FBF1F000F00F00CC
:1035A000504421688860BDE8F88F00000010014099
:1035B0000014014010B5034699629A85DA8500200F
:1035C0001864222083F83E0000BF002083F83C00EE
:1035D00000BF1868C06840F480701C68E06018681C
:1035E000406940F001001C6860611868C06840F0E4
:1035F00020001C68E060002010BD014691F83D00ED
:10360000212828D18868B0F5805F0BD1086948B9B6
:103610000A6A1088C0F308000B685860086A801CAA
:10362000086205E00B6A581C086218780B6858603D
:10363000C88C401E80B2C88458B90868C06820F0A1
:1036400080000B68D8600868C06840F040000B68D4
:10365000D860002070470220FCE7000010B5024847
:10366000FFF7A4FB10BD00006004002000BFFEE7D0
:1036700003B401984100009850EAC12018BF04200B
:103680004A0D18BF40F0010040F2FF72B2EB515FEB
:1036900008BF40F00200012808BF052002B07047B3
:1036A00002480068C0F30220704700000CED00E003
:1036B00010B5002804DB0A07130E054A135406E070
:1036C0000A07140E034A00F00F031B1FD45410BD49
:1036D00000E400E018ED00E030B52DED048B81B082
:1036E000B0EE408AF0EE608A6A4651EC180B0FF09B
:1036F000C3FB00989FED329B7E300090002821DCB8
:1037000053EC192B51EC180B36F0B8FC1AD00021F1
:1037100040F608004FF00000044651EC180B36F05C
:1037200067FA08EE100A40F6080004EA00014FF0BC
:103730000000B5EEC08AF1EE10FA04BF0220FDF7DA
:103740000CF92DE00098FF2830DB002108464FF0EF
:10375000000000F4400553EC192B51EC180B36F027
:103760008BFE8CBF002401240220FDF7F6F89FEDAC
:10377000168A4DB1002C0CBF4FF400004FF48000AE
:10378000A84218BF9FED118A042108464FF000009F
:10379000002C01BFB1EE480A01B0BDEC048B30BD76
:1037A000B0EE480A01B0BDEC048B30BD51EC180BF3
:1037B00036F01EFA01B000EE100ABDEC048B30BDED
:1037C00000000000000000000000807FFFFF7F7FFE
:1037D00030B583B00446FDF7BBF89FED090B0546F5
:1037E0008DED000B002221466846FDF779F9284649
:1037F000FDF7B3F89DED000B03B030BD00000000F5
:10380000000000000000000030B540F2FF742DED14
:10381000048BF0EE608A18EE901A85B0B0EE408A04
:103820009FED2B9B05468DED008B34EA115147D05F
:1038300053EC192B51EC180B36F020FC40D02A46E3
:1038400051EC180B37F04FF841EC180B18EE900ABA
:103850008DED008B34EA10501CD053EC192B51EC39
:10386000180B36F00BFC2BD10220FDF776F800F098
:103870001BFF10EE901A18EE900A8DED020B8DEDE5
:10388000008B61F31E0003909DED020B05B0BDECB3
:10389000048B30BD0220FDF760F800F0F5FE10EE5D
:1038A000901A18EE900A8DED020B8DED008B61F3EE
:1038B0001E0003909DED020B05B0BDEC048B30BDE6
:1038C00005B0B0EE480AF0EE680ABDEC048B30BDDE
:1038D00000000000000000002DE9F04D2DED040B6C
:1038E0002DED0E8B96B0DDE92550279CDDF890A0DC
:1038F00025F0004624F00048BAF1000F14BF012162
:10390000002101EB4502FC4953184A1093422AD387
:10391000002814BF0123002303EB44030B44F749A1
:103920008B4220D358EA00019FEDF59B76D0DFF85B
:10393000D8B35D4503D1BAF1000F05D188E0BAF1E3
:10394000000F08BF002100D0012101EB450111F556
:10395000001F08D8002814BF0121002101EB4401F9
:1039600011F5001F0BD99DED261B9DED240B16B004
:10397000BDEC0E8B04B0BDE8F04D00F069BE002731
:10398000002DBCBFE149884521DAE1498845A8BF3F
:1039900002271CDAC3451ADCDE4901EB2851142941
:1039A00008DDC1F1340220FA02F101FA02F282428A
:1039B0000DD108E058B9C1F1140228FA02F101FA58
:1039C00002F2424503D101F00101C1F1020756EABA
:1039D0000A0124D1002C22DA002D18BF022F01D0B9
:1039E000012F0AD00220FCF7B8FF16B0BDEC0E8BF9
:1039F00004B0BDE8F04D00F013BE0220FCF7ADFFAF
:103A000000F00EFE51EC100B36F0E6F841EC100B16
:103A100016B0BDEC0E8B04B0BDE8F08D18E09FED44
:103A2000BEAB9FEDBF8B002871D1B848804522D135
:103A300005F1804010F5801008BFBAF1000F07D0E3
:103A4000B3450ADC002CA8BF9DED260BE0DA0DE0A3
:103A5000B0EE490AF0EE690ADAE7002C06DA9DEDCD
:103A6000260B51EC100B36F0B7F86FE0AE487844F7
:103A700090ED000BCCE7D8454DD1002C48DA2EB1A3
:103A800086423AD1BAF1000F42D126E0BAF1000FD6
:103A900013D00220FCF761FF00F0F6FD8DED020B64
:103AA0009DED240B8DED000B10EE900A039961F350
:103AB0001E0003909DED020BAAE78DED02AB9DED7C
:103AC000240B1AEE901A10EE900A8DED000B61F3A4
:103AD0001E0003909DED020B9AE78DED028B9DED8C
:103AE000240B18EE901A10EE900A8DED000B61F386
:103AF0001E0003909DED020B8AE709DA9DED240B71
:103B000051EC190B53EC102B36F060F91EE020E05D
:103B10009DED240B7CE786421BDAB4F1804F0DD07B
:103B2000A4F10050B0F1FF5013D1002D11DB9DED39
:103B3000240B51EC100B30F0E3FB07E09DED240B60
:103B400053EC102B51EC100B00F0C2BC41EC100BED
:103B50005EE79DED240B51EC100B0EF00FF8BAF15F
:103B6000000FCDE90E0142D19FED710B46B3A6F1D6
:103B7000E040B0F17F600CD05E4538D1002D00DA16
:103B8000A7B3022F0CBF01204FF0FF3036F00FFB20
:103B9000DCE7002D01DD002C0DDA002D01DD002C0D
:103BA0001FDB002D16DA002C14DB012F08BF9FED60
:103BB000620B3FF42DAFB0EE4A0AF0EE6A0A27E737
:103BC000022F18BF002D0CD0012F0AD1002DFFF6B7
:103BD0001FAF06E0002DB8BF002C08DA012F3FF41C
:103BE00017AFB0EE480AF0EE680A11E71BE00120BB
:103BF00000EBE57050EA070115D0791EB0EE498A56
:103C0000F0EE698A084308BF9FED4D8B4E480025B2
:103C1000804570DD4D494E48884514DDB0420DDBCE
:103C2000002C19DB2FE00120FCF797FE16B0BDEC4D
:103C30000E8B04B0BDE8F04D00F016BDB34502DCBC
:103C4000002C09DC1FE0864202DA002C1BDA03E0BC
:103C50005E452BDD002C16DD0220FCF77EFE00F019
:103C600013FD8DED020B53EC1A2B51EC180B36F0B3
:103C700005FBCDE900010399019861F31E00039053
:103C80009DED020BC4E60220FCF767FE00F00CFD80
:103C900010EE901A18EE900A8DED020B8DED008B50
:103CA00061F31E0003909DED020BB1E69DED0E0B3E
:103CB00053EC192B51EC100B36F0ECFC9FED260B5E
:103CC000CDE9080153EC102B9DED080B51EC100BC6
:103CD00036F0D4FA9FED221B53EC112B36F002FC88
:103CE0009DED081B53EC112B36F0C8FA9FED1E1BFF
:103CF00053EC112B3CE08CE0FFFF1F00FFFF0F0097
:103D0000000000000000F03F0000F03F0000F07FE6
:103D10000000404301FCFFFF000000000000F07FB6
:103D20000000000000000000F6E0030000000000BA
:103D30000000000000000080000000000000F0FF14
:103D4000000000000000F0BF0000E0410000F04370
:103D5000FFFFEF3F00000000000000000000D03F28
:103D6000555555555555D53F000000000000E03F22
:103D700036F0B8FB9DED080B41EC1A0B53EC102B01
:103D800051EC100B36F07AFA53EC1A2B36F076FA27
:103D900041EC1A0B9FEDFE0B53EC102B9DED080B25
:103DA00051EC100B36F06AFA41EC1B0B9FEDFA0B4D
:103DB00051EC1A0B53EC102B36F060FA41EC1A0B55
:103DC0009FEDF70B53EC102B9DED080B51EC100BF6
:103DD00036F054FA53EC1A2B36F05CFC41EC1A0B1B
:103DE00051EC1B0B53EC1A2B35F034FF0690CDE948
:103DF00006519DED060B53EC1B2B51EC100B36F0CE
:103E000049FC53EC1A2B36F06DFB41EC100B00F023
:103E1000A1B90020B6F5801F0EDA9FEDE30B53EC3D
:103E2000102B9DED0E0B51EC100B36F027FACDE95F
:103E30000E016FF034000E4600EB2650A0F2FF3763
:103E4000C6F31300DA4940F07F6646F040568842D8
:103E5000D8BF002408DDD7498142C8BF012403DC54
:103E60000024A6F580167F1CD348784400EBC400DC
:103E70000F9690ED00CB9DED0E0B53EC1C2B51ECEF
:103E8000100B36F007FC9DED0E0B41EC1B0B53ECB9
:103E90001C2B51EC100B35F0DDFE41EC100B51ECFE
:103EA000190B53EC102B35F091FF41EC1D0B51EC2D
:103EB0001B0B53EC1D2B36F0E1F941EC1A0BBF48FC
:103EC0008DED10AB7844109590ED000B4FF0005045
:103ED00040EA660000EB84408DED080B00F5002001
:103EE00009909DED080B53EC1C2B51EC100B36F098
:103EF000D1FB9DED0E1B53EC112B36F0F3FA41EC88
:103F0000100B53EC102B9DED100B51EC100B36F0F9
:103F1000B5F99DED080B41EC1C0B53EC102B9DEDFE
:103F2000100B51EC100B36F0A9F953EC1B2B36F0AB
:103F3000D9FA53EC1C2B36F0ADFB53EC1D2B36F0AD
:103F40009DF941EC1C0B53EC1A2B51EC1A0B36F07B
:103F500095F941EC1B0B9A480621B0EE4B0AF0EEA6
:103F60006B0A784400F0E0FAB0EE401AF0EE601A06
:103F7000B0EE41DAF0EE61DA53EC1B2B51EC1B0B87
:103F800036F07CF953EC1D2B36F078F99DED100BD3
:103F900041EC1B0B53EC1A2B51EC100B35F05AFE75
:103FA00053EC1C2B36F06AF953EC1B2B35F052FE08
:103FB0009DED100B41EC1B0B53EC102B51EC100B37
:103FC00036F05CF941EC1D0B9FED7FEB53EC1E2BA3
:103FD00035F040FE53EC1B2B35F03CFE0890CDE94C
:103FE00008519DED080B53EC1E2B51EC100B36F0D5
:103FF00051FB53EC1D2B36F04DFB53EC1B2B36F0D5
:1040000071FA9DED080B41EC1D0B53EC102B9DED4F
:10401000100B51EC100B36F031F941EC1B0B53EC4B
:104020001A2B51EC1D0B36F029F99DED080B41ECD4
:104030001A0B53EC102B51EC1C0B36F01FF953EC00
:104040001A2B35F007FE41EC1A0B51EC1B0B53EC0D
:104050001A2B35F0FFFD0C90CDE90C519DED0C0BAA
:1040600053EC1B2B51EC100B36F014FB53EC1A2BBA
:1040700036F038FA41EC1B0B9FED550B53EC102B2F
:104080009DED0C0B51EC100B36F0F8F841EC1A0BCF
:104090009FED510B51EC1B0B53EC102B36F0EEF84F
:1040A00041EC1B0B9FED4E0B53EC102B9DED0C0BBD
:1040B00051EC100B36F0E2F853EC1B2B35F0CAFD37
:1040C00041EC100B4848784400EBC40090ED001B15
:1040D00051EC100B53EC112B35F0BCFD41EC1B0BDC
:1040E000384636F064F8CDE9080153EC1B2B51EC4F
:1040F0001A0B35F0AFFD41EC100B3C48784400EB57
:10410000C40090ED00CB51EC100B53EC1C2B35F0A0
:10411000A1FD9DED081B53EC112B35F09BFD069086
:10412000CDE906519DED080B53EC102B9DED060BD0
:1041300051EC100B36F0AEFA53EC1C2B36F0AAFA09
:1041400053EC1A2B36F0A6FA53EC1B2B36F0CAF9B7
:1041500041EC100B9DED261B53EC102B8DED001B3D
:1041600000959DED260B51EC100B36F087F89DED78
:10417000000B41EC1A0B53EC102B9DED260B51EC70
:10418000100B36F087FA9DED061B53EC112B2FE038
:10419000000000604715F73FFE822B654715F73F8B
:1041A00044DF5DF80BAE543E0000000000004043C9
:1041B0008E9803007AB60B0072DC0300A0DC0300CB
:1041C000AADB03000000000000000000000008401F
:1041D000000000E009C7EE3FFD033ADC09C7EE3FEF
:1041E000F5015B14E02F3EBE36DA0300F0D9030080
:1041F00036F044F853EC1A2B35F02CFD9DED060BF0
:1042000041EC1A0B53EC102B9DED000B51EC100BF5
:1042100036F034F8CDE90C019DED0C0B51EC1A0B86
:1042200053EC102B35F016FDCDE902010C46AA49DE
:104230008C422FDB611A084318D19DED0C0B53EC17
:10424000102B9DED020B51EC100B36F023FA41ECD4
:104250001B0B9FEDA30B51EC1A0B53EC102B35F0FD
:10426000F9FC53EC1B2B36F007F92DD20220FCF79A
:1042700074FB00F009FA10EE901A18EE900A8DED1A
:10428000020B8DED008B61F31E0003909DED020B80
:10429000FFF7BEBB944A24F00041914214D39349E6
:1042A000214408437FF4EFAC9DED0C0B53EC102B35
:1042B0009DED020B51EC100B36F0ECF953EC1A2B80
:1042C00036F0DAF87FF6DFAC24F000408849894AFE
:1042D000002601EB205182422BDA481C4FF480115A
:1042E00021FA00F02044844AC0F30A517A44A1F232
:1042F000FF3192ED000B814A8DED080BCA4020EA98
:104300000202C0F3130040F48010C1F1140120FA3E
:1043100001F60992002CB8BF76429DED080B53ECD4
:10432000102B9DED0C0B51EC100B36F0B3F9CDE9D1
:104330000C019DED0C0B51EC1A0B53EC102B35F0CE
:1043400089FC9FED6F0B0890CDE9085153EC102BC1
:104350009DED080B51EC100B35F090FF41EC1B0B61
:104360009FED690B53EC102B9DED080B51EC100BDE
:1043700035F084FF9DED0C0B41EC1C0B53EC102B26
:104380009DED080B51EC100B36F084F953EC1A2B11
:1043900036F0A8F89FED5E1B53EC112B35F06EFF45
:1043A00053EC1C2B35F056FC41EC1A0B51EC1B0B5B
:1043B00053EC1A2B35F04EFCCDE902019DED020BBA
:1043C00053EC1B2B51EC100B36F064F953EC1A2B09
:1043D00036F088F89DED020B41EC1A0B53EC102BD4
:1043E00051EC100B35F04AFFCDE908014A489DED2C
:1043F000080B0521784400F097F89DED081B51EC5F
:10440000100B53EC112B35F039FF9DED021B53ECD3
:10441000112B36F067F8CDE906019DED020B53EC48
:104420001A2B51EC100B35F029FF53EC1A2B35F0F9
:1044300011FC9FED3B0B41EC1A0B53EC102B9DED47
:10444000060B51EC100B36F025F99DED060B41ECF7
:104450001B0B53EC102B9DED020B51EC100B35F0A8
:104460000DFF53EC1B2B35F0B1FC53EC1A2B36F03F
:1044700011F99DED021B53EC112B36F00BF953ECA7
:10448000192B36F02FF8CDE9020101EB065001158A
:104490000029C8BF039015DC9DED020B324651EC9C
:1044A000100B36F020FAFFF7E3F8042808BF00F0FD
:1044B000FBF832469DED020B51EC100B36F013FA6F
:1044C000CDE902019DED020B51EC180B53EC102BC2
:1044D00035F0D4FEFFF73ABB00009040000000002A
:1044E000FE822B654715973C00CC904000346F3F0F
:1044F00001FCFFFF0000E03F78D80300FFFF0F0042
:1045000000000000432EE63F396CA80C615C20BE21
:10451000EF39FAFE422EE63F48D7030000000000C4
:10452000000000000000004070B504462DED028B35
:104530004D1E00EBC500B0EE408AF0EE608A90EDB3
:10454000000B35F0060017D053EC182B51EC100B74
:1045500035F094FE41EC100B6D1E04EBC50090EDA0
:10456000001B51EC100B53EC112B35F073FB41EC9D
:10457000100B35F00600E7D1022D36D0042D1CD0EB
:10458000062D1CBFBDEC028B70BD53EC182B51ECFB
:10459000100B35F073FE94ED0A1B53EC112B35F024
:1045A00059FB53EC182B35F069FE94ED081B53ECC6
:1045B000112B35F04FFB41EC100B53EC182B51EC49
:1045C000100B35F05BFE94ED061B53EC112B35F010
:1045D00041FB53EC182B35F051FE94ED040B53ECDA
:1045E000102B35F037FB41EC100B53EC182B51EC32
:1045F000100B35F043FE94ED021B53EC112B35F0FC
:1046000029FB53EC182B35F039FE94ED001B53ECCD
:10461000112B35F01FFBBDEC028B41EC100B70BD74
:104620009FED070B10B553EC102B9FED070B51ECD2
:10463000100B35F0CBFB41EC100B10BD000000005F
:104640000000000000000000000000000000F03F3B
:1046500010B553EC112B51EC100B35F0FBFA41EC7B
:10466000100B10BD000000009FED050B10B553ECC2
:10467000102B51EC100B35F0A9FB41EC100B10BDC9
:1046800000000000000000009FED050B10B553EC8A
:10469000102B51EC100B35F0F1FD41EC100B10BD5F
:1046A00000000000000000709FED050B10B553ECFA
:1046B000102B51EC100B35F0E1FD41EC100B10BD4F
:1046C000000000000000001010B5044691ED000B42
:1046D000FFF702F884ED000A10BD10B5044690ED16
:1046E000000B0846FFF790F884ED000B10BD70B585
:1046F0000446002508E02168481C2060087830380E
:1047000005EB850100EB41052168087800F004F80D
:104710000028F0D1284670BD0146302903DB392935
:1047200001DC012070470020FCE730380A2801D264
:10473000012070470020704710B54021074801F064
:10474000E3FA0022042106482CF096F80549086097
:1047500002F002FE00200449087010BD50C600207F
:1047600025740008940200209002002030B5034612
:10477000B1F90040B2F90050AC4202DDB1F900409D
:1047800001E0B2F900401C80B1F90240B2F90250D8
:10479000AC4202DDB1F9024001E0B2F902405C80B6
:1047A000B1F90440B2F90450AC4202DAB1F9044064
:1047B00001E0B2F904409C80B1F90640B2F906501C
:1047C000AC4202DAB1F9064001E0B2F90640DC8001
:1047D0000120B3F90040B3F90450AC4205DCB3F951
:1047E0000240B3F90650AC4200DD002030BDF8B500
:1047F00004460D4616460027B4F90000B5F900102E
:10480000884212DBB4F90200B5F9021088420CDBD1
:10481000B4F90400B5F90410884206DCB4F90600C6
:10482000B5F90610884200DC01270FB90020F8BD59
:104830000EB90120FBE72088ADF800006088ADF8D4
:10484000020032466946284600F0A7F808B9002061
:10485000EDE7A088ADF800006088ADF802003246B0
:104860006946284600F099F808B90020DFE720885B
:10487000ADF80000E088ADF80200324669462846EF
:1048800000F08BF808B90020D1E7A088ADF800004F
:10489000E088ADF8020032466946284600F07DF80F
:1048A00008B90020C3E70120C1E70246B2F90000C1
:1048B000B1F90430984213DCB2F90400B1F90030C8
:1048C00098420DDBB2F90200B1F90630984207DCDC
:1048D000B2F90600B1F90230984201DB01207047BD
:1048E0000020FCE7F8B504460D461646B4F904006E
:1048F000B5F90010884211DBB4F90600B5F90210D1
:1049000088420BDBB4F90000B5F90410884205DCDD
:10491000B4F90200B5F90610884201DD0120F8BDA6
:104920000EB90020FBE72088ADF800006088ADF8E4
:10493000020032466946284600F02FF808B10020F0
:10494000EDE7A088ADF800006088ADF802003246BF
:104950006946284600F021F808B10020DFE72088EA
:10496000ADF80000E088ADF80200324669462846FE
:1049700000F013F808B10020D1E7A088ADF80000DE
:10498000E088ADF8020032466946284600F005F896
:1049900008B10020C3E70120C1E72DE9FC5F05460F
:1049A0000E4614464FF0000AB6F90000B5F90010A3
:1049B000884213DBB6F90000B5F9041088420DDC1B
:1049C000B6F90200B5F90210884207DBB6F9020019
:1049D000B5F90610884201DC4FF0010ABAF1000F68
:1049E00002D10020BDE8FC9F002C01DC0120F9E78A
:1049F000284616F08CFE834600EBDB7047102846F5
:104A000016F0FDFD834600EBDB704FEA600847457A
:104A100001DA384600E0404681464C4500DD4C4610
:104A20002888ADF800002888204400B2ADF80400C2
:104A30006888ADF802006888204400B2ADF806002E
:104A4000002231466846FFF7A8FF80B1BDF8040098
:104A5000204400B2ADF80400BDF80600204400B2C6
:104A6000ADF806003146684627F08CFFBAE7E888C3
:104A7000001B00B2ADF80200E888ADF80600002285
:104A800031466846FFF789FF80B1BDF80400204435
:104A900000B2ADF80400BDF80200001B00B2ADF892
:104AA00002003146684627F06DFF9BE7A888001B8F
:104AB00000B2ADF80000A888ADF80400002231462D
:104AC0006846FFF76AFF80B1BDF80000001B00B226
:104AD000ADF80000BDF80200001B00B2ADF8020006
:104AE0003146684627F04EFF7CE76888ADF8020043
:104AF0006888204400B2ADF80600002231466846BE
:104B0000FFF74BFF80B1BDF80000001B00B2ADF80D
:104B10000000BDF80600204400B2ADF806003146A2
:104B2000684627F02FFF5DE701205BE710B5B1F97C
:104B30000030B2F90040A34202DAB1F9003001E0DE
:104B4000B2F900300380B1F90230B2F90240A34259
:104B500002DAB1F9023001E0B2F902304380B1F972
:104B60000430B2F90440A34202DDB1F9043001E09F
:104B7000B2F904308380B1F90630B2F90640A3429D
:104B800002DDB1F9063001E0B2F90630C38010BD94
:104B90002DE9FF4104462BF010FE0546002003904E
:104BA00034B14749E068086020462BF07DFF03E000
:104BB00019F0F0FF4249086041490968086927F087
:104BC0003FFE3F480068406920B13D490968486997
:104BD00027F036FE3A490968C86927F031FE38499E
:104BE0000968086A27F02CFE35480068006940B95A
:104BF000002033490968A1F8500100BF00BFBDE89B
:104C0000FF8128F0BFF928F005F92D480068B0F8B9
:104C1000500100284BD02A4800680068007CC0F38F
:104C20004000E8B1264800681AF032F8401E06B28B
:104C30002348006819F0C6FF401E07B23B46002219
:104C4000114601A8009616F0A7FD01A81C490968A5
:104C50000968896B48601A48006805F0ABFD00BF21
:104C60004FF4807116480068303022F02EF8202171
:104C70001348006800F5987022F027F800201049CA
:104C80000968A1F8500128462BF08AFD03900C48D2
:104C900000680068406A50B1094909680868084915
:104CA000096809684B6A07490A680399984721F01F
:104CB00043FD00F03FF800F007F800BF9FE7000059
:104CC000540100205001002010B5002416E0C4EB70
:104CD000C4000C4951F8200030B1C4EBC401094AAA
:104CE00052F8210021F0DAFDC4EBC401054A02EBC1
:104CF00081001C2121F0E9FF601CC4B2042CE6DB1A
:104D000010BD00002CC700200146094A10680BE0C6
:104D100042688A4202D002688A4204D1027E22F0AE
:104D20000102521C027640690028F1D17047000050
:104D3000280100207047000010B50421014800F050
:104D4000E3FF10BD44C6002010B51C21014800F04F
:104D5000DBFF10BD5CC600202DE9FF4F8BB0044681
:104D60009A46199DBAF1000F11D11898B0F5807FBD
:104D70000DD10020208060800C98401E00B2A080E1
:104D80000D98401E00B2E0800FB0BDE8F08FB5F97D
:104D900000004042189948430121C1EB202000B295
:104DA0002080B5F902004042189948430121C1EB27
:104DB000202000B26080B5F900100C98401A1899B4
:104DC0004843022101EB202000B2A080B5F9021077
:104DD0000D98401A18994843022101EB202000B297
:104DE000E080BAF1000F14D120882988084400B26D
:104DF000208060886988084400B26080A088298883
:104E0000084400B2A080E0886988084400B2E080CD
:104E1000BAE70A209AFBF0F00A900A98401C099021
:104E20000A9800EB8000AAEB400B0A9800B22BF026
:104E3000C1FF0890099800B22BF0BCFF07900A98B8
:104E40005A3000B22BF0B6FF069009985A3000B2E3
:104E50002BF0B0FF0590CBF10A0108984143079869
:104E600000FB0B100A2190FBF1F6CBF10A0106982A
:104E70004143059800FB0B100A2190FBF1F77611D6
:104E80007F11B4F90080B4F9029007FB08F006FB2B
:104E90001900298801EBA02000B2ADF8100006FB34
:104EA00008F007FB0900698801EBA02000B2ADF80B
:104EB0001200B4F90480B4F9029007FB08F006FB75
:104EC0001900298801EBA02000B2ADF80C0006FB08
:104ED00008F007FB0900698801EBA02000B2ADF8DB
:104EE0000E00B4F90080B4F9069007FB08F006FB49
:104EF0001900298801EBA02000B2ADF8080006FBDC
:104F000008F007FB0900698801EBA02000B2ADF8AA
:104F10000A00B4F90480B4F9069007FB08F006FB18
:104F20001900298801EBA02000B2ADF8040006FBAF
:104F300008F007FB0900698801EBA02000B2ADF87A
:104F40000600BDF90800BDF91010884202DABDF96B
:104F5000080001E0BDF91000BDF90410BDF90C20F6
:104F6000914202DABDF9041001E0BDF90C1088424B
:104F70000BDABDF90800BDF91010884202DABDF95C
:104F800008000DE0BDF910000AE0BDF90400BDF90C
:104F90000C10884202DABDF9040001E0BDF90C00F2
:104FA0002080BDF90800BDF91010884202DDBDF96E
:104FB000080001E0BDF91000BDF90410BDF90C2096
:104FC000914202DDBDF9041001E0BDF90C108842E8
:104FD0000BDDBDF90800BDF91010884202DDBDF9F6
:104FE00008000DE0BDF910000AE0BDF90400BDF9AC
:104FF0000C10884202DDBDF9040001E0BDF90C008F
:10500000A080BDF90A00BDF91210884202DABDF98C
:105010000A0001E0BDF91200BDF90610BDF90E202D
:10502000914202DABDF9061001E0BDF90E10884286
:105030000BDABDF90A00BDF91210884202DABDF997
:105040000A000DE0BDF912000AE0BDF90600BDF945
:105050000E10884202DABDF9060001E0BDF90E002B
:105060006080BDF90A00BDF91210884202DDBDF969
:105070000A0001E0BDF91200BDF90610BDF90E20CD
:10508000914202DDBDF9061001E0BDF90E10884223
:105090000BDDBDF90A00BDF91210884202DDBDF931
:1050A0000A000DE0BDF912000AE0BDF90600BDF9E5
:1050B0000E10884202DDBDF9060001E0BDF90E00C8
:1050C000E08000BF60E62DE9F74F86B00446206817
:1050D0000590B4F908100798A0EB0108B4F90A107C
:1050E0000898A0EB0109E089B0F5807F13D1206B0F
:1050F00000FB08F0E16A01FB1901606A00EBA10BFB
:10510000E06A00FB08F0216B01FB0901A06A00EBDB
:10511000A10004902FE0A08980B9A06B00FB08F0EB
:105120004FEA6018A06B00FB09F04FEA6019606A53
:1051300000EB080BA06A484404901CE0A06B00FB45
:1051400008F04FEA6018A06B00FB09F04FEA601905
:10515000206B00FB08F0E16A01FB1901606A00EBBB
:10516000A12BE06A00FB08F0216B01FB0901A06A9A
:1051700000EBA12004904FEA2B2604980712B4F903
:105180000400B04203DC002009B0BDE8F08F002E1F
:1051900001DA0020F8E7B4F90600B84201DC00208B
:1051A000F2E7002F01DA0020EEE73420005DC0F3C3
:1051B000800050B33420005DC0F3400078B9022570
:1051C000B4F904007843684306FB050A059800EB30
:1051D0000A012A4604F1140021F025FD2CE00325E4
:1051E000B4F904007843684306FB050A6A1E059873
:1051F00000EB0A0104F1140021F015FD0AEB050093
:10520000401E0599095CA17516E04FF0000A0025C3
:10521000208A03463AB231B2019004F118001EF020
:10522000AFF90290BDF80800A0823AB231B204F1A1
:1052300018001EF005F9A0753420005D00F0010093
:10524000B0B14FF47F40002100F47C4241EA52119A
:10525000C0F3C40211430191BDF80420114602912C
:10526000A08ABDF80810884201D100208CE700BF59
:10527000E07C08B9012087E70FFA8BF1A187049839
:1052800001B2E18731B24020015339B242200153CB
:10529000C4F844A084F84850204600F003F8039076
:1052A000039871E72DE9F04F8DB00446D4F80090D3
:1052B00094F83C000C9094F83E000B900C987028E9
:1052C0000BDA4FF0FF35B4F940002844002800DA2B
:1052D00000250C988030C7B213E00C9890280EDDA2
:1052E0000125B4F940002844B4F90410884200DBD9
:1052F00000250C98C0F1FF008030C7B201E0002506
:10530000FF270B9870280CDA4FF0FF36B4F94200F3
:105310003044002800DA00260B98803000F0FF08A7
:1053200015E00B9890280FDD0126B4F942003044B7
:10533000B4F90610884200DB00260B98C0F1FF008C
:10534000803000F0FF0802E000264FF0FF08A08A3E
:105350000A90A07D069000200590049003903420D0
:10536000005DC0F3800000285BD094F84800626CB8
:1053700000FB052000EB0901022209A821F053FCE3
:10538000A28894F8480012FB00F2606C02FB060051
:1053900000EB0901022208A821F045FCA28894F83C
:1053A000480012FB00F2606C02FB060294F8480011
:1053B00000FB052000EB0901022207A821F033FCC5
:1053C0003420005DC0F3400000287ED094F84800EF
:1053D000616C00FB05110844401E19F8000005909F
:1053E000A18894F8480011FB00F1606C01FB0601F4
:1053F00094F848000844401E19F800000490A18861
:1054000094F8480011FB00F1606C01FB060194F870
:10541000480000FB05110844401E19F800000390E5
:1054200053E0208A0090B4F942204020005B2844D9
:1054300001B204F11800009B1EF0A2F80990208A26
:1054400000904220005B304402B2B4F9401004F1F5
:105450001800009B1EF094F80890208A00904220CB
:10546000005B304402B24020005B284401B204F1EA
:105470001800009B1EF084F807903420005DC0F3F4
:10548000400010B3B4F942204020005B284401B230
:1054900004F118001DF0D4FF05904220005B304459
:1054A00002B2B4F9401004F118001DF0C9FF0490D5
:1054B0004220005B304402B24020005B284401B22D
:1054C00004F118001DF0BCFF0390BA46BB4634201F
:1054D000005DC0F34000E0B306987843C7F1FF0CCD
:1054E000059B03FB0C00C0F3072104987843C7F128
:1054F000FF0C039B03FB0C00C0F3072201FB08F029
:10550000C8F1FF0302FB0300030AA375022905DCAF
:10551000022A03DC00200DB0BDE8F08F022901DC77
:105520004FF00008022A01DC4FF0FF08069802281D
:1055300001DC4FF0000A0598022801DC4FF0FF0A59
:105540000498022801DC4FF0000B0398022803DCCA
:1055500000E002E04FF0FF0B03E0BA46BB46FF213C
:10556000A175BAF1000F02D1099802900BE0BAF1CF
:10557000FF0F02D10A98029005E05246DDE90910BA
:1055800018F098FD0290BBF1000F02D1079801902E
:105590000BE0BBF1FF0F02D10898019005E05A46DD
:1055A000DDE9071018F086FD0190B8F1000F03D176
:1055B000BDF80400A0820FE0B8F1FF0F03D1BDF8E1
:1055C0000800A08208E04246DDE9011018F072FDF3
:1055D0000090BDF80000A08201209CE72DE9F05F5B
:1055E0000446B4F9080001026162B4F90A0001023C
:1055F000A162B4F90C000A2190FBF1F56F1CB4F91B
:105600000C0005EB8501A0EB4106684200B22BF0CF
:10561000D1FB8046784200B22BF0CCFB8146C5F12D
:105620005A0000B22BF0C6FB8246C7F15A0000B206
:105630002BF0C0FB8346C6F10A0000FB08F009FB13
:1056400006000A2190FBF1F1E162C6F10A0000FBBD
:105650000AF00BFB06000A2190FBF1F12163E06ADE
:105660004111E162206B41112163A07C1EF097F88B
:105670003421095D60F3000134200155A07C1EF047
:1056800071F83421095D60F3410134200155A07C9B
:10569000042805D0A07C052802D0A07C062807D1CC
:1056A0003420005D20F00400001D3421085505E081
:1056B0003420005D20F0040134200155216821626E
:1056C000A06920F0E000A061A17CA06961F3040062
:1056D000A061A188A06961F39420A061E188A0691C
:1056E00061F35F50A061E08900EBD071491001F5D2
:1056F000001191FBF0F2A263FF21A175208AA08224
:10570000BDE8F09F2DE9F743054616460024134CEB
:105710002BF053F88046334629462046019A1EF066
:10572000EDFC07465FB900BF00BF2C21204621F0E9
:10573000CCFA4FF00040A0620020BDE8FE830020BC
:10574000A062E06918B940462BF02AF8E061E069F0
:1057500008B90120E0612046EFE7000080C6002084
:1057600010B51421114800F0CFFA1EF079FC044660
:1057700000BF1CB900BF00BF00BFFEE700BF14B9E7
:1057800000BF00BF10BD0A4920461EF051FD094967
:1057900020461EF04FFD084920461EF04DFD0749EA
:1057A00020461EF043FD00BFECE7000068C6002065
:1057B0007D380208513D02086D3F02084538020855
:1057C00070B504460D461021284621F07EFA206867
:1057D0000078012804D1208A2880608A68800CE043
:1057E00020680078022802D1E068686005E020683F
:1057F0000078042801D10A2068602068406820B140
:10580000206829464268904701E000BF00BF70BD94
:105810002DE9FE430446A66AEEB9A18A208A08440F
:1058200001B2A182E18A608A084401B2E182204685
:105830000CF0E9FC06460EB9BDE8FE83204610F0E8
:10584000A9FA0022092130461CF074FF6078C0F3E9
:10585000400000B1F0E7208A10B9608A002870D0BB
:1058600000200290019094F83C0000F00F00032803
:1058700012D1304623F0E2FA0746304623F066FAAA
:10588000804603200090B4F910103B464246304653
:105890000BF0A4FF029012E0304623F051FB0746C4
:1058A000304623F0C5F980460C200090B4F9121060
:1058B00043463A4630460BF091FF019000BF304618
:1058C00023F016FA054605F0010028B9BDF90800D5
:1058D000002801DD0020029005F0020028B9BDF982
:1058E0000800002801DA0020029005F0040028B921
:1058F000BDF90400002801DD0020019005F008003A
:1059000028B9BDF90400002801DA0020019001AA9D
:1059100002A920462EF08CF90023BDF90420BDF920
:105920000810304626F0EAF9A08ABDF808100844AD
:1059300001B2A182E08ABDF80410084401B2E182FC
:1059400000BF00BF78E72DE9F84F0446D4F828B02F
:10595000BBF1000F01D1BDE8F88F94F83C0000F0D6
:105960000F0000B9F7E71EF04BFF06463068477E90
:105970004021584624F0ECFE10B9002161832183B8
:10598000584623F0C9FA8046584623F0CFFA054618
:1059900094F83C0000F00F000C2843D10021218333
:1059A0001DBBB4F91A00C7F164014843642190FBA0
:1059B000F1F001B26183584623F03AF98146584626
:1059C00023F0BEFA82460C200090B4F91A104B4620
:1059D000524658460BF002FF6083B4F91A200023A8
:1059E0001946584626F08AF969E020462EF077F9E4
:1059F0000090002161836A4620462EF019F9BDF916
:105A0000003041F6FF72514258460CF0A5FD814628
:105A1000BDF80000484402B201230021584626F098
:105A20006DF94CE094F83C0000F00F00032846D1DB
:105A300000216183B8F1000F23D1B4F91800C7F138
:105A400064014843642190FBF1F001B22183584680
:105A500023F07CF98146584623F0F0F98246032072
:105A60000090B4F9181053464A4658460BF0B6FE5B
:105A70002083B4F9181000231A46584626F03EF940
:105A80001DE020462EF010F9009000212183002215
:105A9000694620462EF0CCF8BDF9003041F6FF7281
:105AA000514258460CF0BEFC8146BDF80000484407
:105AB00001B201230022584626F020F900BF208BB6
:105AC000002860D1608B00285DD11DBB584623F0B3
:105AD00037FA8146584623F0ABF88246B9F1000FF9
