:020000040800F2
:1000000098060020D5020008512F0008492F00084B
:100010004D2F000861150008293400080000000079
:10002000000000000000000000000000C52F0008D4
:100030006515000800000000C12F00081D300008F1
:10004000F9020008F9020008F9020008F9020008A4
:10005000F9020008F9020008F9020008F902000894
:10006000F9020008F9020008F9020008F902000884
:10007000F9020008F9020008F9020008F902000874
:10008000F9020008F9020008F9020008F902000864
:10009000F9020008F9020008F9020008F902000854
:1000A000F9020008F9020008F9020008F902000844
:1000B000F9020008F9020008F9020008F902000834
:1000C000F9020008F9020008F9020008F902000824
:1000D000F902000819340008F9020008F9020008C2
:1000E000F9020008F9020008F9020008F902000804
:1000F000F9020008F9020008F9020008F9020008F4
:10010000F9020008F9020008F9020008F9020008E3
:10011000F9020008F9020008F9020008F9020008D3
:10012000F9020008F9020008F9020008F9020008C3
:10013000F9020008F9020008F9020008F9020008B3
:10014000F9020008F9020008F9020008F9020008A3
:10015000F9020008F9020008F9020008F902000893
:10016000F9020008F9020008F9020008F902000883
:10017000F9020008F9020008F90200080000000076
:10018000F9020008F902000800F002F800F092F805
:100190000AA090E8000C82448344AAF10107DA45E2
:1001A00001D100F087F8AFF2090EBAE80F0013F0A2
:1001B000010F18BFFB1A43F001031847F0D00000ED
:1001C00010D10000103A24BF78C878C1FAD852077D
:1001D00024BF30C830C144BF04680C6070470000C1
:1001E0000023002400250026103A28BF78C1FBD840
:1001F000520728BF30C148BF0B6070476E2900F01E
:100200001F82702900F05583662909F0A2876529AD
:1002100009F09F87672909F09C87612909F09B876E
:1002200003681B0A28BF41F08001692900F0CC81D6
:10023000642900F0C981752900F0C6816F2900F09A
:10024000E382782900F02183E92900F07D82E42906
:1002500000F07A82F52900F07782EF2900F0E08241
:10026000F82900F020830368DB0928BF41F08001F2
:10027000632901F03980732901F03E80E32901F000
:100280004980F32901F04E80002070471FB509F026
:1002900053FF01F0A1F804000020002109F0F2FD55
:1002A000401C60600020002109F0D6FDE0601FBD09
:1002B00010B510BD01F062F81146FFF7E7FF08F036
:1002C0005FFB01F03FF903B4FFF7F2FF03BC03F05B
:1002D0000DF900000C48016841F4700101600B4801
:1002E00080470B480047FEE7FEE7FEE7FEE7FEE734
:1002F000FEE7FEE7FEE7FEE7FEE7000005480649E9
:10030000044A064B7047000088ED00E025300008E5
:100310008901000898020020980600209802002019
:10032000704753EA020C00F069802DE9F04B4FF062
:100330000006002B1FBFB3FA83F503FA05F424FA75
:1003400005F65E4012BF1643B2FA82F502FA05F4D2
:10035000C5F120051EBF22FA05FC44EA0C04203535
:1003600056EA044C4FEA144418BF641C4FF00008CE
:100370004FF00009904271EB030C39D3002919BFEB
:10038000B1FA81F701FA07F6B0FA80F700FA07F63A
:10039000C7F120071EBF20FA07FC46EA0C062037EB
:1003A000B6FBF4FCA7EB0507103F07F01F0BCBF1E2
:1003B00020062CFA06F60CFA0BFB44BFB3460026C7
:1003C000202FA4BF5E464FF0000B5BEA060C08BF6F
:1003D0004FF0010B19EB0B0948EB0608ABFB027C55
:1003E00006FB02CC0BFB03CCC01B71EB0C01C1E77D
:1003F0000B46024641464846BDE8F08B13B508431C
:1004000018BF4FF0FF300146AFF30080BDE81C403D
:10041000704700000FB4044910B503AA029800F019
:1004200023F910BC5DF814FBC00000204FF000025F
:1004300000B5134694469646203922BFA0E80C50DA
:10044000A0E80C50B1F12001BFF4F7AF090728BFB5
:10045000A0E80C5048BF0CC05DF804EB890028BF31
:1004600040F8042B08BF704748BF20F8022B11F05A
:10047000804F18BF00F8012B7047000000000000FB
:1004800030B44FF0013C50F8042B51F8043BCCFA47
:1004900052F4D51A20D1FCB950F8042B51F8043B82
:1004A000CCFA52F4D51A17D1B4B950F8042B51F83C
:1004B000043BCCFA52F4D51A0ED16CB950F8042B87
:1004C00051F8043BCCFA52F4D51A05D1002CDAD0FD
:1004D00030BC4FF00000704729BAB1FA81F111F039
:1004E0001801D1F120008440F2D1CA40CB4012F073
:1004F000FF0213F0FF0330BCD01A704770477047FB
:100500007047704770B5044685690068C10601D51B
:10051000302600E02026C00707D070BDD4E90121B5
:1005200030469047206A401C20626D1EF6D570BD93
:1005300070B5044685690078C00707D170BDD4E95D
:10054000012120209047206A401C20626D1EF6D5B4
:1005500070BD09684A0501D540B27047C905FCD590
:1005600000B2704709684A0501D5C0B27047C90595
:10057000FCD580B2704770B50C460546012A05D0FF
:100580002878800600D5EA69002302E0012305E00F
:100590005B1C934202D2E05C0028F9D1A869E618FE
:1005A000C01AA861286A184428622846FFF7AAFFE3
:1005B00004E0D5E9012114F8010B9047B442F8D3C7
:1005C0002846FFF7B5FF70BD2DE9F041064600242F
:1005D00010687529314616A510D0FFF7BAFF00281C
:1005E00002DA404213A507E031688A0701D512A557
:1005F00002E0490704D511A5012401E0FFF7B2FF8D
:1006000000210A2206F1240709E0B0FBF2FCB0FB4E
:10061000F2F302FB1C00303078541846491C0028C5
:10062000F3D123462A463046BDE8F04100F055BAE2
:10063000000000002D0000002B0000002000000042
:1006400011680268006A530501D508700AE0D305F5
:1006500001D5088006E0130603D5C217C1E90002E0
:1006600000E0086001207047074B70B50D467B44E1
:1006700000F01DFE0446284600F058FE10B14FF071
:10068000FF3070BD204670BD533500002DE9FF5F7F
:1006900015468A460446DFF8AC80F8440027D8E9BE
:1006A00000103E46CDE9001010E03AF816106A46F8
:1006B00002A800F03FFE411C07D02178890603D52F
:1006C000E269391891420DD80744761C20788006DB
:1006D00002D5E069B84205DDAE42E6DB3AF8160025
:1006E0000028E2D1A069C01BA0612046FFF70AFFE5
:1006F000D8E90010CDE90010002017E03AF81810F2
:100700006A4602A800F016FEB0F1FF3F81460BD00A
:1007100000250DF1080B05E0D4E901211BF80500C7
:1007200090476D1C4D45F7D308F10100B04280465B
:10073000E4DB206A384420622046FFF7F9FEBDE87A
:10074000FF9F0000BE9A00002DE9F0418046D21DB7
:1007500022F007020025D2E90002F52915A614D0DF
:10076000011E72F1000106DA0023D0EB030063EBF7
:10077000020211A608E0D8F800108B0701D50FA6D9
:1007800002E0490701D50EA601251146002408F113
:10079000240704E000F05CF930323A55641C50EA5A
:1007A0000102F7D12B46324621464046BDE8F041D2
:1007B00000F093B9000000002D0000002B000000A5
:1007C0002000000030B4002100F1240408E002F011
:1007D0000705D208303542EA4372DB086554491CEC
:1007E00052EA0305F3D10468002310A2250708D5B7
:1007F00004F020040C4304D0C46901230CA2641E3D
:10080000C46130BC00F069B910B5044621461068D7
:10081000FFF7A8FE02462046BDE810400023D1E7BE
:10082000D21D22F00701D1E90023CBE70000000030
:1008300030000000F0B40D460188090502D5214CB6
:100840007C4402E01F4C7C440E34002100F124065D
:1008500008E002F00F071209E75D42EA03721B0984
:100860007754491C52EA0307F3D102780023120798
:1008700004D5702D06D009B1022311342246F0BCF4
:1008800000F02BB901231034F8E770B504460D468B
:1008900021461068FFF766FE024629462046BDE85D
:1008A00070400023C6E7D21D22F00703D3E90023DE
:1008B000C0E70368126843F0200303600823C361A4
:1008C0000023B7E7209900002DE9F05F8946044630
:1008D0004FF0000ADFF874B1FB44C0F820A02046B6
:1008E000E1688847002874D0252806D0D4E9012182
:1008F0009047206A401C2062F1E700265F462046B0
:10090000E16888472028054607DB312D05D2781994
:1009100010F8200C08B10643F1E7B00701D526F026
:100920000406C4F81CA00027C4F818A02A2D09D07A
:10093000284609F089FA38B304EB8708303DC8F837
:10094000185019E059F8041B204604EB8702916106
:10095000E1688847012F054618D1E069002820DAB0
:1009600026F020061DE0D8F8180000EB800005EB0B
:1009700040003038C8F818002046E168884705462E
:1009800009F062FA0028EED1012F0AD02E2D08D1ED
:100990002046E16888477F1C0546022F46F0200666
:1009A000C4DBA069002803DA404246F00106A061DA
:1009B000F00701D026F010066C2D0BD0682D09D061
:1009C0004C2D39D06A2D35D0742D35D07A2D33D0B9
:1009D00016E038E0E1682F4620468847B8420546D1
:1009E00009D16C2F26D04FF48060E1680643204681
:1009F0008847054604E06C2F1AD04FF480700643F8
:100A00000DB3A5F14100192802D8203546F400663F
:100A10004A462946204626604E46FFF7EFFB80B146
:100A200001280BD0F61D26F0070000F1080956E753
:100A30004020E4E78020D8E70020D6E706F104094B
:100A40004DE7284652E7206ABDE8F09FB0980000C5
:100A500030B5B0F10A0271F100034FEA900E4EEA90
:100A6000817EB0EB0E0061EB91014FEA101E4EEA61
:100A7000017E10EB0E0041EB11114FEA102E4EEAF1
:100A8000016E10EB0E0041EB11214FEA104E4EEAC1
:100A9000014E10EB0E0041EB1141401841F10001F5
:100AA0004FEAD00040EA41704FEAD1014FEA810499
:100AB00044EA907410EB800544EB01046D1944EB9B
:100AC0000404521BA3414FF0000348BF0A3200D573
:100AD00030BD401C41F1000130BD2DE9F0470D460D
:100AE00099469246044600F124080168880604D518
:100AF000E06921F01001216000E00120A84201DD41
:100B0000471B00E00027A1697A1902EB0900081AC7
:100B1000A0612078C00602D42046FFF7F3FC00262F
:100B200008E0D4E901211AF806009047206A401C29
:100B3000761C20624E45F4DB2078C0060AD520469C
:100B4000FFF7E0FC06E0D4E9012130209047206A5D
:100B5000401C2062381EA7F10107F4DC07E0D4E94D
:100B6000012118F805009047206A401C2062281EC9
:100B7000A5F10105F3DC2046FFF7DAFC207800063A
:100B800002D50220BDE8F0870120FBE72DE9FF4FE9
:100B90000C461E464FF0FF378BB0D2E90001DDF85E
:100BA00060800A908A46C1F30A5505B93D46002186
:100BB00008464FF00000BAF1000F00F4400005DADB
:100BC00000EB80004FF4400101EA50004FEA9059D9
:100BD000B9F1010F00DDB9460A9850EA4A000ED07B
:100BE00044F61050A5F2FF3545432F14B8F1000F1D
:100BF0001ED07542291E1EDDC9F100021CE0B8F1AD
:100C0000010F4FF0000001D0302103E0F24305E076
:100C10002154401CB042FBDB30460022002121540D
:100C20000B99C1F80880C1E900200FB0BDE8F08F32
:100C3000BD1B6D1CDEE74A4600DA694206A800F0DB
:100C40000FFC06AB93E8070003AB83E807005046B0
:100C50000A9908F019FD8DE80700A0F500501F382B
:100C600000900398002D0ADD42F21F014A46084415
:100C7000002303A90390684608F082FF09E0A0F56D
:100C800000504A461F38002303A90390684608F025
:100C90008CFF8DE807000004000C03D04FF0FF30FC
:100CA000410800E01046B8F1000F03D00022009286
:100CB00015461EE0751E05D4FFF7CAFE3032625598
:100CC0006D1EF9D5B3460122084302D000227F1CD5
:100CD00004E02078302801D100227F1E002A0997E5
:100CE00084D01DE0112D07DAFFF7B2FE30326255D5
:100CF0006D1C50EA0102F5D1084302D00098C8B13A
:100D00000EE00021681E05E0235C625C63542254FF
:100D1000401E491C8142F7DBAB46A81B401E0990D0
:100D2000002004F80B000B98099AC0F80880C0E96D
:100D3000002B7AE711264FF0000857E72DE9F04F16
:100D400088460446D21D22F0070191B0D1E9000186
:100D5000CDE90A0109F060F802460B98C00F01D0F6
:100D60002D2007E02068810701D52B2002E02021FB
:100D700001EAC000032A099001D0072A05DB0346D7
:100D80004146204600F02CFB0BE12078800601D57F
:100D9000E06900E00620B8F1650F814606D0B8F1A1
:100DA000660F18D0B8F1670F70D131E00020B9F1AB
:100DB000110F009001DB112301E009F101030AAAE0
:100DC00001A90CA8FFF7E2FEDDE90C70002609F18D
:100DD0000105834647E001204B4600904FF0004755
:100DE0000AAA01A90CA8FFF7D1FEDDE90DB00C9904
:100DF0005D46002610B909F101000D18B9EB050098
:100E000003D4C0F1FF3609F10105A5EB09002BE081
:100E1000B9F1010F01DA4FF001090020B9F1110F0A
:100E20000090484601DD112300E003460AAA01A90B
:100E30000CA8FFF7ABFEDDE90C704D46002683469B
:100E4000207800070AD4AB4500DA5D4601A8012DE1
:100E500004DD411911F8011C302907D04F4502DA91
:100E600017F1040F04DA012082460FE06D1EEEE751
:100E7000002F02DCED1B3E4403E0781CA84200DD9D
:100E80007D1CB81B00F1010A4FF0004720780007D5
:100E900003D4AA4501DB4FF0FF3A0021B7F1004F20
:100EA0000DF143088DF8431024D002202B23002F8E
:100EB00001DA7F422D230A21021EA0F1010000DC8D
:100EC0005FB197FBF1FC97FBF1F201FB1C7C17462D
:100ED0000CF1300C08F801CDEEE7A8F10100037029
:100EE0002188090501D5452100E06521A0F101080F
:100EF00000F8011C09980FA9A1EB0807FF1D00B11C
:100F00000120411901EBEA70A1693844081A401E1A
:100F1000A0612078C00602D42046FFF7F3FA0998B2
:100F200028B1D4E901219047206A401C2062207832
:100F3000C00622D52046FFF7E5FA1EE0002E04DBAE
:100F4000B34502DD01A8805D00E03020D4E9012135
:100F50009047206A401C2062761CAAF101005FEADB
:100F6000000A0AD100F038FAC0680168405CD4E990
:100F700001219047206A401C2062281EA5F101052E
:100F8000DCDC07E0D4E9012118F8010B9047206A66
:100F9000401C2062381EA7F10107F3DC2046FFF752
:100FA000C7FA032011B041E62DE9F04F04460D4683
:100FB000D21D22F0070089B0D0E900974846394693
:100FC00008F02AFF0246F80F01D02D2307E0206821
:100FD000810701D52B2302E0202101EAC0038DF80F
:100FE00020300BB1012000E00020032A824601D00E
:100FF000072A04DB2946204600F0F2F93FE1207879
:10100000800601D40D2500E0E569C7F30A560D2DD1
:1010100049DA00214FEA175B08464FF00000002F25
:1010200000F4400007DA00EB80004FF4400100EBD1
:10103000D07001EA60008115012901DD4FF0FF3118
:1010400000224FEA850CBCF1180F06D31346ACF111
:1010500018004FF08052C24003E04FF4801323FA8F
:101060000CF30CF10C0CBCF1200F04D3ACF1200CF0
:1010700009FA0CF001E007FA0CF000294FF00048E3
:1010800001DD18B90FE00ED140450CD319EB020970
:101090005F4121B9404502D19F4329EA0209BBEBD8
:1010A000175F00D0761C2088000502D57B48784465
:1010B00002E07A487844193808AA302302F80A3046
:1010C000037C0AF10101002E0AF1020A53546A4618
:1010D00002DC4FF0300101E04FF031014FF0010828
:1010E0008DF8001002D0A6F2FF3603E059EA47015E
:1010F00000D06B4E002D02DC2178090704D54FF09B
:1011000002082E218DF80110C44600210BE0C7F320
:1011100003433F01C35C491C6D1E02F808300529DA
:1011200008F1010801DA002DF1DC00210CE000EBF0
:101130001973491C1B786D1E082902F808304FEA04
:10114000091908F1010801DA002DF0DC21688B068D
:1011500002D516E0A8F10108E04505DD02EB080321
:1011600013F8013C302BF5D0B8F1000F09DD02EB8C
:10117000080313F8013C2E2B03D1090701D4A8F171
:101180000108002D05DD3E2102F808106D1E08F152
:101190000108407C002E02F8080008F1010804DA7A
:1011A0002D20764202F8080002E02B2002F8080009
:1011B0000A214FF47A70864208F101080BDB96FB96
:1011C000F0F3303302F8083096FBF0F308F1010831
:1011D00000FB136601E0642E0CDB642096FBF0F349
:1011E000303302F8083096FBF0F308F1010800FBF9
:1011F000136601E00A2E06DB96FBF1F0303002F8B0
:10120000080008F1010896FBF1F001FB1060303096
:1012100002F80800A16908F1010808EB050202EBD9
:101220000A00081AA0612078C00602D42046FFF701
:1012300069F9216A08AE01EB0A00206204E0D4E9F2
:10124000012116F8010B9047BAF1010AF7D2207874
:10125000C00602D52046FFF755F96E4609E016F89C
:10126000010B3E280FD0D4E901219047206A401C91
:101270002062B8F10108F2D22046FFF759F909B00F
:101280000320BDE8F08F206A2844206203E0D4E9FF
:101290000121302090476D1EEBD3F8E7FE9000004F
:1012A00002FCFFFF01694A1C02610878704700B523
:1012B0008FB0CDE901310021059105497944CDE98F
:1012C000031011466846FFF7FFFA0FB000BD00009B
:1012D000E5FFFFFF10B5436913B1AFF3008001E0F4
:1012E000FFF749F9012010BD127800F124010A70BE
:1012F00000224A700122EDE711684FF0FF32E9E762
:1013000010B5436913B1AFF3008001E0FFF7BEF9F8
:10131000012010BD128800F1240182840022C284C1
:101320000122EDE711684FF0FF32E9E7007B00F0A2
:10133000800070472DE9F04116460C46054600F046
:1013400043F8036893F80101012807D0FF2C12D855
:10135000185D80B101202C70BDE8F081D3F8070141
:101360003246214603F20713C7182846BC46BDE89B
:10137000F041002360474FF0FF30EDE7754600F085
:10138000EBF8AE4605006946534620F00700854657
:1013900018B020B5FEF7B2FFBDE820404FF00006C0
:1013A0004FF000074FF000084FF0000BAC46ACE8E0
:1013B000C009ACE8C009ACE8C009ACE8C00921F03C
:1013C00007018D467047000010B500F005F8001DBC
:1013D00010BD00BFB18A00000048704780000020A7
:1013E0002DE9F0411F46044603260168072A01F44F
:1013F000006004DB08B116A505E016A503E008B1FE
:1014000015A500E015A521F010002060A069C01E00
:10141000A0610FB1401EA0612046FFF773F84FB1E5
:10142000D4E9012138469047206A401C2062C01C44
:10143000206206E0206AFAE7D4E9012115F8010BE1
:101440009047761EF8D22046FFF772F8BDE8F0818B
:101450004E414E006E616E00494E4600696E660058
:101460002DE9F047814616468AB0354878440DC8C4
:101470008DE80D0032487844801C03AC0DC884E828
:101480000D0041F69B300844372190FBF1F290FBB0
:10149000F1F5A5F1800501FB12041B3C02D5644265
:1014A000012000E00020DFF898A080460027FA44E1
:1014B000AAF1BE0A0EE0E0070AD03246684607EB02
:1014C000470101230AEB810108F06FFB8DE807005B
:1014D00064107F1C002CEED1194F7F44AE3F19E001
:1014E000E80715D007EB04100DF1180A90E80E007C
:1014F0008AE80E00C068F04201D19819089032467F
:10150000012306A903A808F050FB03AB83E80700FA
:101510006D10641C002DE3D14FF001033246694683
:10152000B8F1000F03A802D008F02AFB01E008F090
:101530003CFBC9E90001C9F808200AB0BDE8F08702
:10154000D08D000010B50446AFF300802046BDE802
:101550001040FEF7B8BE0000004870476000002051
:10156000FFE7FEE77047000085B004900391029208
:101570000193002000900198B0F5804F22D1FFE741
:101580000498029950F82100009000980021CCF6B0
:10159000F0710840009003990868D1F804C08B6886
:1015A000CA6840EA0C1040EA032040EA0240896918
:1015B000014300980843009000980499029A41F86A
:1015C000220006E00499029A6FF0704041F8220070
:1015D000FFE7002005B0704784B00390029100201F
:1015E000019003980299096850F821000190019830
:1015F0008021CFF6F071084001900299009148686F
:10160000D1F808C0CB680A6940EA0C0018431043BF
:101610004A6910438A691043CA6910430A6A104331
:101620004A6A10438A6A1043CA6A1043CA6B10435D
:10163000096B0143019808430190029880680828CB
:1016400005D1FFE7019840F040000190FFE70198C5
:101650000399029A126841F82200002004B07047F2
:1016600080B584B00390029101920020009003990C
:10167000019A01EB820149680091009901F0404113
:101680000091029A1168D2F804E0D2F808C0D36839
:1016900041EA0E1141EA0C2141EA0341D2F810C09F
:1016A0000023CFF6F07303EB0C5319435369FE3359
:1016B00041EA036192690A4300991143009100993C
:1016C000039A019B02EB8302516004B080BD0000CD
:1016D00080B584B002900298806D019000F0B8FA55
:1016E0000090029890F8350002280DD0FFE702998B
:1016F00080204865FFE70299002081F83400FFE769
:1017000001208DF80F0054E002980168086820F06D
:101710001600086002980168486920F0800048615E
:101720000298006C20B9FFE70298806C38B1FFE79F
:1017300002980168086820F008000860FFE7029836
:101740000168086820F001000860FFE7029800685F
:101750000068C007C0B1FFE700F07AFA0099401AAC
:10176000062810D3FFE7029920204865FFE7029979
:10177000002081F83400FFE70299032081F835004A
:101780008DF80F0015E0E1E70298C16D3F20884019
:1017900001998860FFE70299002081F83400FFE793
:1017A0000299012081F83500FFE700208DF80F0035
:1017B000FFE79DF80F0004B080BD000082B00090EC
:1017C000009890F83500022807D0FFE700998020A4
:1017D000486501208DF807000EE00099052081F88A
:1017E000350000980168086820F001000860FFE7F4
:1017F00000208DF80700FFE79DF8070002B0704752
:101800008EB00D900C9100200A90099008900B90DA
:10181000FFE70B980F2800F2CC81FFE70B9901201E
:1018200088400A900C9800680A9908400990099825
:101830000A99884240F0B881FFE70C98406800F0B0
:101840000300012807D0FFE70C98406800F0030070
:1018500002282FD1FFE70D98806808900B9841006F
:10186000032000FA01F10898884308900C98C0689A
:101870000B99490000FA01F108980843089008986C
:101880000D9988600D98406808900B99012000FA26
:1018900001F10898884308900C984068C0F3001044
:1018A0000B9900FA01F108980843089008980D99DF
:1018B0004860FFE70C98406800F00300032818D048
:1018C000FFE70D98C06808900B984100032000FACC
:1018D00001F10898884308900C9880680B9949009A
:1018E00000FA01F108980843089008980D99C8601B
:1018F000FFE70C98406800F00300022826D1FFE7BC
:101900000D980B996FF0030202EA51010844006A36
:1019100008900B9800F0070081000F2000FA01F1F9
:101920000898884308900C9800690B9901F007010A
:10193000890000FA01F108980843089008980D9969
:101940000B9B02EA530211440862FFE70D980068FE
:1019500008900B984100032000FA01F10898884391
:1019600008900C98406800F003000B99490000FAB9
:1019700001F108980843089008980D9908600C98A0
:10198000C079C006002840F10E81FFE7FFE7002084
:10199000079043F64400C4F20200016841F480411C
:1019A0000160006800F4804007900798FFE70B98FB
:1019B00020F0030043F60801C4F2010140580890EA
:1019C0000B9800F0030081000F2000FA01F1089845
:1019D000884308900D980021C4F20201884203D187
:1019E000FFE7002006905EE00D9840F20041C4F24F
:1019F0000201884203D1FFE70120059050E00D98D5
:101A000040F60001C4F20201884203D1FFE7022040
:101A1000049042E00D9840F60041C4F20201884271
:101A200003D1FFE70320039034E00D9841F2000159
:101A3000C4F20201884203D1FFE70420029026E0AD
:101A40000D9841F20041C4F20201884203D1FFE740
:101A50000520019018E00D9841F60001C4F2020142
:101A6000884203D1FFE7062000900AE00D9941F675
:101A70000042C4F202020820914208BF07200090F1
:101A8000FFE700980190FFE701980290FFE70298B6
:101A90000390FFE703980490FFE704980590FFE7A1
:101AA00005980690FFE70698C0B20B9901F0030174
:101AB000890000FA01F108980843089008980B99EA
:101AC00021F0030143F60802C4F20102885043F6F4
:101AD0000040C4F201000068089009990898884302
:101AE00008900C988079C00728B1FFE709990898F9
:101AF00008430890FFE7089843F60041C4F201014B
:101B0000086043F60440C4F2010000680890099997
:101B10000898884308900C9880798007002805D59C
:101B2000FFE70999089808430890FFE7089843F6EB
:101B30000441C4F20101086043F60840C4F2010008
:101B40000068089009990898884308900C98807953
:101B5000C006002805D5FFE70999089808430890B2
:101B6000FFE7089843F60841C4F20101086043F614
:101B70000C40C4F201000068089009990898884355
:101B800008900C9880798006002805D5FFE7099910
:101B9000089808430890FFE7089843F60C41C4F200
:101BA00001010860FFE7FFE7FFE70B9801300B90AA
:101BB0002FE60EB07047000082B00190ADF8021021
:101BC00001980069BDF80210084204D0FFE7012027
:101BD0008DF8010003E000208DF80100FFE79DF87B
:101BE000010002B07047000083B00290ADF806100B
:101BF000029840690090009ABDF8060002EA0001D0
:101C0000904340EA01400299886103B070470000A8
:101C100082B00190ADF802108DF801209DF801000E
:101C200028B1FFE7BDF802000199886105E0BDF821
:101C30000200000401998861FFE702B070470000CC
:101C400042F20000CEF204000068000C7047000071
:101C500040F29020C2F200000068704740F2580045
:101C6000C2F20000027840F29021C2F2000108683E
:101C7000104408607047000080B543F60041C4F28C
:101C80000201086840F400700860086840F4806051
:101C90000860052000F066F80F2000F005F800F05D
:101CA0003BF8002080BD000080B582B0009040F27B
:101CB0000400C2F20000006840F25801C2F20001C4
:101CC0000A784FF47A71B1FBF2F1B0FBF1F000F059
:101CD00011FE20B1FFE701208DF8070018E0009801
:101CE0000F280DD8FFE700994FF0FF30002200F0D9
:101CF0001FF8009840F25C01C2F20001086003E0A6
:101D000001208DF8070003E000208DF80700FFE7B1
:101D10009DF8070002B080BD7047000080B582B01A
:101D20008DF807009DF9070001F080FB02B080BD2F
:101D300080B586B08DF817000491039200200290C0
:101D400001F08CFB02909DF9170001900298049914
:101D5000039A01F0FFF80146019801F087FB06B0F5
:101D600080BD000080B582B00190019801F0A0FB19
:101D700002B080BD80B584B002900191029820B974
:101D8000FFE701208DF80F0021E1019843F60041A3
:101D9000C4F20201096801F00701884212D9FFE785
:101DA000019943F60040C4F202000170006800F09F
:101DB00007000199884204D0FFE701208DF80F0049
:101DC00005E1FFE702980078800700282AD5FFE7A1
:101DD000029800784007002809D5FFE743F608017C
:101DE000C4F20201086840F4E0500860FFE702987E
:101DF00000780007002809D5FFE743F60801C4F280
:101E00000201086840F460400860FFE743F60801FB
:101E1000C4F20201086820F0F000029A92681043B0
:101E20000860FFE702980078C00700286ED0FFE73F
:101E300002984068012811D1FFE743F60000C4F280
:101E40000200006800F400310020B0EB514F04D1D3
:101E5000FFE701208DF80F00B9E02CE00298406800
:101E6000022805D0FFE702984068032811D1FFE758
:101E700043F60000C4F20200006800F00071002088
:101E8000B0EB516F04D1FFE701208DF80F009EE009
:101E900010E043F60000C4F20200006800F0020106
:101EA0000020B0EB510F04D1FFE701208DF80F00A7
:101EB0008DE0FFE7FFE743F60801C4F2020108687E
:101EC00020F00300029A526810430860FFF7C0FE3A
:101ED0000090FFE743F60800C4F20200006800F03B
:101EE0000C0002994968B0EB810F0ED0FFE7FFF7B5
:101EF000AFFE0099401A41F28931884204D3FFE7CE
:101F000003208DF80F0062E0E4E7FFE7019843F655
:101F10000041C4F20201096801F00701884212D2AF
:101F2000FFE7019943F60040C4F202000170006827
:101F300000F007000199884204D0FFE701208DF8E6
:101F40000F0044E0FFE702980078400700280CD516
:101F5000FFE743F60801C4F20201086820F4E050EC
:101F6000029AD26810430860FFE7029800780007E1
:101F700000280DD5FFE743F60801C4F20201086806
:101F800020F46040029A126940EAC2000860FFE74C
:101F900000F04CF843F60801C4F202010968C9B226
:101FA0000A094AF25821C0F60001895CC84040F293
:101FB0000401C2F20001086040F25C00C2F20000BD
:101FC0000068FFF771FE00208DF80F00FFE79DF815
:101FD0000F0004B080BD000040F20400C2F2000017
:101FE0000068704780B5FFF7F7FF43F60801C4F2B9
:101FF00002010968C1F382224AF26821C0F6000199
:10200000895CC84080BD000080B5FFF7E5FF43F65E
:102010000801C4F20201096889B24A0B4AF2682138
:10202000C0F60001895CC84080BD000080B586B064
:102030000020059004900390029043F60800C4F23B
:102040000200006800F00C000146019140B1FFE77A
:10205000019804280AD0FFE7019808280CD04FE027
:1020600042F20040C0F2F40002904FE041F2002042
:10207000C0F27A00029049E043F60400C4F2020084
:10208000016801F03F01059100684002002813D566
:10209000FFE743F60400C4F202000068C0F38810B2
:1020A00041F20021C0F27A01A0FB0101059A002350
:1020B000FEF737F9049012E043F60400C4F2020080
:1020C0000068C0F3881042F20041C0F2F401A0FBA6
:1020D0000101059A0023FEF724F90490FFE743F677
:1020E0000400C4F20200006800F44031022000EB5A
:1020F000D130039004980399B0FBF1F0029005E011
:1021000042F20040C0F2F4000290FFE7029806B0ED
:1021100080BD000080B586B00490049820B9FFE728
:1021200001208DF8170050E304980078C0070028BC
:1021300000F0A580FFE743F60800C4F20200006843
:1021400000F00C00042813D0FFE743F60800C4F2A7
:102150000200006800F00C0008281ED1FFE743F6DB
:102160000400C4F2020000684002002815D5FFE711
:1021700043F60000C4F20200006800F400310020C1
:10218000B0EB514F08D0FFE70498406820B9FFE753
:1021900001208DF8170018E370E0FFE7049840680D
:1021A000B0F5803F09D1FFE743F60001C4F2020118
:1021B000086840F48030086020E004984068B0F57A
:1021C000A02F0DD1FFE743F60001C4F20201086819
:1021D00040F480200860086840F4803008600CE01B
:1021E00043F60001C4F20201086820F48030086060
:1021F000086820F480200860FFE7FFE7FFE7049805
:102200004068E8B1FFE7FFF723FD0390FFE743F6DF
:102210000000C4F20200006800F400310020B0EBBE
:10222000514F0CD1FFE7FFF713FD0399401A6528C2
:1022300004D3FFE703208DF81700C6E2E7E71CE0B0
:10224000FFF706FD0390FFE743F60000C4F202002B
:10225000006800F400310020B0EB514F0CD0FFE7D4
:10226000FFF7F6FC0399401A652804D3FFE7032023
:102270008DF81700A9E2E7E7FFE7FFE7FFE704981B
:1022800000788007002840F19680FFE743F60800B9
:10229000C4F20200006810F00C0F13D0FFE743F601
:1022A0000800C4F20200006800F00C0008282CD1DD
:1022B000FFE743F60400C4F2020000684002002871
:1022C00023D4FFE743F60000C4F20200006800F0E8
:1022D00002010020B0EB510F09D0FFE70498C0685D
:1022E000012804D0FFE701208DF817006DE243F6C6
:1022F0000001C4F20201086820F0F800049A126993
:1023000040EAC2000860FFE754E00498C06870B378
:10231000FFE70021C4F2472101200860FFF798FC85
:102320000390FFE743F60000C4F20200006800F0EB
:1023300002010020B0EB510F0CD1FFE7FFF788FC42
:102340000399401A032804D3FFE703208DF81700F0
:102350003BE2E7E743F60001C4F20201086820F01F
:10236000F800049A126940EAC200086021E00021E6
:10237000C4F2472100200860FFF76AFC0390FFE7E2
:1023800043F60000C4F20200006800F002010020E1
:10239000B0EB510F0CD0FFE7FFF75AFC0399401A3E
:1023A000032804D3FFE703208DF817000DE2E7E7C9
:1023B000FFE7FFE7FFE704980078000700284BD508
:1023C000FFE70498406918B3FFE740F68061C4F264
:1023D000472101200860FFF73BFC0390FFE743F62D
:1023E0007400C4F20200006800F002010020B0EBAB
:1023F000510F0CD1FFE7FFF72BFC0399401A03287C
:1024000004D3FFE703208DF81700DEE1E7E722E0C1
:1024100040F68061C4F2472100200860FFF718FCF5
:102420000390FFE743F67400C4F20200006800F076
:1024300002010020B0EB510F0CD0FFE7FFF708FCC2
:102440000399401A032804D3FFE703208DF81700EF
:10245000BBE1E7E7FFE7FFE70498007840070028C3
:1024600040F1CE80FFE700208DF8070043F64000E2
:10247000C4F202000068C000002815D4FFE7FFE79F
:102480000020009043F64000C4F20200016841F0D1
:1024900080510160006800F0805000900098FFE7D4
:1024A00001208DF80700FFE747F20000C4F20000AA
:1024B0000068C005002822D4FFE747F20001C4F2FB
:1024C0000001086840F480700860FFF7C1FB0390CA
:1024D000FFE747F20000C4F200000068C0050028D2
:1024E0000CD4FFE7FFF7B4FB0399401A032804D389
:1024F000FFE703208DF8170067E1EAE7FFE7FFE752
:1025000004988068012809D1FFE743F67001C4F2FE
:102510000201086840F0010008601FE0049880682C
:1025200005280DD1FFE743F67001C4F202010868E7
:1025300040F004000860086840F0010008600CE00A
:1025400043F67001C4F20201086820F0010008603F
:10255000086820F004000860FFE7FFE7FFE7049841
:102560008068F8B1FFE7FFF773FB0390FFE743F6DE
:102570007000C4F20200006800F002010020B0EB1D
:10258000510F0ED1FFE7FFF763FB0399401A41F2A9
:102590008931884204D3FFE703208DF8170014E146
:1025A000E5E71EE0FFF754FB0390FFE743F67000FA
:1025B000C4F20200006800F002010020B0EB510FED
:1025C0000ED0FFE7FFF744FB0399401A41F289312F
:1025D000884204D3FFE703208DF81700F5E0E5E714
:1025E000FFE79DF80700012809D1FFE743F6400106
:1025F000C4F20201086820F080500860FFE7FFE79E
:1026000004988069002800F0DC80FFE743F60800AA
:10261000C4F20200006800F00C00082800F0858079
:10262000FFE70498806902285CD1FFE76021C4F2CB
:10263000472100200860FFF70BFB0390FFE743F6FC
:102640000000C4F20200006800F000710020B0EB4E
:10265000516F0CD0FFE7FFF7FBFA0399401A0328EC
:1026600004D3FFE703208DF81700AEE0E7E70499F5
:10267000C869D1F820C04B6A8A6A40EA0C0040EA77
:102680008310D2034FF6FF739A43A2F580321043B2
:10269000C96A40EA016043F60401C4F2020108601D
:1026A0006021C4F2472101200860FFF7D1FA0390AE
:1026B000FFE743F60000C4F20200006800F000717A
:1026C0000020B0EB516F0CD1FFE7FFF7C1FA03997F
:1026D000401A032804D3FFE703208DF8170074E0A5
:1026E000E7E721E06021C4F2472100200860FFF7FE
:1026F000AFFA0390FFE743F60000C4F2020000685F
:1027000000F000710020B0EB516F0CD0FFE7FFF735
:102710009FFA0399401A032804D3FFE703208DF89A
:10272000170052E0E7E7FFE74AE0049880690128D4
:1027300004D1FFE701208DF8170046E043F60400BE
:10274000C4F202000068029004988069012831D028
:10275000FFE7029800F480000499C969884229D1F2
:10276000FFE7029800F03F000499096A884221D1EE
:10277000FFE7029847F6C07108400499496AB0EB38
:10278000811F17D1FFE7029800F440300499896A4D
:10279000C9034FF6FF729143A1F58031884209D1F8
:1027A000FFE7029800F070600499C96AB0EB016F0E
:1027B00004D0FFE701208DF8170006E0FFE7FFE7F0
:1027C000FFE700208DF81700FFE79DF8170006B01F
:1027D00080BD000080B584B0029001910092029803
:1027E00020B9FFE701208DF80F002BE0029890F848
:1027F000490040B9FFE70299002081F8480002989B
:1028000000F024F8FFE7029951F8080BFEF7E4FE08
:10281000029A019910689268FEF722FF029B0099C4
:1028200058689A681B6BFEF79FFE029801688268E1
:1028300051F8220040F0010041F8220000208DF8FC
:102840000F00FFE79DF80F0004B080BD80B58AB08F
:102850000990FFE70020039043F63800C4F202001D
:10286000016841F001010160006800F0010003907F
:102870000398FFE7FFE70020029043F63000C4F220
:102880000200016841F008010160006800F00800E2
:1028900002900298FFE7FFE70020019043F6300026
:1028A000C4F20200016841F010010160006800F00C
:1028B000100001900198FFE74CF203700490022091
:1028C00005900121069107900C20089040F60040E9
:1028D000C4F2020004A90091FEF792FF00994FF69E
:1028E0008070049041F20000C4F20200FEF788FFFD
:1028F0000AB080BD80B582B00190019800F064FB01
:1029000002B080BD82B00190ADF8021002B07047F5
:1029100081B0009001B0704780B588B007900798EB
:1029200000680068069007980068C06805900798DE
:10293000006840690490002003900290069800F01F
:102940000F000390039888B9FFE79DF818008006F0
:1029500000280AD5FFE79DF814008006002804D55A
:10296000FFE7079800F0B0FB78E1FFE70398002845
:1029700000F0B480FFE79DF81000C00738B9FFE70A
:10298000BDF8140010F4907F00F0A880FFE79DF8D8
:102990001800C00758B1FFE79DF81500C00730B117
:1029A000FFE70799086C40F001000864FFE79DF815
:1029B0001800400700280BD5FFE79DF81000C0075E
:1029C00030B1FFE70799086C40F002000864FFE7A8
:1029D0009DF81800800700280BD5FFE79DF8100030
:1029E000C00730B1FFE70799086C40F004000864A5
:1029F000FFE79DF818000007002811D5FFE79DF8B4
:102A000014008006002805D4FFE79DF81000C007D9
:102A100030B1FFE70799086C40F008000864FFE751
:102A20000798006C002858D0FFE79DF81800800632
:102A300000280AD5FFE79DF814008006002804D579
:102A4000FFE7079800F040FBFFE707980068406940
:102A5000C0F3801002900798006C0007002803D490
:102A6000FFE7029888B3FFE7079800F0F5FA0798A8
:102A7000006840694006002822D5FFE707980168F2
:102A8000486920F0400048610798806B98B1FFE7E3
:102A90000798816B43F23900C0F60000086507987B
:102AA000806BFEF78BFE28B1FFE70798806B016D06
:102AB0008847FFE703E00798FFF72AFFFFE703E0F7
:102AC0000798FFF725FFFFE706E00798FFF720FFCD
:102AD000079900200864FFE7FFE7BFE00798006B55
:102AE000012840F09B80FFE79DF81800C0060028F1
:102AF00040F19480FFE79DF81400C006002840F1E3
:102B00008D80FFE7FFE700200190079800680068CC
:102B1000019007980068406801900198FFE70798C6
:102B200000684069400600284AD5FFE70798806B97
:102B300000684068ADF80200BDF8020000283ED0F1
:102B4000FFE7BDF802000799898D884237DAFFE771
:102B5000BDF802000799C8850798806BC069B0F579
:102B6000807F24D0FFE707980168C86820F4807050
:102B7000C86007980168486920F00100486107981B
:102B80000168486920F0400048610799202081F8D9
:102B90003E0007990020086307980168C86820F084
:102BA0001000C8600798806BFEF792FDFFE707985A
:102BB000818DC28D891A89B2FFF7A4FEFFE74DE02F
:102BC0000799888DC98D401AADF800000798C08D0F
:102BD00018B3FFE7BDF80000F8B1FFE707980168F8
:102BE000C86820F49070C86007980168486920F0B0
:102BF000010048610799202081F83E0007990020D4
:102C0000086307980168C86820F01000C86007983A
:102C1000BDF80010FFF776FEFFE71FE09DF81800F3
:102C2000000600280AD5FFE79DF8140000060028DA
:102C300004D5FFE7079800F0A5FB0FE09DF818000A
:102C4000400600280AD5FFE79DF81400400600283A
:102C500004D5FFE7079800F023FAFFE708B080BD2E
:102C600080B582B00090009820B9FFE701208DF870
:102C700007003EE00098806908B1FFE700E0FFE749
:102C8000009890F83D0040B9FFE70099002081F8D6
:102C90003C00009800F032F8FFE70099242081F80A
:102CA0003D0000980168C86820F40050C860009892
:102CB00000F098FA00980168086920F490400861D3
:102CC00000980168486920F02A004861009801686E
:102CD000C86840F40050C860009900200864009A59
:102CE000202182F83D10009A82F83E108DF80700EE
:102CF000FFE79DF8070002B080BD000080B58EB0F0
:102D00000D900D98006841F20001C4F20101884263
:102D10005FD1FFE7FFE7FFE70020079043F644009D
:102D2000C4F20200016841F010010160006800F087
:102D3000100007900798FFE7FFE7FFE7FFE7002095
:102D4000069043F63000C4F20200016841F0010130
:102D50000160006800F0010006900698FFE7FFE7B9
:102D6000FFE7FFE70020059043F63000C4F20200C1
:102D7000016841F001010160006800F00100059068
:102D80000598FFE7FFE74FF40070089002200990D4
:102D900001210A910B90072001900C900020C4F2B1
:102DA0000200029008A90391FEF72AFD019A0298F9
:102DB00003994FF4806308930C92FEF721FD2520C0
:102DC0000490FEF7ABFF049803221146FEF7B0FF14
:102DD000FFE70EB080BD000080B584B00290019185
:102DE000ADF80220029890F83E00202828D1FFE795
:102DF000019820B1FFE7BDF8020020B9FFE70120EC
:102E00008DF80F0020E0FFE7029890F83C000128C1
:102E100004D1FFE702208DF80F0015E00299012090
:102E200081F83C00FFE7FFE7029900200863029861
:102E30000199BDF8022000F073FA8DF80F0003E04D
:102E400002208DF80F00FFE79DF80F0004B080BD51
:102E500080B582B001900198006841F20001C4F28F
:102E6000010188426AD1FFE740F27C20C2F20000F3
:102E700000880004002855D4FFE740F27C20C2F20D
:102E8000000000884004002819D5FFE740F21C101C
:102E9000C2F2000000780A2807D0FFE740F27C2148
:102EA000C2F200010020088008E040F27C21C2F25A
:102EB0000001088840F400400880FFE731E040F25C
:102EC0001C10C2F2000000780D2809D1FFE740F283
:102ED0007C21C2F20001088840F4804008801FE095
:102EE00040F21C10C2F20000017840F27C20C2F2D5
:102EF000000003886FF39F3340F2B412C2F2000265
:102F0000D1540188013101800088C82807DBFFE720
:102F100040F27C21C2F2000100200880FFE7FFE7B9
:102F2000FFE7FFE740F27010C2F2000040F21C1110
:102F3000C2F200010122FFF74FFFFFE702B080BDA0
:102F400081B0009001B07047FFE7FEE7FFE7FEE7C2
:102F50007047000088B0079006910592079800F02E
:102F6000070004900498C0F10700052803D3FFE789
:102F70000420019004E00498C0F107000190FFE7ED
:102F80000198039004980430062803D8FFE7002036
:102F9000009003E0049803380090FFE70098029047
:102FA00006980399012202FA01F101390840029BB7
:102FB000984005999A40013A1140084308B070477B
:102FC000704700007047000080B582B00090009804
:102FD0000138B0F1807F03D3FFE70120019019E0B1
:102FE000009801384EF21401CEF2000108604FF053
:102FF000FF300F2100F03AFA4EF21801CEF2000134
:10300000002008604EF21002CEF20002072111608B
:103010000190FFE7019802B080BD000080B5FEF787
:103020001DFE80BD4EF68851CEF20001086840F4C6
:10303000700008607047000080B582B00190019870
:10304000806B009000990020C8850099C884009882
:10305000FFF75EFC02B080BD81B00090009801686F
:10306000C86820F49070C86000980168486920F032
:10307000010048610098006B012807D1FFE7009824
:103080000168C86820F01000C860FFE700992020A0
:1030900081F83E0000990020086301B070470000ED
:1030A00080B582B0019001980168C86820F04000A6
:1030B000C8600199202081F83D000198FFF740FF8A
:1030C000002002B080BD000080B584B0029002985C
:1030D00090F83E0022287CD1FFE702988068B0F586
:1030E000805F15D1FFE70298006988B9FFE70020EB
:1030F00001900298806A00900298006840686FF31F
:103100005F20009908800299886A0230886225E071
:103110000298806A01900020009002988068B0F5C3
:10312000805F08D0FFE70298806850B9FFE70298F7
:10313000006930B9FFE7029800684068019908709B
:1031400007E002980068406800F07F00019908706D
:10315000FFE70299886A01308862FFE70299C88D0B
:103160000138C885000480BBFFE702980168C86881
:1031700020F02000C86002980168C86820F48070C0
:10318000C86002980168486920F00100486102990E
:10319000202081F83E000298006B01280BD1FFE748
:1031A00002980168C86820F01000C8600298818DFC
:1031B000FFF7A8FB03E00298FFF74AFEFFE702993A
:1031C000002008638DF80F0007E000208DF80F0045
:1031D00003E002208DF80F00FFE79DF80F0004B018
:1031E00080BD000080B586B0059005980068006934
:1031F00020F44050059A1168D2681043086105997F
:1032000088680B694A69C9691843104308430490E8
:1032100005980068C06849F20C6188430499084326
:1032200005990968C86005980068406920F44070F5
:10323000059A11689269104348610598006841F247
:103240000001C4F20101884209D0FFE70598006837
:1032500041F20041C4F20101884204D1FFE7FEF7C8
:10326000D3FE039003E0FEF7BDFE0390FFE7059851
:10327000C069B0F5004F29D1FFE703981921A0FBE1
:103280000101059A1368029353685A00DB0FFDF79A
:1032900048F80299864648F21F53C5F2EB13AEFB7D
:1032A0000320420910014FF0640C02FB1CEC322297
:1032B00002EBCC02A2FB0332F82303EA521300EB29
:1032C0004300C2F342121044886026E0039819219B
:1032D000A0FB0101059A1368019353689A009B0FA4
:1032E000FDF71FF80199844648F21F52C5F2EB1210
:1032F000ACFB02304309642003FB10CC322000EB0E
:103300000C10A0FB0202F02000EA521000EB0310A8
:10331000C2F3431210448860FFE706B080BD00008E
:1033200083B002900191ADF8022001980299886261
:10333000BDF8020002998885BDF802000299C8858F
:103340000299002008640299222081F83E00FFE7DC
:103350000299002081F83C00FFE702980168C868E4
:1033600040F48070C86002980168486940F001002C
:10337000486102980168C86840F02000C8600020D9
:1033800003B0704783B00190019890F83D00212868
:103390003AD1FFE701988068B0F5805F13D1FFE76D
:1033A0000198006978B9FFE70198006A00900098D9
:1033B00000886FF35F200199096848600199086AE5
:1033C0000230086208E0019A106A411C116200781C
:1033D000019909684860FFE70199C88C0138C884E1
:1033E000000468B9FFE701980168C86820F0800010
:1033F000C86001980168C86840F04000C860FFE7F5
:1034000000208DF80B0003E002208DF80B00FFE791
:103410009DF80B0003B0704780B540F27010C2F207
:103420000000FFF779FA80BDFFE7FEE781B08DF875
:1034300003009DF9030000280ED4FFE79DF9031057
:1034400001F01F02012090404A094EF20011CEF215
:10345000000141F82200FFE701B070474EF60C5022
:10346000CEF200000068C0F30220704782B08DF8F1
:10347000070000919DF9070000280AD4FFE7009893
:1034800000019DF907104EF20042CEF2000288546E
:103490000BE0009800019DF8071001F00F014EF6B7
:1034A0001452CEF200028854FFE702B070470000C9
:1034B00083B00290029800F0070000904EF60C5185
:1034C000CEF200010868019001984FF6FF0210400B
:1034D00001900198009A40EA02200022C0F2FA52BC
:1034E000104301900198086003B0704781B00090CC
:1034F00001B0704780B5FFE741F20040C4F202001E
:103500004FF400610022FEF783FBFFE700F026F88E
:10351000FFE740F20040C4F2020001221146FEF72C
:1035200077FBFFE700F01AF8FFE740F20040C4F233
:10353000020001210022FEF76BFBFFE700F00EF80E
:10354000FFE741F20040C4F202004FF400610122A3
:10355000FEF75EFBFFE700F001F880BD80B50220BA
:1035600000F0EAFA80BD000080B588B0FFE7FFE711
:103570000020029043F63000C4F20200016841F0DE
:1035800002010160006800F0020002900298FFE76B
:10359000FFE7FFE7FFE70020019043F63000C4F2A9
:1035A0000200016841F020010160006800F0200085
:1035B00001900198FFE7FFE701200390112104919A
:1035C00005900320069040F20040C4F2020003A9D7
:1035D0000091FEF715F900994FF40060039041F255
:1035E0000040C4F20200FEF70BF900F00BF908B03E
:1035F00080BD000080B5FFE741F20040C4F2020048
:103600004FF400610122FEF703FBFFE7FFF7A6FF7F
:10361000FFE740F20040C4F2020001221146FEF72B
:10362000F7FAFFE7FFF79AFFFFE740F20040C4F226
:10363000020001210022FEF7EBFAFFE7FFF78EFF01
:1036400080BD000080B582B08DF8070000208DF8A5
:1036500005008DF80600FFE79DF80600072834DC1A
:10366000FFE79DF8050040008DF80500FFE740F2F8
:103670000040C4F2020001221146FEF7C9FAFFE73A
:10368000FFF76CFF41F20040C4F202004FF400610A
:10369000FEF792FA30B1FFE79DF8050001308DF892
:1036A0000500FFE7FFE740F20040C4F202000121FD
:1036B0000022FEF7ADFAFFE7FFF750FFFFE79DF8A6
:1036C000060001308DF80600C6E79DF8070018B91E
:1036D000FFE7FFF78FFF02E0FFF70CFFFFE79DF822
:1036E000050002B080BD000080B582B08DF80700F3
:1036F00000208DF80600FFE79DF80600072841DC52
:10370000FFE7FFE79DF807100020B0EBD11F0AD0BC
:10371000FFE741F20040C4F202004FF400610122D1
:10372000FEF776FA09E041F20040C4F202004FF4DD
:1037300000610022FEF76CFAFFE7FFE7FFF70EFFDC
:10374000FFE740F20040C4F2020001221146FEF7FA
:103750005FFAFFE7FFF702FFFFE740F20040C4F225
:10376000020001210022FEF753FAFFE79DF807004F
:1037700040008DF80700FFE79DF8060001308DF846
:103780000600B9E7FFE741F20040C4F202004FF43F
:1037900000610122FEF73CFAFFE702B080BD0000A5
:1037A00080B5FFE741F20040C4F202004FF400612F
:1037B0000122FEF72DFAFFE7FFE740F20040C4F2D6
:1037C000020001221146FEF723FAFFE7FFF7C6FECB
:1037D000FFE741F20040C4F202004FF40061002212
:1037E000FEF716FAFFE7FFF7B9FEFFE740F20040E9
:1037F000C4F2020001210022FEF70AFAFFE7FFF7F8
:10380000ADFE80BD80B5FFE741F20040C4F202008A
:103810004FF400610022FEF7FBF9FFE7FFF79EFE81
:10382000FFE740F20040C4F2020001221146FEF719
:10383000EFF9FFE7FFF792FEFFE741F20040C4F225
:1038400002004FF400610122FEF7E2F9FFE7FFF703
:1038500085FE80BD80B582B000208DF807008DF810
:103860000600FFE741F20040C4F202004FF400619D
:103870000122FEF7CDF9FFE7FFF770FEFFE740F208
:103880000040C4F2020001221146FEF7C1F9FFE731
:10389000FFF764FEFFE741F20040C4F202004FF47C
:1038A0000061FEF789F998B1FFE79DF80700013044
:1038B0008DF807009DF80700FB2806DBFFE7FFF700
:1038C000A1FF01208DF8060002E0FFF747FEE2E7C6
:1038D000FFE740F20040C4F2020001210022FEF79F
:1038E00097F9FFE7FFF73AFE9DF8060002B080BDAA
:1038F00080B592B000208DF847008DF84600052075
:103900008DF81D0040F28020C2F20000808841F254
:103910001801884204D1FFE70A208DF81D00FFE757
:10392000FFE740F21000C2F200004168002006905C
:10393000884706988DF84700FFE79DF847009DF8F7
:103940001D10884280F2B680FFE740F21000C2F2FC
:103950000000808E9DF84710C840C007002800F086
:103960009980FFE79DF8471040F21000C2F2000076
:1039700000EB4100808940F28021C2F200010988F9
:10398000884280F28680FFE79DF8471040F21000E1
:10399000C2F2000000EB4100008C40F28021C2F234
:1039A00000014988884274DAFFE79DF847100DF15D
:1039B0001E0030F821004FF6FF71884216D1FFE754
:1039C0009DF8473040F21000C2F2000000EB4301C6
:1039D0008A890DF11E0121F823209DF8472000EB74
:1039E0004200008C01EB82014880FFE79DF847E030
:1039F0000DF11E00049000EB8E0130F82E00498876
:103A000040F21003C2F2000303F10C02059232F8F7
:103A10001E202033039333F81E304AF28E2CC0F65A
:103A2000000C3CF81EC0EE46CEF804C04FF0020C6D
:103A3000CEF800C001F006F90399049A05989DF8A4
:103A400047C030F81C3022F82C309DF8473031F850
:103A5000131002EB830251809DF8471030F81100DB
:103A600040F28021C2F200010988183988420FDD36
:103A7000FFE79DF8471040F21000C2F2000000EB93
:103A80004100008C132803DCFFE704F04FFFFFE741
:103A9000FFE708E09DF847200DF11E014FF6FF708B
:103AA00021F82200FFE7FFE79DF8470001308DF87D
:103AB000470042E7052000F031F89DF8460001304C
:103AC0008DF846009DF8460049F69812C1F6991205
:103AD0004CF6CD41CCF6CC4100FB01204FEAB000C2
:103AE0004CF6CC41C0F6CC41884209D8FFE7FFE74D
:103AF0000020C4F202004021FEF776F8FFE7FFE75E
:103B00000FE7000081B0ADF80200BDF8020040F2FE
:103B10001811C2F20001086001B0704780B582B090
:103B2000ADF80600BDF806004FF47A71484300F086
:103B300003F802B080BD000086B00590002001901F
:103B40004EF21400CEF2000000680090059840F29A
:103B50001811C2F200010968484304904EF218009F
:103B6000CEF2000000680390FFE74EF21800CEF29C
:103B70000000006802900298039988421ED0FFE777
:103B800002980399884207D2FFE703980299411AE5
:103B900001980844019008E000980299401A03999E
:103BA0000144019808440190FFE7029803900198AE
:103BB0000499884201D3FFE701E0FFE7D5E706B0AB
:103BC0007047000082B001900091FFE741F20000D1
:103BD000C4F2010000684006002801D4FFE7F5E7C1
:103BE0009DF8040041F20401C4F20101086001984B
:103BF00002B0704780B58EB0FFE7FFE70020069067
:103C000043F63000C4F20200016841F00401016093
:103C1000006800F0040006900698FFE7FFE7FFE762
:103C2000FFE70020059043F63000C4F2020001686F
:103C300041F002010160006800F002000590059863
:103C4000FFE7FFE74FF40050089001200290099031
:103C50000A90032003900B9040F60000C4F202008B
:103C600008A90491FDF7CCFD029A03980499022358
:103C70000893002309930A920B9040F20040C4F28B
:103C80000200FDF7BDFDFFF76FFCFFE740F6000007
:103C9000C4F202004FF400510022FDF7B9FFFFE724
:103CA0001420FFF73BFFFFE740F60000C4F20200DC
:103CB0004FF400510122FDF7ABFFFFE73220FFF781
:103CC0002DFF00208DF81E000DF11E010191012233
:103CD000009200F0CDF9009A0199A42000F0C8F9F3
:103CE000009A019916208DF81E00802000F0C0F97E
:103CF000009A01990C208DF81E00882000F0B8F978
:103D00000199A120022200F033F89DF81E0030280E
:103D100005D1FFE79DF81F00032812D0FFE79DF8AB
:103D20001F0001280DD0FFE79DF81F00022808D0D2
:103D3000FFE79DF81E0090B9FFE79DF81F0070B9DE
:103D4000FFE7BDF81E00000401BA4DF26620C0F680
:103D50000000FCF75FFB00208DF8370003E0012036
:103D60008DF83700FFE79DF837000EB080BD0000EA
:103D700080B584B0ADF80E0002918DF80720FFF7F2
:103D80000FFD7020FFF7B0FCFFF764FD9DF80E00FB
:103D9000FFF7AAFCFFF75EFDFFF702FD7120FFF7BA
:103DA000A3FCFFF757FD00208DF80600FFE79DF804
:103DB00006009DF80710884215DAFFE79DF8060017
:103DC0009DF807100139401A18BF0120FFF73AFC8F
:103DD00002999DF806208854FFE79DF806000130FF
:103DE0008DF80600E3E7FFF70DFD04B080BD00008D
:103DF00080B584B08DF80F0000208DF80E008DF88E
:103E000009008DF8080040F21410C2F20000017899
:103E100001310170007849F69812C1F699124CF6FA
:103E2000CD41CCF6CC4100FB01204FEA700049F6B1
:103E30009911C1F69911884209D3FFE740F2141095
:103E4000C2F200000078092800F3D980FFE70220C1
:103E50000DF10E010122FFF78BFF9DF80E00000708
:103E6000002800F0CB80FFE79DF80E0000F00F0067
:103E7000052800F3C380FFE79DF80E0000F00F0156
:103E80004FF6FF708840ADF80600BDF806104FF4FD
:103E9000404060EA010040F21001C2F20001888651
:103EA0000420FFF73BFE00208DF80900FFE79DF896
:103EB0000900042800F38680FFE740F21000C2F2F8
:103EC0000000808E9DF80910C840C007002872D0FD
:103ED000FFE79DF809104AF27020C0F6000030F8A4
:103EE00011000DF10A010422FFF742FF40F2100019
:103EF000C2F2000090F84400C007F8B1FFE79DF857
:103F00000A109DF80B0001F00F0140EA01209DF816
:103F1000092040F21001C2F2000101EB42021084BC
:103F20009DF80C209DF80D0002F00F0240EA0220DF
:103F30009DF8092001EB4201888124E040F28020B5
:103F4000C2F2000000889DF80A209DF80B1002F0D4
:103F50000F0241EA0221401A9DF8092040F21001A7
:103F6000C2F2000101EB420290819DF80C209DF805
:103F70000D0002F00F0240EA02209DF8092001EB3B
:103F800042010884FFE79DF80A0000F0F000802855
:103F900010D0FFE79DF8090040F21001C2F20001C5
:103FA00001EB4002002010849DF8092001EB420142
:103FB0008881FFE7FFE7FFE79DF8090001308DF8F2
:103FC000090074E701208DF8080040F21000C2F2E9
:103FD0000000808958B9FFE740F21000C2F20000EB
:103FE000008C20B9FFE700208DF80E00FFE740F2BB
:103FF0001411C2F2000100200870FFE7FFE79DF8EE
:104000000E00C00600BBFFE740F21000C2F2000045
:10401000808E0004002809D5FFE740F21001C2F2AB
:104020000001888E6FF3DF3088860CE040F21001CB
:10403000C2F200014FF6FF7088810884888E00F478
:1040400060408886FFE7FFE740F21410C2F20000EC
:104050000078F12807DBFFE740F21411C2F20001FB
:104060000A200870FFE79DF8080004B080BD00003A
:1040700080B584B0ADF80E0002918DF807200020C5
:1040800000908DF80500FFF78BFB7020FFF72CFBED
:10409000FFF7E0FB9DF80E00FFF726FBFFF7DAFBCA
:1040A00000988DF80600FFE79DF806009DF80710C0
:1040B000884216DAFFE702989DF80610405CFFF789
:1040C00013FBFFF7C7FB8DF805009DF8050008B14D
:1040D000FFE706E0FFE79DF8060001308DF80600D7
:1040E000E2E7FFF78FFB9DF8050004B080BD0000FC
:1040F00080B594B0FFE7FFE700200B9043F6300057
:10410000C4F20200016841F004010160006800F09F
:1041100004000B900B98FFE7FFE7FFE7FFE70020A5
:104120000A9043F63000C4F20200016841F0020137
:104130000160006800F002000A900A98FFE7FFE7BC
:104140004FF400500E90012007900F901090032024
:104150000890119040F60000C4F202000EA90991E7
:10416000FDF74EFB079A0898099902230E93002346
:104170000F931092119040F20040C4F20200FDF73C
:104180003FFBFFF7F1F9FFE740F60000C4F2020041
:104190004FF400510022FDF73BFDFFE70A20FFF737
:1041A000BDFCFFE740F60000C4F202004FF40051EE
:1041B0000122FDF72DFDFFE70A20FFF7AFFC0220EB
:1041C0000E90002005900F9010900320119040F267
:1041D0000040C4F202000EA9FDF712FB6420FFF7B5
:1041E0009DFC48F240100DF133010691042200F0CD
:1041F00069F8059906988DF837104DF27E21C0F6C2
:104200000001FCF73DF910B3FFE74DF28721C0F63E
:1042100000010DF13300FCF733F9C0B1FFE74DF2B7
:104220008C21C0F600010DF13300FCF729F970B1C3
:10423000FFE74DF28221C0F600010DF13300FCF7DB
:104240001FF920B1FFE701208DF84F0035E04DF256
:104250007220C0F600000DF133010491FCF7DAF88A
:1042600004984DF28221C0F60001FCF709F938B933
:10427000FFE740F20C01C2F200010A200870FFE7DC
:1042800002208DF8330048F2400000900DF1330118
:1042900001910122029200F05DFA0A20FFF73EFC34
:1042A00000980199029A002303938DF8333000F0AF
:1042B00051FA03988DF84F00FFE79DF84F0014B0B6
:1042C00080BD000080B584B0ADF80E0002918DF87D
:1042D0000720FFF765FA2820FFF706FAFFF7BAFA7A
:1042E0009DF80F00FFF700FAFFF7B4FA9DF80E00F3
:1042F000FFF7FAF9FFF7AEFAFFF752FA2920FFF7B6
:10430000F3F9FFF7A7FA00208DF80600FFE79DF804
:1043100006009DF80710884215DAFFE79DF80600B1
:104320009DF807100139401A18BF0120FFF78AF9DC
:1043300002999DF806208854FFE79DF80600013099
:104340008DF80600E3E7FFF75DFA04B080BD0000DA
:1043500080B584B08DF80F0000208DF80A008DF82C
:10436000090040F27E20C2F20000017801310170A4
:10437000007849F69812C1F699124CF6CD41CCF668
:10438000CC4100FB01204FEA700049F69911C1F6BB
:104390009911884209D3FFE740F27E20C2F2000063
:1043A0000078092800F39B81FFE748F24E100DF1D9
:1043B0000F010122FFF786FF9DF80F00000600287D
:1043C00017D5FFE79DF80F0000F00F0040F20C0139
:1043D000C2F20001097888420BDCFFE700208DF86B
:1043E0000A0048F24E100DF10A01012200F0B2F964
:1043F000FFE79DF80F000007002800F06F81FFE73E
:104400009DF80F0000F00F0040F20C01C2F2000115
:104410000978884200F36281FFE79DF80F0000F001
:104420000F014FF6FF708840ADF8060040F2100112
:10443000C2F20001888EADF80400BDF806204FF4EA
:10444000404060EA020088860B4633F80C0F40F2C9
:104450000C02C2F2000292F800C003EB4C0323F8F6
:10446000020C31F8200F127801EB420121F8020C06
:1044700000208DF80A00FFE79DF80A0040F20C01C9
:10448000C2F200010978884280F2CD80FFE740F255
:104490001000C2F20000808E9DF80A10C840C007CC
:1044A000002800F0B980FFE79DF80A104AF27A2050
:1044B000C0F6000030F811000DF10B010422FFF7E7
:1044C00001FF40F28020C2F20000808845F21051C6
:1044D000884214D0FFE740F28020C2F200008088BA
:1044E00049F6060188420AD0FFE740F28020C2F276
:1044F0000000808847F29671884246D1FFE740F27B
:104500001000C2F2000090F84400C00708B3FFE7B3
:1045100040F28020C2F2000000889DF80D109DF846
:104520000E2041EA0221401A9DF80A2040F21001B3
:10453000C2F2000101EB420290819DF80B009DF850
:104540000C2040EA02209DF80A2001EB4201088479
:104550001AE09DF80B009DF80C1040EA01209DF830
:104560000A2040F21001C2F2000101EB42029081E8
:104570009DF80D009DF80E2040EA02209DF80A20CB
:1045800001EB42010884FFE745E040F21000C2F26F
:10459000000090F84400C007D8B1FFE79DF80B0079
:1045A0009DF80C1040EA01209DF80A2040F210010D
:1045B000C2F2000101EB420290819DF80D009DF8CE
:1045C0000E2040EA02209DF80A2001EB42010884F7
:1045D00020E040F28020C2F2000000889DF80D101B
:1045E0009DF80E2041EA0221401A9DF80A2040F26F
:1045F0001001C2F2000101EB420290819DF80B0014
:104600009DF80C2040EA02209DF80A2001EB4201AF
:104610000884FFE7FFE7FFE7FFE79DF80A000130A6
:104620008DF80A0028E701208DF8090040F21000FB
:10463000C2F20000808940F28021C2F200010988A4
:1046400088420DDCFFE740F21000C2F20000008C4F
:1046500040F28021C2F200014988884236DDFFE73E
:104660009DF80F0000F00F0002280FDBFFE740F27B
:104670001001C2F20001C8898881488C088440F288
:104680007E21C2F20001002008701EE040F20C0002
:10469000C2F20000037840F21001C2F2000101F101
:1046A0000C0202EB430232F8022C8A81027801F1FB
:1046B000200000EB420030F8020C088480208DF8C6
:1046C0000F00BDF804008886FFE706E040F27E2177
:1046D000C2F2000100200870FFE7FFE7FFE79DF846
:1046E0000F0000F08F00802820D1FFE740F210007B
:1046F000C2F20000808E0004002809D5FFE740F2D6
:104700001001C2F20001888E6FF3DF3088860CE062
:1047100040F21001C2F200014FF6FF708881088458
:10472000888E00F460408886FFE7FFE740F27E2035
:10473000C2F200000078F12807DBFFE740F27E219B
:10474000C2F200010A200870FFE79DF8090004B0DA
:1047500080BD000080B584B0ADF80E0002918DF8E8
:104760000720002000908DF80500FFF719F8282099
:10477000FEF7BAFFFFF76EF89DF80F00FEF7B4FFE3
:10478000FFF768F89DF80E00FEF7AEFFFFF762F83E
:1047900000988DF80600FFE79DF806009DF80710C9
:1047A000884216DAFFE702989DF80610405CFEF793
:1047B0009BFFFFF74FF88DF805009DF8050008B145
:1047C000FFE706E0FFE79DF8060001308DF80600E0
:1047D000E2E7FFF717F89DF8050004B080BD000080
:1047E00080B58EB0FFE7FFE70020089043F6300069
:1047F000C4F20200016841F010010160006800F09D
:10480000100008900898FFE7FFE7FFE7FFE70020A8
:10481000079043F63000C4F20200016841F0100135
:104820000160006800F0100007900798FFE7FFE7BD
:10483000FFE7FFE70020069043F63000C4F20200D5
:10484000016841F001010160006800F0010006907C
:104850000698FFE7FFE710200990002003900A90D8
:10486000012002900B90022004900C9041F2000075
:10487000C4F20200019009A90591FCF7C1FF01985B
:10488000029BDDF80CC0049A05994FF0080ECDF894
:1048900024E0CDF828C00B930C92FCF7B1FF029BEB
:1048A000039A0498059909930A920B900C900020A2
:1048B000C4F20200FCF7A4FF0EB080BD80B582B048
:1048C0008DF8070000208DF806009DF8070038B12C
:1048D000FFE740F20D01C2F2000101200870FFE77E
:1048E00040F20D00C2F20000007800284CD0FFE733
:1048F00041F20000C4F202001021FDF75DF990B111
:10490000FFE741F20000C4F202000821FDF754F96C
:1049100048B1FFE70020C4F202000121FDF74CF985
:10492000012831D1FFE70A20FFF7F8F840F20D0126
:10493000C2F200010020087041F20000C4F202003F
:104940001021FDF739F920B9FFE701208DF80600A5
:10495000FFE741F20000C4F202000821FDF72CF944
:1049600020B9FFE702208DF80600FFE70020C4F21F
:1049700002000121FDF720F9012804D1FFE70420FE
:104980008DF80600FFE723E041F20000C4F20200C8
:104990001021FDF711F9012819D1FFE741F20000BC
:1049A000C4F202000821FDF707F901280FD1FFE743
:1049B0000020C4F202000121FDF7FEF838B9FFE73C
:1049C00040F20D01C2F2000101200870FFE7FFE78D
:1049D0009DF8060002B080BD80B584B0ADF80E0031
:1049E00000210091029140F28020C2F20000028872
:1049F00001924288019850430190084603F0A8FCB8
:104A000003F022FF00980290FFE702980199884284
:104A10000BD2FFE7BDF80E000021C6F208010880A6
:104A2000FFE7029801300290EFE704B080BD00007C
:104A300080B582B08DF807009DF8070040F2802114
:104A4000C2F2000188719DF80700002840F08080C4
:104A5000FFE740F28020C2F20000F02101804FF415
:104A6000A0714180808845F21051884214D1FFE73F
:104A700040F28021C2F200014FF4305008814FF41F
:104A8000285048814FF42C5088814FF4F0700880F2
:104A90004FF44870488026E040F28020C2F20000C7
:104AA000808841F66311884211D1FFE740F28021EE
:104AB000C2F200012C2008812B2048812A20888105
:104AC0004FF4F07008804FF4487048800AE040F2DC
:104AD0008021C2F200012C2008812A2048812B204D
:104AE0008881FFE7FFE740F28020C2F20000808863
:104AF00045F2103188420AD0FFE740F28020C2F22E
:104B00000000808847F2967188420BD1FFE740F29F
:104B10008021C2F200014FF4A07008804FF4F070C1
:104B20004880FFE740F28020C2F20000808849F60A
:104B3000060188420BD1FFE740F28021C2F200015A
:104B40004FF4F07008804FF448704880FFE773E03E
:104B500040F28020C2F200004FF4A0710180F021E9
:104B60004180808845F21051884214D1FFE740F21D
:104B70008021C2F200014FF4305008814FF42850D8
:104B800048814FF42C5088814FF4487008804FF4CE
:104B9000F070488030E040F28020C2F2000080884F
:104BA00041F6631188420AD0FFE740F28020C2F24A
:104BB0000000808849F60601884211D1FFE740F2E3
:104BC0008021C2F200012C2008812A2048812B205C
:104BD00088814FF4487008804FF4F07048800AE0F4
:104BE00040F28021C2F200012C2008812A20488155
:104BF0002B208881FFE7FFE740F28020C2F200000F
:104C0000808845F2103188420AD0FFE740F28020C8
:104C1000C2F20000808847F2967188420BD1FFE70C
:104C200040F28021C2F200014FF4F07008804FF48E
:104C3000A0704880FFE7FFE7002003F0DBF902B037
:104C400080BD000010B58EB08C4686461198109934
:104C5000ADF836E0ADF834C0ADF83220ADF8303004
:104C60008DF82F10ADF82C00002009900890BDF8A9
:104C700036009DF82F10884215DBFFE7BDF83200A3
:104C80009DF82F1088420EDBFFE7BDF834009DF839
:104C90002F10884207DBFFE7BDF830009DF82F108A
:104CA000884201DAFFE786E0BDF83200BDF8361031
:104CB000401A0790BDF83000BDF83410401A069035
:104CC000BDF836000290BDF8340001900798012825
:104CD00003DBFFE7012004900DE0079818B9FFE718
:104CE0000020049006E04FF0FF3004900798404207
:104CF0000790FFE7FFE70698012803DBFFE70120A5
:104D000003900DE0069818B9FFE70020039006E035
:104D10004FF0FF300390069840420690FFE7FFE710
:104D200007980699884203DDFFE70798059002E09F
:104D300006980590FFE70020ADF82A00FFE7BDF8D0
:104D40002A0005990131884235DCFFE7BDF80800EB
:104D5000BDF804109DF82F20BDF82C3002F0A6FD00
:104D600007990998084409900699089808440890FA
:104D700009980599884209DDFFE705990998401AC5
:104D800009900499029808440290FFE70898059951
:104D9000884209DDFFE705990898401A08900399B1
:104DA000019808440190FFE7FFE7BDF82A000130B1
:104DB000ADF82A00C3E70EB010BD000080B584B086
:104DC000ADF80E00ADF80C10ADF80A20ADF80830C3
:104DD000BDF80A00A0B1FFE7BDF80E0040F2802147
:104DE000C2F20001098888420ADCFFE7BDF80C0026
:104DF00040F28021C2F200014988884201DDFFE7CC
:104E000011E0BDF80E00BDF80C30BDF80A100144E9
:104E10000139BDF80820EC46CCF800208AB21946CA
:104E200002F0F8FCFFE704B080BD000080B582B05E
:104E3000ADF80600ADF804100092BDF80600BDF80C
:104E4000041003F085FA03F0FFFC00980021C6F27D
:104E50000801088002B080BD80B58CB0CF2003F07F
:104E6000E3FC00200A9003F0CFFCC120009003F087
:104E7000CBFC3020019003F0C7FCED2003F0D4FC04
:104E8000642003F0C1FC032003F0BEFC122003F0F9
:104E9000BBFC812003F0B8FCE82003F0C5FC8520B2
:104EA00003F0B2FC1020049003F0AEFC7A2003F073
:104EB000ABFCCB2003F0B8FC392003F0A5FC2C2080
:104EC00003F0A2FC0A9803F09FFC342003F09CFC42
:104ED000022003F099FCF72003F0A6FC202003F049
:104EE00093FCEA2003F0A0FC0A9803F08DFC0A98DA
:104EF00003F08AFCC02003F097FC1B2003F084FC25
:104F0000009803F091FC0120079003F07DFCC52080
:104F100003F08AFC019803F077FC019803F074FC1D
:104F2000C72003F081FCB72003F06EFC362003F0AD
:104F30007BFC482003F068FC3A2003F075FC552008
:104F400003F062FCB12003F06FFC0A9803F05CFCF4
:104F50001A2003F059FCB62003F066FC0A200390E7
:104F600003F052FCA22003F04FFCF22003F05CFCA3
:104F70000A9803F049FC262003F056FC079803F03A
:104F800043FCE02003F050FC0F20059003F03CFCB4
:104F90002A20099003F038FC282003F035FC082073
:104FA000029003F031FC0E2003F02EFC029803F077
:104FB0002BFC542003F028FCA92003F025FC4320FF
:104FC00003F022FC039803F01FFC059803F01CFC7F
:104FD0000A9803F019FC0A9803F016FC0A9803F0EB
:104FE00013FC0A9803F010FCE12003F01DFC0A9862
:104FF00003F00AFC152003F007FC172003F004FC63
:10500000072003F001FC11200B9003F0FDFB0620AC
:1050100003F0FAFB2B20069003F0F6FB562003F07A
:10502000F3FB3C2003F0F0FB052003F0EDFB0498BC
:1050300003F0EAFB059803F0E7FB3F20089003F03C
:10504000E3FB089803F0E0FB059803F0DDFB06980E
:1050500003F0EAFB0A9803F0D7FB0A9803F0D4FBAD
:10506000079803F0D1FB089803F0CEFB099803F0F2
:10507000DBFB0A9803F0C8FB0A9803F0C5FB0A980B
:1050800003F0C2FBEF2003F0BFFB0B9803F0CCFB57
:105090007820FEF743FD292003F0C6FB0CB080BD4D
:1050A00080B596B0FF20019003F0BEFB019803F09D
:1050B000ABFB982003F0A8FB06200D9003F0A4FBA7
:1050C000BC2003F0B1FB0120129003F09DFB0F20E8
:1050D000109003F099FB612003F096FB019803F018
:1050E00093FB129803F090FB129803F08DFB0B20BA
:1050F0000A9003F089FB1020099003F085FB37200C
:1051000003F082FB632003F07FFB019803F07CFB3C
:10511000019803F079FB129803F076FB129803F0E4
:1051200073FB0020159003F06FFB159803F06CFBE8
:10513000019803F069FB522003F066FB129803F01C
:1051400063FB159803F060FB4020069003F05CFBC6
:10515000BD2003F069FB129803F056FB2320029058
:1051600003F052FB4520039003F04EFB67200490B0
:1051700003F04AFB129803F047FB029803F044FB4C
:10518000039803F041FB049803F03EFBBE2003F0BC
:105190004BFB159803F038FB129803F035FBAB205E
:1051A00003F032FB602003F02FFB2220059003F078
:1051B0002BFB059803F028FB059803F025FB0598C9
:1051C00003F022FB059803F01FFBC72003F02CFB24
:1051D0003620149003F018FBED2003F025FB7F2010
:1051E00003F012FB109803F00FFBC02003F01CFB30
:1051F000109803F009FB0A9803F006FB0A200E90B2
:1052000003F002FBFC2003F00FFB082003F0FCFA84
:10521000DF20139003F008FB159803F0F5FA1598BA
:1052200003F0F2FA159803F0EFFA159803F0ECFA90
:10523000159803F0E9FA2020089003F0E5FAF3202E
:1052400003F0F2FA742003F0DFFAB42003F0ECFA72
:10525000159803F0D9FA159803F0D6FA159803F0CB
:10526000D3FAF72003F0E0FA822003F0CDFAB12060
:1052700003F0DAFA159803F0C7FA13200B9003F045
:10528000C3FA0B9803F0C0FAF22003F0CDFA8020A5
:1052900003F0BAFA042003F0B7FA069803F0B4FA60
:1052A000282003F0B1FAC12003F0BEFA172003F062
:1052B000ABFA8820079003F0A7FA079803F0A4FA46
:1052C000089803F0A1FAE02003F0AEFA159803F075
:1052D0009BFA0E9803F098FA122003F095FA0998B9
:1052E00003F092FA0E200F9003F08EFA089803F064
:1052F0008BFACC2003F088FA072003F085FA0D988A
:1053000003F082FA0A9803F07FFA0F9803F07CFA10
:10531000109803F079FA0D200C9003F075FA15201F
:10532000119003F071FA099803F06EFA159803F0E2
:105330006BFAE12003F078FA159803F065FA0A9801
:1053400003F062FA0B9803F05FFA0C9803F05CFA32
:105350000F9803F059FA1B2003F056FA712003F05E
:1053600053FA0D9803F050FA0D9803F04DFA0E9889
:1053700003F04AFA109803F047FA0F9803F044FA42
:10538000109803F041FA119803F03EFA0C2003F054
:105390003BFA159803F038FA2A2003F045FA1598DD
:1053A00003F032FA159803F02FFA129803F02CFA52
:1053B000139803F029FA2B2003F036FA159803F01E
:1053C00023FA159803F020FA032003F01DFA1F209A
:1053D00003F01AFA3A2003F027FA552003F014FAE2
:1053E000149803F021FA159803F00EFA112003F037
:1053F0001BFA7820FEF792FB292003F015FA1420FF
:10540000FEF78CFB2C2003F00FFA16B080BD0000D5
:1054100080B5CEB0ED2003F007FA0120219003F013
:10542000F3F9FE2003F0F0F9EE2003F0FDF9DE20A1
:1054300003F0EAF921200B9003F0E6F9F12003F0E4
:10544000F3F9219803F0E0F9DF2003F0EDF91020E3
:10545000459003F0D9F9C4202D9003F0E5F98F2091
:1054600003F0D2F9C620089003F0DEF900204A903C
:1054700003F0CAF9E220169003F0C6F9169803F07B
:10548000C3F9169803F0C0F9BF2003F0CDF9AA20A4
:10549000419003F0B9F9B02003F0C6F90D20009057
:1054A00003F0B2F94A9803F0AFF9009803F0ACF9B1
:1054B0004A9803F0A9F91120479003F0A5F94A98FA
:1054C00003F0A2F9192003F09FF94A9803F09CF920
:1054D0000B9803F099F94A9803F096F92D2003F000
:1054E00093F94A9803F090F93D2003F08DF94A981A
:1054F00003F08AF95D20269003F086F94A9803F0BC
:1055000083F9269803F080F94A9803F07DF9B120D9
:1055100003F08AF9802003F077F94A9803F074F9D0
:105520008B20109003F070F94A9803F06DF99620E3
:10553000019003F069F94A9803F066F9B22003F08C
:1055400073F94A9803F060F94A9803F05DF9022074
:10555000239003F059F94A9803F056F9032002907A
:1055600003F052F94A9803F04FF9B3202B9003F05F
:105570005BF94A9803F048F94A9803F045F94A98CC
:1055800003F042F94A9803F03FF94A9803F03CF9D6
:105590004A9803F039F94A9803F036F94A9803F02B
:1055A00033F94A9803F030F94A9803F02DF94A98F4
:1055B00003F02AF94A9803F027F94A9803F024F9EE
:1055C0004A9803F021F94A9803F01EF94A9803F02B
:1055D0001BF94A9803F018F94A9803F015F94A980C
:1055E00003F012F94A9803F00FF94A9803F00CF906
:1055F0004A9803F009F94A9803F006F94A9803F02B
:1056000003F9B42003F010F9109803F0FDF84A985C
:1056100003F0FAF8019803F0F7F84A9803F0F4F869
:10562000A12003F0F1F84A9803F0EEF8B52003F05A
:10563000FBF8239803F0E8F84A9803F0E5F802989D
:1056400003F0E2F84A9803F0DFF80420039003F037
:10565000DBF84A9803F0D8F8B62003F0E5F84A984A
:1056600003F0D2F84A9803F0CFF8B7201D9003F06A
:10567000DBF84A9803F0C8F84A9803F0C5F83F20D1
:1056800003F0C2F84A9803F0BFF85E2003F0BCF8BC
:105690004A9803F0B9F86420489003F0B5F84A98A6
:1056A00003F0B2F88C2003F0AFF84A9803F0ACF89E
:1056B000AC2003F0A9F84A9803F0A6F8DC2030905B
:1056C00003F0A2F84A9803F09FF8702003F09CF8CA
:1056D0004A9803F099F8902003F096F84A9803F05E
:1056E00093F8EB2003F090F84A9803F08DF8309887
:1056F00003F08AF84A9803F087F8B82003F094F88A
:105700004A9803F081F84A9803F07EF84A9803F02B
:105710007BF84A9803F078F84A9803F075F84A98AD
:1057200003F072F84A9803F06FF84A9803F06CF8A7
:10573000BA2003F079F82420069003F065F84A981F
:1057400003F062F84A9803F05FF84A9803F05CF8B7
:10575000C12003F069F82020099003F055F84A9819
:1057600003F052F8542003F04FF84A9803F04CF835
:10577000FF204B9003F048F84A9803F045F8C22008
:105780001E9003F051F80A20189003F03DF84A9853
:1057900003F03AF8039803F037F84A9803F034F826
:1057A000C32003F041F83C20249003F02DF84A98E0
:1057B00003F02AF83A20469003F026F84A9803F0BE
:1057C00023F8392003F020F84A9803F01DF8372019
:1057D00003F01AF84A9803F017F8249803F014F825
:1057E0004A9803F011F836200D9003F00DF84A980E
:1057F00003F00AF83220339003F006F84A9803F0D9
:1058000003F82F20049002F0FFFF4A9802F0FCFFFB
:105810002C204D9002F0F8FF4A9802F0F5FF292065
:10582000499002F0F1FF4A9802F0EEFF2620059021
:1058300002F0EAFF4A9802F0E7FF069802F0E4FF60
:105840004A9802F0E1FF069802F0DEFF4A9802F063
:10585000DBFF2320379002F0D7FF4A9802F0D4FFF5
:10586000249802F0D1FF4A9802F0CEFF0D9802F082
:10587000CBFF4A9802F0C8FF339802F0C5FF4A9860
:1058800002F0C2FF049802F0BFFF4A9802F0BCFF8A
:105890004D9802F0B9FF4A9802F0B6FF499802F01D
:1058A000B3FF4A9802F0B0FF059802F0ADFF4A98A6
:1058B00002F0AAFF069802F0A7FF4A9802F0A4FFA0
:1058C000069802F0A1FF4A9802F09EFF379802F076
:1058D0009BFF4A9802F098FF2D9802F0A5FF6220E6
:1058E0001A9002F091FF4A9802F08EFF052017905F
:1058F00002F08AFF4A9802F087FF8420289002F085
:1059000083FF4A9802F080FFF020429002F07CFF73
:105910004A9802F079FF1820079002F075FF4A9824
:1059200002F072FFA42002F06FFF4A9802F06CFFB1
:10593000079802F069FF4A9802F066FF50204390F2
:1059400002F062FF4A9802F05FFF0C2002F05CFF59
:105950004A9802F059FF17200A9002F055FF4A9822
:1059600002F052FF952002F04FFF4A9802F04CFFE0
:10597000F320449002F048FF4A9802F045FFE620E9
:10598000319002F041FF4A9802F03EFFC52002F03C
:105990004BFF339802F038FF4A9802F035FF44205D
:1059A000409002F031FF4A9802F02EFF652002F08D
:1059B0002BFF4A9802F028FF7620349002F024FF53
:1059C0004A9802F021FF88203C9002F01DFF4A987F
:1059D00002F01AFF089802F027FF099802F014FF5E
:1059E0004A9802F011FF0A9802F00EFF4A9802F05E
:1059F0000BFF219802F008FF4A9802F005FFC7202C
:105A00001F9002F011FF4A9802F0FEFE4A9802F041
:105A1000FBFE4A9802F0F8FE4A9802F0F5FEC82014
:105A200002F002FF4A9802F0EFFE4A9802F0ECFE04
:105A30004A9802F0E9FE4A9802F0E6FEC92002F018
:105A4000F3FE4A9802F0E0FE4A9802F0DDFE4A9822
:105A500002F0DAFE4A9802F0D7FE4A9802F0D4FE2D
:105A60004A9802F0D1FE4A9802F0CEFE4A9802F01F
:105A7000CBFE4A9802F0C8FE4A9802F0C5FE4A984A
:105A800002F0C2FE4A9802F0BFFE4A9802F0BCFE45
:105A90004A9802F0B9FE4A9802F0B6FE4A9802F01F
:105AA000B3FEE020159002F0BFFE16200C9002F02D
:105AB000ABFE4A9802F0A8FE1C20199002F0A4FE4A
:105AC0004A9802F0A1FE0B9802F09EFE4A9802F05E
:105AD0009BFE0D9802F098FE4A9802F095FE462033
