:020000040800F2
:10000000300500209D010008B90D0008B10D000861
:10001000B50D0008B9020008C90F00080000000073
:10002000000000000000000000000000ED0D0008CE
:10003000BD02000800000000E90D0008210E0008C4
:10004000C1010008C1010008C1010008C101000888
:10005000C1010008C1010008C1010008C101000878
:10006000C1010008C1010008C1010008C101000868
:10007000C1010008C1010008C1010008C101000858
:10008000C1010008C1010008C1010008C101000848
:10009000C1010008C1010008C1010008C101000838
:1000A000C1010008C1010008C1010008C101000828
:1000B000C1010008C1010008C1010008C101000818
:1000C000C1010008C1010008C1010008C101000808
:1000D000C1010008B90F0008C1010008C1010008F2
:1000E000C1010008C1010008C1010008C1010008E8
:1000F000C1010008C1010008C1010008C1010008D8
:10010000C1010008C1010008C1010008C1010008C7
:10011000C1010008C1010008C1010008C1010008B7
:10012000C1010008C1010008C1010008C1010008A7
:10013000C1010008C1010008C1010008C101000897
:10014000C1010008C1010008C1010008C101000887
:10015000C1010008C1010008C1010008C101000877
:10016000C1010008C1010008C1010008C101000867
:10017000C1010008C1010008C10100080000000021
:10018000C1010008C1010008DFF80CD000F082F8BE
:1001900000480047DD1000083005002009480168CC
:1001A00041F4700101600848804708480047FEE7B5
:1001B000FEE7FEE7FEE7FEE7FEE7FEE7FEE7FEE717
:1001C000FEE7000088ED00E0290E00088901000824
:1001D0002DE9F05F0546002092469B46884606467C
:1001E000814640241BE0284641464746224600F00F
:1001F00041F853465A46C01A914110D31146184649
:10020000224600F028F82D1A67EB01084F462246D7
:100210000120002100F01FF817EB00094E41201EBD
:10022000A4F10104DFDC484631462A464346BDE8D6
:10023000F09FD2B201E000F8012B491EFBD27047BB
:100240000022F6E710B513460A4604461946FFF7A2
:10025000F0FF204610BD202A04DB203A00FA02F10C
:10026000002070479140C2F1200320FA03F31943A4
:1002700090407047202A04DB203A21FA02F0002146
:10028000704721FA02F3D040C2F1200291400843A6
:1002900019467047064C074D06E0E06840F0010340
:1002A00094E8070098471034AC42F6D3FFF770FF8C
:1002B0003812000858120008FEE7000070470000DE
:1002C00070B5866D044600F02DF994F835100229BA
:1002D00028D105462068216C026822F016020260CF
:1002E000426922F08002426109B9A16C19B101682A
:1002F00021F008010160016821F00101016000BFE7
:1003000020680068C00714D000F00CF9401B0628D4
:10031000F6D320206065002084F83400032084F8A0
:10032000350070BD80206065002084F83400012015
:1003300070BDE06D3F2101FA00F0B06000200121A6
:1003400084F8340084F8351070BD000090F8351042
:10035000022909D1052180F835100068016821F0D3
:100360000101016000207047802141650120704734
:100370002DE9F04F83B000F13E4202F1FF724FEAE7
:10038000B22241F600470192C4F2020708224FF060
:10039000010E00254FF0000A4FF00008B84208BFD8
:1003A000072200920AE000BF08F101080AF1040ADE
:1003B000B8F1100F05F1020500F0A2800C680EFAEA
:1003C00008FB14EA0B09EFD04C6804F0030CACF105
:1003D000010EBEF1010F12D882680323CE6803FA22
:1003E00005F7BA4306FA05F73A4382604268C4F358
:1003F000001722EA0B0207FA08F73A434260BCF101
:10040000030F1CD0C26803238E6803FA05F7BA43B2
:1004100006FA05F73A43BCF1020FC2600FD16FF044
:10042000030202EA580202440AF01C060F23176A6C
:1004300003FA06F40B69A743B3403B431362026817
:1004400003234F68AB409A4307F00303AB401A43C2
:10045000FB004FF0010E0260A6D5002243F64403D4
:100460000292C4F202031A6843F6004442F4804246
:100470001A601A68C4F2010402F480420292029ADD
:1004800028F003024FF6084B2244CFF6FF7B52F8C8
:100490000B300AF00C070F26BE4023EA060C019B26
:1004A000009E072B38BF1E4606FA07F747EA0C03E3
:1004B00042F80B3022684B6842EA0907DE0358BF56
:1004C00022EA0907276062689E0342EA090758BFCB
:1004D00022EA09076760A268DE0242EA090758BFFC
:1004E00022EA0907A76043F60C47C4F201073A68FD
:1004F0009B0242EA090358BF22EA09033B6053E723
:1005000003B0BDE8F08F0000002A08BF0904816134
:100510007047000042F20000CEF204000068000CB8
:100520007047000040F22810C2F2000000687047D7
:1005300040F2080040F22811C2F20000C2F20001AD
:1005400000780A68104408607047000080B543F6E0
:100550000040C4F20200016841F4007101600168CA
:1005600041F480610160052000F042F80F2000F0A6
:1005700005F800F02BF8002080BD0000B0B540F277
:100580000802C2F2000240F204011278C2F2000135
:100590004FF47A730968B3FBF2F20446B1FBF2F14F
:1005A000084600F0B3FA0F2C4FF001050CD858B9EB
:1005B0004FF0FF3021460022002500F009F840F2FC
:1005C0000C00C2F2000004602846B0BD7047000075
:1005D00070B514460D46064600F0F8FC2946224642
:1005E00000F0ECFB0146304600F0F8FC70BD000066
:1005F00080B500F005FD80BD2DE9F041002800F038
:100600008B8043F60808C4F202080446D8F8F803C1
:100610000D4600F00700884207D288F8F853D8F852
:10062000F80300F00700A84276D12068810717D5AB
:10063000410705D5D8F8001041F4E051C8F8001082
:10064000010705D5D8F8001041F46041C8F8001042
:10065000D8F80010A26821F0F0011143C8F800108A
:10066000C0073FD1D8F8F80300F00700A84207D927
:1006700088F8F853D8F8F80300F00700A8424BD1E7
:100680002068410707D5D8F80010E26821F4E0514E
:100690001143C8F80010000708D5D8F800002169F8
:1006A00020F4604040EAC100C8F8000000F054F8AF
:1006B000D8F8001041F22622C1F30311C0F600025F
:1006C000515C40F2040220FA01F140F20C00C2F247
:1006D00000000068C2F200021160FFF74FFF002027
:1006E000BDE8F0816068811E022907D258F8081C15
:1006F00089015CBF0120BDE8F08110E0012807D12D
:1007000058F8081C89035CBF0120BDE8F08106E0B1
:1007100058F8081C890702D40120BDE8F081D8F8F8
:10072000001021F003010843C8F80000FFF7FAFEAB
:10073000064641F2883700BFD8F80000616800F033
:100740000C00B0EB810F8DD0FFF7ECFE801BB842A0
:10075000F2D90320BDE8F08110B543F60404C4F2D9
:100760000204606800F00C0142F200400829C0F267
:10077000F40007D0042918BF10BD41F20020C0F2D8
:100780007A0010BD216801F03F0221682368490208
:10079000C3F3881105D4A1FB00010023FFF718FD66
:1007A00006E041F20020C0F27A004843B0FBF2F0CC
:1007B00021680222C1F3014102EB4101B0FBF1F0DB
:1007C00010BD00002DE9F04182B0002800F0A280A9
:1007D0000446007843F60006C007C4F2020643D080
:1007E000B06800F00C00042805D1306880033BD5C8
:1007F0006068C8BB8EE0B06800F00C00082802D129
:1008000070684002F1D46568B5F5A02F0AD0B5F53F
:10081000803F0BD0306820F480303060306820F4A6
:10082000802006E0306840F480203060306840F47A
:1008300080303060FFF776FE002D054611D000BFF6
:100840003068800310D4FFF76DFE401B6428F7D991
:1008500022E100BFFFF766FE401B64284FF0030053
:1008600055D830688003F5D4207880071AD5B06851
:1008700010F00C0F09D0B06800F00C00082840F010
:100880008A807068400200F186803068800702D557
:10089000E06801283ED13068216920F0F80040EA84
:1008A000C10030602078000738D4207840074CD44D
:1008B000A5695DB3B06800F00C00082840F09E8088
:1008C000012D27D07068E16900F480028A4221D1AD
:1008D000216A00F03F028A421CD147F6C071626A69
:1008E0000140B1EB821F15D1A26A0023CFF6FF733E
:1008F00003EBC23200F440316FF30F02914209D191
:10090000E16A00F07060B0EB016F03D1002002B02B
:10091000BDE8F081012002B0BDE8F08160690028E7
:1009200040F20000C4F2472057D00121C0F8801ED9
:10093000FFF7F8FD054600BF706F8007B5D4FFF7DD
:10094000F1FD401B0228F7D9A6E0306C10F080586A
:100950000AD100200190306C40F080503064306C3F
:1009600000F080500190019847F20007C4F20007A0
:100970003868C00524D4386840F480703860FFF7C8
:10098000D1FD05463868C0051AD4FFF7CBFD401BE2
:100990000228F7D980E0E068002851D00020C4F296
:1009A000472001210160FFF7BDFD05463068800743
:1009B0003FF571AFFFF7B6FD401B0228F6D96BE09B
:1009C000A568052D50D0012D52D0306F20F00100C8
:1009D0003067306F20F004004DE00021C0F8801E29
:1009E000FFF7A0FD054600BF706F80077FF55DAF84
:1009F000FFF798FD401B0228F6D94DE00027C4F20E
:100A0000472700203866FFF78DFD022D05460BD1E4
:100A10003068800158D5FFF785FD401B02284FF054
:100A20000300F5D973E700BF306880017FF56EAF32
:100A3000FFF778FD401B02284FF00300F4D966E76A
:100A40000020C4F2472000210160FFF76BFD05463E
:100A5000306880077FF526AFFFF764FD401B022852
:100A60004FF00300F4D952E7306F40F004003067D4
:100A7000306F40F001003067FFF754FD002D054650
:100A800041F2883714D000BF306F800713D4FFF7CE
:100A900049FD401BB842F7D9032002B0BDE8F08100
:100AA000FFF740FD401BB8424FF003003FF62FAF69
:100AB000306F8007F4D4B8F1000F7FF4F9AE306CDA
:100AC00020F080503064F3E604F11C052FCD08437C
:100AD0000021CFF6FF7140EA821001EBC3316FF3C2
:100AE0000F0140EA05600843706001203866FFF797
:100AF00019FD0446306880013FF508AFFFF712FD8D
:100B0000001B02284FF00300F4D900E780B500F085
:100B10006FF980BD7047000070470000B0B582B02B
:100B2000016805460868CA684C6900F02F03202B4D
:100B300002F0200305D123B1284600F0A9F902B044
:100B4000B0BD5FEA007C1EBF04F0010E02F4907499
:100B500014EB0E0424D12B6B1040C20617D5012BC9
:100B600015D1002001900868019048680190019813
:100B7000486940061CD4A88DEA8DEB8D002B1CBF64
:100B8000801A5FEA004240F09B8002B0B0BD0106CF
:100B900037D44006F9D5284600F06EF902B0B0BD52
:100BA000C10718BF12F4807130D1410734D43AE044
:100BB000A86B0268526893B2002BE6D0AC8DA342BA
:100BC000E3D2EA85C269B2F5807F16D0CA6822F402
:100BD0008072CA604A6922F001024A614A6922F0C1
:100BE00040024A61202285F83E2000222A63CA681A
:100BF00022F01002CA60FFF763FBA88DE98D401A4E
:100C00006FE0284600F0AEF902B0B0BD296C41F0AB
:100C100001012964410706D5BEF1000F03D0296CFC
:100C200041F002012964810706D5BEF1000F03D00F
:100C3000296C41F004012964BCF1000F06D55EEA7D
:100C4000030103D0296C41F008012964296C0029B3
:100C50009BD01040800602D5284600F019F928687C
:100C60004069296C00F0400001F00801401820D0D4
:100C7000284600F0EBF828684169490614D5416917
:100C800021F040014161A86B70B140F63D61C0F6B2
:100C900000010165FFF75AFB00283FF476AFA86B0F
:100CA000016D884702B0B0BD2846FFF735FF02B09E
:100CB000B0BD2846FFF730FF0020286402B0B0BD69
:100CC000CA6822F49072CA604A6922F001024A613D
:100CD000202285F83E2000222A63CA6822F01002F2
:100CE000CA6081B22846FFF715FF02B0B0BD000010
:100CF00010B590F83E30202B0BD100294FF00104A5
:100D000018BF002A01D1204610BD90F83C30012BBD
:100D100001D1022010BD0123002480F83C3004637F
:100D200000F006F9204610BD80B5006841F20001D0
:100D3000C4F20101884218BF80BD40F2241EC2F2F5
:100D4000000EBEF800100A0423D440F21402C2F2CE
:100D5000000213784A0404D40D2B0CD141F48042D4
:100D600015E048F2000C0022CFF6FF7C0A2B08BFEA
:100D700041EA0C020BE040F25C004A1C6FF39F3129
:100D8000C2F20000435490B2C72888BF0022AEF8D8
:100D9000002040F2180040F21401C2F20000C2F23A
:100DA00000010122FFF7A4FF80BD00007047000092
:100DB000FEE70000FEE700007047000000F00700BB
:100DC00080F00703042B28BF04234FF0FF3C0338B7
:100DD0000CFA03F338BF0020994381400CFA00F06D
:100DE00022EA000008437047704700007047000087
:100DF000B0B501380024B4EB106F1CBF0120B0BDAA
:100E00004EF21005CEF2000568604FF0FF300F2162
:100E100000F0E4F80720AC6028602046B0BD000078
:100E200080B5FFF785FB80BD4EF68850CEF20000FE
:100E3000016841F4700101607047000080B5806B6B
:100E40000021C185C184FFF767FE80BD0168CA68C3
:100E500022F49072CA604A6922F001024A61026B70
:100E6000012A03D1CA6822F01002CA60202180F84A
:100E70003E1000210163704780B50168CA6822F006
:100E80004002CA60202180F83D10FFF78FFF80BD2F
:100E900010B5044690F83E00222847D1A168B1F56C
:100EA000805F01D1206980B1A06AB1F5805F07D071
:100EB00009B9216921B12168496801F07F0101E088
:100EC000216849680170012006E02068A16A406835
:100ED0006FF35F2008800220A16A0844A062E08DC1
:100EE00001380104E08518BF10BD2068C16821F0F9
:100EF0002001C160C16821F48071C160416921F0A5
:100F000001014161202184F83E10216B012908D1A3
:100F1000C16821F01001C160A18D2046FFF7FAFDE4
:100F200002E02046FFF700FF0020206310BD000014
:100F300081628285C28500212222016480F83E20E0
:100F4000026880F83C10D06840F48070D06050692E
:100F500040F001005061D06840F020010020D160D5
:100F60007047000090F83D10212923D18168B1F528
:100F7000805F01D1016931B1016A02684B1C0362D3
:100F80000978516007E0016A036831F8022B6FF3BA
:100F90005F225A600162C18C01390A04C18418BF02
:100FA00070470068C16821F08001C160C16841F0EC
:100FB0004001C1607047000080B540F21800C2F2E5
:100FC0000000FFF7ABFD80BDFEE700004EF60C50C1
:100FD000CEF200000068C0F3022070474EF61453B2
:100FE00000F00F02CEF2000309011A4400F1604341
:100FF000B0F1FF3FC8BF03F56442117070470000B5
:101000004EF60C51CEF200010A684FF6FF031A406B
:1010100060F30A2242F0806040F0FD700860704783
:1010200040F21001C2F200010860704780B54FF431
:101030007A71484300F002F880BD000080B54EF29E
:10104000180140F21002CEF20001C2F2000251F883
:1010500004CC1268002302FB00FE08680A68904274
:10106000FCD003449B1A904298BF634473451046DA
:1010700028BF80BDF2E70000B0B586B00020019027
:1010800043F63000C4F202000168002441F001017F
:1010900001600068C4F2020400F0010001900198B0
:1010A000402001900120CDE90200022001AD049012
:1010B00020462946FFF75CF980200190204629460A
:1010C000FFF756F9204640210122FFF71DFA20467E
:1010D00080210122FFF718FA06B0B0BD0024C4F247
:1010E0000204FFF733FA4FF4A87008210222072305
:1010F00000F024F8A820FFF793FFFFF7BDFF00BF23
:10110000204640210022FFF7FFF9204680210122DE
:10111000FFF7FAF94FF47A70FFF788FF2046402175
:101120000122FFF7F1F9204680210022FFF7ECF9B8
:101130004FF47A70FFF77AFFE2E700002DE9F04FF5
:1011400093B00E46074643F6400807A8302199465B
:101150009346C4F20208FFF773F800250695CDE91F
:101160000455CDE902550195D8F80000012440F05E
:101170008050C8F80000D8F800004FF0020A00F0D4
:1011800080500190019847F200000195C4F20000E0
:10119000016841F48041016000680EA900F48040BC
:1011A000019001984FF4803008904FF4800081E85E
:1011B000C10807A80794CDF834A0CDF84890FFF7F0
:1011C00001FBE8B90F20CDE9020A4FF4A0500590C9
:1011D0004FF48050069002A805210495FFF70CFA01
:1011E00008B101240CE0FFF795F941F201018842B2
:1011F00002BFD8F8C00340F48070C8F8C0030024D0
:10120000204613B0BDE8F08F02E008C8121F08C1E5
:10121000002AFAD170477047002001E001C1121F77
:10122000002AFBD17047000000000000000001020E
:1012300003040607080900005812000800000020F7
:1012400010000000081200086812000810000020BA
:101250002005000018120008010000000024F4001E
:08126000010000001000000075
:040000050800018965
:00000001FF
