:020000040800F2
:10000000009001203D030008AF1E0008A71E000855
:10001000AB1E0008AD0A0008F52200080000000031
:100020000000000000000000000000007D02000849
:10003000B10A000800000000D9020008B11E000843
:100040006103000861030008610300086103000800
:1000500061030008610300086103000861030008F0
:1000600061030008610300086103000861030008E0
:1000700061030008610300086103000861030008D0
:1000800061030008610300086103000861030008C0
:1000900061030008610300086103000861030008B0
:1000A00061030008610300086103000861030008A0
:1000B0006103000861030008610300086103000890
:1000C0006103000861030008610300086103000880
:1000D00061030008E52200086103000861030008CD
:1000E0006103000861030008610300086103000860
:1000F0006103000861030008610300086103000850
:10010000610300086103000861030008610300083F
:100110006103000861030008D91E0008610300089C
:10012000610300086103000861030008610300081F
:10013000610300086103000861030008610300080F
:1001400061030008610300086103000861030008FF
:1001500061030008610300086103000861030008EF
:1001600061030008610300086103000861030008DF
:10017000610300086103000861030008000000003B
:10018000610300086103000800F002F800F067F85E
:100190000AA090E8000C82448344AAF10107DA45E2
:1001A00001D100F05CF8AFF2090EBAE80F0013F0CD
:1001B000010F18BFFB1A43F0010318472871040010
:1001C000487104000A444FF0000C10F8013B13F092
:1001D000070408BF10F8014B1D1108BF10F8015BA0
:1001E000641E05D010F8016B641E01F8016BF9D193
:1001F00013F0080F1EBF10F8014BAD1C0C1B09D1EA
:100200006D1E58BF01F801CBFAD505E014F8016B5B
:1002100001F8016B6D1EF9D59142D6D370470000ED
:100220000023002400250026103A28BF78C1FBD8FF
:10023000520728BF30C148BF0B607047642900F0E7
:100240005181782900F08A81732900F0E38300202E
:1002500070471FB536F00EFD1FBD10B510BD00F084
:10026000F3FB1146FFF7F5FF2EF06CF800F011FCE0
:1002700003B4FFF7F2FF03BC04F06EF92C4B1968CE
:100280000868B0E8F04F80F30988BFF36F8F4FF034
:10029000000080F3118870470000000008480068E3
:1002A000006880F308884FF0000080F3148862B67D
:1002B00061B6BFF34F8FBFF36F8F00DF00BF00BF8A
:1002C00008ED00E0DFF80C00016841F47001016006
:1002D000704700BF88ED00E0EFF30980BFF36F8F38
:1002E000134B1A681EF0100F08BF20ED108A20E98A
:1002F000F04F106009B44FF0500080F31188BFF345
:100300004F8FBFF36F8F35F0CBFB4FF0000080F3C2
:10031000118809BC19680868B0E8F04F1EF0100F8A
:1003200008BFB0EC108A80F30988BFF36F8F704765
:10033000A0000020EFF30580704700000C48016822
:1003400041F4700101600B4880470B480047FEE70D
:10035000FEE7FEE7FEE7FEE7FEE7FEE7FEE7FEE775
:10036000FEE7000005480649044A064B70470000B6
:1003700088ED00E0C51E000889010008008001200A
:100380000090012000800120704753EA020C00F029
:1003900069802DE9F04B4FF00006002B1FBFB3FA28
:1003A00083F503FA05F424FA05F65E4012BF1643FE
:1003B000B2FA82F502FA05F4C5F120051EBF22FA51
:1003C00005FC44EA0C04203556EA044C4FEA144478
:1003D00018BF641C4FF000084FF00009904271EB09
:1003E000030C39D3002919BFB1FA81F701FA07F6D6
:1003F000B0FA80F700FA07F6C7F120071EBF20FA0F
:1004000007FC46EA0C062037B6FBF4FCA7EB050711
:10041000103F07F01F0BCBF120060CFA0BFB2CFA58
:1004200006F644BFB3460026202FA4BF5E464FF019
:10043000000B5BEA060C08BF4FF0010B19EB0B0930
:10044000ABFB027C48EB0608C01B06FB02CC0BFB97
:1004500003CC71EB0C01C1E70B460246414648460E
:10046000BDE8F08B13B54FF000004FF00001AFF383
:100470000080BDE81C4070470FB4044910B503AAC2
:10048000029800F0CBFA10BC5DF814FB14000020B9
:1004900070B50C460546012A05D02878800600D59F
:1004A000EA69002302E0012305E05B1C934202D2CB
:1004B000E05C0028F9D1A869E618C01AA861286A8A
:1004C000184428622846AFF3008004E0D5E90121F2
:1004D00014F8010B9047B442F8D32846AFF30080DC
:1004E00070BD00002DE9F041064600241068752912
:1004F000314616A510D0AFF30080002802DA404242
:1005000013A507E031688A0701D512A502E0490763
:1005100004D511A5012401E0AFF3008000210A22D7
:1005200006F1240709E0B0FBF2FCB0FBF2F302FB9A
:100530001C00303078541846491C0028F3D123465B
:100540002A463046BDE8F04100F0E0B90000000066
:100550002D0000002B0000002000000070B50446B4
:100560000D4621461068AFF300802188090502D5A9
:100570000F4A7A4402E00E4A7A440E32002104F116
:10058000240305E000F00F060009965D5E54491C47
:100590000028F7D120780023000704D5702D02D061
:1005A00009B1022311322046BDE8704000F0AEB917
:1005B0007A6804002DE9F0410F46054600202862C4
:1005C0002846E968884770B3252805D0D5E9012178
:1005D0009047286A401CF2E7E968284600268847C9
:1005E0006C2804460AD0682C08D04C2C35D06A2CD4
:1005F00031D0742C31D07A2C2FD016E0E968064621
:1006000028468847B042044608D16C2E23D04FF4C8
:1006100080662846E9688847044606E06C2E03D0C9
:100620004FF4807601E01EE04026E4B1A4F14100E1
:10063000192802D8203446F400663A462146284656
:100640002E60FFF7FBFD60B1012808D0FF1D27F0E9
:1006500007070837B4E78026DBE70026D9E73F1D08
:10066000AEE72046B2E7286ABDE8F08140EA010320
:10067000024630B59B0710D14FF0013400E008C2AC
:1006800008C91D1B9D4315EAC41FF8D013F0FF01D4
:1006900002F8011B0DD01B0AF8E711F8013B002BF3
:1006A00002F8013B05D011F8013B002B02F8013B99
:1006B000F3D130BD10B5431C02E010F8011B71B13D
:1006C0008107FAD14FF0013202C88C1A8C4314EA28
:1006D000C211F9D0C01A0A0603D0C01E10BDC01A3C
:1006E00010BD0A0401D0801E10BD0902FCD0401EBE
:1006F00010BD032A40F2308010F0030C00F015808A
:1007000011F8013BBCF1020F624498BF11F801CB14
:1007100000F8013B38BF11F8013BA2F1040298BF79
:1007200000F801CB38BF00F8013B11F0030300F0E3
:100730002580083AC0F0088051F8043B083A51F887
:1007400004CBA0E80810F5E7121D5CBF51F8043B8C
:1007500040F8043BAFF30080D20724BF11F8013BFF
:1007600011F801CB48BF11F8012B24BF00F8013B61
:1007700000F801CB48BF00F8012B704710B5203AB4
:10078000C0F00B80B1E81850203AA0E81850B1E84A
:100790001850A0E81850BFF4F5AF5FEA027C24BF00
:1007A000B1E81850A0E8185044BF18C918C0BDE8F7
:1007B00010405FEA827C24BF51F8043B40F8043BC0
:1007C00008BF7047D20728BF31F8023B48BF11F875
:1007D000012B28BF20F8023B48BF00F8012B7047CF
:1007E00002F0FF0343EA032242EA024200F002B8A9
:1007F0004FF000020429C0F0128010F0030C00F04A
:100800001B80CCF1040CBCF1020F18BF00F8012BC7
:10081000A8BF20F8022BA1EB0C0100F00DB85FEA95
:10082000C17C24BF00F8012B00F8012B48BF00F861
:10083000012B70474FF0000200B5134694469646D0
:10084000203922BFA0E80C50A0E80C50B1F12001E3
:10085000BFF4F7AF090728BFA0E80C5048BF0CC091
:100860005DF804EB890028BF40F8042B08BF7047EF
:1008700048BF20F8022B11F0804F18BF00F8012B61
:10088000704700004FF0013C50F8042B51F8043B36
:100890009A4221D1A2EB0C03934313EACC1317D154
:1008A00050F8042B51F8043B9A4215D1A2EB0C03EB
:1008B000934313EACC130BD150F8042B51F8043BAB
:1008C0009A4209D1A2EB0C03934313EACC13DBD079
:1008D0004FF00000704700BFD01A01BAB1FA81F1A1
:1008E00001F0180122FA01F0CB40C1F12001DBB286
:1008F000C0B2C01A2CFA01F3D11A914311EAC31104
:10090000E6D1704770477047704770472DE9F04750
:100910000D4699469246044600F12408016888066F
:1009200004D5E06921F01001216000E00120A84217
:1009300001DD471B00E00027A1697A1902EB0900DD
:10094000081AA0612078C00602D42046AFF30080C8
:10095000002608E0D4E901211AF806009047206A31
:10096000401C761C20624E45F4DB2078C0060AD578
:100970002046AFF3008006E0D4E901213020904703
:10098000206A401C2062381EA7F10107F4DC07E052
:10099000D4E9012118F805009047206A401C206224
:1009A000281EA5F10105F3DC2046AFF30080207876
:1009B000000602D50220BDE8F0870120FBE7000019
:1009C00001694A1C02610878704700B58FB0CDE913
:1009D00001310021059105497944CDE90310114603
:1009E0006846FFF7E7FD0FB000BD0000E5FFFFFF21
:1009F00010B5436913B1AFF3008001E0FFF748FD84
:100A0000012010BD127800F124010A7000224A7002
:100A10000122EDE711684FF0FF32E9E7074B70B5AF
:100A20000D467B44FFF7D1FF0446284600F008F846
:100A300010B14FF0FF3070BD204670BDF7FF0000D1
:100A4000007B00F080007047754600F02BF8AE4642
:100A500005006946534620F00700854618B020B5CA
:100A6000FFF780FCBDE820404FF000064FF0000784
:100A70004FF000084FF0000B21F00701AC46ACE846
:100A8000C009ACE8C009ACE8C009ACE8C0098D46B3
:100A9000704710B50446AFF300802046BDE8104013
:100AA000FFF7E6BB004870479C7F012000BFFEE7D0
:100AB0007047000070B504461D460023B5F5804F11
:100AC00013D154F822300C480340D1E9000640EA23
:100AD00006108E6840EA06208E8940EA06408E693C
:100AE0003043034344F8223003E06FF0704044F891
:100AF0002200002070BD00000000F0CF10B50346BA
:100B00000022086853F8202012480240D1E901046D
:100B10002043CC6820430C6920434C6920438C69F6
:100B20002043CC6920430C6A20434C6A20438C6AE2
:100B30002043CC6A2043CC6B20430C6B2043024300
:100B40008868082801D142F04002086843F8202054
:100B5000002010BD8000F0FF30B503460024501C7B
:100B600053F8204004F04044D1E9000540EA051064
:100B70008D6840EA05208D8940EA0545088A401EB7
:100B800045EA0055087D801E45EA00608D692843CE
:100B90000443501C43F82040002030BD70B504468B
:100BA000A56D00F085F9064694F83500022808D0B6
:100BB0008020606500BF002084F8340000BF012061
:100BC00070BD2068006820F0160021680860206869
:100BD000406920F0800021684861206C08B9A06C51
:100BE00028B12068006820F00800216808602068AB
:100BF000006820F00100216808600FE000F058F95B
:100C0000801B05280AD92020606500BF002084F8D9
:100C1000340000BF032084F83500D1E72068006865
:100C200000F001000028E9D194F85C103F208840D2
:100C3000A86000BF002084F8340000BF012084F8C1
:100C400035000020BCE7014691F83500022803D0AA
:100C50008020486501207047052081F8350008682C
:100C6000006820F001000A6810600020F3E700002F
:100C7000F8B502460B460025002400200021DEE0E6
:100C8000012606FA01F51E6806EA0504AC4275D194
:100C90001E7906F00306012E04D01E7906F0030625
:100CA000022E13D190684F000326BE40B0434F0080
:100CB000DE68BE4030439060506801268E40B043ED
:100CC0001E79C6F300168E40304350601E7906F040
:100CD0000306032E09D0D0684F000326BE40B04360
:100CE0004F009E68BE403043D0601E7906F0030678
:100CF000022E13D1CF0802F1200656F827004E0726
:100D0000F70E0F26BE40B0434F07FF0E1E69BE40D0
:100D10003043CF0802F1200646F8270010684F0044
:100D20000326BE40B0431E7906F003064F00BE40C6
:100D3000304310605E6806F08056B6F1805F7DD16A
:100D400000BF00260096404E366846F480463E4F6F
:100D50003E603E46366806F48046009600BF00BFFF
:100D60003A4E8F0856F827008E07370F0F26BE40E1
:100D7000B043374EB24202D1002624E05EE0354E49
:100D8000B24201D101261EE0334EB24201D1022609
:100D900019E0324EB24201D1032614E0304EB24285
:100DA00001D104260FE02F4EB24201D105260AE000
:100DB0002D4EB24201D1062605E02C4EB24201D1A1
:100DC000072600E008268F073F0FBE4030431F4E26
:100DD0008F0846F82700264E3068A0435E6806F468
:100DE0008036B6F5803F00D12043214E3060361D5D
:100DF0003068A0435E6806F40036B6F5003F00D1C7
:100E000020431B4E361D3060361D3068A0435E689F
:100E100006F48016B6F5801F00D12043144E083624
:100E20003060361D3068A0435E6806F40016B6F5E3
:100E3000001F00D120430E4E0C363060491C102993
:100E4000FFF41EAFF8BD00004438024008380140EE
:100E5000000002400004024000080240000C024072
:100E6000001002400014024000180240001C024022
:100E7000003C0140024613690B400BB1012000E029
:100E80000020704710B5426921EA020302EA01041A
:100E900043EA0443836110BD0AB1816101E00B04A0
:100EA0008361704701480068000C7047002004E02F
:100EB00001480068704700001C00002003480068DB
:100EC0000349097808440149086070471C00002064
:100ED0002400002010B50A48006840F4007008495A
:100EE00008600846006840F480600860032000F055
:100EF0007FF80F2000F006F800F02AF8002010BD5F
:100F0000003C024070B504460E4800784FF47A71F8
:100F1000B1FBF0F00C490968B1FBF0F5284600F090
:100F20009BFC08B1012070BD102C07D20022214685
:100F3000501E00F01EF80548046001E00120F2E7B1
:100F40000020F0E724000020000000202000002006
:100F5000704701460846002809DB00F01F03012204
:100F60009A4043099B0003F1E023C3F8002100BF2E
:100F700070472DE9F05F80460D461646002701F0C8
:100F8000BBF9074639462A46334601F00700C0F14F
:100F9000070ABAF1040F02D94FF0040A01E0C0F1C8
:100FA000070AD14600F1040ABAF1070F02D24FF046
:100FB000000A01E0A0F1030AD4464FF0010A0AFA40
:100FC00009FAAAF1010A0AEA020A0AFA0CFA4FF02F
:100FD000010B0BFA0CFBABF1010B0BEA030B4AEA1A
:100FE0000B042146404601F08FF9BDE8F09F000058
:100FF00000BF00F00702064B19684FF6FF031940C7
:10100000044B0B4343EA0221014B196000BF7047B8
:101010000CED00E00000FA0570B504460D460CB971
:10102000012070BD5848006800F00700A84209D2AE
:1010300055490D700846006800F00700A84201D02D
:101040000120EEE7207800F0020002281DD1207870
:1010500000F00400042805D14C48006840F4E0503A
:101060004A490860207800F00800082805D1474860
:10107000006840F46040454908604448006820F03A
:10108000F000A168084341490860207800F00100A1
:10109000A8B36068012807D13C4808380068C0F34D
:1010A0004040B8B90120BCE76068022802D06068FF
:1010B000032807D1354808380068C0F3406048B9B4
:1010C0000120AEE7314808380068C0F3400008B995
:1010D0000120A6E72D48006820F00300616808435E
:1010E0002A490860FFF7E4FE064609E0FFF7E0FE44
:1010F000801B41F28831884202D9032091E707E042
:101100002248006800F00C006168B0EB810FEDD15F
:101110001D48006800F00700A84209D91A490D705F
:101120000846006800F00700A84201D0012078E7D7
:10113000207800F00400042807D11448006820F447
:10114000E050E168084311490860207800F0080089
:10115000082808D10D48006820F46040216940EA61
:10116000C1000A49086000F03FF808490968C1F366
:101170000311074A515CC8400649086006480068E8
:10118000FFF7C0FE00204CE7003C02400838024058
:101190007E6C030800000020200000200148006849
:1011A000704700000000002000B5FFF7F7FF04497A
:1011B0000968C1F38221034A515CC84000BD0000A8
:1011C000083802408E6C030800B5FFF7E7FF0449BA
:1011D0000968C1F34231034A515CC84000BD0000B8
:1011E000083802408E6C03082DE9F04700240025E2
:1011F0000026A1462548006800F00C0020B1042814
:1012000005D008283AD105E0DFF8849039E0DFF80E
:10121000849036E01D48001F006800F03F041B4822
:10122000001F006800F4800078B11A481749091FB0
:101230000968C1F38811A0FB017001462246002312
:101240003846FFF7A2F805460EE011480F49091F7E
:101250000968C1F38811A0FB0170014622460023F2
:101260003846FFF792F805460848001F0068C0F3AB
:101270000140401C4600B5FBF6F902E0DFF8109093
:1012800000BF00BF4846BDE8F087000008380240B4
:101290000024F40000127A00F8B504460CB90120CD
:1012A000F8BD207800F00100002874D0F9480068EB
:1012B00000F00C0004280DD0F648006800F00C0087
:1012C000082813D1F348001F006800F48000B0F52F
:1012D000800F0BD1EF4808380068C0F34040002869
:1012E00059D06068002856D10120D9E700BF606856
:1012F000B0F5803F08D1E7480838006840F48030F6
:10130000E449083908601EE06068B0F5A02F0DD1EF
:10131000E0480838006840F48020DE490839086059
:101320000846006840F4803008600CE0D94808386E
:10133000006820F48030D749083908600846006802
:1013400020F48020086000BF606890B1FFF7B0FD16
:10135000054606E0FFF7ACFD401B642801D90320D9
:101360009EE7CC4808380068C0F340400028F1D020
:1013700011E0FFF79DFD054606E0FFF799FD401BD4
:10138000642801D903208BE7C24808380068C0F3FD
:1013900040400028F1D1207800F0020002285FD1FF
:1013A000BC48006800F00C0058B1BA48006800F072
:1013B0000C0008281CD1B748001F006800F480000A
:1013C000B0B9B44808380068C0F3400020B1E06804
:1013D000012801D0012063E7AE480838006820F0FA
:1013E000F800216940EAC100AA490839086037E0DD
:1013F000E06800B30120A8490860FFF759FD0546E1
:1014000006E0FFF755FD401B022801D9032047E7FE
:10141000A04808380068C0F340000028F1D09D487B
:101420000838006820F0F800216940EAC1009949B5
:101430000839086014E0002097490860FFF738FD7C
:10144000054606E0FFF734FD401B022801D90320C2
:1014500026E7904808380068C0F340000028F1D122
:10146000207800F0080008282CD16069A8B101207C
:101470008A490860FFF71CFD054606E0FFF718FDE6
:10148000401B022801D903200AE782486C3000681B
:10149000C0F340000028F1D014E000207F4908602C
:1014A000FFF706FD054606E0FFF702FD401B022898
:1014B00001D90320F4E677486C300068C0F340009F
:1014C0000028F1D1207800F00400042870D1002712
:1014D00070483830006800F0805090B900BF00209C
:1014E00000906C483830006840F0805069493831CD
:1014F00008600846006800F08050009000BF00BF00
:1015000001276748006800F48070B0B9644800683B
:1015100040F4807062490860FFF7CAFC054606E0A7
:10152000FFF7C6FC401B022801D90320B8E65C483F
:10153000006800F480700028F2D000BFA068012885
:1015400008D154486830006840F0010051496831C2
:1015500008601DE0A06805280DD14E48683000687D
:1015600040F004004B49683108600846006840F0CC
:10157000010008600CE047486830006820F0010076
:101580004449683108600846006820F0040008609B
:1015900000BFA068A8B1FFF78BFC054609E0FFF784
:1015A00087FC401B41F28831884202D9032077E64C
:1015B00026E0384868300068C0F340000028EED0CC
:1015C00013E0FFF775FC054608E0FFF771FC401BD0
:1015D00041F28831884201D9032061E62D48683004
:1015E0000068C0F340000028EFD1012F07D129483F
:1015F0003830006820F0805026493831086000BF3C
:10160000A069002845D02348006800F00C00082895
:101610005DD0A069022845D100201F490866FFF768
:1016200047FC054606E0FFF743FC401B022801D9B2
:10163000032035E6174808380068C0F340600028EA
:10164000F1D1D4E907010843616A40EA811101221E
:10165000A06AC2EB500041EA00412C20005D41EA43
:1016600000600C49091F086001200B490866FFF75C
:101670001FFC054606E0FFF71BFC401B022801D9B2
:1016800003200DE6034808380068C0F340600028D6
:10169000F1D049E00838024000004742800E47423E
:1016A00000700040002021490866FFF701FC054654
:1016B00006E0FFF7FDFB401B022801D90320EFE500
:1016C0001B480068C0F340600028F2D12CE0A069FC
:1016D000012800D1E4E51648001D0668A06901282C
:1016E00020D006F48001E06981421BD106F03F0161
:1016F000206A814216D147F6C0703040616AB0EB73
:10170000811F0FD106F440310122A06AC2EB5000C4
:10171000B1EB004F06D106F070612C20005DB1EBFB
:10172000006F01D00120BBE50020B9E50000474271
:101730000038024070B504460E4615460CB901202B
:1017400070BD94F8490028B9002084F8480020466C
:1017500000F01CF804F108012068FFF7CFF93146CA
:10176000A2682068FFF7F8F92946236BD4E9010243
:10177000FFF7A0F9A168206850F8210040F00100AF
:10178000A268216841F822000020D9E710B586B090
:10179000044600BF002000902248006840F001008D
:1017A000204908600846006800F00100009000BF72
:1017B00000BF00BF002000901A480838006840F0C1
:1017C00008001849083908600846006800F0080059
:1017D000009000BF00BF00BF0020009008460068D6
:1017E00040F0100008600846006800F0100000900B
:1017F00000BF00BF4CF20370019002200290012054
:101800000390022004900C20059001A90648FFF7E0
:101810002FFA4FF68070019001A90448FFF728FACB
:1018200006B010BD38380240000C024000100240E3
:10183000042808D14FF0E021096941F004014FF07C
:10184000E022116107E04FF0E021096921F0040175
:101850004FF0E0221161704770B504462546681EBE
:10186000B0F1807F01D301200FE0681E4FF0E0212E
:1018700048610F214FF0FF3000F046FD00204FF08F
:10188000E021886107200861002070BD7047704723
:10189000704710B5044620680069C0F34000D8B115
:1018A0002068C068C0F34000B0B16FF0020021684A
:1018B0000861012020772068806900F0030018B1DA
:1018C0002046FFF7E5FF05E0204600F0ADF8204692
:1018D00000F0ABF80020207720680069C0F380009A
:1018E000D8B12068C068C0F38000B0B16FF00400C8
:1018F00021680861022020772068806900F4407028
:1019000018B12046FFF7C4FF05E0204600F08CF830
:10191000204600F08AF80020207720680069C0F394
:10192000C000D8B12068C068C0F3C000B0B16FF08B
:10193000080021680861042020772068C06900F051
:10194000030018B12046FFF7A3FF05E0204600F092
:101950006BF8204600F069F80020207720680069C5
:10196000C0F30010D8B12068C068C0F30010B0B157
:101970006FF0100021680861082020772068C06996
:1019800000F4407018B12046FFF782FF05E02046C2
:1019900000F04AF8204600F048F800202077206840
:1019A000006900F0010058B12068C06800F0010033
:1019B00030B16FF0010021680861204600F036F870
:1019C00020680069C0F3C01058B12068C068C0F337
:1019D000C01030B16FF08000216808612046FFF729
:1019E00055FF20680069C0F3801058B12068C068B6
:1019F000C0F3801030B16FF04000216808612046CC
:101A000000F015F820680069C0F3401058B1206854
:101A1000C068C0F3401030B16FF020002168086149
:101A20002046FFF734FF10BD70477047704770477E
:101A3000704770472DE9F84F044620680568206814
:101A4000C668206847694FF00009CA4605F00F09CB
:101A5000B9F1000F0AD105F0200038B106F02000DE
:101A600020B1204600F075FABDE8F88FB9F1000FFB
:101A700072D007F0010018B906F4907000286BD0FE
:101A800005F0010030B106F4807018B1206C40F010
:101A90000100206405F0040030B107F0010018B126
:101AA000206C40F00200206405F0020030B107F025
:101AB000010018B1206C40F00400206405F008001B
:101AC00048B106F0200010B907F0010018B1206CF1
:101AD00040F008002064206C70B305F0200028B1AD
:101AE00006F0200010B1204600F033FA206840696B
:101AF000C0F3801A206C00F0080010B9BAF1000F92
:101B000023D0204600F0FAF92068406900F0400038
:101B1000402816D12068406920F0400021684861C3
:101B2000A06B50B15648A16B0865A06BFFF78BF80E
:101B300010B1A06B016D88470CE02046FFF779FFDC
:101B400008E02046FFF775FF04E02046FFF771FF2D
:101B50000020206488E7FFE7206B012879D105F099
:101B60001000002875D006F01000002871D000BFCA
:101B70000020009020680068009020684068009075
:101B800000BF00BF2068406900F04000402839D104
:101B9000A06B006840681FFA80F8B8F1000F30D0E1
:101BA000A08D40452DDDA4F82E80A06BC069B0F556
:101BB000807F1FD02068C06820F480702168C860D2
:101BC0002068406920F00100216848612068406970
:101BD00020F0400021684861202084F83E00002069
:101BE00020632068C06820F010002168C860A06BE6
:101BF000FEF7D4FFA08DE28D801A81B22046FFF758
:101C000017FF31E7A08DE18D401A1FFA80F8E08DB3
:101C1000E8B1B8F1000F1AD02068C06820F49070C5
:101C20002168C8602068406920F00100216848618F
:101C3000202084F83E00002020632068C06820F047
:101C400010002168C86041462046FFF7F1FE0BE70F
:101C5000FFE705F0800030B106F0800018B12046A3
:101C600000F00FFB00E705F0400030B106F0400047
:101C700018B1204600F05DF9F6E600BFF4E600007A
:101C8000E91E000810B504460CB9012010BDA0697A
:101C900000B100E000BF94F83D0028B9002084F8AE
:101CA0003C00204600F028F8242084F83D002068FD
:101CB000C06820F400502168C860204600F0A8F9F0
:101CC0002068006920F4904021680861206840691C
:101CD00020F02A00216848612068C06840F4005064
:101CE0002168C86000202064202084F83D0084F82A
:101CF0003E000020CAE7000010B586B004462E4919
:101D00002068884255D100BF00BF002000902B48BA
:101D1000006840F01000294908600846006800F09B
:101D20001000009000BF00BF00BF00BF00BF002038
:101D3000009022481438006840F001001F4914390F
:101D400008600846006800F00100009000BF00BF76
:101D500000BF00BF00BF002000900846006840F0B0
:101D6000010008600846006800F00100009000BF14
:101D700000BF00BF4815019002200290012003908F
:101D8000022004900720059001A90D48FEF770FF7E
:101D90004FF4806001900720059001A90848FEF7E4
:101DA00067FF2520FFF7D5F8032211462520FFF70E
:101DB000E0F806B010BD00000010014044380240B9
:101DC0000000024070B504460D46164694F83E00E9
:101DD000202816D105B10EB9012070BD00BF94F8BE
:101DE0003C00012801D10220F7E7012084F83C00E3
:101DF00000BF0020206332462946204600F01EFA2C
:101E0000EBE70220E9E7000010B50446204920680E
:101E100088423BD11F48008800F4004088BB1D4821
:101E2000008800F4804070B11B4800780A2803D075
:101E300000201849088024E01648008840F400403B
:101E4000144908801DE0144800780D2806D1114877
:101E5000008840F480400F49088012E00E48007866
:101E60000C490988C1F30D010C4A505409480088F7
:101E7000401C0849088008460088C72801DD00206A
:101E80000880012204490648FFF79CFF10BD0000AE
:101E900000100140180000201A0000202C03002030
:101EA000F4030020704700BFFEE700BFFEE7704765
:101EB00010B5FFF703F834F033FA012801D033F0FE
:101EC000F9FF10BD0348006840F470000149086044
:101ED0007047000088ED00E010B50248FFF7D9FC1C
:101EE00010BD00009804002070B50546AC6B0020C2
:101EF000E085E0842046FFF79CFD70BD0168C9685D
:101F000021F490710268D1600168496921F00101F2
:101F100002685161016B012905D10168C96821F08E
:101F200010010268D160202180F83E100021016379
:101F3000704710B504462068C06820F04000216852
:101F4000C860202084F83D002046FFF7ABFF00204A
:101F500010BD70B5044694F83E00222856D1A06802
:101F6000B0F5805F0CD1206950B90025A66A2068C1
:101F70004068C0F308003080A06A801CA06215E0B1
:101F8000A56A0026A068B0F5805F03D0A06828B9D4
:101F9000206918B920684068287004E0206840680B
:101FA00000F07F002870A06A401CA062E08D401EF7
:101FB00080B2E08540BB2068C06820F02000216826
:101FC000C8602068C06820F480702168C8602068FC
:101FD000406920F0010021684861202084F83E001B
:101FE000206B01280AD12068C06820F01000216809
:101FF000C860A18D2046FFF71BFD02E02046FFF7D9
:1020000003FF0020206370BD0020FCE70220FAE7F8
:102010002DE9F84F04462068006920F44050E1683B
:102020000843216808612169A06808436169084381
:10203000E169084300902068C06849F20C61884358
:10204000009908432168C8602068406920F4407006
:10205000A16908432168486176492068884203D015
:1020600075492068884203D1FFF7AEF8814602E047
:10207000FFF79AF88146E069B0F5004F6CD1022075
:102080006168A0FB015003461920A9FB00700146BE
:102090002A463846FEF779F96421B0FBF1F04FEAA1
:1020A000001A02206168A0FB01510B461920A9FB10
:1020B00000712A463846FEF768F9834602206168B7
:1020C000A0FB015003461920A9FB00712A4638469F
:1020D000FEF75BF96421B0FBF1F000EBC00101EB0E
:1020E0000010ABEB8000322101EBC0006421B0FB9B
:1020F000F1F000F0F8000AEB400A02206168A0FB52
:10210000015003461920A9FB007001462A463846B3
:10211000FEF73BF9834602206168A0FB01500346AD
:102120001920A9FB00712A463846FEF72EF96421D2
:10213000B0FBF1F000EBC00101EB0010ABEB800055
:10214000322101EBC0006421B0FBF1F000F0070088
:102150005044216888606AE004206168A0FB015057
:1021600003461920A9FB007001462A463846FEF7AF
:102170000CF9824604206168A0FB01500346192037
:10218000A9FB007001462A463846FEF7FEF8642196
:10219000B0FBF1F000EBC00101EB0010AAEB8000F6
:1021A000322101EB00106421B0FBF1F000F0F00AE5
:1021B00004206168A0FB017003461920A9FB0051AF
:1021C0003A462846FEF7E1F86421B0FBF1F00AEB4D
:1021D000001A04206168A0FB01510B461920A9FBDD
:1021E00000712A463846FEF7D0F88346042061681D
:1021F000A0FB015003461920A9FB007001462A46A6
:102200003846FEF7C2F86421B0FBF1F000EBC001E4
:1022100001EB0010ABEB8000322101EB00106421D8
:10222000B0FBF1F000F00F00504421688860BDE879
:10223000F88F0000001001400014014010B5034663
:1022400099629A85DA8500201864222083F83E007E
:1022500000BF002083F83C0000BF1868C06840F44D
:1022600080701C68E0601868406940F001001C68DC
:1022700060611868C06840F020001C68E0600020C1
:1022800010BD014691F83D00212828D18868B0F59D
:10229000805F0BD1086948B90A6A1088C0F308004A
:1022A0000B685860086A801C086205E00B6A581CBD
:1022B000086218780B685860C88C401E80B2C884C9
:1022C00058B90868C06820F080000B68D8600868BA
:1022D000C06840F040000B68D860002070470220C2
:1022E000FCE7000010B50248FFF7A4FB10BD00009A
:1022F000F403002000BFFEE702480068C0F302209C
:10230000704700000CED00E010B5002804DB0A0760
:10231000130E054A135406E00A07140E034A00F090
:102320000F031B1FD45410BD00E400E018ED00E0C3
:1023300070B50446002508E02168481C2060087834
:10234000303805EB850100EB41052168087800F085
:1023500004F80028F0D1284670BD0146302903DB7F
:10236000392901DC012070470020FCE710B540212D
:10237000074801F0E3FA0022042106482BF080F917
:102380000549086002F002FE00200449087010BDF3
:10239000D0C5002059500008A4020020A00200204F
:1023A00030B50346B1F90040B2F90050AC4202DD4D
:1023B000B1F9004001E0B2F900401C80B1F90240DF
:1023C000B2F90250AC4202DDB1F9024001E0B2F9CB
:1023D00002405C80B1F90440B2F90450AC4202DA28
:1023E000B1F9044001E0B2F904409C80B1F9064023
:1023F000B2F90650AC4202DAB1F9064001E0B2F996
:102400000640DC800120B3F90040B3F90450AC422F
:1024100005DCB3F90240B3F90650AC4200DD002000
:1024200030BDF8B504460D4616460027B4F9000045
:10243000B5F90010884212DBB4F90200B5F90210B8
:1024400088420CDBB4F90400B5F90410884206DCBC
:10245000B4F90600B5F90610884200DC01270FB96F
:102460000020F8BD0EB90120FBE72088ADF8000080
:102470006088ADF8020032466946284600F0A7F8A9
:1024800008B90020EDE7A088ADF800006088ADF83D
:10249000020032466946284600F099F808B9002043
:1024A000DFE72088ADF80000E088ADF80200324692
:1024B0006946284600F08BF808B90020D1E7A088CB
:1024C000ADF80000E088ADF80200324669462846C3
:1024D00000F07DF808B90020C3E70120C1E70246FB
:1024E000B2F90000B1F90430984213DCB2F90400EB
:1024F000B1F9003098420DDBB2F90200B1F90630B3
:10250000984207DCB2F90600B1F90230984201DBCB
:10251000012070470020FCE7F8B504460D4616463A
:10252000B4F90400B5F90010884211DBB4F90600D3
:10253000B5F9021088420BDBB4F90000B5F90410BC
:10254000884205DCB4F90200B5F90610884201DDC5
:102550000120F8BD0EB90020FBE72088ADF800008F
:102560006088ADF8020032466946284600F02FF830
:1025700008B10020EDE7A088ADF800006088ADF854
:10258000020032466946284600F021F808B10020D2
:10259000DFE72088ADF80000E088ADF802003246A1
:1025A0006946284600F013F808B10020D1E7A0885A
:1025B000ADF80000E088ADF80200324669462846D2
:1025C00000F005F808B10020C3E70120C1E72DE9BC
:1025D000FC5F05460E4614464FF0000AB6F90000AF
:1025E000B5F90010884213DBB6F90000B5F9041004
:1025F00088420DDCB6F90200B5F90210884207DB0B
:10260000B6F90200B5F90610884201DC4FF0010A64
:10261000BAF1000F02D10020BDE8FC9F002C01DCC4
:102620000120F9E7284616F036FE834600EBDB7002
:102630004710284616F0A7FD834600EBDB704FEAF3
:102640006008474501DA384600E0404681464C457F
:1026500000DD4C462888ADF800002888204400B2F0
:10266000ADF804006888ADF802006888204400B224
:10267000ADF80600002231466846FFF7A8FF80B19A
:10268000BDF80400204400B2ADF80400BDF8060017
:10269000204400B2ADF806003146684627F018FB2A
:1026A000BAE7E888001B00B2ADF80200E888ADF890
:1026B0000600002231466846FFF789FF80B1BDF869
:1026C0000400204400B2ADF80400BDF80200001B75
:1026D00000B2ADF802003146684627F0F9FA9BE7F0
:1026E000A888001B00B2ADF80000A888ADF804006F
:1026F000002231466846FFF76AFF80B1BDF800004E
:10270000001B00B2ADF80000BDF80200001B00B2D3
:10271000ADF802003146684627F0DAFA7CE76888AF
:10272000ADF802006888204400B2ADF8060000222F
:1027300031466846FFF74BFF80B1BDF80000001B33
:1027400000B2ADF80000BDF80600204400B2ADF8BC
:1027500006003146684627F0BBFA5DE701205BE7DB
:1027600010B5B1F90030B2F90040A34202DAB1F974
:10277000003001E0B2F900300380B1F90230B2F963
:102780000240A34202DAB1F9023001E0B2F90230AC
:102790004380B1F90430B2F90440A34202DDB1F93B
:1027A000043001E0B2F904308380B1F90630B2F9A7
:1027B0000640A34202DDB1F9063001E0B2F906306D
:1027C000C38010BD2DE9FF4104462AF0FAFE0546FC
:1027D0000020039034B14749E068086020462BF0A0
:1027E00067F803E019F0B4FB424908604149096801
:1027F000086927F0CBF93F480068406920B13D499E
:102800000968486927F0C2F93A490968C86927F098
:10281000BDF938490968086A27F0B8F935480068F1
:10282000006940B9002033490968A1F8500100BF90
:1028300000BFBDE8FF8127F04BFD27F091FC2D483C
:102840000068B0F8500100284BD02A4800680068A2
:10285000007CC0F34000E8B12648006819F0F6FBA0
:10286000401E06B22348006819F08AFB401E07B2DA
:102870003B460022114601A8009616F051FD01A822
:102880001C4909680968896B48601A48006805F0A6
:10289000ABFD00BF4FF4807116480068303021F066
:1028A000F4FB20211348006800F5987021F0EDFB3F
:1028B000002010490968A1F8500128462AF074FE4A
:1028C00003900C4800680068406A50B109490968E3
:1028D00008680849096809684B6A07490A68039942
:1028E000984721F009F900F03FF800F007F800BF21
:1028F0009FE70000540100205001002010B5002483
:1029000016E0C4EBC4000C4951F8200030B1C4EB10
:10291000C401094A52F8210021F0A0F9C4EBC40116
:10292000054A02EB81001C2121F0AFFB601CC4B200
:10293000042CE6DB10BD0000ACC600200146094AAD
:1029400010680BE042688A4202D002688A4204D1D1
:10295000027E22F00102521C027640690028F1D169
:1029600070470000280100207047000010B50421C6
:10297000014800F0E3FF10BDC4C5002010B51C21C4
:10298000014800F0DBFF10BDDCC500202DE9FF4F42
:102990008BB004469A46199DBAF1000F11D11898D0
:1029A000B0F5807F0DD10020208060800C98401E03
:1029B00000B2A0800D98401E00B2E0800FB0BDE8CC
:1029C000F08FB5F900004042189948430121C1EB4E
:1029D000202000B22080B5F90200404218994843F7
:1029E0000121C1EB202000B26080B5F900100C98E5
:1029F000401A18994843022101EB202000B2A08020
:102A0000B5F902100D98401A18994843022101EBBC
:102A1000202000B2E080BAF1000F14D1208829886C
:102A2000084400B2208060886988084400B2608051
:102A3000A0882988084400B2A080E08869880844FA
:102A400000B2E080BAE70A209AFBF0F00A900A98F8
:102A5000401C09900A9800EB8000AAEB400B0A98F2
:102A600000B22BF0ABF80890099800B22BF0A6F852
:102A700007900A985A3000B22BF0A0F806900998F7
:102A80005A3000B22BF09AF80590CBF10A01089861
:102A90004143079800FB0B100A2190FBF1F6CBF1A4
:102AA0000A0106984143059800FB0B100A2190FB90
:102AB000F1F776117F11B4F90080B4F9029007FBA9
:102AC00008F006FB1900298801EBA02000B2ADF840
:102AD000100006FB08F007FB0900698801EBA02045
:102AE00000B2ADF81200B4F90480B4F9029007FB0B
:102AF00008F006FB1900298801EBA02000B2ADF810
:102B00000C0006FB08F007FB0900698801EBA02018
:102B100000B2ADF80E00B4F90080B4F9069007FBDE
:102B200008F006FB1900298801EBA02000B2ADF8DF
:102B3000080006FB08F007FB0900698801EBA020EC
:102B400000B2ADF80A00B4F90480B4F9069007FBAE
:102B500008F006FB1900298801EBA02000B2ADF8AF
:102B6000040006FB08F007FB0900698801EBA020C0
:102B700000B2ADF80600BDF90800BDF9101088429A
:102B800002DABDF9080001E0BDF91000BDF904103A
:102B9000BDF90C20914202DABDF9041001E0BDF943
:102BA0000C1088420BDABDF90800BDF910108842FC
:102BB00002DABDF908000DE0BDF910000AE0BDF928
:102BC0000400BDF90C10884202DABDF9040001E0EE
:102BD000BDF90C002080BDF90800BDF91010884235
:102BE00002DDBDF9080001E0BDF91000BDF90410D7
:102BF000BDF90C20914202DDBDF9041001E0BDF9E0
:102C00000C1088420BDDBDF90800BDF91010884298
:102C100002DDBDF908000DE0BDF910000AE0BDF9C4
:102C20000400BDF90C10884202DDBDF9040001E08A
:102C3000BDF90C00A080BDF90A00BDF91210884250
:102C400002DABDF90A0001E0BDF91200BDF9061073
:102C5000BDF90E20914202DABDF9061001E0BDF97E
:102C60000E1088420BDABDF90A00BDF91210884235
:102C700002DABDF90A000DE0BDF912000AE0BDF963
:102C80000600BDF90E10884202DABDF9060001E027
:102C9000BDF90E006080BDF90A00BDF9121088422E
:102CA00002DDBDF90A0001E0BDF91200BDF9061010
:102CB000BDF90E20914202DDBDF9061001E0BDF91B
:102CC0000E1088420BDDBDF90A00BDF912108842D2
:102CD00002DDBDF90A000DE0BDF912000AE0BDF900
:102CE0000600BDF90E10884202DDBDF9060001E0C4
:102CF000BDF90E00E08000BF60E62DE9F74F86B019
:102D0000044620680590B4F908100798A0EB010864
:102D1000B4F90A100898A0EB0109E089B0F5807FAA
:102D200013D1206B00FB08F0E16A01FB1901606A16
:102D300000EBA10BE06A00FB08F0216B01FB09012D
:102D4000A06A00EBA10004902FE0A08980B9A06BDD
:102D500000FB08F04FEA6018A06B00FB09F04FEA97
:102D60006019606A00EB080BA06A484404901CE0FC
:102D7000A06B00FB08F04FEA6018A06B00FB09F0A5
:102D80004FEA6019206B00FB08F0E16A01FB1901B2
:102D9000606A00EBA12BE06A00FB08F0216B01FBED
:102DA0000901A06A00EBA12004904FEA2B260498A9
:102DB0000712B4F90400B04203DC002009B0BDE8FA
:102DC000F08F002E01DA0020F8E7B4F90600B842CF
:102DD00001DC0020F2E7002F01DA0020EEE73420CA
:102DE000005DC0F3800050B33420005DC0F34000AC
:102DF00078B90225B4F904007843684306FB050A54
:102E0000059800EB0A012A4604F1140021F0EBF8C2
:102E10002CE00325B4F904007843684306FB050A57
:102E20006A1E059800EB0A0104F1140021F0DBF89A
:102E30000AEB0500401E0599095CA17516E04FF0EC
:102E4000000A0025208A03463AB231B2019004F10B
:102E500018001DF089FD0290BDF80800A0823AB26A
:102E600031B204F118001DF0DFFCA0753420005DC4
:102E700000F00100B0B14FF47F40002100F47C422B
:102E800041EA5211C0F3C40211430191BDF804207C
:102E900011460291A08ABDF80810884201D1002095
:102EA0008CE700BFE07C08B9012087E70FFA8BF1BF
:102EB000A187049801B2E18731B24020015339B2B1
:102EC00042200153C4F844A084F84850204600F042
:102ED00003F80390039871E72DE9F04F8DB0044695
:102EE000D4F8009094F83C000C9094F83E000B90BD
:102EF0000C9870280BDA4FF0FF35B4F940002844E5
:102F0000002800DA00250C988030C7B213E00C9836
:102F100090280EDD0125B4F940002844B4F90410CE
:102F2000884200DB00250C98C0F1FF008030C7B25A
:102F300001E00025FF270B9870280CDA4FF0FF36D0
:102F4000B4F942003044002800DA00260B988030A3
:102F500000F0FF0815E00B9890280FDD0126B4F96A
:102F600042003044B4F90610884200DB00260B987A
:102F7000C0F1FF00803000F0FF0802E000264FF0B3
:102F8000FF08A08A0A90A07D06900020059004907A
:102F900003903420005DC0F3800000285BD094F8DB
:102FA0004800626C00FB052000EB0901022209A821
:102FB00021F019F8A28894F8480012FB00F2606C26
:102FC00002FB060000EB0901022208A821F00BF821
:102FD000A28894F8480012FB00F2606C02FB060223
:102FE00094F8480000FB052000EB0901022207A825
:102FF00020F0F9FF3420005DC0F3400000287ED0AF
:1030000094F84800616C00FB05110844401E19F853
:1030100000000590A18894F8480011FB00F1606C55
:1030200001FB060194F848000844401E19F800000E
:103030000490A18894F8480011FB00F1606C01FB3A
:10304000060194F8480000FB05110844401E19F8D9
:103050000000039053E0208A0090B4F94220402001
:10306000005B284401B204F11800009B1DF07CFCB9
:103070000990208A00904220005B304402B2B4F9EB
:10308000401004F11800009B1DF06EFC0890208A8F
:1030900000904220005B304402B24020005B284494
:1030A00001B204F11800009B1DF05EFC0790342073
:1030B000005DC0F3400010B3B4F942204020005B33
:1030C000284401B204F118001DF0AEFB0590422027
:1030D000005B304402B2B4F9401004F118001DF056
:1030E000A3FB04904220005B304402B24020005B0E
:1030F000284401B204F118001DF096FB0390BA4673
:10310000BB463420005DC0F34000E0B3069878432E
:10311000C7F1FF0C059B03FB0C00C0F307210498CB
:103120007843C7F1FF0C039B03FB0C00C0F307229D
:1031300001FB08F0C8F1FF0302FB0300030AA375BB
:10314000022905DC022A03DC00200DB0BDE8F08F67
:10315000022901DC4FF00008022A01DC4FF0FF08D1
:103160000698022801DC4FF0000A0598022801DCCD
:103170004FF0FF0A0498022801DC4FF0000B03987F
:10318000022803DC00E002E04FF0FF0B03E0BA4648
:10319000BB46FF21A175BAF1000F02D10998029038
:1031A0000BE0BAF1FF0F02D10A98029005E05246F7
:1031B000DDE9091018F05CF90290BBF1000F02D1B3
:1031C000079801900BE0BBF1FF0F02D10898019026
:1031D00005E05A46DDE9071018F04AF90190B8F108
:1031E000000F03D1BDF80400A0820FE0B8F1FF0F7B
:1031F00003D1BDF80800A08208E04246DDE90110D5
:1032000018F036F90090BDF80000A08201209CE77C
:103210002DE9F05F0446B4F9080001026162B4F9D7
:103220000A000102A162B4F90C000A2190FBF1F539
:103230006F1CB4F90C0005EB8501A0EB4106684258
:1032400000B22AF0BBFC8046784200B22AF0B6FCFD
:103250008146C5F15A0000B22AF0B0FC8246C7F19F
:103260005A0000B22AF0AAFC8346C6F10A0000FB0D
:1032700008F009FB06000A2190FBF1F1E162C6F1BA
:103280000A0000FB0AF00BFB06000A2190FBF1F19B
:103290002163E06A4111E162206B41112163A07C4E
:1032A0001DF071FC3421095D60F3000134200155EB
:1032B000A07C1DF04BFC3421095D60F341013420FA
:1032C0000155A07C042805D0A07C052802D0A07C54
:1032D000062807D13420005D20F00400001D3421B1
:1032E000085505E03420005D20F00401342001552C
:1032F00021682162A06920F0E000A061A17CA069A2
:1033000061F30400A061A188A06961F39420A06129
:10331000E188A06961F35F50A061E08900EBD071A2
:10332000491001F5001191FBF0F2A263FF21A17594
:10333000208AA082BDE8F09F2DE9F7430546164696
:103340000024134C2AF03DF9804633462946204696
:10335000019A1EF0C7F807465FB900BF00BF2C21D5
:10336000204620F092FE4FF00040A0620020BDE811
:10337000FE830020A062E06918B940462AF014F9E3
:10338000E061E06908B90120E0612046EFE7000054
:1033900000C6002010B51421114800F0CFFA1EF02D
:1033A00053F8044600BF1CB900BF00BF00BFFEE7D2
:1033B00000BF14B900BF00BF10BD0A4920461EF06F
:1033C0002BF9094920461EF029F9084920461EF02C
:1033D00027F9074920461EF01DF900BFECE7000061
:1033E000E8C50020650C02083911020855130208CF
:1033F0002D0C020870B504460D461021284620F019
:1034000044FE20680078012804D1208A2880608A40
:1034100068800CE020680078022802D1E0686860CB
:1034200005E020680078042801D10A20686020683F
:10343000406820B1206829464268904701E000BFFB
:1034400000BF70BD2DE9FE430446A66AEEB9A18A0D
:10345000208A084401B2A182E18A608A084401B24C
:10346000E18220460CF0DDFC06460EB9BDE8FE8385
:10347000204610F053FA0022092130461CF03CFA95
:103480006078C0F3400000B1F0E7208A10B9608A8C
:10349000002870D000200290019094F83C0000F0C9
:1034A0000F00032812D1304622F0A8FE074630460E
:1034B00022F02CFE804603200090B4F910103B4609
:1034C000424630460BF0A4FF029012E0304622F054
:1034D00017FF0746304622F08BFD80460C200090F7
:1034E000B4F9121043463A4630460BF091FF019072
:1034F00000BF304622F0DCFD054605F0010028B98A
:10350000BDF90800002801DD0020029005F002004E
:1035100028B9BDF90800002801DA0020029005F062
:10352000040028B9BDF90400002801DD0020019045
:1035300005F0080028B9BDF90400002801DA0020D0
:10354000019001AA02A920462DF0E6FA0023BDF958
:103550000420BDF90810304625F0B0FDA08ABDF862
:103560000810084401B2A182E08ABDF804100844A2
:1035700001B2E18200BF00BF78E72DE9F84F0446B1
:10358000D4F828B0BBF1000F01D1BDE8F88F94F852
:103590003C0000F00F0000B9F7E71EF025FB0646DF
:1035A0003068477E4021584624F0B2FA10B9002115
:1035B00061832183584622F08FFE8046584622F0D0
:1035C00095FE054694F83C0000F00F000C2843D10E
:1035D000002121831DBBB4F91A00C7F164014843DF
:1035E000642190FBF1F001B26183584622F000FDA6
:1035F0008146584622F084FE82460C200090B4F9A1
:103600001A104B46524658460BF002FF6083B4F93D
:103610001A2000231946584625F050FD69E020463F
:103620002DF0D1FA0090002161836A4620462DF0EA
:1036300073FABDF9003041F6FF72514258460CF062
:1036400099FD8146BDF80000484402B201230021E3
:10365000584625F033FD4CE094F83C0000F00F0094
:10366000032846D100216183B8F1000F23D1B4F9BA
:103670001800C7F164014843642190FBF1F001B2E6
:103680002183584622F042FD8146584622F0B6FD7D
:10369000824603200090B4F9181053464A46584613
:1036A0000BF0B6FE2083B4F9181000231A465846D2
:1036B00025F004FD1DE020462DF06AFA009000215F
:1036C00021830022694620462DF026FABDF90030FC
:1036D00041F6FF72514258460CF0B2FC8146BDF8EB
:1036E0000000484401B201230022584625F0E6FCC0
:1036F00000BF208B002860D1608B00285DD11DBBEE
:10370000584622F0FDFD8146584622F071FC824663
:10371000B9F1000F02DCBAF1000F14DDB9F1000FAE
:1037200006DA01234A460021584625F0C7FC0AE084
:10373000BAF1000F07DA0123CAF1000002B200213A
:10374000584625F0BBFC00BFB8F1000F23D1584606
:1037500022F0DCFC8146584622F050FD8246B9F149
:10376000000F02DCBAF1000F14DDB9F1000F06DA28
:10377000012300224946584625F0A0FC0AE0BAF190
:10378000000F07DA01230022CAF1000001B25846F7
:1037900025F094FC00BF32460A2158461CF0ACF8D4
:1037A0006078C0F3400000B1EFE694F83C0020F0F0
:1037B0000F0184F83C100021A16200BFE5E62DE96D
:1037C000FF4104460F4614B918F0C2FB04460CB979
:1037D000BDE8FF811FB90020A4F85001F8E70020E0
:1037E000ADF80800ADF80A00204618F0C9FB401EED
:1037F00000B2ADF80C00204618F028FC401E00B2C4
:10380000ADF80E0002AA39466846FEF7C9FD064625
:1038100006B9DDE72068007CC0F3400060B1029883
:103820002063039860630120A4F85001606810B120
:1038300060682AF049F8CBE72068806918B12068F1
:1038400069468269904700250BE004F1300000EBE7
:10385000C50100226846FEF7E4FD00B1B8E7681C28
:1038600085B2B4F85001A842EFDCB4F8500120282A
:1038700009DAB4F8502104F1300101EBC2006946C5
:1038800015F0F1FB0BE00020A4F85001B4F8502132
:1038900004F1300101EBC20002A915F0E4FBB4F819
:1038A0005001401CA4F85001606810B160682AF013
:1038B0000BF800BF8CE770B50546284600F013F8FA
:1038C000044600260CE02146284600F024F806466F
:1038D0002146284600F086F8204620F0BFF93446FD
:1038E000002CF0D170BD014609B90020704748682E
:1038F000FCE770B5064600243046FFF7F4FF0546A6
:1039000005E0641C2946304600F005F80546002D08
:10391000F7D1204670BD02460B461068001D0344D7
:103920001868704702460B461068034418687047D1
:10393000014609B9002070478868FCE70022426010
:103940008260CA1C22F003010160704770B5044612
:10395000216801F1080020F0B3F80546A5B1002266
:10396000294620462BF01EFA2946204662682BF095
:103970000BFA606820B12A46204661682BF012FAE3
:103980006560A06800B9A560284670BD70B50446A2
:10399000216801F1080020F093F80546A5B1002246
:1039A000294620462BF0F0F929462046A2682BF044
:1039B000F9F9A06820B12A462046A1682BF0E4F965
:1039C000A560606800B96560284670BD014609B908
:1039D00001207047486818B9886808B90120F8E7DD
:1039E0000020F6E72DE9F04104460D460CB9BDE88C
:1039F000F0812046FFF777FFA8420FD129462046E5
:103A0000FFF789FF6060606810B90020A0602FE0B8
:103A10000022204661682BF0C5F929E02046FFF717
:103A200087FFA8420FD129462046FFF77BFFA06001
:103A3000A06810B9002060601AE000222046A1684A
:103A40002BF0A2F914E029462046FFF76BFF06464B
:103A500029462046FFF75FFF07463A463146204693
:103A60002BF092F93246394620462BF09BF900BFE5
:103A700000BFBCE710B504462068806818B1206814
:103A80002146826890472068006828B12068006855
:103A900020602046FFF7EEFF10BD0146886818B190
:103AA0008868B0F9160070470020FCE72DE9F04F58
:103AB00093B005468B4691469A461C9E688C20F032
:103AC0000400001D6884A5F82090328959462846D4
:103AD00023F09AFD1290A5F820A032895946284675
:103AE00023F092FD1190688C20F004006884DDE9D9
:103AF000111088420CD1DDE91110884208D1BDF8BF
:103B00004800BDF84410884202D113B0BDE8F08FE0
:103B1000A5F8209032895946284623F075FD129069
:103B2000A5F820A0594628460EF057FA1090318982
:103B3000109A1068129A28F05EF93089602833D103
:103B400047F6FF711298884202D0119888422BD113
:103B5000284623F080FF0F9000EBD07047102846D6
:103B600023F079FF0F9000EBD0704FEA600847F622
:103B7000FF711298884208D1781C08F1010188422F
:103B800000DA01E008F10100129047F6FF71119888
:103B9000884208D1781C08F10101884200DA01E06E
:103BA00008F10100119000BF2448FFF7CFFE044642
:103BB00000BF1CB900BF00BF00BFFEE700BF04B9D3
:103BC000A3E71298E06011982061ACB325603089BA
:103BD000A080C4F808B0684614F00CFC2146684682
:103BE00014F0BBFC1649684614F087FC1548029097
:103BF00000BF1549684614F08EFCFF22002168467C
:103C000014F09BFC3188684614F08DFC718868467E
:103C100014F06EFCF068069000BF6846002190F832
:103C20003E2061F3000280F83E2000BF306905901D
:103C3000684614F0A9FC00BF00BF66E7F4C5002089
:103C4000AD4D030859500308894F030810B51421DE
:103C50000148FFF773FE10BDF4C500202DE9FE4FAB
:103C600004460F4690464FF0000900256BE1E068DE
:103C700000EBC5004068C0F3406000B162E1E1685C
:103C800001EBC501496821F07F4025F07CFF064625
:103C900026EA070008B9012000E00020029026EA89
:103CA000080008B9012000E000200190DDE90101D1
:103CB000814272D0E06850F835A04FF0000B6A46A0
:103CC00041F61001504627F02FFD10B14FF0010BC7
:103CD000A9E06A4641F61101504627F025FD10B1D2
:103CE0004FF0010B9FE06A4641F61201504627F063
:103CF0001BFD10B14FF0010B95E06A4641F6130130
:103D0000504627F011FD10B14FF0010B8BE06A46D1
:103D100041F61501504627F007FD10B14FF0010B99
:103D200081E06A4641F61401504627F0FDFC10B1CF
:103D30004FF0010B77E06A4641F26901504627F0E7
:103D4000F3FC10B14FF0010B6DE06A4643F20C0139
:103D5000504627F0E9FC10B14FF0010B63E06A46D2
:103D600043F20D01504627F0DFFC10B14FF0010B7C
:103D700059E06A4641F20101504627F0D5FC10B1E6
:103D80004FF0010B4FE06A4641F20401504627F024
:103D9000CBFC18B14FF0010B45E0D2E06A4641F28E
:103DA0000201504627F0C0FC10B14FF0010B3AE081
:103DB0006A4641F20301504627F0B6FC10B14FF0BD
:103DC000010B30E06A4641F20501504627F0ACFC99
:103DD00010B14FF0010B26E06A4641F20601504651
:103DE00027F0A2FC10B14FF0010B1CE06A4641F233
:103DF0003201504627F098FC10B14FF0010B12E051
:103E00006A4643F60F01504627F08EFC10B14FF082
:103E1000010B08E06A4643F60E01504627F084FC89
:103E200008B14FF0010BBBF1000F02D00320BDE839
:103E3000FE8F6A4640F60A01504627F075FC10B125
:103E40004FF002097CE06A4640F60B01504627F02D
:103E50006BFC10B14FF0020972E06A4643F60F01A5
:103E6000504627F061FC10B14FF0020968E06A4645
:103E700043F60E01504627F057FC10B14FF00209EF
:103E80005EE06A4640F63C01504627F04DFC10B11A
:103E90004FF0020954E06A4640F63D01504627F0D3
:103EA00043FC10B14FF002094AE06A4640F63A017D
:103EB000504627F039FC10B14FF0020940E06A4645
:103EC0004FF40461504627F02FFC10B14FF0020967
:103ED00036E06A4640F64501504627F025FC10B111
:103EE0004FF002092CE06A4640F64101504627F0A7
:103EF0001BFC10B14FF0020922E06A4640F6420175
:103F0000504627F011FC10B14FF0020918E06A4644
:103F100040F64301504627F007FC10B14FF002096C
:103F20000EE06A4640F64901504627F0FDFB10B10D
:103F30004FF0020904E0B9F1000F01D14FF001097F
:103F400000BF00BF6D1C608CC0F3C500A8423FF6E7
:103F50008EAE48466BE700000148006870470000DD
:103F60005401002070470146C1F30412072A00DD06
:103F70000722D0B27047000010B518210348FFF7A0
:103F8000DDFC012029F0B8FB10BD0000A0C5002019
:103F90002DE9F04105460F4616460DB9BDE8F08102
:103FA0002846FCF787FB8046394628460A4A1268AD
:103FB00090470746E8193146074A12689047064677
:103FC0003C4603E0A019285C2855641CA8EB0600B9
:103FD000A042F7D200BFE1E7F00200202DE9F04156
:103FE00006460C4617461D4629463046084A1268C2
:103FF00090472060206830B1296888190021044A60
:104000001268904700E000203860BDE8F0810000B1
:10401000E80200202DE9F04F87B004460F46924693
:104020009846DDE910560DB1002028801CB900200B
:1040300007B0BDE8F08F207808B90020F8E70FB985
:104040000020F5E74FF0000906F0020010B906F075
:10405000040098B1002000E0401C215C0A2905D032
:10406000215C0D2902D0215C0029F5D1215C01B130
:10407000401C15B14FF0FF312980D9E706F002004E
:1040800008B141F6FF7800200690059038E0002046
:104090000490059808B9012000E0002006A904AAB0
:1040A000CDE90062CDE902100599601843465246F9
:1040B000394629F0BBFD83460498A8EB00000FFAAF
:1040C00080F8049848440FFA80F9BBF1000F00D142
:1040D0001CE005985844059020780A2802D02078E2
:1040E0000D2800D112E00598205C0A2803D005981D
:1040F000205C0D2803D10598401C059006E000BF08
:104100000598205C10B1B8F1000FC0DC00BF059825
:1041100070B905A92046094A12689047834635B10F
:104120000022594638461BF03AFE0FFA80F900BFCC
:104130000DB1A5F8009005987AE70000E80200208C
:104140002DE9F04706468846174606B10FB9BDE887
:10415000F0873046FCF7AEFA81463846FCF7AAFAFB
:10416000044604B9F3E704EB090A414630460B4A1A
:10417000126890478046554603E0281B305C705516
:104180006D1E08EB0400A842F7D906EB0800224692
:1041900039461FF034FF00BFD9E70000F0020020CD
:1041A000024600200FA31B788B4211D113781BB954
:1041B0000123137001200BE01378012B02D100239F
:1041C000137005E01378022B02D100231370012035
:1041D0001378012B04D1202901D10223137001206F
:1041E000704700002300000073B582B006460398B4
:1041F0000190324600210846019B2AF033F805461B
:10420000002001900024681C1FF05AFC044600BFE7
:104210001CB900BF00BF00BFFEE700BF14B90020FB
:1042200004B070BD002060553246691C2046039BD7
:104230002AF018F82046F3E72DE9F04781460E46AC
:1042400014461F46DDF820A035461BE0600800FB41
:10425000075529464846D047B0F1000809DD04F06B
:10426000010080F00100C0EB5404E8190546064641
:1042700008E0B8F1000F02DA6408354602E028468B
:10428000BDE8F087002CE1D10020F9E72DE9FF4FD0
:1042900085B08346DDE9158ADDE91349DDE9177547
:1042A000129E05F00200F8B94FB105F0010030B1DF
:1042B000B9F1000F02D105F00C0000B17F1E03E040
:1042C00030222046641C3254544501D2202CF7D3AE
:1042D00003E030222046641C325405F0010018B17E
:1042E000BC4201D2202CF4D305F01000B0B305F489
:1042F000806050B94CB1544501D0BC4205D1641E18
:104300001CB1B8F1100F00D1641EB8F1100F09D123
:1043100005F0200030B9202C04D278222046641CFD
:10432000325415E0B8F1100F09D105F0200030B17A
:10433000202C04D258222046641C325408E0B8F1E4
:10434000020F05D1202C03D262222046641C325475
:10435000202C03D230222046641C3254202C16D24A
:10436000B9F1000F04D02D222046641C32540EE017
:1043700005F0040020B12B222046641C325406E0D4
:1043800005F0080018B120222046641C3254CDE903
:104390000275CDE90064584606A90EC900F0A2F8DE
:1043A00009B0BDE8F08F2DE9FF4F8FB08046DDE901
:1043B0001FABDDE91D96219D1C9C00270CB925F043
:1043C000100505F4806000B1E4B100BFB4FBF6F164
:1043D00006FB1141C8B20A2802DA00F1300107E0F9
:1043E00005F0200109B1412100E0612101440A39B1
:1043F000CBB239467F1C07AA5354B4FBF6F40CB178
:10440000202FE3D307A8CDE904AB8DE88102039602
:104410000695404610A90EC9FFF738FF13B0BDE856
:10442000F08F2DE9FF4F8FB0DDE9217BDDF8908023
:10443000209EDDE91C454FF00009002184EA0100BF
:104440006940084301D128F0100808F4806028B1C1
:10445000002184EA0100694008432DD000BF3246A4
:104460003B4620462946FBF790FF02F0FF0ABAF1CF
:104470000A0F02DA0AF1300007E008F0200008B164
:10448000412000E0612050440A38C2B2484609F198
:10449000010907A90A5432463B4620462946FBF744
:1044A00074FF04460D46002184EA01006940084378
:1044B00002D0B9F1200FD2D32398CDE9036BCDE917
:1044C000050807A91E98CDE9001902900FA80FC88A
:1044D000FFF7DCFE13B0BDE8F08F9A4200D288549B
:1044E000704770472DE9FF5F05461446DDE90EA6CB
:1044F000DDE91087A34607F0020078B907F0010054
:1045000060B9B14607E02246641C2020039B019954
:10451000A84709F10109C145F5D300BF08E02246CB
:10452000641C711E0E461AF80100039B0199A847EE
:10453000002EF4D107F0020050B105E02246641CC1
:104540002020039B0199A847A4EB0B004045F5D31D
:10455000204604B0BDE8F09F00BF70472DE9FF4F33
:104560008BB0074600250C9800B9FA4FEAE20E9886
:10457000007825280AD02A466D1C0E990878DDE9B6
:104580000C13B8470E98401C0E90DBE20E98401CAE
:104590000E90002400BF0E9800782B2819D004DC60
:1045A00020281ED023282CD123E02D2809D0302804
:1045B00027D144F001040E98401C0E9001200A906F
:1045C00022E044F002040E98401C0E9001200A9054
:1045D0001AE044F004040E98401C0E9001200A904A
:1045E00012E044F008040E98401C0E9001200A903E
:1045F0000AE044F010040E98401C0E9001200A902E
:1046000002E000200A9000BF00BF0A980028C2D133
:1046100080460E990878FDF7A0FE20B10EA8FDF7A0
:1046200087FE804612E00E9800782A280ED118994D
:1046300001C91891002804DA44F00204C0F100080E
:1046400000E080460E99491C0E9100BF4FF0000912
:104650000E9800782E281FD144F480640E98401CD8
:104660000E900E990878FDF778FE20B10EA8FDF7A0
:104670005FFE814610E00E9800782A280CD1189928
:1046800001C91891002801DD014600E0002189469A
:104690000E99491C0E9100BF0E9800786C280AD024
:1046A00004DC682816D06A2835D128E0742820D088
:1046B0007A2830D129E044F480740E98401C0E9082
:1046C0000E9800786C2804D144F400740E98401CB5
:1046D0000E9021E044F080040E98401C0E900E983D
:1046E0000078682804D144F040040E98401C0E90D5
:1046F00012E044F480740E98401C0E900CE044F4D8
:1047000000740E98401C0E9006E044F480740E98DD
:10471000401C0E9000E000BF00BF0E980078692892
:104720001DD00EDC622821D006DC25287ED0502842
:104730001AD058287BD115E0632879D06428F9D1A4
:104740000CE0732875D004DC6F280ED07028F1D1EE
:1047500009E0752804D07828ECD102E000BF00BF42
:1047600000BF00BF00BF00BF00BF00BF0E980078B1
:10477000782803D00E980078582801D1102623E01D
:104780000E980078702803D00E98007850280CD12D
:10479000102644F0100444F480740E984078562893
:1047A00012D10E98401C0E900EE00E9800786F28E3
:1047B00001D1082608E00E980078622801D102266F
:1047C00002E00A2624F010040E980078582803D03E
:1047D0000E980078502801D144F020040E980078FB
:1047E000692805D00E980078642801D024F00C04C4
:1047F00004F4806008B124F001040E980078692860
:1048000003D00E98007864287CD104F40070B8B30B
:104810001898C01D20F007001890D0E900AB189A36
:10482000083218920020CDE9069803E073E17CE19C
:10483000F2E01CE1CDE904600894BAEB00017BEBE7
:10484000000001DA012000E000200021029008466B
:10485000B1EB0A0170EB0B0002DA5046594605E055
:1048600000200146B0EB0A0061EB0B01CDE900012D
:104870002A463846DDE90C13FFF7D3FD0546C7E0AD
:10488000FFE704F48070D0B1189850F804AB18908A
:104890004FEADA70CDE9039802960594BAF1000F59
:1048A00001DD514601E0CAF10001CDE900102A46C0
:1048B0003846DDE90C13FFF776FD0546A8E004F065
:1048C000400028B1189810F8041B1890C8B20DE0E9
:1048D00004F0800028B1189830F8041B189008B232
:1048E00004E0189800681899091D189182464FEA4B
:1048F000DA70CDE9039802960594BAF1000F02DD53
:10490000514602E00BE0CAF10001CDE900102A4651
:104910003846DDE90C13FFF746FD054678E00E98B2
:104920000078562818D1189850F804AB1890DAF887
:1049300004000068099009980090DAF800300D989A
:10494000421B0C9841193846FFF708FE0544002029
:1049500009905DE0E344000804F40070D0B11898B9
:10496000C01D20F00700CDE906980894189000209B
:10497000CDE904600290189903C9189A0832189278
:10498000CDE900012A463846DDE90C13FFF749FD61
:1049900005463DE004F4807098B10022CDE903980B
:1049A00002960594189800681899091DCDE900022F
:1049B00018912A463846DDE90C13FFF7F4FC05464A
:1049C00026E004F0400028B1189810F8041B189055
:1049D000C8B20DE004F0800028B1189830F8041B2C
:1049E000189088B204E0189800681899091D189169
:1049F00082460020CDE900A0CDE9039802960594F7
:104A00002A463846DDE90C13FFF7CDFC054600BF0A
:104A10000E98401C0E9093E0012604F0020050B95D
:104A200005E02A466D1C2020DDE90C13B84730460E
:104A3000761C4045F5D3189911F8043BD8B22A46A4
:104A40006D1C1891DDE90C13B84704F0020050B159
:104A500005E02A466D1C2020DDE90C13B8473046DE
:104A6000761C4045F5D30E98401C0E9068E01898CF
:104A700050F804AB18905046B9F1000F01D04946E8
:104A800001E04FF0FF310A46014600E0491C0B7877
:104A90001BB1131EA2F10102F8D10E1A04F48060BA
:104AA00028B14E4501D2304600E04846064604F0A3
:104AB000020050B905E02A466D1C2020DDE90C13E8
:104AC000B8473046761C4045F5D306E01AF8010B8E
:104AD0002A466D1CDDE90C13B8479AF8000040B176
:104AE00004F480600028F1D0B9F10000A9F10109B7
:104AF000ECD104F0020050B105E02A466D1C2020E4
:104B0000DDE90C13B8473046761C4045F5D30E98C6
:104B1000401C0E9014E02A466D1C2520DDE90C1384
:104B2000B8470E98401C0E900AE02A466D1C0E995C
:104B30000878DDE90C13B8470E98401C0E9000BFB2
:104B400000BF00BF0E98007800287FF410AD0D98CC
:104B5000854201D2284601E00D98401E0246002001
:104B6000DDE90C13B84728460FB0BDE8F08F2DE9FA
:104B7000F04104460E46002774B13146204600F04D
:104B80002DF80546B5F5803F05D20C2D01D92846F4
:104B900000E00C20074600BF3846BDE8F081024621
:104BA00000BF481E084018B100BF00BF00BFFEE7AD
:104BB00000BF481E1040101A704710B502464B1E29
:104BC00013444C1E23EA040000BF4B1E0B401BB1D4
:104BD00000BF00BF00BFFEE700BF10BD024600BF20
:104BE000481E084018B100BF00BF00BFFEE700BF6D
:104BF000481E10444B1E9843704700002DE9F041B9
:104C000080460E46444601206086002500270DE0C0
:104C100056F8270025A1FBF735FE10B1681C85B2B8
:104C200002E0608E401C6086781C87B256F8270030
:104C300020B156F8270000780028E9D1208EA8423C
:104C400001D1BDE8F081A06A20B1A06A1FF006F88A
:104C50000020A062E06A20B1E06A1EF0FFFF0020A1
:104C6000E062E8001EF02CFFA06200BFA06A18B945
:104C700000BF00BF00BFFEE700BF68001EF020FFBE
:104C8000E06200BFE06A18B900BF00BF00BFFEE7E6
:104C900000BFA06A08B1E06A00B900256900E06AB7
:104CA0001FF0F3F9258600BFCBE700000A000000E3
:104CB0002DE9F84F81460E46924699F8090000F01A
:104CC0000700022801D1304600E050468346564591
:104CD00001DD304600E050460746032000EB470068
:104CE00020F0030000F110053948006839490968CF
:104CF000A0EB0108002405EB080037490968884249
:104D000006D233480468606820F0004060603AE0F2
:104D100031480068854221D813E04FF0FF30009001
:104D2000002269462D480FF049FB002269462C48B5
:104D30000FF044FB2648006826490968A0EB0108EB
:104D400000BF08EB0500244909688842E5D82048DF
:104D50000468606820F00040606014E028461EF09F
:104D6000AFFE044600BF1CB900BF00BF00BFFEE796
:104D700000BF14B90020BDE8F88F606820F0004043
:104D800000F10040606032465946484601F06CFE32
:104D90002060606800F04040401C6060606820F067
:104DA00080406060A781A4F80EB06068C00F20B199
:104DB000204600F11001A16008E0054800681030AD
:104DC000A060034800682844014908602046D2E7F3
:104DD0005C010020B80200205801002005FE0008F8
:104DE000A1450108F0B585B006460D4634460020C1
:104DF00004900390029094F83C0000F0030020B16E
:104E0000012838D0022866D000BF94F83C0000F09A
:104E100003005A49097888421BD02620005D00EB28
:104E2000001000EB4000142190FBF1F05449087091
:104E30002720005D00EB001000EB4000142190FBE8
:104E4000F1F05049087094F83C0000F003004B4921
:104E5000087002A803A9CDE9001005EB45014FF643
:104E6000FF7202EA410004AB46490A7844490978D6
:104E70000AF09EFC5FE094F83C0000F003003F491C
:104E8000097888421AD0A08C00EB400040024FF411
:104E9000B471B0FBF1F03C4908802720005D00EBC5
:104EA000001000EB4000142190FBF1F03549087030
:104EB00094F83C0000F003003049087002A803A9F0
:104EC000CDE90010E9B204AB2E4802782E480088E4
:104ED0000AF06EFC2FE094F83C0000F00300274934
:104EE000097888421AD0A08C00EB400040024FF4B1
:104EF000B471B0FBF1F0244908802620005D00EB7E
:104F0000001000EB4000142190FBF1F01C490870E8
:104F100094F83C0000F003001849087002A803A9A7
:104F2000EAB204ABCDE900101548017816480088B4
:104F30000AF03EFC00BF00BF9DF810009DF80C1069
:104F40009DF80820D708BDF8003067F304038F08E8
:104F50000093BDF8003067F34A13C7080093BDF80B
:104F6000003067F3CF230093BDF800703B460193F8
:104F7000BDF80410084605B0F0BD00000E02002088
:104F80000C0200200D0200200A02002010B50120B2
:104F9000074908700748FEF7A6FC20B906480068D4
:104FA00028F086FC03E00448006828F08DFC10BD62
:104FB000A0020020D0C50020A402002010B50446A5
:104FC00094F83E00C0F3400050B9A08F002807DDE0
:104FD000A08F4FF6FF71884202D0A08F401EA0879D
:104FE000A08FA8B9606B20B194F83E00C0F34000D8
:104FF00070B121461748FEF7F5FCFFF7C7FFE068E0
:1050000010B12046E168884720461EF027FE1FE0C9
:10501000A06B4042E062606BD0B194F83E10C1F3E7
:10502000400111B9216B4942E16294F83E104908F0
:10503000C94394F83E2061F3410284F83E20E069C0
:10504000616AE1616062A06A616BA162606300BF36
:1050500010BD0000D0C500202DE9F0418046424837
:10506000006828F0A1FA06464048007880F0010068
:105070003E4908703E48FEF736FC04466BE00020CF
:105080003C49087094F83E00C0F380003749097825
:10509000884253D0354801782C34A07C61F38200DB
:1050A000A07420688719A07C2C3CC0F3C00010BB02
:1050B000E06A00281FDC002F1DDB94F83E0000F0A2
:1050C000010060B9206950B1204621698847054632
:1050D000E0692844E061606A2844606200BFA0681B
:1050E00010B12046A168884794F83E0020F00800DF
:1050F000083084F83E00E06A3044E062E06A00284C
:105100001BDBD4E90A10884201DDA06AE062204678
:10511000A16988470546206AA84206D025626068D2
:1051200018B12946D4E900029047D4E90A10884210
:1051300002DB2046FFF742FF00BF00BF0D480078AA
:1051400020B10B48FEF7CFFB044604E02146084897
:10515000FEF7E1FB0446002C91D128F032FA024917
:105160000860BDE8F08100009C020020A102002040
:10517000D0C50020A0020020F7B582B004460E463C
:1051800014B9049805B0F0BD00BF63223146204633
:1051900022F03AFA0190019D00BFBDB12868A8B184
:1051A00000BF64223146204622F02EFA0190019879
:1051B000C0B207464FB13A462B6828460499984733
:1051C0000190BDF80400ADF8100000BF0498D9E7C5
:1051D00070B504460D46606818B129466068FFF74F
:1051E000F7FF206818B1294620462268904770BD15
:1051F00070B505460C46A1B2284613F061FE70BD9D
:1052000070B505460C46A1B2284613F0AAFE70BD43
:1052100070B504460D4600BF204600F03BF818B1BB
:1052200000BF00BF00BFFEE700BF284600F050F9F6
:10523000001D616808446060204600F03AF820468E
:1052400070BD70B505460C46284600F041F904F1E2
:105250001001884201D3012070BD0020FCE7014607
:10526000A1F1080070477CB505460C46204600F0C9
:105270002FF906466A4601A929F036FB2146284641
:10528000DDE900320EF01CFC7CBD0146087900F01F
:105290000100704710B50446204600F019F908B91E
:1052A000012010BD0020FCE70146087900F0020053
:1052B000704770B50446204600F097F805462C600C
:1052C000284670BD7CB506460C4600200190009033
:1052D00000256CB16A4601A9204629F022FB0198FD
:1052E0000A2805DA6A4601A930462BF053FD054627
:1052F00085B100BF284600F0EBF8A04203D200BF02
:1053000000BF00BFFEE700BF29463046DDE900329E
:105310002BF0A8F928467CBD70B504462046FFF75F
:10532000C8FF0546284600F0BEF8204600F0B6F853
:1053300070BD70B50446204600F057F80546284673
:1053400000F0B6F8204600F0BEF870BD70B5064615
:105350000D46284600F049F8044600BF1CB900BFBE
:1053600000BF00BFFEE700BF2046FFF78EFF90B1F1
:1053700000BF2846FFF78EFF18B100BF00BF00BF77
:10538000FEE700BF2146304600F076F82146284669
:10539000FFF73EFF0546284670BD70B506460D4630
:1053A0002846FFF781FFF0B1284600F057F8044681
:1053B00000BF1CB900BF00BF00BFFEE700BF00BFB9
:1053C0002046FFF762FF18B900BF00BF00BFFEE72D
:1053D00000BF2146304600F04FF829462046FFF72F
:1053E00017FF054600BF284670BD2DE9F041044671
:1053F000204600F06DF8061F204600F0B8F807467A
:10540000314629F083FD054600BF2046FFF742FFE5
:1054100018B100BF00BF00BFFEE700BF2846BDE8CF
:10542000F0812DE9F04106460C461546002794B15F
:1054300000BF1DB900BF00BF00BFFEE700BF2A4686
:105440002146304600F097F82046FFF772FF2046CD
:1054500000F08DF807463846BDE8F08110B50446E7
:1054600000BF2046FFF720FF18B900BF00BF00BFF4
:10547000FEE700BF206810BD7CB505460C462046FF
:1054800000F026F806466A4601A929F02DFA2146C1
:105490002846DDE900322BF0E5F87CBD416841F09B
:1054A000010141607047416841F00201416070476D
:1054B000416821F0020141607047426802F0030335
:1054C0000B4343607047416821F001014160704720
:1054D0000146486820F0030070472DE9F047064672
:1054E0000C46304600F043F88046211F29F00EFD9F
:1054F00007463046FFF7ECFF211D451A00BF38462E
:1055000000F035F88146384600F031F88046042135
:10551000FFF753FB814503D000BF00BF00BFFEE78C
:1055200000BF00BF3046FFF7D3FF2919091D88428D
:1055300003D000BF00BF00BFFEE700BF29463846CA
:10554000FFF7BBFF00BF3846FFF7C2FF0C2803D2AE
:1055500000BF00BF00BFFEE700BF21463046FFF797
:10556000ACFF3846FFF7D8FE3846BDE8F087014665
:1055700001F1080070472DE9F04106460C4615463A
:1055800000BF2046FFF781FE18B900BF00BF00BF73
:10559000FEE700BF29462046FFF753FE78B12946B3
:1055A0002046FFF79AFF07462046FFF782FE38465F
:1055B000FFF779FF39463046FFF755FE00BFBDE8DB
:1055C000F0812DE9F04106460C46154600BF204605
:1055D000FFF75BFE18B100BF00BF00BFFEE700BFD2
:1055E00029462046FFF72DFE88B129462046FFF7C1
:1055F00074FF07463846FFF75BFF39463046FFF732
:10560000A5FE074639463046FFF72DFE00BFBDE830
:10561000F0812DE9F843064634461CF0E5FA804651
:1056200040461CF026FB78BB304619F078FE38B3B4
:10563000304619F0F0FC208FE18E884212D0E08EC7
:105640002087E08E00906A461C2130461AF054F9FB
:105650000746012F02D03846BDE8F883304622F0D5
:10566000F4FD00BF40461CF014FB0546042D06D196
:10567000304620F04BFC074600211BF0A8F809E05B
:10568000304619F0AFFE05E0FFE7208FE086304698
:1056900022F0DBFD0120DFE72DE9F0410446204642
:1056A0001AF024F90546284620F08AFC06462846CA
:1056B00014F0B4FC074601223946304627F08AF838
:1056C000BDE8F0810146C1F3C01070470146C1F347
:1056D000801070470146C1F3C01070470146C1F306
:1056E000002070470146C1F3C00070470146C1F376
:1056F000401070470146C1F3402070470146C1F396
:10570000003070470146C1F3001070472DE9F04F9B
:1057100089B004460D460021204620F0ECFA30B94D
:105720001C2128461EF0B1FC09B0BDE8F08F2946C7
:10573000204600F00BFB2946204600F07DF80021B2
:10574000204621F00BFD08900021204621F08CFE20
:1057500007900021204621F0C1FA012800D100E085
:10576000002081460021204622F034F9074600211E
:10577000204621F0A1FB064642F2D170874205D1B6
:10578000608CC0F3802008B9012000E00020824630
:10579000204620F050FB069000BF4FF00008244840
:1057A00002884146204621F02FFF03900398C0B2A3
:1057B00000BF8346AA6829692868CDE90209CDE9B6
:1057C00000125A465146089B06980CF093FC288319
:1057D00042F2D170864205D1608CC0F3402008B9F6
:1057E000012000E000200590204620F005FB0490F9
:1057F00000BF4FF000080F4802884146204621F0C4
:1058000003FF03900398C0B200BF83460023EA68F9
:1058100069686869CDE90213CDE900025A46079B21
:10582000DDE904010CF066FC688300BF7CE7000042
:1058300082010020860100202DE9F34F87B00C463D
:1058400007980BF075FC8046079820F0F4FA069054
:10585000404601F084F92061216948001EF06AF990
:105860002060216948001EF065F9A060002548E02D
:105870005848029038F9150041F69A7188423FD194
:105880000020019029E00199079820F034FA009057
:105890005149009822F047F900B11BE000980BF045
:1058A00065FC8246BAF1010F00D013E000980BF0BE
:1058B0004DFC8346AB4500D00CE0009822F0CBF8BD
:1058C0000299884201DA029802E0009822F0C3F8B7
:1058D000029000BF0198401C0190079820F029FA1F
:1058E00001998842CFD80298002804DB0298A16869
:1058F00021F8150003E00021A06820F8151000BF72
:105900006D1C2069A842B3D80026B14600251BE0D3
:1059100038F9150041F69B71884202DB411A0E44AA
:1059200011E041F69A71884206D1A16831F815104C
:1059300049440FFA81F906E0A16821F8150009EB46
:1059400000010FFA81F96D1C2069A842E0D80021FE
:10595000079821F003FC05902169491EDDE9050245
:1059600000FB112000B206900698A0EB090007B2D8
:10597000002F00DA00274FF0FF3004900020039042
:10598000002513E038F9150041F69B7188420CDBC5
:10599000421A11B207FB01F2B2FBF6F212B2A3688F
:1059A00023F815200495039100BF6D1C2069A842BF
:1059B000E8D8049800280ADB0398301A7843B0FB33
:1059C000F6F0381A01B2A268049822F8101009B053
:1059D000BDE8F08F01E0FFFF010006002DE9FC5F4C
:1059E000054600221146284623F0F4FC00212846F3
:1059F00021F0DBF981460021284621F05CFD484476
:105A000007B20021284621F00DFB48440FFA80FA26
:105A1000284621F0C9F8384450440FFA80FB3B4E29
:105A2000284620F086F901904FF000085CE0A86855
:105A3000006850F828403649204622F074F800B13A
:105A400050E0204622F07EFC002839D1002120467B
:105A500021F0DCF80090009830B1012807D002282E
:105A600004D0032815D100E000BF00BF00BFB4F987
:105A70001A10B5F91600081A401CB04201DA304677
:105A800005E0B4F91A10B5F91600081A401C06B260
:105A900014E00021204621F0D1FF70B904F1140078
:105AA00013F039FB3844B04201DA304604E004F127
:105AB000140013F030FB384406B200BF00BF10E002
:105AC000B4F91A10B5F91600081A401CB04201DAF0
:105AD000304605E0B4F91A10B5F91600081A401C52
